:020000040800F2
:1000000038340120916700081D6500081F6500084D
:100010002165000823650008256500080000000030
:10002000000000000000000000000000E15B00088C
:100030002765000800000000895B000829650008AA
:1000400005680008096800080D68000811680008C4
:1000500015680008196800081D6800082168000874
:1000600025680008296800082D6800083168000824
:1000700035680008396800083D68000841680008D4
:1000800045680008496800084D6800085168000884
:1000900055680008596800085D6800086168000834
:1000A00065680008696800086D68000871680008E4
:1000B00075680008796800087D6800088168000894
:1000C00085680008896800088D6800089168000844
:1000D00095680008416500084B65000855650008F3
:1000E000996800089D680008A1680008A5680008D4
:1000F000A9680008AD680008B1680008B568000884
:10010000B9680008BD680008C1680008C568000833
:100110005F650008C9680008CD680008D16800085C
:10012000D5680008D9680008DD680008E1680008A3
:10013000E5680008E9680008ED680008F168000853
:10014000F5680008F9680008FD6800080169000802
:1001500005690008096900080D69000811690008AF
:1001600015690008196900081D690008216900085F
:1001700025690008296900082D69000800000000B1
:10018000316900083569000800B587B068461C2150
:1001900000F0D4FF5FF02040DFF8541C0860DFF867
:1001A000540CDFF84C1C48600020DFF8441C8860C9
:1001B0000020DFF83C1CC8600020DFF8341C086118
:1001C0001020DFF82C1C48610020DFF8241C886117
:1001D0000020DFF81C1CC8610020DFF8141C086236
:1001E0000020DFF80C1C48624FF48050DFF8001C40
:1001F00088620020DFF8F81BC8620020DFF8F01BDF
:1002000008630020DFF8E81B48630020DFF8E01BEC
:1002100088630020DFF8D81B486402200090022089
:100220000190062002900F200390102004901120CE
:1002300005900020069000226946DFF8B40B00F01C
:100240008FFF002801D001F001F907B000BD00B513
:1002500087B001A8142100F071FFDFF89C0B006843
:10026000002834D10120DFF8901B086000200090A6
:10027000DFF8880B006850F00100DFF8801B086091
:10028000DFF8780B006810F00100009000984FF63E
:1002900080700190022002900020039003200490BF
:1002A0000C20059001A9DFF8580B01F0D1F84EF2AF
:1002B000B37001900220029000200390032004906C
:1002C0000C20059001A9DFF83C0B01F0C1F807B044
:1002D00000BD10B50400FFF7BAFF10BD10B5040053
:1002E000E4B2012C06D101220221DFF81C0B01F03F
:1002F000BDF905E000220221DFF80C0B01F0B6F990
:1003000010BD01B4BDF80000DFF8001B088001B08B
:10031000704701B4BDF80000DFF8F41A088001B09E
:10032000704781B0DFF8E80A0088ADF80000BDF83A
:10033000000001B0704780B5D320FFF7E2FFFFF760
:10034000F0FFDFF8D01A8880FFF7EBFFDFF8C41A60
:100350008880FFF7E6FFDFF8BC1A8880DFF8B40A70
:1003600080880002DFF8AC1A8880FFF7DAFFDFF838
:10037000A41A89880843DFF89C1A8880DFF8940A59
:10038000808849F24131884201D100205FE0D420C9
:10039000FFF7B7FFFFF7C5FFDFF8781A8880FFF790
:1003A000C0FFDFF8701A8880FFF7BBFFDFF8641A20
:1003B0008880DFF8600A80880002DFF8581A888099
:1003C000FFF7AFFFDFF84C1A89880843DFF8441ABB
:1003D0008880DFF8400A808845F21031884201D1D8
:1003E000002034E04FF45A40FFF78BFFFFF799FFEE
:1003F000DFF8201A88804FF45B40FFF782FFFFF799
:1004000090FFDFF8101A8880DFF8080A8088000261
:10041000DFF8001A88804FF45C40FFF772FFFFF7A7
:1004200080FFDFF8F01989880843DFF8E819888031
:10043000DFF8E0098088B0F5004F06D145F2105092
:10044000DFF8D0198880002001E05FF0FF3002BDA6
:1004500080B5DFF8C009808849F24131884206D072
:10046000DFF8B009808845F21031884203D1292095
:10047000FFF747FF0AE0DFF89C09808845F210513A
:10048000884203D14FF42450FFF73BFF01BDF8B57C
:100490000400002500260027DFF87809807901286C
:1004A00025D1E4B2002C0BD0022C0FD00BD3042C9E
:1004B00012D00ED3062C15D011D3072C15D016E070
:1004C0000620040013E00720040010E004200400CC
:1004D0000DE0052004000AE00120040007E00020F0
:1004E000040004E00320040001E002200400DFF81F
:1004F0002409808849F2413188420ED0DFF814097E
:10050000808845F21031884207D0DFF808098088DA
:1005100045F21051884240F01481E4B2002C0BD017
:10052000022C0DD009D3042C10D00CD3062C13D0E0
:100530000FD3072C13D014E013E055F0800510E022
:1005400055F040050DE055F0C0050AE055F02005D6
:1005500007E055F0600504E055F0A00501E055F016
:10056000E005DFF8B008808845F21051884203D1D9
:100570004FF45850060001E036200600DFF89408DA
:10058000808845F21031884208D0DFF888088088DA
:1005900045F21051884201D055F00805300080B274
:1005A000FFF7AFFE280080B2FFF7B3FEA80615D50F
:1005B000DFF860080088DFF85C184988884222D29A
:1005C000DFF8500800880700DFF848084088DFF8A7
:1005D00044180880DFF83C08478014E0DFF834084E
:1005E0004088DFF83018098888420CD2DFF82408E8
:1005F00000880700DFF81C084088DFF8181808801A
:10060000DFF810084780DFF80C08808845F21051A9
:10061000884260D1DFF8FC074089FFF772FE0020B6
:10062000FFF777FEDFF8EC074089401C80B2FFF748
:1006300068FE0020FFF76DFEDFF8D8074089801CB8
:1006400080B2FFF75EFEDFF8CC070088401E001284
:1006500080B2FFF75EFEDFF8BC074089C01C80B2A5
:10066000FFF74FFEDFF8AC070088401E00F0FF00E8
:10067000FFF74FFEDFF89C078089FFF742FE00205E
:10068000FFF747FEDFF88C078089401C80B2FFF738
:1006900038FE0020FFF73DFEDFF878078089801CD8
:1006A00080B2FFF72EFEDFF86C074088401E001274
:1006B00080B2FFF72EFEDFF85C078089C01C80B295
:1006C000FFF71FFEDFF84C074088401E00F0FF00D8
:1006D000FFF71FFE35E0DFF83C074089FFF711FE0A
:1006E0000020FFF716FE0020FFF713FEDFF82407B7
:1006F0000088401E001280B2FFF70BFEDFF81407DF
:100700000088401E00F0FF00FFF703FEDFF804073B
:100710008089FFF7F6FD0020FFF7FBFD0020FFF7C3
:10072000F8FDDFF8F0064088401E001280B2FFF7A7
:10073000F0FDDFF8E0064088401E00F0FF00FFF704
:10074000E8FDF1BD10B50400E4B2002C66D1002034
:10075000DFF8C0168871F020DFF8B81608804FF473
:10076000A070DFF8B0164880DFF8A806808849F24C
:10077000413188420DD0DFF89C06808846F604019E
:10078000884206D0DFF88C06808845F21031884216
:1007900024D12C20DFF87C1608812A20DFF874167B
:1007A00048812B20DFF86C168881DFF86806808886
:1007B00046F60401884207D0DFF85806808845F2E3
:1007C0001031884240F08F80F020DFF84816088012
:1007D0004FF4A070DFF83C16488084E0DFF8340660
:1007E000808845F2105188427DD14FF43050DFF8B7
:1007F000241608814FF42850DFF8181648814FF46A
:100800002C50DFF810168881F020DFF808160880D9
:100810004FF4A070DFF8FC15488064E00120DFF899
:10082000F41588714FF4A070DFF8E8150880F02007
:10083000DFF8E0154880DFF8DC05808849F24131B7
:1008400088420DD0DFF8CC05808846F60401884246
:1008500006D0DFF8C005808845F21031884223D1E8
:100860002C20DFF8B01508812A20DFF8A815488170
:100870002B20DFF8A0158881DFF89805808846F6E0
:100880000401884206D0DFF88C05808845F21031DB
:10089000884228D1F020DFF87C1508804FF4A07042
:1008A000DFF8701548801EE0DFF86805808845F2A3
:1008B0001051884217D14FF43050DFF85815088195
:1008C0004FF42850DFF84C1548814FF42C50DFF8D6
:1008D000441588814FF4A070DFF838150880F020A7
:1008E000DFF8301548800020FFF7D1FD10BD38B586
:1008F00004000D00DFF81C05808849F24131884270
:1009000006D0DFF81005808845F2103188421CD1EE
:10091000DFF800054089FFF7F4FC200080B2000AF0
:10092000FFF7F7FC04F0FF00FFF7F3FCDFF8E40447
:100930008089FFF7E6FC280080B2000AFFF7E9FC97
:1009400005F0FF00FFF7E5FC30E0DFF8C804808821
:1009500045F21051884229D1DFF8B8044089FFF7E9
:10096000D0FC200080B2000AFFF7D3FCDFF8A4041B
:100970004089401C80B2FFF7C4FC04F0FF00FFF781
:10098000C8FCDFF890048089FFF7BBFC280080B228
:10099000000AFFF7BEFCDFF87C048089401C80B2AF
:1009A000FFF7AFFC05F0FF00FFF7B3FC31BD80B5EA
:1009B000DFF860040089FFF7A4FC01BD10B5040056
:1009C000200080B2FFF7A5FC10BDF8B5040000259B
:1009D000DFF840040788DFF83C04408847430021E3
:1009E0000020FFF784FFFFF7E2FF0026BE4205D29A
:1009F000200080B2FFF7E2FF761CF7E7F1BD80B57B
:100A0000322000F059FEFFF796FC10F1010F07D1DC
:100A1000DFF800048188DFF8000400F061FE37E1B0
:100A2000DFF8F0038188DFF8F40300F059FEDFF807
:100A3000E403808849F24131884240F01581CF209B
:100A4000FFF75FFC0020FFF764FCC120FFF761FCAB
:100A50003020FFF75EFCED20FFF753FC6420FFF72A
:100A600058FC0320FFF755FC1220FFF752FC8120B1
:100A7000FFF74FFCE820FFF744FC8520FFF749FC17
:100A80001020FFF746FC7A20FFF743FCCB20FFF74E
:100A900038FC3920FFF73DFC2C20FFF73AFC002002
:100AA000FFF737FC3420FFF734FC0220FFF731FC5E
:100AB000F720FFF726FC2020FFF72BFCEA20FFF7AA
:100AC00020FC0020FFF725FC0020FFF722FCC020BF
:100AD000FFF717FC1B20FFF71CFCC120FFF711FCE0
:100AE0000120FFF716FCC520FFF70BFC3020FFF7B5
:100AF00010FC3020FFF70DFCC720FFF702FCB720E9
:100B0000FFF707FC3620FFF7FCFB4820FFF701FC4E
:100B10003A20FFF7F6FB5520FFF7FBFBB120FFF76C
:100B2000F0FB0020FFF7F5FB1A20FFF7F2FBB620E1
:100B3000FFF7E7FB0A20FFF7ECFBA220FFF7E9FB3A
:100B4000F220FFF7DEFB0020FFF7E3FB2620FFF794
:100B5000D8FB0120FFF7DDFBE020FFF7D2FB0F20E1
:100B6000FFF7D7FB2A20FFF7D4FB2820FFF7D1FBA4
:100B70000820FFF7CEFB0E20FFF7CBFB0820FFF786
:100B8000C8FB5420FFF7C5FBA920FFF7C2FB432099
:100B9000FFF7BFFB0A20FFF7BCFB0F20FFF7B9FBF5
:100BA0000020FFF7B6FB0020FFF7B3FB0020FFF7A4
:100BB000B0FB0020FFF7ADFBE120FFF7A2FB002018
:100BC000FFF7A7FB1520FFF7A4FB1720FFF7A1FBFA
:100BD0000720FFF79EFB1120FFF79BFB0620FFF786
:100BE00098FB2B20FFF795FB5620FFF792FB3C204C
:100BF000FFF78FFB0520FFF78CFB1020FFF789FB29
:100C00000F20FFF786FB3F20FFF783FB3F20FFF716
:100C100080FB0F20FFF77DFB2B20FFF772FB0020EE
:100C2000FFF777FB0020FFF774FB0120FFF771FB54
:100C30003F20FFF76EFB2A20FFF763FB0020FFF742
:100C400068FB0020FFF765FB0020FFF762FBEF2049
:100C5000FFF75FFB1120FFF754FB782000F02CFD1D
:100C60002920FFF74EFB04E06A4881886C4800F0B9
:100C700037FD6C4800F034FD0120FFF763FDFFF7FE
:100C8000E7FB4FF6FF70FFF7A0FE0120FFF726FB02
:100C900001BD70B504000D001600290089B22000C6
:100CA00080B2FFF724FEFFF782FE300080B2FFF72C
:100CB00085FE70BD2DE9F84304000D0016001F00ED
:100CC0003019B0F101087819B0F101095148808854
:100CD00049F24131884205D04E48808845F21031B2
:100CE00088422CD14B484089FFF70BFB200080B293
:100CF000000AFFF70EFB04F0FF00FFF70AFB404677
:100D000080B2000AFFF705FB08F0FF00FFF701FBC8
:100D100040488089FFF7F5FA280080B2000AFFF703
:100D2000F8FA05F0FF00FFF7F4FA484680B2000A2F
:100D3000FFF7EFFA09F0FF00FFF7EBFA55E035484F
:100D4000808845F2105188424FD132484089FFF7E0
:100D5000D8FA200080B2000AFFF7DBFA2D4840895C
:100D6000401C80B2FFF7CDFA04F0FF00FFF7D1FA84
:100D700028484089801C80B2FFF7C3FA404680B201
:100D8000000AFFF7C6FA23484089C01C80B2FFF76B
:100D9000B8FA08F0FF00FFF7BCFA1E488089FFF799
:100DA000B0FA280080B2000AFFF7B3FA1948808928
:100DB000401C80B2FFF7A5FA05F0FF00FFF7A9FA83
:100DC00014488089801C80B2FFF79BFA484680B2A5
:100DD000000AFFF79EFA0F488089C01C80B2FFF717
:100DE00090FA09F0FF00FFF794FABDE8F1830000E4
:100DF0003C2D0120040100A0C02F01203838024002
:100E000000100240000C024000040240FEFF076098
:100E100000000860A82F0120086600085867000835
:100E2000306600086C6700082DE9FF4F83B0002092
:100E3000ADF80A0000265FF0000A00275FF0000806
:100E40005FF000090020ADF808000020ADF80400B4
:100E50000020ADF8060000240025BDF81000BDF804
:100E6000181088421ED1BDF81830BDF81420BDF806
:100E70001010BDF80C00FFF71DFFFFF798FD5FF0A5
:100E8000000B1FFA8BFBBDF81410BDF80C00091AFB
:100E90008B4506DABDF84000FFF790FD1BF1010B12
:100EA000EFE775E0BDF81410BDF80C00091AADF8B5
:100EB0000010BDF81810BDF81000091AADF80210A6
:100EC000BDF90000012801DB01260CE0BDF900009E
:100ED000002801D1002606E05FF0FF36BDF90000D2
:100EE0004042ADF80000BDF90200012801DB0127F6
:100EF0000CE0BDF90200002801D1002706E05FF0F8
:100F0000FF37BDF902004042ADF80200BDF9020012
:100F1000BDF90010884204DABDF900801FFA88F894
:100F200003E0BDF902801FFA88F8BDF80CB0BDF8E7
:100F300010905FF0000A1FFA88F818F101001FFAFC
:100F40008AFA504524DBBDF84020494689B258460C
:100F500080B2FFF79EFEBDF9000004194046210053
:100F600080B289B2884203D2B4EB08044BFA86FB04
:100F7000BDF9020045194046290080B289B2884275
:100F800003D2B5EB080549FA87F91AF1010AD2E74D
:100F900007B0BDE8F08F2DE9F04182B005000E00EA
:100FA00017009846089C200080B2009033009BB246
:100FB0003A0092B2310089B2280080B2FFF734FFC4
:100FC000200080B2009043469BB23A0092B2414664
:100FD00089B2280080B2FFF727FF200080B200907E
:100FE00043469BB23A0092B2310089B2380080B2D7
:100FF000FFF71AFF200080B2009043469BB22A0000
:1010000092B2310089B2280080B2FFF70DFFBDE82F
:10101000F3812DE9F04704000D0016001F005FF07A
:10102000000AB0460FFA88F8B6B25FEA4609D9F16D
:1010300003094046514600B209B288427CDB3A00BF
:1010400092B2B5EB0A0189B2B4EB080080B2FFF7A7
:1010500020FE3A0092B2B5EB0A0189B218EB040007
:1010600080B2FFF716FE3A0092B218EB050189B282
:10107000B4EB0A0080B2FFF70CFE3A0092B2B5EB77
:101080000A0189B2B4EB080080B2FFF702FE3A0011
:1010900092B2B5EB080189B2B4EB0A0080B2FFF757
:1010A000F8FD3A0092B21AEB050189B218EB040080
:1010B00080B2FFF7EEFD3A0092B2B5EB080189B2BB
:1010C0001AEB040080B2FFF7E4FD3A0092B218EB8D
:1010D000050189B21AEB040080B2FFF7DAFD3A008D
:1010E00092B21AEB050189B2B4EB080080B2FFF7A7
:1010F000D0FD1AF1010A0FFA89F9B9F1000F07D5ED
:101100000FFA8AFA5FEA8A00801D10EB090908E0ED
:10111000BAEB080000B280000A3010EB0909B8F100
:1011200001083A0092B218EB050189B21AEB0400EB
:1011300080B2FFF7AEFD7CE7BDE8F087002200F04B
:10114000E3BAB1F5807F02D34FF0FF3070470170F2
:10115000012070470078401E8041C043C00F704797
:1011600070B504000D001600002C01D1012024E010
:1011700094F84900002805D1002084F84800200098
:10118000FFF7A7F814F10801206800F0D7FAA26869
:101190002900206800F0FFFA236BA2683100606824
:1011A00000F01CFB2068A16850F8210050F00100FD
:1011B0002168A26841F82200002070BD00B583B00C
:1011C00000F032FB00F0DCF800F04EFBFEF7DCFF35
:1011D00000F0C2FB00F094FB00F0E9FB00F009FC1A
:1011E0000020019003200090002380228F490FF2FD
:1011F000250000F02DFD0020019004200090002328
:101200004FF480728A490FF2210000F021FD00F0B6
:1012100053FEFEE710B50400864800F061FA4FF473
:101220007A7000F022FEF7E738B50400824800F03B
:1012300057FAFFF7E4FB0020FFF7C7FB1F200090E1
:101240007E484088022190FBF1F003009BB27B486E
:1012500002887A484088022190FBF1F0010089B2AF
:101260000020FFF7E1FD4FF6E070009073484388DF
:1012700072480088022190FBF1F0020092B2002136
:101280006E480088022590FBF5F080B2FFF7CCFD98
:101290004FF4FC6000906948438868480288002148
:1012A0000020FFF7C1FD4FF4784000906348438869
:1012B0000022002161480088FFF7B6FD47F6FF7065
:1012C00000905E484088042190FBF1F0032110FB60
:1012D00001F39BB259480088042190FBF1F00321EF
:1012E00010FB01F292B255484088042190FBF1F0C6
:1012F000010089B251480088042590FBF5F080B2C6
:10130000FFF749FE4FF61F0000904C484088082127
:1013100090FBF1F0072110FB01F39BB247480088D6
:10132000082190FBF1F0072110FB01F292B2434833
:101330004088062190FBF1F0010089B23F48008807
:10134000062590FBF5F080B2FFF725FE4FF61F0350
:1013500032223A484088022190FBF1F0010089B224
:1013600036480088022590FBF5F080B2FFF751FE69
:10137000334800F0B5F94FF47A7000F076FDF7E7E6
:1013800000B593B006A83021FFF7D8FE01A81421BC
:10139000FFF7D4FE002000902A48006850F08050EB
:1013A000284908602748006810F080500090009895
:1013B000002000902448006850F4804022490860D2
:1013C0002148006810F480400090009801200690A9
:1013D0005FF48030079002200C905FF480000D9045
:1013E00004200E90A8200F9002201090042011904D
:1013F00006A801F0B7F9002801D000F027F80F2067
:10140000019002200290002003904FF4A05004901D
:101410004FF480500590052101A801F0A9FB002898
:1014200001D000F013F813B000BD0000A067000861
:10143000AC670008C467000880660008A82F012078
:10144000CC67000840380240007000407047000040
:10145000F8B40023002400250026102E80F004811B
:101460000122B24013000A681A4014009C4240F066
:10147000F9804A68012A08D04A68022A05D04A68D9
:10148000112A02D04A68122A24D187685FF0030C1F
:101490003200D2B252001CFA02FC37EA0C07D1F833
:1014A0000CC03200D2B252001CFA02FC5CEA070700
:1014B000876042685FF0010C1CFA06FC32EA0C02FD
:1014C000D1F804C0CCF3001C1CFA06FC5CEA020252
:1014D00015004560C7685FF0030C3200D2B25200BD
:1014E0001CFA02FC37EA0C07D1F808C03200D2B26D
:1014F00052001CFA02FC5CEA0707C7604A68022A2D
:1015000002D04A68122A1ED13200D20800EB8202B1
:10151000156A5FF00F0C16F00702D2B292001CFAA7
:1015200002FC35EA0C05D1F810C016F00702D2B261
:1015300092001CFA02FC5CEA05052F003200D2087A
:1015400000EB8202176205685FF0030C3200D2B232
:1015500052001CFA02FC35EA0C0591F804C01CF09C
:10156000030C3200D2B252001CFA02FC5CEA050500
:1015700005604A68D20075D500220092404A126880
:1015800052F480423E4F3A603D4A126812F4804263
:101590000092009A3B4A3700BF0852F827705FF06C
:1015A0000F0C16F00302D2B292001CFA02FC37EACA
:1015B0000C07354A904201D1002523E0334A90427E
:1015C00001D101251EE0324A904201D1022519E0E5
:1015D000304A904201D1032514E02F4A904201D1B4
:1015E00004250FE02D4A904201D105250AE02C4A3E
:1015F000904201D1062505E02A4A904201D10725F3
:1016000000E00825EDB216F00302D2B29200954038
:101610002F431C4A3500AD0842F82570224A126853
:10162000A2434D68ED0300D522431F4D2A601F4D94
:101630002D68A5434F68BF0300D525431B4A15609D
:101640001B4A1268A2434F68FF0200D52243184D7F
:101650002A60184D2D68A5434F68BF0200D5254369
:10166000144A1560761CF8E6F1BC7047D2B2002A25
:1016700002D089B2816102E089B20B0483617047B4
:101680004438024008380140000002400004024093
:1016900000080240000C024000100240001402400A
:1016A00000180240001C0240003C0140043C014084
:1016B000083C01400C3C014070B5040001F070FB97
:1016C0000500260016F1010F02D0044800783618F4
:1016D00001F066FB401BB042FAD370BDD40000207D
:1016E0000EB4C0B5024603A800210190009101ABE1
:1016F0000121044878440C3001F058FB06BC5DF829
:1017000010FB00BF3350000000B500BF1300964629
:101710009446103928BFA0E80C50FAD85FEA417C03
:1017200028BF0CC048BF40F8042BC90728BF20F8C9
:10173000022B48BF00F8012B00BD000030B40200AE
:101740000024086852F82030354803404D68886806
:101750000543C86805430869054348690543886926
:101760000543C8690543086A0543486A0543886A12
:101770000543C86A0543C86B0543086B05432B4303
:101780008868082801D153F04003086842F82030E7
:10179000002030BC704770B40300002403EB8200CB
:1017A000456815F040450E68486856EA0016886896
:1017B00056EA0026C86856EA00460869401E56EAFE
:1017C00000564869801E56EA00668869064335431C
:1017D00003EB82004560002070BC7047F0B4040049
:1017E0000026B3F5804F14D154F822500D4805401F
:1017F0000F68486857EA0017886857EA0027C868E2
:1018000057EA0047886907433D432E0044F82260A9
:1018100003E07FF0704044F822000020F0BC7047E5
:101820008000F0FF0000F0CF80B50E48006850F453
:1018300000700C4908600B48006850F4806009494A
:1018400008600848006850F480700649086003206A
:1018500002F0D8FA002002F013FB02F037FB002060
:1018600002BD0000003C024081B0002000902348EF
:10187000006850F08000214908602048006810F09E
:10188000800000900098002000901C48006850F0F4
:1018900001001A4908601948006810F00100009022
:1018A0000098002000901548006850F0100013497F
:1018B00008601248006810F01000009000980020A6
:1018C00000900E48006850F002000C4908600B4878
:1018D000006810F002000090009800200090074877
:1018E000006850F00800054908600448006810F0DE
:1018F00008000090009801B0704700BF30380240E7
:1019000080B5DFF81803DFF8181308605FF4E130E2
:10191000DFF80C1348600020DFF804138860002013
:10192000DFF8FC12C8600020DFF8F41208610C2018
:10193000DFF8EC1248610020DFF8E4128861002033
:10194000DFF8DC12C861DFF8D80202F0E3FA002801
:1019500001D0FFF77BFD01BD80B5DFF8C802DFF8DD
:10196000C81208605FF4E130DFF8BC124860002064
:10197000DFF8B41288600020DFF8AC12C8600020E5
:10198000DFF8A41208610C20DFF89C1248610020E7
:10199000DFF8941288610020DFF88C12C861A24839
:1019A00002F0B8FA002801D0FFF750FD01BD80B564
:1019B0009E489F4908605FF4E1309D4948600020DF
:1019C0009B49886000209A49C860002098490861B6
:1019D0000C2097494861002095498861002094496E
:1019E000C861934802F096FA002801D0FFF72EFD57
:1019F00001BD80B58F48904908605FF4E1308E49A1
:101A0000486000208C49886000208B49C860002015
:101A1000894908610C20884948610020864988610D
:101A200000208549C861844802F074FA002801D07A
:101A3000FFF70CFD01BD10B586B004006846142107
:101A4000FFF77CFB20687549884232D10020059061
:101A50007A48006850F400207849086077480068A8
:101A600010F4002005900598002005907448006847
:101A700050F00100724908607148006810F00100E0
:101A8000059005980320009002200190012002900B
:101A9000032003900820049069466A48FFF7D8FCA9
:101AA00000220521342002F0B3F9342002F0C5F9F8
:101AB000A5E020685B49884233D100200590624848
:101AC000006850F01000604908605F48006810F03E
:101AD000100005900598002005905948006850F0C6
:101AE0000100574908605648006810F00100059051
:101AF00005984FF4C06000900220019001200290F0
:101B0000032003900720049069464E48FFF7A0FC8D
:101B100000220521252002F07BF9252002F08DF915
:101B20006DE020684149884232D100200590434849
:101B3000006850F40030414908604048006810F4E3
:101B4000003005900598002005903D48006850F051
:101B500001003B4908603A48006810F00100059018
:101B600005980C2000900220019001200290032093
:101B700003900720049069463248FFF769FC002271
:101B80000521262002F044F9262002F056F936E01D
:101B900020682849884232D10020059027480068F3
:101BA00050F48020254908602448006810F4802003
:101BB00005900598002005902148006850F002002B
:101BC0001F4908601E48006810F002000590059843
:101BD0004FF4406000900220019001200290032009
:101BE00003900720049069461848FFF731FC002253
:101BF0000521272002F00CF9272002F01EF906B07B
:101C000010BD11B581B00C004FF6FF73012201A980
:101C1000034802F0BAF9019816BD0000004C0040DC
:101C20001C2E0120001001405C2E012000440040C9
:101C30009C2E012000480040DC2E0120403802404C
:101C400030380240000002404438024000040240A4
:101C50002DE9F04F85B006000F0090469946DDF85B
:101C600038A0DDF83CB01FFA88F85FEA880002F07F
:101C70002FFD0500002D0BD0582002F029FD040097
:101C8000002C01D0256304E0280002F0AEFD00E046
:101C90000024002C13D0002003900294CDF804B04F
:101CA000CDF800A04B461FFA88F8424639003000B4
:101CB00000F00AF8200000F077F8012001E05FF062
:101CC000FF3005B0BDE8F08F2DE9F14F82B00D0077
:101CD00016001F00DDF830800D9CDDF83890B00054
:101CE00000905FF0A50BD9F830A05A4600995046F5
:101CF00002F02AFED9F8300000EB8600B0F1040AA9
:101D00005FEADA0A5FEACA0A1AF00700002807D079
:101D1000502080F31188BFF34F8FBFF36F8FFEE722
:101D20005FF0000BBBF10A0F0CD215F80B0009EBAA
:101D30000B0181F8340015F80B00002802D01BF1CC
:101D4000010BEFE7002089F83D00B8F1050F01D342
:101D500004208046C9F82C80C9F848800020C9F8C2
:101D60004C0019F1040002F031FE19F1180002F0E4
:101D70002DFEC9F81090D8F10500C9F81800C9F86F
:101D800024900020C9F85000002089F854003A003F
:101D90000299504602F058FEC9F80000002C01D00C
:101DA000C4F80090BDE8F78F10B5040002F0DBFE28
:101DB000DFF8B8030068401CDFF8B0130860DFF8F4
:101DC0002004006800280AD1DFF814040460DFF85A
:101DD0009C030068012811D100F003FB0EE0DFF83E
:101DE00004040068002809D1E06ADFF8F4130968E8
:101DF000C96A884202D3DFF8E8030460DFF81C04F4
:101E00000068401CDFF814140860DFF81004006854
:101E10002064DFF80C0401680122E06A824011436B
:101E2000DFF8FC030160211DDFF8F823E36A1420CA
:101E3000434302EB030002F0CCFD02F0B1FEDFF8F9
:101E4000A403006800280FD0DFF894030068C06A7C
:101E5000E16A884208D25FF08050DFF8C814086059
:101E6000BFF34F8FBFF36F8F10BD38B5050000244F
:101E7000002D15D0DFF87C040068002807D0502022
:101E800080F31188BFF34F8FBFF36F8FFEE700F031
:101E90004CF80021280000F005FC00F04EF804008A
:101EA000002C08D15FF08050DFF878140860BFF391
:101EB0004F8FBFF36F8F31BD1CB5DFF8CC0701909A
:101EC0000020009000238222DFF8C0170FF2ED40BF
:101ED000FFF7BEFE0400012C02D102F0E3FE040075
:101EE000012C16D1502080F31188BFF34F8FBFF320
:101EF0006F8F5FF0FF30DFF8981708600120DFF880
:101F0000E41208600020DFF8F013086002F0C5FD5D
:101F10000AE014F1010F07D1502080F31188BFF3BC
:101F20004F8FBFF36F8FFEE713BDDFF8C803006864
:101F3000401CDFF8C0130860704770B5002500260C
:101F4000DFF8B0030068002807D1502080F3118823
:101F5000BFF34F8FBFF36F8FFEE702F004FEDFF891
:101F600094030068401EDFF88C130860DFF88403D8
:101F7000006800285BD17D480068002857D0DFF852
:101F80000407006800282AD0DFF8F806C068C06897
:101F9000050015F1180002F043FD281D02F040FD78
:101FA000DFF87C0201680122E86A82401143DFF811
:101FB00070020160291DDFF86C22EB6A1420434394
:101FC00002EB030002F005FDE86A85490968C96A69
:101FD0008842D4D30120DFF8C0160860CFE7002D77
:101FE00001D000F066FADFF8AC060468002C0ED0D1
:101FF00000F025F8002803D00120DFF89C160860C7
:10200000641E002CF4D10020DFF888160860DFF889
:102010008806006800280AD0012006005FF0805082
:10202000DFF800130860BFF34F8FBFF36F8F02F02C
:10203000B7FD300070BDDFF8C002006870472DE9C1
:10204000F0410027AB48006800287CD1DFF8A802E7
:102050000468641CDFF8A0020460002C24D1DFF8BF
:10206000540300680068002807D0502080F31188CE
:10207000BFF34F8FBFF36F8FFEE7DFF83803D0F861
:102080000080DFF834030068DFF828130860DFF809
:102090002803C0F80080DFF804060068401CDFF861
:1020A000FC15086000F005FADFF8E40500688442DA
:1020B0003DD3DFF8000300680068002805D15FF019
:1020C000FF30DFF8CC15086031E0DFF8E802006887
:1020D000C068C068050068680600B44203D2DFF833
:1020E000B005066023E0281D02F09AFCA86A0028CB
:1020F00003D015F1180002F093FC49480168012251
:10210000E86A8240114346480160291D454AEB6A4E
:102110001420434302EB030002F05BFCE86A304901
:102120000968C96A8842C4D301200700C1E73D4954
:102130002B480068C26A142042438858022809D3F9
:102140000120070006E0DFF84C050068401CDFF8BE
:1021500044150860DFF840050068002801D0012020
:1021600007003800BDE8F08100000000EC2F0120DE
:1021700060480068002804D00120DFF81C150860C2
:102180002CE00020DFF81015086025480068B0FA40
:1021900080F1D1F11F012348142202FB01F2805883
:1021A000002807D1502080F31188BFF34F8FBFF371
:1021B0006F8FFEE71B48142202FB01F210444268B5
:1021C00052684260426810F108039A4202D14268A4
:1021D000526842604068C068014A10607047000061
:1021E000DC2F0120F82F012038B504000D00002C51
:1021F00007D1502080F31188BFF34F8FBFF36F8F4B
:10220000FEE7DFF82005006810F11801200002F059
:10221000ECFB0121280000F045FA31BD0830012017
:10222000F42F0120D82C012070B505000E001400F9
:10223000002D07D1502080F31188BFF34F8FBFF3DB
:102240006F8FFEE7DFF8DC04006810F1180128004A
:1022500002F0BFFB002C02D05FF0FF30060021002F
:10226000300000F01FFA70BD000038B50500E868C6
:10227000C468002C07D1502080F31188BFF34F8F22
:10228000BFF36F8FFEE714F1180002F0C9FB194885
:102290000068002817D1201D02F0C2FBDFF8880477
:1022A00001680122E06A82401143DFF87C0401608A
:1022B000211DDFF87824E36A1420434302EB030076
:1022C00002F087FB05E014F11801DFF8B80302F013
:1022D00080FBDFF850040068C06AE16A884205D2DA
:1022E00001200121DFF8B823116000E0002032BD99
:1022F0000000000014300120F02F0120002807D139
:10230000502181F31188BFF34F8FBFF36F8FFEE72A
:10231000DFF8881309680160DFF818140968416064
:102320007047000004ED00E0F8B504000D00002C3B
:1023300007D1502080F31188BFF34F8FBFF36F8F09
:10234000FEE7002D07D1502080F31188BFF34F8F97
:10235000BFF36F8FFEE702F006FCDFF8D8030668D4
:10236000286810F1010F01D100271AE0DFF82C03D3
:1023700000682168884204D06068864201D3012742
:102380000FE06068301A2968884209D22968891BE1
:102390006068411829602000FFF7B0FF002700E0C7
:1023A000012702F0FDFB3800F2BD0120DFF8F0123A
:1023B00008607047E02F0120E42F012010B50400D1
:1023C00000F03CF8DFF8640300680228F8D35FF0FF
:1023D0008050DFF864130860BFF34F8FBFF36F8F37
:1023E000EEE710B50024052C09D2DFF840031421D4
:1023F00001FB04F1084402F0DAFA641CF3E7DFF8A9
:102400003C0302F0D4FADFF8380302F0D0FADFF828
:10241000740202F0CCFADFF82C0302F0C8FADFF8FD
:10242000280302F0C4FADFF81403DFF82013086071
:10243000DFF80C03DFF81813086010BD38B5DFF8BB
:102440001403006800282AD0FFF76FFDDFF8F402BC
:102450000068002801D1012400E00024FFF76DFD91
:10246000002CECD102F07FFBDFF8D802C068C56811
:10247000281D02F0D5FADFF8E0020068401EDFF800
:10248000D8120860DFF8CC020068401EDFF8C412E2
:10249000086002F085FB280000F002F8CFE731BDAC
:1024A00010B50400206B02F0A0F9200002F09DF9A5
:1024B00010BDDFF8980200680068002804D15FF0C2
:1024C000FF30734A106008E0DFF880020068C068DF
:1024D000C068010048686E4A10607047DFF87C02EF
:1024E0000068002801D1012007E0DFF844020068FD
:1024F000002801D1022000E00020704738B5040018
:102500002500002C50D0E86ADFF818120968C96A63
:10251000884249D2A869002806D4DFF8080200687A
:10252000C06AD0F10500A8616969DFF80022EB6A92
:102530001420434302EB0300814230D1281D02F0F6
:102540006FFA002811D1DFF8E411EA6A142042433F
:102550008858002809D1DFF8D00101680122E86A13
:1025600082409143DFF8C0010160DFF8B8010068E4
:10257000C06AE862DFF8B00101680122E86A8240BF
:102580001143DFF8A4010160291DDFF8A021EB6AE7
:102590001420434302EB030002F01BFA04E0DFF8CF
:1025A00084010068C06AE86231BD70B5040025008E
:1025B0000026002C54D0DFF86C010068854207D05B
:1025C000502080F31188BFF34F8FBFF36F8FFEE76A
:1025D000E86C002807D1502080F31188BFF34F8F9B
:1025E000BFF36F8FFEE7E86C401EE864E86AA96CF1
:1025F000884235D0E86C002832D1281D02F010FA4C
:10260000002811D1DFF82411EA6A142042438858C7
:10261000002809D1DFF8100101680122E86A824030
:102620009143DFF804010160A86CE862E86AD0F128
:102630000500A861DFF8F00001680122E86A824025
:102640001143DFF8E4000160291DDFF8E020EB6AA8
:102650001420434302EB030002F0BBF90120060003
:10266000300070BDDFF8BC000068002805D0DFF83E
:10267000B4000068C16C491CC164DFF8A8000068A0
:1026800070470000442F012010300120DC67000853
:102690000C300120FC2F01200030012004300120EB
:1026A00000300120F8B505000C00224807681D48DD
:1026B0000068001D02F0B4F9002809D1194800682B
:1026C000194909680122C06A824091431648016095
:1026D00015F1010F08D1002C06D012480068011D29
:1026E000194802F076F91BE0E81906000D48006869
:1026F0004660BE4207D20B480068011D14480068BE
:1027000002F073F90CE007480068011D0F480068EB
:1027100002F06BF912480068864201D21048066048
:10272000F1BD0000DC2F0120F42F0120D82C012066
:1027300014300120F02F012004ED00E01C2F0120B7
:10274000302F0120582F01206C2F0120E02F012075
:10275000E42F0120E82F0120EC2F0120F82F012089
:102760000C300120F8B50400002C01D10120EAE171
:102770002078C0076FD5DFF8D003006810F00C0098
:1027800004280BD0DFF8C003006810F00C00082804
:102790000ED1DFF8B8030068400209D5DFF8B003B6
:1027A0000068800357D56068002854D10120CAE131
:1027B0006068B0F5803F08D1DFF89403006850F4FA
:1027C0008030DFF88C13086024E06068B0F5A02F3B
:1027D00010D1DFF87C03006850F48020DFF870131C
:1027E0000860DFF86C03006850F48030DFF8601395
:1027F00008600FE0DFF85803006830F48030DFF83D
:1028000050130860DFF84803006830F48020DFF8D8
:1028100040130860606800280ED000F0C1FA05007F
:10282000DFF82C030068800315D400F0B9FA401BD0
:102830006528F5D3032086E100F0B2FA0500DFF841
:1028400010030068800306D500F0AAFA401B652833
:10285000F5D3032077E12078800754D5DFF8E8022C
:10286000006810F00C0F0BD0DFF8DC02006810F0ED
:102870000C00082818D1DFF8D4020068400213D4F5
:10288000DFF8CC020068800704D5E068012801D099
:10289000012058E1AE48006830F0F800216950EAA4
:1028A000C100AB4908602EE0E06800281AD0012082
:1028B000A849086000F074FA0500A5480068800780
:1028C00006D400F06DFA401B0328F6D303203AE14A
:1028D0009F48006830F0F800216950EAC1009C4927
:1028E000086010E000209B49086000F059FA0500DC
:1028F00097480068800706D500F052FA401B03286D
:10290000F6D303201FE12078000724D56069002852
:1029100010D001209049086000F042FA05008F486D
:102920000068800717D400F03BFA401B0328F6D359
:10293000032008E100208849086000F031FA050012
:1029400086480068800706D500F02AFA401B032855
:10295000F6D30320F7E02078400740F17F8000277E
:102960007F480068C0000FD4002000907C480068B9
:1029700050F080507A4908607948006810F0805023
:10298000009000980120070076480068C00513D425
:102990007448006850F480707249086000F000FAD2
:1029A000050070480068C00506D400F0F9F9401B26
:1029B0000328F6D30320C6E0A068012806D16A48A0
:1029C000006850F00100684908601BE0A068052815
:1029D0000CD16548006850F0040063490860624803
:1029E000006850F00100604908600BE05E48006834
:1029F000400840005C4908605B48006830F0040013
:102A000059490860A06800280FD000F0C9F90500F6
:102A100055480068800718D400F0C2F9401B41F205
:102A200089318842F4D303208DE000F0B9F9050024
:102A30004D480068800708D500F0B2F9401B41F20C
:102A400089318842F4D303207DE0FFB2012F05D104
:102A50004348006830F0805041490860A069002870
:102A600070D03948006810F00C00082846D0A069E2
:102A7000022832D100203D49086000F091F907009A
:102A800033480068800106D500F08AF9C01B03288E
:102A9000F6D3032057E0E169206A0143606A51EAF6
:102AA0008011A06A801EC003000C00040143E06A8C
:102AB00051EA00612548016001202C49086000F0BE
:102AC0006FF905002248006880013BD400F068F9E6
:102AD000401B0328F6D3032035E00020234908607B
:102AE00000F05EF905001A48006880012AD500F060
:102AF00057F9401B0328F6D3032024E0A0690128DE
:102B000001D101201FE010480068060016F4800083
:102B1000E169884214D116F03F00216A88420FD142
:102B200047F6C0703040616A884209D116F44030DF
:102B3000A16A884204D116F07060E16A884201D02F
:102B4000012000E00020F2BD0838024004380240B5
:102B50000038024000004742800E4742743802406D
:102B60004038024000700040703802406000474228
:102B700070B504000D00002C01D101209DE05C48DF
:102B8000006810F00F00A84209D259480570584853
:102B9000006810F00F00A84201D001208DE02078DD
:102BA000800719D52078400705D55248006850F4B1
:102BB000E050504908602078000705D54D4800686E
:102BC00050F460404B4908604A48016831F0F00118
:102BD000A0680143474801602078C00736D5606887
:102BE000012805D144480068800313D4012064E023
:102BF0006068022802D06068032805D13E4800685A
:102C0000800107D4012058E03B480068800701D4C8
:102C1000012052E037480168890889006068014353
:102C20003448016000F0BCF806003248006810F03B
:102C30000C006168B0EB810F08D000F0B1F8801B88
:102C400041F289318842F0D3032036E028480068F9
:102C500010F00F00854209D225480570244800680D
:102C600010F00F00A84201D0012026E02078400794
:102C700007D52048016831F4E051E06801431D4860
:102C800001602078000708D51A48006830F46040D9
:102C9000216950EAC1001749086000F037F8174968
:102CA000144A1268C2F30312895CC84014490860D0
:102CB0001448006801F0E4F8002070BD1048006876
:102CC000704780B5FFF7FAFF0F490A4A1268C2F34E
:102CD0008222895CC84002BD80B5FFF7EFFF0A4938
:102CE000044A1268C2F34232895CC84002BD000047
:102CF000003C02400838024000380240806700086B
:102D00000800002004000020D4670008F0B500246B
:102D10000025002600271E48006810F00C0000283F
:102D200004D0042804D0082804D02FE019482EE04D
:102D300019482CE01948006810F03F0004001748BB
:102D4000006840020CD515480068C0F3881012498D
:102D5000A1FB00012200002302F0BCF905000BE0FA
:102D60000E480068C0F388100A49A1FB0001220048
:102D7000002302F0AFF9050008480068C0F30140E5
:102D8000401C40000600B5FBF6F000E00148F0BD35
:102D9000083802400024F40000127A00043802408F
:102DA00001480068704700BFD82F01202DE9F04F7F
:102DB0000FF2B019A1B0D9E90045CDE90045049161
:102DC00000212A9EDFF8FC8B8DF843600D914FF0B7
:102DD000FF39824615461F460FE0AB4634461BF8C6
:102DE000011B0498D0470028049000F0A7800D989C
:102DF000401C641E0D90F2D135442878252807D157
:102E000000210791089109910A910B910C910DE015
:102E10006A464946284602F005FA060001D10D9897
:102E2000A8E0DAD50126E7E741F0010115F8010F26
:102E30002028F9D023280DD02B2804D02D2806D007
:102E400030280AD07CE041F0020189B2EEE741F07F
:102E50000401FAE741F00801F7E741F01001F4E757
:102E600000200F9009E00F98404505DA00EB800341
:102E700002EB4302303A0F926D1C2A78A2F1300027
:102E80000A28F0D32A782E2A18BFCDF8389023D1FB
:102E900015F8010F2A2807D1386838606D1C50F8E2
:102EA000042B38600E9217E02D280CBF15F8010B8B
:102EB000002000220E920AE040B90E9A424505DA3F
:102EC00002EB820403EB4403303B0E936D1C2B7822
:102ED000A3F130020A2AEFD3ADF840100FF28C00B4
:102EE000297802F0A9F908B115F8010B8DF8420014
:102EF0009DF84200682804BF2978682903D1622020
:102F00008DF8420007E06C2804BF28786C2803D1B4
:102F100071218DF842106D1C12A806903A4615F8E2
:102F2000013B02A9504600F065F838B912AA02A97F
:102F3000504600F0C7F900287FF55FAF484619E01A
:102F40002A288DD13868386050F8042B3860002A60
:102F50000F9204D5524241F004010F9289B26D1CC8
:102F600090E700000000000000000000686A6C7438
:102F70007A4C000021B0BDE8F08F622820D068288C
:102F800011D06A2803D06C2827D0712825D1086871
:102F9000C01D20F007000860D0E900230830086059
:102FA000194610467047002A0A680A60106803D064
:102FB000121D0A6000B217E0121D0A6080B217E00D
:102FC000002A0A680A60106803D0121D0A6040B225
:102FD0000AE0121D0A60C0B20AE0002A0A680A600C
:102FE000106803D0121D0A60C1177047121D0A60D5
:102FF000002170477CB50D4611461C462E69B4F180
:10300000250200F04D811C3A00F08680121F022A32
:1030100040F282800E3A00F00781521F5AD0093ADE
:103020007AD0921E16D0521E35D0521E022A73D963
:10303000121F30D0521F00F09A80521E4AD0521EEA
:1030400000F0E480D21E00F0FD80921E42D0D21E1D
:1030500040D02BE195F83A206C2A09D06869421CCF
:103060006A610A680A6052F8043B0A60335427E137
:103070000A680A6052F8043B0A600021009301913B
:103080004FF0FF322A6329466A4600F096F900287D
:1030900040F1168101E195F83A000122FFF76DFF3A
:1030A000C5E900010023994204DA6869411C69619D
:1030B0002D210DE0288F810704D56869411C6961C5
:1030C0002B2105E0C00722D56869411C69612021D8
:1030D00031541CE095F83A000022FFF74EFFC5E995
:1030E000000195F83800010711D5D5E9002300202B
:1030F000834208BF82420AD044F02000782806D1DB
:10310000686930213154401C411C696134542146A6
:1031100068693044E86083E00868C01D20F007005B
:103120000860D0E9002308300860C5E90023D5E92C
:103130000001C80F04D06869411C69612D210DE0B0
:10314000288F810704D56869411C69612B2105E03E
:10315000C00704D56869411C696120213154686940
:103160003044E8602146284600F034FAA8E005F132
:103170003A02507820B14FF0FF340FF6203070E063
:103180001078622808D0682824D06A2812D06C28C9
:103190002ED071280ED02BE00A680A6052F8040B7A
:1031A0000A6020B94FF0FF340FF6083059E0E96AA1
:1031B000017085E00A680A6052F8040B0A6020B9C1
:1031C0004FF0FF340FF6EC204BE0EA6AD317C0E96A
:1031D000002375E00A680A6052F8040B0A6020B9FF
:1031E0004FF0FF340FF6CC203BE0E96A018067E046
:1031F0000A680A6052F8040B0A6020B94FF0FF34E5
:103200000FF6B0202DE0E96A016059E00A680A6013
:1032100052F8040B0A600021C5E90001EE60782134
:10322000284600F029F94BE06C2285F83A200B681B
:103230000B6053F8042B0B6052BB4FF0FF340FF6BA
:10324000A8200EE095F83A206C2AF0D008680860B3
:1032500050F8044B0860EC603CB94FF0FF340FF6B7
:103260006C2001F0F5FF201A76BD2E6B002E04D5E0
:10327000204602F00FF8044608E0324600212046BE
:1032800002F024F8002814BF041B3446AC6117E098
:10329000294600F092F8002812D54FF0FF3076BD95
:1032A0006869411C69612521315409E06869411C44
:1032B000696125223254200002D0481C6861745490
:1032C000002076BD2DE9F0410E460546716B706910
:1032D000B46A091A306A091AB069091A706A091AB7
:1032E000F069091A96F838000C1B410790460DD476
:1032F000002C0BDD2746B0682021A8470028B060CD
:1033000057D0F06A401C7F1EF062F4D173694246C8
:103310003146284600F0AAFC00284AD1376A002F1F
:103320000ADDB0683021A8470028B06041D0F06ABB
:10333000401C7F1EF062F4D1B369F2683146284622
:1033400000F094FCA8BB776A002F09DDB06830213B
:10335000A847B06068B3F06A401C7F1EF062F5D1E8
:10336000F068B169F36942183146284600F07EFCE6
:10337000F8B9B76A002F09DDB0683021A847B060FE
:10338000B8B1F06A401C7F1EF062F5D196F83800A3
:1033900041070BD5002C09DDB0682021A847B0609B
:1033A00038B1F06A401C641EF062F5D10020BDE81F
:1033B000F0814FF0FF30BDE8F0812DE9F0470E4677
:1033C000A4B0356B002D8146904648BF6FF0004594
:1033D00001F0A8FF716B40180FF628118128D1E980
:1033E0000023CDE9012328BF4FF0FF303ED2002457
:1033F000002D2FDDD8F8001001AA684601F014FF57
:103400000746002F35D4D8F8000008B97F1E30D405
:10341000BD421FDB7069381881280AD30020706311
:1034200003AA31464846FFF74DFF040012D400209E
:10343000706103A8D6F814A03A466946504401F0DA
:1034400077FFBA44C6F814A058F8040B002818BF38
:10345000ED1BCDD12CB903AA31464846FFF732FF08
:10346000044614B9002070617063204624B0BDE8A2
:10347000F0874FF0FF34F8E72DE9FC4B06468B460A
:103480003469BBF16F0F08BF082505D04BF0200150
:10349000782914BF0A2510253C27D6E90023BBF163
:1034A000640F18BFBBF1690F9046994606D1002101
:1034B0008B4203DAD8F1000869EB49090020814505
:1034C00008BF80451FD1306BE8B9082D4ED196F862
:1034D000380001074AD530203B2784F83B0045E0FF
:1034E00000280ED596F8380000F01400102808D1F6
:1034F000726B7069121A306A121A511A0029C8BF09
:103500003162BDE8F38B01968DF800B04046494624
:103510002A46EB1701F0DEFD30327F1ED2B23A2A86
:1035200004DB9DF80000A0F151018A18E2554046E5
:1035300049462A46EB1701F0CDFD89460022804618
:10354000914508BF904504D00198C168E0198142B7
:10355000DCD3082D019E09D196F83800010705D566
:10356000E15D302902D07F1E3020E055E019F06087
:10357000C7F13C01306BB1618142B1DA411A31626D
:103580004FF6EF70318F01403187BDE8F38B2DE9A5
:10359000D04306460F4614464FF00008DFF8289443
:1035A00012E0E00707D542464B463046394601F067
:1035B00013FF06460F464046494642464B4601F039
:1035C0000BFF641080468946002CEAD1304639460C
:1035D000BDE8D0832DE9F04705468A468EB0D5E98F
:1035E00000894AF02000612802AF00900AD0286BC1
:1035F000002802D50620286304E001BF0098672850
:1036000001212963D5E9006460004015401C0DD1FB
:1036100021030BD0AAF1610103201A29A86102D26B
:103620000FF2E86110E00FF2E8610DE06000401574
:10363000401C0ED121030CD1AAF1610103201A29EB
:10364000A86116D30FF2D061E868032201F070FE82
:10365000CAE124F00043B3F5801F26F0000211D226
:103660000020834208BF8242019005D130462146A6
:1036700012E00FF2A061E7E701AA3046214601F00F
:103680007DFF09E0D148D24900EB1350019004EAD4
:103690000102D04930461143C5E90001009A612A70
:1036A0000DD1E86830210170811CE960BAF1610F29
:1036B0000CBF7821582141706869801C6861D5E988
:1036C0000023CDE90C23DDE90C0121F000410022AB
:1036D0000023994204BF9042002000F04D810098E1
:1036E000612840F09C80286B00284CBF2120401CA2
:1036F00000904046009E761C4946DDE90C8901F0A9
:1037000075FF01988DF8082038BF89F00049001F27
:103710000190002E0DF1090040F33C810746404620
:1037200049460022002301F079FF80F032814800F1
:10373000400D00F11C0211D0002A0FDD40F2FF7095
:10374000824205DBA44909F000400143002012E059
:103750006FF31E5141EA025140460CE029F000414E
:1037600028F00000994208BF98420FBF49461C222A
:10377000494601F06BFF8046894602F005F8F61FC6
:10378000002E044609DD02F01DF802460B464046B5
:10379000494602F029F880468946F81D072104E0D1
:1037A00004F00F0200F8012D2411002C01DD491E48
:1037B000F6D5491E5CBF002200F8012DF9D5E4E0E2
:1037C0000020194602AA0A4400E05B1E12F80149D3
:1037D000491E8442F9D00F2804D10DF10900425C42
:1037E000521C4254002904D50198001D02AF5B1CF5
:1037F0000190581E0CD43918AAF13A040A783032D4
:10380000D2B2392AC8BFA218401E01F80129F5D545
:10381000286B002840F1AF80591E2963ABE0404679
:10382000494601F0E3FE019938BF89F0004947F2AB
:1038300097504143694A91FBF2F20192D2F107029B
:1038400004DD40464946FFF7A2FE0AE0524200204E
:103850006349FFF79CFE02460B464046494602F08C
:1038600035F8804600985F4E6628286B06BF019C9D
:103870000A3406242418142CC8BF142430208DF8D0
:10388000080089460DF1090000E03846002C34DDBF
:1038900007464046494602F03DF901460A4607F10F
:1038A000080304200A27B2FBF7F707EB870EA2EB09
:1038B0004E02303203F8012C0A22B7FBF2F202EB7F
:1038C000820EA7EB4E073037401E03F8027DE9D188
:1038D000083C002C03F10807D7DD084602F02EF95A
:1038E00002460B464046494601F07EFF0022334621
:1038F00001F072FD80468946CBE70DF10901401ABF
:103900000DF1090704E00199491E401E01917F1C39
:1039100039783029F7D0009A662A02D10199491CDA
:1039200003E0652A0CBF012100212B6BCB189842C4
:10393000B8BF431E002B1ED4834204DAF85C35283E
:10394000A8BF392000DA302019467A1E02EB0108A0
:1039500000E05B1E18F80199491E8145F9D039280D
:1039600002D1785C401C7854002904D50198401C91
:1039700017465B1C0190019800B200901BB23A46BA
:103980005146284600F033F82EE0C71D002E3FF7C1
:10399000C6AE38460DF10901401A00990346884227
:1039A000C8BF0B46002B0DF109073FF531AF83422D
:1039B000BFF606AF0DF10900C05C07287FF700AF26
:1039C0000F20FEE6CBCCCC0C0000244002FCFFFF15
:1039D000FFFF0F800000E03F0000F07FA0860100A5
:1039E0000000F03F84D797410EB0BDE8F0872DE985
:1039F000F04F83B006468B469246994601F016FC7E
:103A0000B9F1000F406AD6F83080077803DC4FF038
:103A100001090FF2083ABDF930504BF0200066283A
:103A200008BF6D1C17D0672840F0878015F1040F80
:103A3000C0F28980454580F2868096F838006D1C7A
:103A4000010702D4C145B8BFC8462DB2B8EB05087E
:103A500048BF4FF000082DB2F068B169002D27DC97
:103A60004A1C30234354B8F1000F03DC96F83800A9
:103A7000010702D5F0688754521C18EB050FB8BF38
:103A8000C8F100052DB2A8446842C845B8BFC14678
:103A9000B26170620FFA89F4F461F068B36922468A
:103AA0005146184401F044FCA8EB0400B062C6E0A3
:103AB0002A469145084418DA4A46514601F038FC36
:103AC000B0694844B061A5EB0901B8F1000F71621B
:103AD00003DC96F838100A0704D5F1680F54F06932
:103AE000401CF061C6F82880A9E0514601F020FC96
:103AF000B0692818B8F1000FA9EB050303DC96F8AC
:103B000038100A0702D5F1680F54401CB0610FFA53
:103B100083F9C845B8BFC146F068B3690FFA89F4A4
:103B200022460AEB0501184401F002FCB06920446A
:103B3000B061A8EB0400706281E0BBF1610F16D1A7
:103B40004FF0700B18E0C14504DA96F838100A07F8
:103B500058BFC846B8F1010848BF4FF00008BBF194
:103B6000670F14BF4FF0450B4FF0650B04E0BBF13E
:103B7000410F08BF4FF0500BB169F368481CB061AA
:103B8000B8F1000F1AF8012B5A5403DC96F83810DC
:103B90000A0719D5F168431CB3610F54B8F1000F3F
:103BA00012DDA9F101073FB2B845B8BF4746F0683A
:103BB0003FB23A465146184401F0BAFBB069381892
:103BC000B061A8EB07007062F068B1690844002D8D
:103BD00080F800B003D42B214170811C03E02D211B
:103BE00041706D42811C00206A460AE02B460A247F
:103BF00093FBF4F505EB8504A3EB440302F8013BCA
:103C0000401C2DB2002DF1DC012806DC4BF0200217
:103C1000652A04BF302201F8012B48B9302001F891
:103C2000010B07E0401E1DF80020303201F8012B87
:103C30000028F7DCF068B2691044091AF16196F8BF
:103C4000380000F0140010280DD17169B0694118D6
:103C5000706A4118F0694118B06A4118706B81426E
:103C6000BCBF411A316203B0BDE8F08FF8B505461C
:103C70000E4617461C46002074B117F8011BB068A9
:103C8000A847B06030B1F06A401CF0620020641EAA
:103C9000F3D1F2BD4FF0FF30F2BD00007072696EDB
:103CA00074665F733A20256E20646973616C6C6F73
:103CB000776564007072696E74663A206261642090
:103CC000256E20617267756D656E74007072696E25
:103CD00074665F733A2062616420257320617267A5
:103CE000756D656E740000007072696E74665F7346
:103CF0003A2062616420256C7320617267756D657E
:103D00006E74000000000000000000006E616E0094
:103D10004E414E00696E6600494E4600300000007C
:103D200010F00703DFF82C110A684FF6FF010A4074
:103D3000DFF8241151EA03210A43DFF818110A6061
:103D40007047DFF810010068C0F30220704740B2EE
:103D500000280AD4012210F01F018A40DFF8FC106D
:103D600040B203005B0941F82320704710B440B211
:103D7000002804D40A013A4B40B21A5407E00A0161
:103D8000384B40B210F00F04234403F8042C10BC4D
:103D9000704770B4030013F00704D4F1070005283E
:103DA00001D3042001E0D4F10700251D072D01D225
:103DB000002500E0E51E012616FA00F0401E014035
:103DC000A940012010FA05F56D1E2A401143080094
:103DD00070BC704710B50400601EB0F1807F01D345
:103DE00001200EE0601E204908600F215FF0FF30C7
:103DF000FFF7BCFF00201D49086007201C49086030
:103E0000002010BD10B504002000FFF789FF10BD91
:103E10002DE9F04104000D0016000027FFF791FF87
:103E20008046320029004046FFF7B3FF0100200022
:103E300040B2FFF79BFFBDE8F08110B50400200001
:103E400040B2FFF784FF10BD10B504002000FFF75B
:103E5000C1FF10BD0CED00E00000FA0500E100E03C
:103E600000E400E018ED00E014E000E018E000E0FD
:103E700010E000E080B500F001F801BD70470000DF
:103E800010B504004FF47A700D490978B0FBF1F0D9
:103E90000C490968B1FBF0F0FFF7D6FF002801D00C
:103EA00001200CE0102C09D2002221005FF0FF302D
:103EB000FFF7AEFF04480460002000E0012010BDC1
:103EC000D4000020080000200400002081B0002061
:103ED00000900E48006850F480400C4908600B4880
:103EE000006810F48040009000980020009008487E
:103EF000006850F08050064908600548006810F0DE
:103F000080500090009801B0704700BF44380240D4
:103F10004038024010B50400002C01D1012033E0EC
:103F2000A0690028FFD194F83900002805D10020AD
:103F300084F838002000FDF77EFD242084F8390045
:103F40002068C06830F400502168C860200000F08C
:103F500027FA2068006930F49040216808612068E1
:103F6000406930F02A00216848612068C06850F438
:103F700000502168C8600020E063202084F83900E8
:103F8000202084F83A00002010BD2DE9F04782B0CF
:103F900006000C0015001F005FF0000A96F83900BB
:103FA00020285FD1002C02D0ADB2002D01D101201C
:103FB00059E096F83800012801D1022053E0012091
:103FC00086F838000020F063212086F83900FEF7DB
:103FD000E7FE8146B584F584002086F83800F08C31
:103FE00000282FD0F08C401EF084B068B0F5805FC0
:103FF00018D100974B4600228021300000F0DDF8F8
:10400000002801D003202EE0A046B8F80000C0052B
:10401000C00D316848603069002801D1A41CDEE77A
:10402000641CDCE700974B4600228021300000F042
:10403000C4F8002801D0032015E0207831684860DA
:10404000641CCCE700974B4600224021300000F072
:10405000B4F8002801D0032005E0202086F83900BC
:10406000002000E00220BDE8F6872DE9F8430600B5
:10407000306807683068D0F80C803068D0F8149049
:104080000020002517F00F04002C08D1B80606D533
:104090005FEA886003D5300000F02BF98BE0002C3C
:1040A00077D05FEAC97002D418F4907F71D017F00E
:1040B0000100C0B2002806D05FEAC85003D5F06BFB
:1040C00050F00100F063780708D519F00100C0B284
:1040D000002803D0F06B50F00200F063B80708D559
:1040E00019F00100C0B2002803D0F06B50F00400BA
:1040F000F06338070BD55FEA886004D419F001003B
:10410000C0B2002803D0F06B50F00800F063F06BF1
:1041100000283DD0B80605D55FEA886002D530009A
:1041200000F0E7F830684069800910F001000500F0
:10413000F06B000701D4002D25D0300000F074F89A
:104140003068406940061AD53068406930F0400058
:1041500031684861706B00280DD00FF2F100716B6F
:104160000865706B01F0F8FC002811D0706B716B62
:10417000096D88470CE0300001F002FD08E03000D6
:1041800001F0FEFC04E0300001F0FAFC0020F063D6
:1041900011E0380606D55FEA086003D5300000F06C
:1041A00061F808E0780606D55FEA486003D530007C
:1041B00000F08FF8FFE7BDE8F1832DE9F04105003D
:1041C0000E0017009846069C286800683040B042F0
:1041D00001D1012000E00020FFB2B84221D114F14A
:1041E000010FF1D0002C05D0FEF7DAFDB0EB08008E
:1041F0008442E9D22868C06830F4D0702968C86069
:10420000286840694008400029684861202085F8F6
:104210003900202085F83A00002085F83800032076
:1042200000E00020BDE8F0810168C96831F49071B8
:104230000268D16001684969490849000268516112
:10424000202180F83A1070470000000038B50400C3
:10425000A56B0020E8850020E884280001F090FC90
:1042600031BD0000010091F8390021282FD1886864
:10427000B0F5805F11D1086A02001088C005C00D3A
:104280000B6858600869002803D1086A801C08621E
:1042900009E0086A401C086205E0086A431C0B62DA
:1042A00000780B685860C88C401EC88480B2002813
:1042B0000BD10868C06830F080000B68D8600868CF
:1042C000C06850F040000B68D860002000E0022079
:1042D000704710B504002068C06830F040002168C5
:1042E000C860202084F83900200001F04AFC00203A
:1042F00010BD38B5040094F83A0022284ED1A068C9
:10430000B0F5805F16D1A06A05002069002808D1A9
:1043100020684068C005C00D2880A06A801CA0628B
:104320001AE02068406800F0FF002880A06A401C66
:10433000A06211E02069002806D1A06A411CA16298
:1043400021684968017007E0A06A411CA1622168E8
:10435000496811F07F010170E08D401EE08580B258
:10436000002819D12068C06830F020002168C8609A
:104370002068C06830F480702168C8602068406997
:104380004008400021684861202084F83A0020005D
:1043900001F0F8FB002002E0002000E0022032BD26
:1043A0002DE9F04105002868016931F44051E868C1
:1043B000014328680161AE682869064368690643BD
:1043C000E86906432868C168BE480140314328684F
:1043D000C1602868416931F44071A86901432868C7
:1043E0004161E869B0F5004F40F0B6802868B649F1
:1043F000884203D02868B549884256D1FEF76CFC44
:1044000004001920A0FB04016A680223A3FB022315
:1044100000F060FE6421B0FBF1F71920A0FB04015D
:104420006A680223A3FB022300F054FE8046192091
:10443000A0FB04016A680223A3FB022300F04AFEEA
:104440006421B0FBF1F1642000FB1181C80032301F
:104450006421B0FBF1F0400010F4F87010EB07108D
:1044600007001920A0FB04016A680223A3FB0223B2
:1044700000F030FE80461920A0FB04016A68022388
:10448000A3FB022300F026FE6421B0FBF1F16420BF
:1044900000FB1181C80032306421B0FBF1F010F054
:1044A0000700C0192968886009E1FEF70AFC0400CA
:1044B0001920A0FB04016A680223A3FB022300F079
:1044C00009FE6421B0FBF1F71920A0FB04016A6822
:1044D0000223A3FB022300F0FDFD80461920A0FB70
:1044E00004016A680223A3FB022300F0F3FD6421A8
:1044F000B0FBF1F1642000FB1181C800323064216F
:10450000B0FBF1F0400010F4F87010EB071007005A
:104510001920A0FB04016A680223A3FB022300F018
:10452000D9FD80461920A0FB04016A680223A3FB81
:10453000022300F0CFFD6421B0FBF1F1642000FB09
:104540001181C80032306421B0FBF1F010F0070097
:10455000C01929688860B2E028685B49884203D0A6
:1045600028685A49884255D1FEF7B6FB0400192045
:10457000A0FB04016A680423A3FB022300F0AAFD48
:104580006421B0FBF1F71920A0FB04016A68042341
:10459000A3FB022300F09EFD80461920A0FB04012E
:1045A0006A680423A3FB022300F094FD6421B0FB9E
:1045B000F1F1642000FB1181080132306421B0FB6D
:1045C000F1F010F0F00010EB071007001920A0FB2D
:1045D00004016A680423A3FB022300F07BFD8046EC
:1045E0001920A0FB04016A680423A3FB022300F046
:1045F00071FD6421B0FBF1F1642000FB1181080121
:1046000032306421B0FBF1F010F00F00C0192968BE
:10461000886054E0FEF755FB04001920A0FB04015C
:104620006A680423A3FB022300F054FD6421B0FB5D
:10463000F1F71920A0FB04016A680423A3FB0223FD
:1046400000F048FD80461920A0FB04016A6804239D
:10465000A3FB022300F03EFD6421B0FBF1F16420D6
:1046600000FB1181080132306421B0FBF1F010F041
:10467000F00010EB071007001920A0FB04016A6886
:104680000423A3FB022300F025FD80461920A0FB94
:1046900004016A680423A3FB022300F01BFD6421CC
:1046A000B0FBF1F1642000FB11810801323064217C
:1046B000B0FBF1F010F00F00C01929688860BDE868
:1046C000F0810000F369FFFF001001400014014079
:1046D0002DE9F04104005FF00008FDF726FC934847
:1046E0000068002801D100F0BDF89148006804423C
:1046F0006AD1002C15D08F480068041914F0070FF8
:104700000FD014F1080014F00704041B14F0070F75
:1047100007D0502080F31188BFF34F8FBFF36F8F06
:10472000FEE7002C50D084480068A0424CD3834858
:1047300006008248006805006868A04205D2286823
:10474000002802D02E002D68F6E7784800688542E0
:104750003AD0306877490968084480462868306054
:104760007448006840006968091B884215D205EB4F
:104770000400070017F00700002807D0502080F33E
:104780001188BFF34F8FBFF36F8FFEE76868001B80
:1047900078606C60380000F098F8674801686868D5
:1047A000091A6548016064480068654909688842DB
:1047B00003D2614800686249086069685C48006823
:1047C0000143696000202860FDF7B7FB18F007007F
:1047D000002807D0502080F31188BFF34F8FBFF31C
:1047E0006F8FFEE74046BDE8F08170B504002600FB
:1047F000002C36D04F4800684042064435006868B7
:104800004B490968084207D1502080F31188BFF353
:104810004F8FBFF36F8FFEE72868002807D0502026
:1048200080F31188BFF34F8FBFF36F8FFEE7686887
:104830003F490968084214D02868002811D16968E6
:104840003B48006881436960FDF76FFB3A480168A7
:104850006868411838480160280000F036F8FDF714
:104860006CFB70BD10B45FF49631364A12F0070F3E
:1048700005D0D21DD208D200891A324841182F48DB
:10488000026000202D4B58608B182A4800681B1AC4
:10489000DB08DB00254803600020244C24686060AE
:1048A0000020224C24682060981A50601F4800683D
:1048B00010605068224C206050681F4C20605FF0F0
:1048C00000401B4C206010BC704730B41B4A11687C
:1048D000814201D21268FAE71400516821448142F2
:1048E00004D153684168CB1853601000030041683D
:1048F00019441568A94211D111680C4C2468A142D1
:1049000008D04468116849680C1944601168096846
:10491000016005E005490968016001E01168016076
:10492000824200D0106030BC70470000C42F0120CC
:10493000D02F0120FC670008C82F0120B82F0120CC
:10494000CC2F0120D800002062F30F2262F31F4217
:10495000401810F0030308D0C91A1FD3DB0748BF63
:1049600000F8012D28BF20F8022D130030B41446A2
:104970001546103928BF20E93C00FAD8490728BF5E
:1049800020E90C0048BF40F8042D890028BF20F81A
:10499000022D48BF00F8012D30BC7047C91818BF60
:1049A00000F8012DCB0728BF00F8012D704710F14A
:1049B000080141605FF0FF31816010F10801C160C2
:1049C00010F10801016100210160704700210161BF
:1049D000704742684A6093688B6093685960916041
:1049E000086103685B1C0360704710B40B6813F127
:1049F000010F01D1026907E010F108025468246830
:104A0000A34201D35268F9E754684C604C68A16036
:104A10008A60516008610468641C046010BC7047BF
:104A2000010008698A684B689A604A688B685A6016
:104A300042688A4201D18A68426000220A610268A3
:104A4000521E026000687047001F5FF080730360B1
:104A5000001F4B085B000360001F0FF2150303608B
:104A600014380260001F7FF0020303602038704793
:104A70007648006810F1010F07D0502080F31188AC
:104A8000BFF34F8FBFF36F8FFEE7502080F3118885
:104A9000BFF34F8FBFF36F8FFEE700B583B06C4855
:104AA00000686C49884207D1502080F31188BFF319
:104AB0004F8FBFF36F8FFEE76548006866498842F5
:104AC00007D1502080F31188BFF34F8FBFF36F8F52
:104AD000FEE7624801780191FF21017001788DF8AD
:104AE00000109DF8001011F050015D4A117007216F
:104AF0005C4A11609DF8001009060AD559490968F9
:104B0000491E584A11609DF8001049008DF80010A8
:104B1000F0E7544909680902524A1160514909688D
:104B200011F4E0614F4A1160019901704E4800682C
:104B300050F470004C4908604B48006850F07040D9
:104B40004949086000F09AF800204049086001F0E7
:104B500061F84648006850F040404449086001F060
:104B60004DF800200EBD502080F31188BFF34F8F09
:104B7000BFF36F8F35480068401C344908603348E4
:104B8000006801280BD13A480068000607D0502081
:104B900080F31188BFF34F8FBFF36F8FFEE770472D
:104BA0002A480068002807D1502080F31188BFF3FD
:104BB0004F8FBFF36F8FFEE724480068401E2349E4
:104BC000086022480068002802D1002080F3118884
:104BD000704780B5502080F31188BFF34F8FBFF32B
:104BE0006F8FFDF72CFA002803D05FF0805020492A
:104BF0000860002080F3118801BD0000EFF30580FC
:104C0000102811D31B4A1268125C11000A00144BC1
:104C10001B78D2B29A4207D2502282F31188BFF396
:104C20004F8FBFF36F8FFEE70E4A1268124B1B685F
:104C300013F4E0639A4207D2502282F31188BFF343
:104C40004F8FBFF36F8FFEE770470000000000201A
:104C500000ED00E071C20F4170C20F4100E400E0BE
:104C600030300120D42F012020ED00E034EF00E0AF
:104C700004ED00E0006800080CED00E00648006864
:104C80004FF47A71B0FBF1F0401E04490860072030
:104C900003490860704700BF0800002014E000E0EE
:104CA00010E000E01CB5002400F0DAF9DFF8FC03A6
:104CB000006800280ED0DFF8F80301900220009071
:104CC00000234FF48272DFF8EC130FF20510FCF7AB
:104CD000BFFF0400002C07D1502080F31188BFF3E0
:104CE0004F8FBFF36F8FFEE7200016BD2DE9FE4307
:104CF00004000D0016001F00DDF828805FF0000999
:104D0000002C07D1502080F31188BFF34F8FBFF3E1
:104D10006F8FFEE7DFF894030068002825D0009528
:104D200001960294062D17DAFDF7D8FB022809D167
:104D3000002342466946DFF87403006801F00AF870
:104D4000814612E0002300226946DFF86003006814
:104D500001F000F8814608E000233A006946DFF8D8
:104D60004C03006801F0C9F881464846BDE8FE835F
:104D7000F8B505000E00DFF840030068C068C7689A
:104D8000381DFFF74DFEF86901281BD12B003200BA
:104D9000B9694919380000F089F8002812D00020BC
:104DA000009000232A0000213800FFF79FFF040035
:104DB000002C07D1502080F31188BFF34F8FBFF331
:104DC0006F8FFEE73800796A8847F1BD0000000068
:104DD00038B50400684600F040F805000099280046
:104DE00000F003F800F08AF8F4E770B582B005002F
:104DF0000C00FDF79AF8684600F044F806000098A9
:104E0000002827D1002C08D1AE4206D3FDF795F833
:104E100031002800FFF7ACFF1EE0002C07D0A748A8
:104E200000680068002801D1012400E0002422006D
:104E3000A91B9E48006801F089FAFDF77EF800285A
:104E40000AD15FF080509E490860BFF34F8FBFF3D7
:104E50006F8F01E0FDF771F873BD0100964800689F
:104E60000068002801D1012000E00020C0B20860E5
:104E70000868002804D190480068C068006800E015
:104E80000020704738B50400FDF7D5F805008D48BF
:104E90000068854204D200F0A0F80120206001E003
:104EA0000020206087480560280032BD2DE9F041D0
:104EB00004000D0016001F005FF00008656024610B
:104EC000AE420CD3F01BA169884202D30120804678
:104ED00011E0211D79480068FFF787FD0BE0BE4215
:104EE00004D2BD4202D30120804604E0211D724855
:104EF0000068FFF77AFD4046BDE8F08170B586B0E6
:104F00000023002201A96948006801F065F8002823
:104F100061D001980028F3D403980500686900283F
:104F200002D0281DFFF77CFD04A8FFF7ABFF0600A9
:104F3000019800280ED002280CD00BD3042830D0C2
:104F40002ED3062806D041D3082829D002D3092819
:104F500027D03FE0029B32000299A869411828003F
:104F6000FFF7A4FF00281AD02800696A8847E8697B
:104F7000012814D1002000900023029AA869821809
:104F800000212800FFF7B2FE0400002C07D15020BA
:104F900080F31188BFF34F8FBFF36F8FFEE7AFE74A
:104FA000AEE70298A861A869002807D1502080F3D5
:104FB0001188BFF34F8FBFF36F8FFEE733003200CE
:104FC000A96989192800FFF771FF99E72800FFF701
:104FD0000CFC95E794E706B070BDF8B5364800685C
:104FE0000068002833D034480068C06800680500B5
:104FF00031480068C068C0680700381DFFF710FD21
:105000003800796A8847F8690128E7D1B8694019FA
:105010000600B54207D27E603F61391D2648006810
:10502000FFF7E3FCDAE70020009000232A000021CC
:105030003800FFF75BFE0400002C07D1502080F3FE
:105040001188BFF34F8FBFF36F8FFEE7C6E71A4893
:1050500000681A490968184A116018490860F1BDCA
:1050600080B5FFF780FD1148006800281BD1164865
:10507000FFF79DFC1548FFF79AFC13480E4908609E
:1050800012480E49086000220C210A2000F01CFE84
:105090000649086005480068002804D00C49034808
:1050A000006801F03CF9FFF77BFD01BD20300120D5
:1050B00024300120E4670008183001201C30012052
:1050C00004ED00E028300120802F0120942F0120E2
:1050D000EC6700081B4213D1094236D12AB184463D
:1050E000B0FBF2F002FB10C2704701F055B9FCD3DF
:1050F0000022002370470B000200002100207047AF
:10510000904271EB030CF6D370B5B1FA81F4B3FAA7
:1051100083F52C1BA340C4F1200532FA05F6334376
:10512000A2405FF00046E64002E05B085FEA320220
:10513000841A71EB030524BF204629467641F4D337
:1051400002000B003000002170BD012ACFD970B5DC
:10515000140C20D0B1FA81F4B2FA82F5C4F1200423
:105160006419B4F12006D6D3B2405FF00044F44095
:10517000002502E052085FEA3303C61A71EB020E03
:1051800024BF3046714664416D41F3D302000B00E9
:105190002000290070BD0C46B1FBF2F102FB114565
:1051A0002D0445EA1045B5FBF2F402FB145580B21C
:1051B00040EA0545B5FBF2F002FB105240EA04401C
:1051C00070BD00001A48704730B45368D418042BDF
:1051D00009DA41B1057804F8015B10F8015B15B1FB
:1051E0005B1C491EF3E7536030BC704738B514466A
:1051F0001D4661B1FFF7E8FF61686A6B2046904782
:105200006FF00102811A02D0491E03D005E06FF051
:10521000010032BD4FF0FF3032BD0021616032BD70
:10522000DA6B1047024BE1E7014BF9E701487047A1
:10523000440000200C0000200278C9B28A421AB152
:105240001CBF10F8012FF9E718BF002070470000BD
:1052500080B508B90FF21C0005490B681BB122226A
:105260000021984701E001F098F8222002BD0000DB
:105270002C300120636F6E73747261696E742068E4
:10528000616E646C65723A20626164206D6573734F
:105290006167650000F10103810704D010F8011B6C
:1052A00089B18107FAD10268B2F10131914311F05D
:1052B000803F04BF50F8042FF6E710F8011B11B12E
:1052C00010F8011BFBE7C01A70470000C9B2830742
:1052D00006D0521E22D310F8013B9942F7D11FE0AD
:1052E000083A13D302F1040241EA012141EA0141E3
:1052F00050F8043B121F21BF4B40A3F1013C2CEAA4
:10530000030C1CF0803FF3D0C9B2001F083210F824
:10531000013B521E28BF91EA030FF8D818BF0120A5
:10532000401E704780B5FFF74DFF006C02BD0000C6
:1053300062B38B0708D0521E11F8013B00F8013B05
:1053400000F024808B07F6D1830740F0208000BF57
:10535000103A07D330B4B1E83810103AA0E838104A
:10536000F9D230BC530724BFB1E80810A0E80810F8
:1053700044BF51F8043B40F8043BD20724BF31F846
:10538000022B20F8022B44BF0B7803707047121FCA
:1053900017D35B0009D151F8043B20F8023B1B0CEA
:1053A000121F20F8023BF6D20BE051F8043B00F844
:1053B000013B1B0A20F8023B1B0C121F00F8013BAB
:1053C000F3D238BF121D521E24BF11F8013B00F862
:1053D000013BF8D870470000B0B581EA030C0CF02F
:1053E000004C40F2FF7515EA11541DBF15EA135722
:1053F000AC42AF4239E0E41923EA455343F4801349
:10540000C90241F0004141EA505EC7021100A7FB0A
:10541000020200284FF00000EEFB01204FF00001D7
:10542000E3FB072118BF42F0010240180021494167
:10543000E3FB0E01A4F580640F0302D25200404149
:10544000494154F101046CDD470872F1004250F10A
:10545000000051EB0451A1F580115CBF41EA0C0141
:10546000B0BD4CEA05510020B0BD05EA1357AC426F
:1054700014BFAF4241E050EA410E1CBF52EA430E56
:1054800002E061460020B0BD24423C441BD15FEAEB
:10549000070EF6D0090302BF01460020AEF1140E3C
:1054A000B1FA81F7AEEB070401FA07FE0C37C7F13A
:1054B000200100FA07F7C8404EEA000E23EA4553E0
:1054C00043F48013A2E733F00043B3FA83F704BF39
:1054D000B2FA82FE77440B3FE41BB7F1200E2FBFD8
:1054E00002FA0EF3BB40C7F1200E22FA0EFE38BFBF
:1054F00043EA0E03BA40641C82E750EA410E14BF2F
:1055000052EA430E6FF000014FF4001717EB430F00
:105510008ABF194617EB410FB5E74CEA0551002049
:10552000B0BDD4F10104B4F120070FDAC4F12007B3
:10553000520828BF42F0010210FA07F501FA07F7F6
:10554000E1BF2A43E0403843E1400FE0352C98DCCE
:10555000C7F1200452EA400220FA07F218BF42F0D5
:10556000010231FA07F0A1400A43002172F1004222
:1055700050F1000051EB0C01B0BD000010B5144615
:1055800000F002F8226010BDC1F30A5343B14A0093
:1055900012F5001F28D2A3F2FE32A1EB0251704790
:1055A00050EA410C20D001F0004C31EA0C01B1FA74
:1055B00081F204BFB0FA80F3D2180B3AB2F12003A3
:1055C0002CBF00FA03F1914041EA0C013EBFC2F149
:1055D000200C20FA0CF319439040524240F2FD3364
:1055E000D21A01EB03517047002270474FF4001CA0
:1055F0001CEB410F94BF1CEB430F09E041EA030C85
:1056000050EA4C0C52EA0C0C03D2994208BF90426B
:10561000704714BF8B428242704700004FF4001C59
:105620001CEB410F94BF1CEB430F09E041EA030C54
:1056300050EA4C0C52EA0C0C03D28B4208BF824257
:10564000704714BF9942904270470000124254D4F0
:1056500040F2FF7C1CEA11530FD0634531D09B18F8
:1056600063453CBF01EB0251704701F0004141EA44
:105670000C510020AFF30080704750EA410320D066
:1056800001F0004C91EA0C011CD0B1FA81F30B3B04
:105690009A420DD9D21A994051EA0C01C3F1200C5B
:1056A00020FA0CFC61449840531C40F2FF7CD7E781
:1056B000914041EA0C01C2F1200C20FA0CF319438D
:1056C00090407047B0FA80F31533202BE0D3202AA6
:1056D000EED3203A203B9A4209D9D21A00FA03F1BC
:1056E00041EA0C010020531C40F2FF7CB8E700FAAD
:1056F00002F141EA0C0100207047524240F2FF7C67
:105700001CEA11530DD06345DBD0B2EB030C3CBF58
:10571000A1EB025170470CF1010221EA035141F45F
:10572000801150EA410CCCD001F0004C352A27DC26
:1057300030B481EA0C01B2F1200309DAC2F120038E
:10574000044601FA03F5D0402843D1409C400CE0C8
:10575000C3F12002450020FA03F418BF44F001040D
:1057600021FA03F091400C43002174F1004550F1FF
:10577000000051EB0C01244230BC7FF47BAF70473A
:105780006146002076E70000C1F30A5340F2FE3282
:105790009B1A14DDD3F120034FEAE17208DDC90240
:1057A00041EA505141F00040D840801850407047C5
:1057B00003F2E13010B1D24382F000407047002084
:1057C00070470000C11768B14840401AB0FA80F233
:1057D0009040D21CC907C2F5846241EA025202EB32
:1057E000D02140057047000070B44FF0004591EAA9
:1057F000030F40F1D5856B40841A71EB030603D289
:10580000001BB141121973414FF4001C1CEB410FF6
:1058100034BF7CEB430442E00C0DA4EB1356352E51
:105820004FDC45EAC323DB0A45EAC121C912B6F1C0
:1058300020050DDD63FA05F6EB4086EA030512420A
:1058400018BF45F00105C01851F100010CD213E05A
:1058500062FA06F5F2405540F3415A40B340F34036
:105860005A408018594107D349085FEA30005FEA7F
:10587000350528BF45F0010501F58011420875F195
:10588000004250F1000041EB04514E0016F5001F9C
:1058900070BC38BF70470020090D090570471CEB2C
:1058A000410F10D252EA43060BD0BCEB410F05D892
:1058B0000C0DAB43661E342EB6DD02E0AB43801800
:1058C000594170BC704770BC70470000F0B540F2A1
:1058D000FF7581EA030C0CF0004C15EA11541DBF52
:1058E00015EA1357AC42AF42E5E0BC41C1F31301E6
:1058F000C3F31303801A994143F4801304D2641E46
:105900004000494180185941C90241EA5051B1FB58
:10591000F3F603FB1611A2FB0675D7EBC020A941D5
:1059200002D2761E80185941C90241EA5051B1FB9A
:10593000F3FE03FB1E11A2FB0E75D7EBC020A9419D
:1059400003D2AEF1010E80185941890241EA90510B
:10595000760546EA8E2EB1FBF3F603FB1611A2FB89
:105960000675D7EB8020A94102D2761E80185941D6
:10597000C90241EA50514EEA060EB1FBF3F603FBB1
:105980001611A2FB0675D7EBC020A94102D2761EE4
:1059900080185941C90241EA5051B1FBF3F703FBAA
:1059A0001711A2FB0735D3EBC020A94167F100070F
:1059B0000CBF004247F0010766F3D5274FEA1E31BE
:1059C000B80814F5806412DDBD0775F1004250EB94
:1059D0000E5051EB045111F5801F5CBF41EA0C01E0
:1059E000F0BD4CF07F6141F0E0410020F0BDBD070B
:1059F0006D0840EA0E5041F48011D4F10104B4F175
:105A000020060ADAC4F120060200E04001FA06F39B
:105A1000E1401843B24015430EE0342C13DCC6F1CC
:105A2000200445EA40056D0820FA06F2154321FAE4
:105A300006F0A1400D43002175F1004250F1000035
:105A400051EB0C01F0BD00205FEA0C01F0BDCFB9B5
:105A500092185B41B3FA83F704BFB2FA82F6BF191A
:105A60000B3FB7F120062FBF02FA06F3BB40C7F188
:105A7000200622FA06F638BF3343BA401CB1E419B7
:105A8000641E33E77F4231F00041B1FA81F404BF74
:105A9000B0FA80F6A4190B3CB4F120062FBF00FA2F
:105AA00006F1A140C4F1200620FA06F638BF3143C2
:105AB000A0403C1B1AE7AC421ABF05EA1357AF429D
:105AC00012E050EA41061CBF52EA4306BFE750EA23
:105AD0004107304661461CBF41EA0551F0BD52EA1C
