:020000040800F2
:10000000804D0120B9E5010841D3010843D301081F
:1000100045D3010847D3010849D301080000000077
:1000200000000000000000000000000085A600089D
:100030004BD30108000000002DA600084DD3010895
:1000400015E8010819E801081DE8010821E8010880
:1000500025E8010829E801082DE8010831E8010830
:1000600035E8010839E801083DE8010841E80108E0
:1000700045E8010849E801084DE8010851E8010890
:1000800055E8010859E801085DE8010861E8010840
:1000900065E8010869E801086DE8010871E80108F0
:1000A00075E8010879E801087DE8010881E80108A0
:1000B00085E8010889E801088DE8010891E8010850
:1000C00095E8010899E801089DE80108A1E8010800
:1000D000A5E8010865D301086FD3010879D30108A9
:1000E000A9E80108ADE80108B1E80108B5E8010890
:1000F000B9E80108BDE80108C1E80108C5E8010840
:10010000C9E80108CDE80108D1E80108D5E80108EF
:1001100083D30108D9E80108DDE80108E1E8010816
:10012000E5E80108E9E80108EDE80108F1E801085F
:10013000F5E80108F9E80108FDE8010801E901080E
:1001400005E9010809E901080DE9010811E90108BB
:1001500015E9010819E901081DE9010821E901086B
:1001600025E9010829E901082DE9010831E901081B
:1001700035E9010839E901083DE9010800000000FE
:1001800041E9010845E90108480200200B00000090
:100190000B00000064000000000000000F000000E1
:1001A000160016000B00040030100008CC020008F6
:1001B00000000000160016000B0004003E0F0008AF
:1001C000CC02000800000000160016000B0004001E
:1001D0004C0E0008CC0200080000000016001600BB
:1001E0000B0004005A0D0008CC02000800000000BB
:1001F000160016000B000400680C0008CC02000872
:1002000000000000160016000B000400760B00082A
:10021000CC02000800000000160016000B000400CD
:10022000840A0008CC020008000000001600160036
:100230000B00040092090008CC0200080000000036
:10024000160016000B000400A0080008CC020008ED
:1002500000000000160016000B000400AE070008A6
:10026000CC02000800000000160016000B0004007D
:10027000BC060008CC0200080000000016001600B2
:100280000B000400CA050008CC02000800000000B2
:10029000160016000B000400D8040008CC02000869
:1002A00000000000160016000B000400E603000822
:1002B000CC02000800000000160016000B0004002D
:1002C000F4020008CC020008000000000700000053
:1002D00001000000D8020008FF000000CCCCCC00D8
:1002E0000000000000999900FFFFFF009999990014
:1002F00000FFFF00000000022000000000000000DE
:100300000000232000000000000000000233200055
:100310000000000000000023331200000000000075
:10032000000233311120000000000000236311118E
:10033000120000000000023631111112000000000E
:100340000023631111121200000000003331442118
:1003500021220000000000000512421212000000DD
:100360000000000051242421555520000000000207
:10037000222241111112000000000000005411114E
:100380001120000000000000541111111222000081
:1003900000000054111111233200000000005441EC
:1003A00011123330000000000051441123330000CB
:1003B000000000000514423330000000000000007F
:1003C00051236300000000000000000236300000EE
:1003D00000000000000003630000000000000000B7
:1003E00000033000000000000000000000000000DA
:1003F00000000000000000000000000000000000FD
:1004000000000000000000000000000000000000EC
:1004100000003300000000000000000032332555CA
:1004200050000000055553323621111200000051D2
:1004300011136236214441200005144443623621E1
:100440004441120051444443623621444111251471
:100450004111136233211111111111111113323392
:1004600021212121221111111332332212121200E3
:1004700021111113323321212120000211111332D5
:1004800033221212000000211113323322222000E5
:1004900000000222223222000000000000000000C2
:1004A000220000000000000000000000000000002A
:1004B000000000000000000000000000000000003C
:1004C000000000000000000000000000000000002C
:1004D00000000000000000000000000000000320F9
:1004E00000000000000000000003320000000000D7
:1004F0000000000003632000000000000000005125
:1005000036320000000000000005144363200000A4
:10051000000000005144113332000000000000547C
:100520004111133320000000000054111111333227
:100530000000000000541111111222000000000000
:1005400054111111200000000555554111111200E0
:1005500000000051444411222220000000051441F3
:1005600011120000000000332124211112000000AC
:100570000000363242121112000000000003632115
:100580002121220000000000003632121212000069
:1005900000000000033321212000000000000000C3
:1005A000333212000000000000000003332000007E
:1005B00000000000000000332000000000000000E8
:1005C000000002200000000000000000033333336D
:1005D00033333200000000033666633333320000E9
:1005E00000000022222222222000000000005111DF
:1005F00011111120000000000051441111112000C0
:1006000000000000514411111120000000000051B1
:1006100044111111200000000000021111111200FC
:100620000000000000002111112000000000000067
:100630000002111200000000000000000021200054
:100640000000000000000000512000000000000039
:1006500000000511120000000000000000514111CF
:1006600020000000000000051441111200000000ED
:1006700000005144121111200000000000514421DB
:100680002111200000000000514212121120000030
:1006900000000051242121212000000000003333FC
:1006A00033333320000000000336666333333200F7
:1006B0000000000222222222222200000000033336
:1006C0003333333332000000000336666333333292
:1006D0000000000000222222222220000000000050
:1006E000511111111120000000000051441111118D
:1006F00020000000000051441111112000000000F2
:1007000000514411111120000000000002111111CC
:100710001200000000000000211111200000000064
:100720000000000211120000000000000000002183
:100730002000000000000000000051200000000028
:100740000000000005111200000000000000005130
:1007500042112000000000000005144111120000A9
:10076000000000005144121111200000000000514F
:1007700044211111200000000000514212121120EA
:100780000000000000512421212120000000000071
:1007900033333333332000000000033666633333D2
:1007A0003200000000022222222222220000000049
:1007B00003333333333332000000000336666333D0
:1007C00033320000000000222222222220000000FA
:1007D00000005111111111200000000000514411BE
:1007E00011112000000000005144111111200000DF
:1007F00000000051441111112000000000000211FE
:100800001111120000000000000021111120000051
:1008100000000000000212120000000000000000B2
:100820000021200000000000000000005120000016
:100830000000000000000511120000000000000090
:100840000051421120000000000000051441111267
:1008500000000000000051441211112000000000AF
:1008600000514411111120000000000051421212E9
:10087000112000000000005124212121200000004F
:100880000000333333333320000000000336666347
:1008900033333200000000022222222222220000F2
:1008A0000000033333333333320000000003366675
:1008B0006333333200000000002222222222200073
:1008C0000000000051111111112000000000005122
:1008D0004411111120000000000051441111112099
:1008E0000000000000514411111120000000000020
:1008F000021111111200000000000000212111203E
:1009000000000000000000021212000000000000C1
:100910000000002120000000000000000000512025
:10092000000000000000000005111200000000009F
:100930000000005142112000000000000005144199
:10094000111200000000000051441211112000009B
:10095000000000514411111120000000000051421C
:10096000121111200000000000512421212120003B
:10097000000000003333333333200000000003361F
:100980006663333332000000000222222222222238
:100990000000000003333333333332000000000320
:1009A0003666633333320000000000222222222206
:1009B0002000000000005111111111200000000062
:1009C0000051441111112000000000005144111188
:1009D00011200000000000514411111120000000FE
:1009E000000002111111120000000000000021217E
:1009F0002120000000000000000212120000000090
:100A000000000000002120000000000000000000A5
:100A1000512000000000000000000511120000003D
:100A200000000000005142112000000000000005FD
:100A30001441111200000000000051441211112055
:100A400000000000005144111111200000000000BE
:100A500051441211112000000000005124212121D5
:100A60002000000000003333333333200000000047
:100A70000336666333333200000000022222222252
:100A800022220000000003333333333332000000EE
:100A90000003366663333332000000000022222256
:100AA000222220000000000051111111112000002D
:100AB00000000051441111112000000000005144B9
:100AC00011111120000000000051441111112000EB
:100AD00000000000021211111200000000000000CE
:100AE000212121200000000000000002121200005D
:100AF00000000000000000212000000000000000B5
:100B0000000051200000000000000000051112004C
:100B10000000000000000051421120000000000011
:100B20000005144111120000000000005144121190
:100B3000112000000000005144111111200000009C
:100B40000000514412111120000000000051242126
:100B50002111200000000000333333333320000024
:100B600000000336666333333200000000022222A5
:100B700022222222000000000333333333333200B9
:100B800000000003366663333332000000000022A9
:100B900022222222200000000000511111111120F8
:100BA000000000000051441111112000000000005D
:100BB0005144111111200000000000514411111185
:100BC00020000000000002121112120000000000BC
:100BD000000021212120000000000000000212126C
:100BE00000000000000000000021200000000000C4
:100BF000000000005120000000000000000005116E
:100C0000120000000000000000514211200000000E
:100C100000000005144111120000000000005144C2
:100C20001211112000000000005144111111200088
:100C3000000000005144121111200000000000517A
:100C400044212111200000000000333333333320CE
:100C500000000000033666633333320000000002F8
:100C600022222222222200000000033333333333B6
:100C700032000000000336666333333200000000A8
:100C80000022222222222000000000005111111116
:100C9000112000000000005144111111200000003B
:100CA00000005144111111200000000000514411B6
:100CB00011112000000000000212121212000000A8
:100CC000000000002121212000000000000000029F
:100CD00012120000000000000000002120000000AF
:100CE0000000000000005120000000000000000093
:100CF0000511120000000000000000514211200008
:100D00000000000000051441111200000000000066
:100D10005144121111200000000000514411111122
:100D200020000000000051441211112000000000BA
:100D300000514421111120000000000033333333EF
:100D400033200000000003366663333332000000B6
:100D50000002222222222222000000000333333329
:100D60003333320000000003366663333332000051
:100D70000000002222222222200000000000511147
:100D80001111112000000000005144111111200028
:100D9000000000005144111111200000000000511A
:100DA0002411111120000000000002121212120082
:100DB00000000000000021212120000000000000B0
:100DC00000021212000000000000000000212000BC
:100DD00000000000000000003120000000000000C2
:100DE0000000051112000000000000000051421137
:100DF0002000000000000005144111120000000056
:100E00000000514412111120000000000051441153
:100E100011112000000000005144121111200000A7
:100E20000000005144111111200000000000333374
:100E3000333333200000000003366663333332005F
:100E4000000000022222222222220000000003339E
:100E500033333333320000000003366663333332FA
:100E600000000000002222222222200000000000B8
:100E700051111111112000000000005144111111F5
:100E8000200000000000514411111120000000005A
:100E90000051241111212000000000000212121242
:100EA00012000000000000002121212000000000AD
:100EB00000000002121200000000000000000021EB
:100EC0002000000000000000000051200000000091
:100ED0000000000005111200000000000000005199
:100EE0004211200000000000000514411112000012
:100EF00000000000514412111120000000000051B8
:100F00004411111120000000000051441111112062
:100F100000000000005144111111200000000000E9
:100F2000333333333320000000000336666333333A
:100F300032000000000222222222222200000000B1
:100F40000333333333333200000000033666633338
:100F50003332000000000022222222222000000062
:100F60000000511111111120000000000051441126
:100F70001111200000000000514411111120000047
:100F80000000005124211121200000000000021265
:100F90001212120000000000000021212120000098
:100FA000000000000002121200000000000000001B
:100FB000002120000000000000000000512000007F
:100FC00000000000000005111200000000000000F9
:100FD00000514211200000000000000514411112D0
:100FE0000000000000005144111111200000000019
:100FF0000051441111112000000000005144111152
:1010000011200000000000514411111120000000C7
:1010100000003333333333200000000003366663AF
:10102000333332000000000222222222222200005A
:1010300000000333333333333200000000033666DD
:1010400063333332000000000022222222222000DB
:10105000000000005111111111200000000000518A
:101060004411111120000000000051441111112001
:101070000000000000512421212120000000000078
:101080000212121212000000000000002121212093
:10109000000000000000000212120000000000002A
:1010A000000000212000000000000000000051208E
:1010B0000000000000000000051112000000000008
:1010C0000000005141112000000000000005144103
:1010D0001112000000000000514411111120000005
:1010E0000000005144111111200000000000514483
:1010F00011111120000000000051441111112000B5
:101100000000000033333333332000000000033687
:1011100066633333320000000002222222222222A0
:101120000000000030110008080000000800000066
:10113000110011000500020064110008DC15000810
:101140000000000050110008080000000800000026
:10115000110011000500020064110008F4150008D8
:10116000000000000001900000000190000000015C
:10117000900000000190000000019000000001902C
:101180000000040190040019559559006AAAAAAA02
:101190004019559559000401900400000190000089
:1011A000000190000000019000000001900000008C
:1011B000019000000001900000000000C81100082C
:1011C00005000000050000000B000B0003000200FA
:1011D000FC110008DC15000800000000E811000800
:1011E00005000000050000000B000B0003000200DA
:1011F000FC110008F4150008000000000054000075
:1012000064000064000064005565546A9AA4556542
:1012100054006400006400006400005400000000FA
:101220002C1200080A0000000A000000150015003A
:101230000600020060120008DC1500080000000033
:101240004C1200080A0000000A00000015001500FA
:101250000600020060120008F415000800000000FB
:101260000000150000000000190000000000190037
:10127000000000001900000000001900000000003C
:101280001900000000001900000000001900000013
:101290000000190000005555595555406AAAA6AAE4
:1012A000AA4055555955554000001900000000004E
:1012B00019000000000019000000000019000000E3
:1012C00000001900000000001900000000001900D3
:1012D00000000000190000000000150000000000E0
:1012E000EC1200080F0000000F0000001F001F009C
:1012F0000800020020130008DC15000800000000B0
:101300000C1300080F0000000F0000001F001F005A
:101310000800020020130008F41500080000000077
:101320000000000540000000000000064000000032
:101330000000000640000000000000064000000021
:101340000000000640000000000000064000000011
:101350000000000640000000000000064000000001
:1013600000000006400000000000000640000000F1
:1013700000000006400000000000000640000000E1
:1013800000000006400000000000000640000000D1
:1013900055555556555555546AAAAAA9AAAAAAA49C
:1013A000555555565555555400000006400000004F
:1013B00000000006400000000000000640000000A1
:1013C0000000000640000000000000064000000091
:1013D0000000000640000000000000064000000081
:1013E0000000000640000000000000064000000071
:1013F0000000000640000000000000064000000061
:101400000000000640000000000000064000000050
:101410000000000540000000241400080000000047
:101420000000000009000F0003000200581400082B
:10143000DC15000800000000441400080000000053
:101440000000000009000F0003000200581400080B
:10145000F415000800000000400000500000640087
:10146000006900006A40006A90006AA4006AA9004E
:101470006A954066900051A40041A40000690000F4
:10148000690000140000000094140008000000002F
:10149000000000000C00140003000200C814000843
:1014A000DC15000800000000B41400080000000073
:1014B000000000000C00140003000200C814000823
:1014C000F415000800000000400000500000640017
:1014D000006900006A40006A90006AA4006AA900DE
:1014E0006AAA406AAA906AAAA46AA95569A900646E
:1014F0006A40506A40401A90001A900006A4000604
:10150000A4000150101500080000000000000000B9
:1015100012001E000500020044150008DC1500083A
:10152000000000003015000800000000000000006E
:1015300012001E000500020044150008F415000802
:1015400000000000400000000050000000006400A7
:1015500000000069000000006A400000006A90007E
:1015600000006AA40000006AA90000006AAA400006
:10157000006AAA9000006AAAA400006AAAA9000052
:101580006AAAAA40006AAAAA90006AAAAAA4006A43
:10159000AAAAA9006AAAAAAA406AAA9555506A9A54
:1015A0009000006A46A400006906A400006401A936
:1015B00000005001A9000040006A400000006A409D
:1015C0000000001A900000001A9000000006A4001D
:1015D000000006A40000000150000000030000000D
:1015E00001000000E8150008FF000000FFFFFF00F9
:1015F00000000000030000000100000000160008C9
:10160000FF00000000000000FFFFFF0070B50400B5
:10161000002C01D10120E5E094F83D00002805D11F
:10162000002084F83C00200001F075F9242084F8A3
:101630003D0020680068400840002168086020687C
:10164000006850F40040216808602068006830F4A9
:1016500000402168086001F04AFA01006068DFF884
:10166000E825904208D2DFF8E405814201D201204A
:1016700000E00020C0B207E0DFF8D405814201D2CB
:10168000012000E00020C0B2012801D10120A9E022
:10169000DFF8C005B1FBF0F22068406880098001E6
:1016A0001043236858602068006A6368DFF8985523
:1016B000AB4201D2531C08E04FF4967303FB02F3D4
:1016C0004FF47A75B3FBF5F35B1C80098001184376
:1016D000236818622068C3696068DFF86C55A84207
:1016E00014D2481E65686D00B0FBF5F0401C000583
:1016F000000D042801D204253EE0481E65686D00F7
:10170000B0FBF5F56D1C2D052D0D35E0A06800280A
:1017100009D14D1E666803204643B5FBF6F0401C18
:101720000005000D0AE04D1E666819204643B5FB12
:10173000F6F0401C0005000D50F48040000501D17A
:10174000012519E0A068002809D14D1E6668032014
:101750004643B5FBF6F56D1C2D052D0D0AE04D1E1B
:10176000666819204643B5FBF6F56D1C2D052D0D59
:1017700055F4804555F40045DFF8DC0403402B4365
:101780002068C3612068036833F0C003E069034345
:10179000206A03432068036020688368DFF8BC0484
:1017A000034020690343E0680343206883602068A6
:1017B000C3681B0A1B02A569606905432B432068A7
:1017C000C3602068006850F00100236818600020A2
:1017D0002064202084F83D0000202063002084F84D
:1017E0003E00002070BD2DE9F84304000D001600F6
:1017F0001F00DDF8208001F0E9F9814694F83D00F2
:10180000202840F0A280CDF8009019230122DFF8B3
:101810005014200000F00CFF002801D0022095E0B9
:1018200094F83C00012801D102208FE0012084F8C7
:101830003C0020680068C00705D42068006850F0AC
:101840000100216808602068006830F400602168A9
:101850000860212084F83D00102084F83E0000201C
:10186000206466626785608D2085DFF8F803E0629A
:101870004B464246290089B2200000F0A1FC002816
:1018800001D0012062E000200090206840690090B3
:101890002068806900900098208D002844D04A4636
:1018A0004146200000F065FF00280AD0206C042883
:1018B00005D12068006850F400702168086001209C
:1018C00044E0606A007821680861606A401C6062D8
:1018D000608D401E6085208D401E208520684069F7
:1018E00040070FD5208D00280CD0606A0078216851
:1018F0000861606A401C6062608D401E6085208DBA
:10190000401E20854A464146200000F05EFF002828
:10191000C2D0206C042805D12068006850F4007003
:1019200021680860012011E02068006850F4007010
:1019300021680860202084F83D00002084F83E00E3
:10194000002084F83C00002000E00220BDE8F28383
:101950002DE9F84304000D0016001F00DDF820807B
:1019600001F034F9814694F83D00202840F0698167
:10197000CDF8009019230122DFF8E412200000F0D6
:1019800057FE002801D002205CE194F83C000128B9
:1019900001D1022056E1012084F83C002068006853
:1019A000C00705D42068006850F001002168086075
:1019B0002068006830F4006021680860222084F804
:1019C0003D00102084F83E00002020646662678598
:1019D000608D2085DFF88C02E0624B46424629008C
:1019E00089B2200000F052FC002801D0012029E13A
:1019F000208D00280FD100200090206840690090C1
:101A000020688069009000982068006850F4007099
:101A10002168086040E0208D012815D12068006809
:101A200030F48060216808600020009020684069E0
:101A3000009020688069009000982068006850F449
:101A400000702168086027E0208D022815D12068E9
:101A5000006830F48060216808602068006850F4F5
:101A600000602168086000200090206840690090B4
:101A700020688069009000980EE02068006850F4AB
:101A80008060216808600020009020684069009014
:101A90002068806900900098208D002800F0C680A2
:101AA000208D042880F09980208D012816D14A4687
:101AB0004146200000F0B5FE002801D00120C1E021
:101AC00020680069616A0870606A401C6062208D4D
:101AD000401E2085608D401E6085DDE7208D022838
:101AE0002DD1CDF8009043460022DFF87C11200074
:101AF00000F09EFD002801D00120A3E020680068CE
:101B000050F400702168086020680069616A0870FC
:101B1000606A401C6062208D401E2085608D401EE2
:101B2000608520680069616A0870606A401C6062B4
:101B3000208D401E2085608D401E6085ACE7CDF86D
:101B4000009043460022DFF82011200000F070FDD5
:101B5000002801D0012075E02068006830F4806022
:101B60002168086020680069616A0870606A401C2A
:101B70006062208D401E2085608D401E6085CDF8FE
:101B8000009043460022DFF8E010200000F050FDF6
:101B9000002801D0012055E02068006850F4007052
:101BA0002168086020680069616A0870606A401CEA
:101BB0006062208D401E2085608D401E60852068FB
:101BC0000069616A0870606A401C6062208D401E76
:101BD0002085608D401E60855EE74A4641462000B4
:101BE00000F01FFE002801D001202BE020680069D2
:101BF000616A0870606A401C6062208D401E20850A
:101C0000608D401E60852068406940077FF544AFC5
:101C100020680069616A0870606A401C6062208DFB
:101C2000401E2085608D401E608535E7202084F8A9
:101C30003D00002084F83E00002084F83C00002095
:101C400000E00220BDE8F283A186010080841E002E
:101C500000093D0040420F000030FFFF007CFFFF05
:101C6000020010000000FFFF040001002DE9F04F0A
:101C700083B005000E0017009846DDF830900D9CEB
:101C8000DDF838A000F0A2FF834695F83D0020283B
:101C900040F0A180CDF800B019230122DFF818151B
:101CA000280000F0C5FC002801D0022094E095F83F
:101CB0003C00012801D102208EE0012085F83C0083
:101CC00028680068C00705D42868006850F0010043
:101CD000296808602868006830F400602968086096
:101CE000212085F83D00402085F83E000020286432
:101CF000C5F824906C85688D2885DFF8B804E86203
:101D0000CDF804B0CDF800A043469BB23A0092B2A1
:101D1000310089B2280000F05BFB002801D00120CF
:101D20005AE0288D002833D05A465146280000F04A
:101D300020FD00280AD0286C042805D128680068F6
:101D400050F4007029680860012045E0686A007856
:101D500029680861686A401C6862288D401E2885D1
:101D6000688D401E6885286840694007D9D5288D50
:101D70000028D6D0686A007829680861686A401C23
:101D80006862288D401E2885688D401E6885C8E7DA
:101D90005A465146280000F018FD00280AD0286C49
:101DA000042805D12868006850F40070296808608C
:101DB000012011E02868006850F40070296808606C
:101DC000202085F83D00002085F83E00002085F8A1
:101DD0003C00002000E00220BDE8FE8F2DE9F04F1E
:101DE00083B083460D0016001F00DDF830800D9C87
:101DF000DDF8389000F0EAFE82469BF83D0020288E
:101E000040F0D481CDF800A019230122DFF8A813F7
:101E1000584600F00DFC002801D00220C7E19BF8D5
:101E20003C00012801D10220C1E101208BF83C00D7
:101E3000DBF800000068C00707D4DBF8000000688A
:101E400050F00100DBF800100860DBF800000068CB
:101E500030F40060DBF80010086022208BF83D00B1
:101E600040208BF83E000020CBF84000CBF82480C7
:101E7000ABF82A40BBF82A00ABF82800DFF834039F
:101E8000CBF82C00CDF804A0CDF800903B009BB21D
:101E9000320092B2290089B2584600F00EFB0028A9
:101EA00001D0012083E1BBF82800002813D10020D5
:101EB0000090DBF8000040690090DBF800008069CA
:101EC00000900098DBF80000006850F40070DBF828
:101ED000001008604AE0BBF8280001281BD1DBF89D
:101EE0000000006830F48060DBF80010086000201B
:101EF0000090DBF8000040690090DBF8000080698A
:101F000000900098DBF80000006850F40070DBF8E7
:101F1000001008602AE0BBF8280002281BD1DBF87B
:101F20000000006830F48060DBF800100860DBF827
:101F30000000006850F40060DBF80010086000202A
:101F40000090DBF8000040690090DBF80000806939
:101F5000009000980AE000200090DBF80000406943
:101F60000090DBF80000806900900098BBF8280022
:101F7000002800F01081BBF82800042880F0D180F0
:101F8000BBF8280001281ED152464946584600F0A9
:101F900048FC002801D0012009E1DBF800000069BD
:101FA000DBF824100870DBF82400401CCBF8240078
:101FB000BBF82800401EABF82800BBF82A00401EE2
:101FC000ABF82A00D2E7BBF8280002283FD1CDF8B1
:101FD00000A04B460022DFF8E411584600F028FB31
:101FE000002801D00120E2E0DBF80000006850F496
:101FF0000070DBF800100860DBF800000069DBF817
:1020000024100870DBF82400401CCBF82400BBF837
:102010002800401EABF82800BBF82A00401EABF891
:102020002A00DBF800000069DBF824100870DBF8F8
:102030002400401CCBF82400BBF82800401EABF85D
:102040002800BBF82A00401EABF82A008EE7CDF826
:1020500000A04B460022DFF86411584600F0E8FA71
:10206000002801D00120A2E0DBF80000006830F475
:102070008060DBF800100860DBF800000069DBF826
:1020800024100870DBF82400401CCBF82400BBF8B7
:102090002800401EABF82800BBF82A00401EABF811
:1020A0002A00CDF800A04B460022DFF81011584658
:1020B00000F0BEFA002801D0012078E0DBF8000033
:1020C000006850F40070DBF800100860DBF80000D6
:1020D0000069DBF824100870DBF82400401CCBF802
:1020E0002400BBF82800401EABF82800BBF82A00EB
:1020F000401EABF82A00DBF800000069DBF8241072
:102100000870DBF82400401CCBF82400BBF8280042
:10211000401EABF82800BBF82A00401EABF82A008E
:1021200024E752464946584600F07BFB002801D080
:1021300001203CE0DBF800000069DBF824100870A7
:10214000DBF82400401CCBF82400BBF82800401E1C
:10215000ABF82800BBF82A00401EABF82A00DBF8D9
:102160000000406940077FF501AFDBF8000000691F
:10217000DBF824100870DBF82400401CCBF82400A6
:10218000BBF82800401EABF82800BBF82A00401E10
:10219000ABF82A00EAE620208BF83D0000208BF8FF
:1021A0003E0000208BF83C00002000E00220BDE84B
:1021B000FE8F00000000FFFF02001000040001007D
:1021C0002DE9F04182B004000D0016001F00D4F884
:1021D0002C80B8F1080F05D0B8F1010F02D02A48C1
:1021E000804506D12068006850F48070216808603E
:1021F00008E0206B122805D12068006850F4807038
:10220000216808600097330000225FF00111200070
:1022100000F00EFA002808D020680068C00502D53A
:102220004FF40070206403202CE02069B0F5804F4B
:1022300004D115F0FE002168086117E015F4407024
:1022400080B2C00950F0F000C0B2216808613B00C4
:102250003200DFF8D013200000F02EFA002801D061
:1022600001200FE02800C0B2216808613B00320065
:10227000DFF8B413200000F01FFA002801D001207D
:1022800000E00020BDE8F6810000FFFF2DE9F041ED
:1022900082B004000D0016001F00D4F82C802068C6
:1022A000006850F4806021680860B8F1080F06D01B
:1022B000B8F1010F03D0DFF87403804506D1206820
:1022C000006850F480702168086008E0206B1128D5
:1022D00005D12068006850F480702168086000977C
:1022E000330000225FF00111200000F0A1F9002866
:1022F00008D020680068C00502D54FF40070206443
:10230000032063E02069B0F5804F05D155F001004E
:10231000C0B2216808614DE015F4407080B2C00978
:1023200050F0F000C0B2216808613B003200DFF8D5
:10233000F412200000F0C0F9002801D0012045E08F
:102340002800C0B2216808613B003200DFF8D812D3
:10235000200000F0B1F9002801D0012036E0002073
:102360000090206840690090206880690090009883
:102370002068006850F4807021680860009733007E
:1023800000225FF00111200000F052F9002808D06F
:1023900020680068C00502D54FF400702064032057
:1023A00014E015F4407080B2C00950F0F100C0B2E2
:1023B000216808613B003200DFF86C12200000F059
:1023C0007BF9002801D0012000E00020BDE8F68163
:1023D0002DE9F84304000D0016001F00DDF82080F1
:1023E000DDF824902068006850F48070216808604F
:1023F000CDF80090434600225FF00111200000F06C
:1024000017F9002808D020680068C00502D54FF4ED
:102410000070206403204EE015F0FE002168086182
:102420004B464246DFF80012200000F045F9002834
:1024300001D001203FE0002000902068406900901A
:1024400020688069009000984A464146200000F0CC
:1024500090F900280AD0206C042805D12068006873
:1024600050F4007021680860012024E0BFB2012F01
:1024700004D13000C0B2216808611BE0300080B296
:10248000000AC0B2216808614A464146200000F0B7
:1024900070F900280AD0206C042805D12068006853
:1024A00050F4007021680860012004E03000C0B2E0
:1024B000216808610020BDE8F2832DE9F84304009B
:1024C0000D0016001F00DDF82080DDF82490206844
:1024D000006850F48060216808602068006850F44B
:1024E000807021680860CDF80090434600225FF0BC
:1024F0000111200000F09CF8002808D02068006836
:10250000C00502D54FF400702064032088E015F068
:10251000FE00216808614B4642464349200000F016
:10252000CBF8002801D001207AE00020009020683C
:102530004069009020688069009000984A464146B2
:10254000200000F016F900280AD0206C042805D1DC
:102550002068006850F400702168086001205FE086
:10256000BFB2012F04D13000C0B2216808611BE066
:10257000300080B2000AC0B2216808614A46414674
:10258000200000F0F6F800280AD0206C042805D1BD
:102590002068006850F400702168086001203FE066
:1025A0003000C0B2216808614A464146200000F070
:1025B000E0F800280AD0206C042805D120680068C3
:1025C00050F4007021680860012029E0206800684C
:1025D00050F4807021680860CDF8009043460022D6
:1025E0005FF00111200000F023F8002808D02068D7
:1025F0000068C00502D54FF40070206403200FE08E
:1026000055F00100C0B2216808614B4642460649B8
:10261000200000F051F8002801D0012000E0002047
:10262000BDE8F28308000100020001000000FFFF86
:102630002DE9F04105000E0017001C00DDF81880A0
:102640003000000CC0B201280AD12868406930402F
:1026500080B2B1B2884201D101200BE0002009E034
:1026600028688069304080B2B1B2884201D101202F
:1026700000E00020FFB2B8421BD114F1010FDFD0FF
:1026800000F0A4FAB0EB0800844201D3002CD7D1AB
:1026900000202863202085F83D00002085F83E00BA
:1026A000286C50F020002864002085F83C000120B0
:1026B00000E00020BDE8F081F8B505000E00140030
:1026C0001F003000000CC0B201280AD12868406900
:1026D000304080B2B1B2884201D101200BE000202D
:1026E00009E028688069304080B2B1B2884201D1E7
:1026F000012000E00020002839D128684069400509
:102700001AD52868006850F40070296808607FF4C2
:1027100080602968486100202863202085F83D00FA
:10272000002085F83E00286C50F00400286400204A
:1027300085F83C0001201BE014F1010FC1D000F02E
:1027400045FAC01B844201D3002CBAD10020286373
:10275000202085F83D00002085F83E00286C50F0D0
:1027600020002864002085F83C00012000E00020C3
:10277000F2BD70B505000C0016002868406900061F
:1027800021D4280000F086F8002801D001201BE0A9
:1027900014F1010FF1D000F019FA801B844201D32B
:1027A000002CEAD100202863202085F83D0000207D
:1027B00085F83E00286C50F020002864002085F841
:1027C0003C00012000E0002070BD70B505000C0049
:1027D000160028684069400721D4280000F05AF804
:1027E000002801D001201BE014F1010FF1D000F00E
:1027F000EDF9801B844201D3002CEAD1002028632C
:10280000202085F83D00002085F83E00286C50F01F
:1028100020002864002085F83C00012000E0002012
:1028200070BD70B505000C001600286840694006B0
:102830002ED428684069C00612D57FF010002968A0
:10284000486100202863202085F83D00002085F89D
:102850003E00286C2864002085F83C00012018E028
:1028600000F0B4F9801B844201D3002CDDD100209C
:102870002863202085F83D00002085F83E00286C64
:1028800050F020002864002085F83C00012000E082
:10289000002070BD010008684069400514D57FF430
:1028A00080600A68506100200863202081F83D00A4
:1028B000002081F83E00086C50F0040008640020FD
:1028C00081F83C00012000E00020704780B52D48D1
:1028D0002D4908602D482C49486000202A4988600D
:1028E00000202949C8604FF4804027490861002032
:1028F0002549486100202449886100202249C86197
:102900000020214908622048FEF780FE002801D0FF
:1029100000F0C8FA01BD10B586B0040001A814216A
:1029200000F0FEFA20681749884229D10020009063
:102930001748006850F00200154908601448006804
:1029400010F00200009000980020009011480068EC
:1029500050F400100F4908600E48006810F4001091
:1029600000900098C0200190122002900120039056
:10297000032004900420059001A9074800F004FBFF
:1029800006B010BD00540040C8420120A0860100DE
:1029900030380240403802400004024070B5040064
:1029A0000D00002C01D101209DE05C48006810F072
:1029B0000F00A84209D2594805705848006810F025
:1029C0000F00A84201D001208DE02078800719D5A2
:1029D0002078400705D55248006850F4E05050492F
:1029E00008602078000705D54D48006850F4604025
:1029F0004B4908604A48016831F0F001A068014382
:102A0000474801602078C00736D56068012805D1A5
:102A100044480068800313D4012064E06068022801
:102A200002D06068032805D13E480068800107D4C1
:102A3000012058E03B480068800701D4012052E0A3
:102A4000374801688908890060680143344801609B
:102A500000F0BCF806003248006810F00C00616815
:102A6000B0EB810F08D000F0B1F8801B41F2893142
:102A70008842F0D3032036E02848006810F00F00A9
:102A8000854209D2254805702448006810F00F00DF
:102A9000A84201D0012026E02078400707D5204831
:102AA000016831F4E051E06801431D48016020787D
:102AB000000708D51A48006830F46040216950EAE0
:102AC000C1001749086000F037F81749144A126826
:102AD000C2F30312895CC8401449086014480068B6
:102AE00000F090FB002070BD10480068704780B572
:102AF000FFF7FAFF0F490A4A1268C2F38222895C83
:102B0000C84002BD80B5FFF7EFFF0A49044A1268CA
:102B1000C2F34232895CC84002BD0000003C024062
:102B2000083802400038024088E50108080000200B
:102B3000040000205CE70108F0B500240025002611
:102B400000271E48006810F00C00002804D004285C
:102B500004D0082804D02FE019482EE019482CE0B2
:102B60001948006810F03F00040017480068400250
:102B70000CD515480068C0F388101249A1FB00016C
:102B80002200002300F064FB05000BE00E48006803
:102B9000C0F388100A49A1FB00012200002300F0C5
:102BA00057FB050008480068C0F30140401C400086
:102BB0000600B5FBF6F000E00148F0BD0838024021
:102BC0000024F40000127A00043802400148006832
:102BD000704700BF9848012000B583B000F0DCFBCF
:102BE00000F0E2F800F0F8FB00F01EFC00F0E6FC5C
:102BF00000F082FDFFF76AFE00F02AFE00F0FCFD07
:102C000000F051FE00F071FE14229249924801F04A
:102C100072F814229149924801F06DF80020019059
:102C200003200090002380228E490FF2411001F012
:102C3000CDFB002001900220009000234FF4FA7297
:102C400089490FF2391001F0C1FB002001900320E7
:102C500000900023802285490FF2490001F0B6FB65
:102C600001F0E8FCFEE710B50400206880498842C6
:102C700009D114227749200001F011F81422754976
:102C8000200001F038F820687A49884209D11422DE
:102C90007249200001F003F814227049200001F06D
:102CA0002AF810BD10B586B0040000208DF8110080
:102CB00000208DF8100002F061F9042002900A2033
:102CC00001900A2000900A231922022140F2E570A7
:102CD00002F064F902F051FA10F1010F02D16648D6
:102CE00002F0F0FA654802F0EDFA02F0B6FB02F0ED
:102CF000AEF96348807A039061488078029060481A
:102D0000407801905E48007800905D48437A5C48C6
:102D1000027A5B4841685B4802F0D4FA02F06DFA2F
:102D200010F1010F03D1584802F0CCFA06E05748E1
:102D3000428856480188564802F0C4FA04A90DF1A9
:102D4000110002F05AFB002807D19DF810209DF8D1
:102D50001110504802F0B6FA02E04F4802F0B2FA01
:102D60004FF47A7001F03FFCC1E7000010B5040099
:102D700002F08EFB0A2001F036FCF9E710B50400E2
:102D800002F066FD002002F0B9FE04F06BF804F0DA
:102D9000A9F804F025F904F057F9012004F06CF9C2
:102DA000642004F079F9FBE700B593B006A8302160
:102DB00000F0B6F801A8142100F0B2F8002000904D
:102DC0003648006850F08050344908603348006845
:102DD00010F080500090009800200090304800686B
:102DE00050F480402E4908602D48006810F480405F
:102DF00000900098012006905FF480300790022038
:102E00000C905FF480000D9004200E90A8200F908D
:102E1000022010900420119006A804F073F90028F5
:102E200001D000F03FF80F20019002200290002016
:102E300003904FF4A05004904FF48050059005216A
:102E400001A8FFF7ABFD002801D000F02BF813B06C
:102E500000BD0000A846012088440120BC46012096
:102E6000C8440120BCE60108C8E60108D4E6010810
:102E70000010014000440040E8E401084CE3010870
:102E80008447012070D90108FCE401089048012022
:102E90004CDF010864E3010854E7010840380240B0
:102EA000007000407047F0B402461068956813182F
:102EB000506803EB5004C00721D54D441FE0F0BC1F
:102EC00002F10C00704713F8017B05F8017B491EE5
:102ED000F9D1A0B1B60813F8011B06F00306032EC2
:102EE00008BF13F8016B01EB06214942801C2944FD
:102EF00005D011F8016B05F8016B401EF9D1A34212
:102F0000DDD013F8016B16F0030104BF13F8011BA9
:102F1000C91C30090F28DAD113F8010B0F30D6E79E
:102F2000002204F0F5BAF0B587B085680C9F0097D1
:102F3000BC1A581A013400FB0444D5F8A8700D9E41
:102F40002846B847D5F834312E209847D5F8503167
:102F5000296A02A89847D5F85031022102A898475B
:102F6000BDF80A30C3F3C4025B1103F4FC631343DE
:102F7000BDF80820120222F4FF621343013C26F838
:102F8000023BE8D107B0F0BDF8B4002300240025CF
:102F90000026102E80F004810122B24013000A683E
:102FA0001A4014009C4240F0F9804A68012A08D077
:102FB0004A68022A05D04A68112A02D04A68122AB1
:102FC00024D187685FF0030C3200D2B252001CFAA1
:102FD00002FC37EA0C07D1F80CC03200D2B2520022
:102FE0001CFA02FC5CEA0707876042685FF0010C8C
:102FF0001CFA06FC32EA0C02D1F804C0CCF3001C27
:103000001CFA06FC5CEA020215004560C7685FF026
:10301000030C3200D2B252001CFA02FC37EA0C0751
:10302000D1F808C03200D2B252001CFA02FC5CEAAD
:103030000707C7604A68022A02D04A68122A1ED1CE
:103040003200D20800EB8202156A5FF00F0C16F016
:103050000702D2B292001CFA02FC35EA0C05D1F844
:1030600010C016F00702D2B292001CFA02FC5CEA11
:1030700005052F003200D20800EB820217620568B6
:103080005FF0030C3200D2B252001CFA02FC35EAA7
:103090000C0591F804C01CF0030C3200D2B25200AF
:1030A0001CFA02FC5CEA050505604A68D20075D589
:1030B00000220092454A126852F48042434F3A601F
:1030C000424A126812F480420092009A404A370045
:1030D000BF0852F827705FF00F0C16F00302D2B24F
:1030E00092001CFA02FC37EA0C073A4A904201D1DE
:1030F000002523E0384A904201D101251EE0374ADD
:10310000904201D1022519E0354A904201D10325B0
:1031100014E0344A904201D104250FE0324A904233
:1031200001D105250AE0314A904201D1062505E08A
:103130002F4A904201D1072500E00825EDB216F094
:103140000302D2B2920095402F43214A3500AD08C8
:1031500042F82570274A1268A2434D68ED0300D556
:103160002243244D2A60244D2D68A5434F68BF0398
:1031700000D52543204A1560204A1268A2434F68B3
:10318000FF0200D522431D4D2A601D4D2D68A54329
:103190004F68BF0200D52543194A1560761CF8E632
:1031A000F1BC70470200106989B2084201D00120C9
:1031B00000E00020C0B27047D2B2002A02D089B22B
:1031C000816102E089B20B04836170474438024098
:1031D000083801400000024000040240000802409C
:1031E000000C02400010024000140240001802408F
:1031F000001C0240003C0140043C0140083C0140EE
:103200000C3C014010B504004FF47A700D49097868
:10321000B0FBF1F00C490968B1FBF0F004F042FAA0
:10322000002801D001200CE0102C09D2002221003E
:103230005FF0FF3004F01AFA04480460002000E058
:10324000012010BDDE030020080000200400002043
:103250001B4213D1094236D12AB18446B0FBF2F0A9
:1032600002FB10C2704704F055BAFCD300220023C1
:1032700070470B000200002100207047904271EB64
:10328000030CF6D370B5B1FA81F4B3FA83F52C1BB5
:10329000A340C4F1200532FA05F63343A2405FF0A3
:1032A0000046E64002E05B085FEA3202841A71EBF6
:1032B000030524BF204629467641F4D302000B00C3
:1032C0003000002170BD012ACFD970B5140C20D078
:1032D000B1FA81F4B2FA82F5C4F120046419B4F1B0
:1032E0002006D6D3B2405FF00044F440002502E04F
:1032F00052085FEA3303C61A71EB020E24BF304650
:10330000714664416D41F3D302000B002000290097
:1033100070BD0C46B1FBF2F102FB11452D0445EAEC
:103320001045B5FBF2F402FB145580B240EA0545A6
:10333000B5FBF2F002FB105240EA044070BD0139C7
:1033400080680D2923D8DFE801F0090B0D0F222238
:10335000221125070713181D0120704700687047C8
:103360004068704780687047C0687047806B7047DE
:1033700088B1406B00F00100704760B1406BC0F352
:103380004000704738B1406BC0F3800070474FF089
:10339000FF3070470020704780B50E48006850F439
:1033A00000700C4908600B48006850F480600949BF
:1033B00008600848006850F48070064908600320DF
:1033C00004F04EF90020FFF71DFF04F0BFF90020C4
:1033D00002BD0000003C024080B510481049086062
:1033E0000F4804F0D7F9002801D0FFF75BFD01BDBD
:1033F00081B00168094A91420DD10021009109492B
:10340000096851F48051074A11600649096811F4AE
:1034100080510091009901B07047000000300240D7
:10342000184801203038024000B587B001A81421A7
:10343000FFF776FD002000905C48006850F08000A7
:103440005A4908605948006810F0800000900098C0
:10345000002000905548006850F001005349086072
:103460005248006810F00100009000980020009081
:103470004E48006850F010004C4908604B48006806
:1034800010F010000090009800200090474800685D
:1034900050F00200454908604448006810F00200FE
:1034A00000900098002000904048006850F008000C
:1034B0003E4908603D48006810F008000090009800
:1034C000002000903948006850F004003749086037
:1034D0003648006810F00400009000980022032194
:1034E0003348FFF769FE032001900120029000207D
:1034F00003900020049001A92D48FFF745FD07B077
:1035000000BD00B585B068461421FFF709FD4FF4F2
:103510008040009000200190012002900220039042
:1035200069462348FFF730FD2020009000200190DD
:10353000012002900220039069461E48FFF724FDF7
:103540004FF43040009001200190022003900120B0
:10355000029069461648FFF717FD05B000BD00B59B
:1035600085B068461421FFF7DBFC10200090002096
:1035700001900020029069460F48FFF705FD05B055
:1035800000BD00B585B068461421FFF7C9FC1020C6
:1035900000900120019001200290002003906946D4
:1035A0000548FFF7F1FC05B000BD000030380240CF
:1035B00000040240000802400000024000B587B04D
:1035C00068461C21FFF7ACFC5FF0204044490860CE
:1035D00044484349486000204149886000204049F0
:1035E000C86000203E49086110203D494861002024
:1035F0003B49886100203A49C86100203849086287
:103600000020374948624FF48050354988620020D5
:103610003349C862002032490863002030494863BA
:1036200000202F49886300202D4948640220009023
:1036300002200190062002900F2003901020049099
:10364000112005900020069000226946244804F0CD
:10365000B3F8002801D0FFF725FC07B000BD00B586
:1036600087B001A81421FFF75BFC1F480068002801
:103670002ED101201C490860002000901B480068E2
:1036800050F00100194908601848006810F0010066
:10369000009000984FF68070019002200290002068
:1036A0000390032004900C20059001A91048FFF717
:1036B0006BFC4EF2B3700190022002900020039048
:1036C000032004900C20059001A90A48FFF75CFC38
:1036D00007B000BD10B50400FFF7C1FF10BD00002A
:1036E0001C430120040100A070480120383802402A
:1036F00000100240000C024080B53A483A49086088
:103700004FF48270384948600020374988600020B3
:103710003549C860002034490861002032494861B9
:103720004FF400703049886100202F49C8610020A3
:103730002D49086200202C49486200202A498862ED
:103740000A202949C862284804F064F8002801D0FA
:10375000FFF7A8FB01BD10B586B0040001A8142135
:10376000FFF7DEFB20681F49884229D10020009026
:103770001E48006850F480501C4908601B480068CF
:1037800010F48050009000980020009018480068C5
:1037900050F00200164908601548006810F0020059
:1037A00000900098382001900220029000200390A1
:1037B000032004900520059001A90E48FFF7E4FBC3
:1037C00006B010BD01B582B04FF47A7000900123AD
:1037D00001AA02A9044804F064F89DF804000EBD93
:1037E000000000000030014018420120443802402F
:1037F000303802400004024080B5DFF81803DFF8DB
:10380000181308605FF4E130DFF80C134860002003
:10381000DFF8041388600020DFF8FC12C860002085
:10382000DFF8F41208610C20DFF8EC124861002088
:10383000DFF8E41288610020DFF8DC12C861DFF8ED
:10384000D80200F081F9002801D0FFF72BFB01BD61
:1038500080B5DFF8C802DFF8C81208605FF4E13015
:10386000DFF8BC1248600020DFF8B4128860002046
:10387000DFF8AC12C8600020DFF8A41208610C2049
:10388000DFF89C1248610020DFF894128861002064
:10389000DFF88C12C861A24800F056F9002801D068
:1038A000FFF700FB01BD80B59E489F4908604FF4BB
:1038B00016509D49486000209B49886000209A4925
:1038C000C8600020984908610C2097494861002091
:1038D0009549886100209449C861934800F034F903
:1038E000002801D0FFF7DEFA01BD80B58F4890496E
:1038F00008604FF416508E49486000208C4988605B
:1039000000208B49C8600020894908610C20884943
:10391000486100208649886100208549C861844843
:1039200000F012F9002801D0FFF7BCFA01BD10B574
:1039300086B0040068461421FFF7F2FA2068754942
:10394000884232D1002005907A48006850F4002067
:10395000784908607748006810F4002005900598C1
:10396000002005907448006850F00100724908601A
:103970007148006810F00100059005980320009040
:10398000022001900120029003200390082004905F
:1039900069466A48FFF7F8FA00220521342003F04F
:1039A00065FE342003F077FEA5E020685B4988427D
:1039B00033D1002005906248006850F01000604943
:1039C00008605F48006810F010000590059800201E
:1039D00005905948006850F0010057490860564862
:1039E000006810F00100059005984FF4C060009049
:1039F00002200190012002900320039007200490F0
:103A000069464E48FFF7C0FA00220521252003F041
:103A10002DFE252003F03FFE6DE0206841498842DD
:103A200032D1002005904348006850F400304149ED
:103A300008604048006810F40030059005980020A8
:103A400005903D48006850F001003B4908603A4845
:103A5000006810F00100059005980C2000900220ED
:103A600001900120029003200390072004906946F2
:103A70003248FFF789FA00220521262003F0F6FDDF
:103A8000262003F008FE36E020682849884232D11B
:103A9000002005902748006850F4802025490860E0
:103AA0002448006810F480200590059800200590B7
:103AB0002148006850F002001F4908601E48006855
:103AC00010F00200059005984FF44060009002202D
:103AD0000190012002900320039007200490694682
:103AE0001848FFF751FA00220521272003F0BEFDF8
:103AF000272003F0D0FD06B010BD11B581B00C0039
:103B00004FF6FF73012201A9034800F058F801980D
:103B100016BD0000004C0040484401200010014048
:103B20008844012000440040C8440120004800406F
:103B30000845012040380240303802400000024071
:103B4000443802400004024010B50400002C01D1AA
:103B5000012033E0A0690028FFD194F83900002843
:103B600005D1002084F838002000FFF7E0FE242073
:103B700084F839002068C06830F400502168C860BB
:103B8000200000F08BFA2068006930F49040216832
:103B900008612068406930F02A0021684861206887
:103BA000C06850F400502168C8600020E063202005
:103BB00084F83900202084F83A00002010BD2DE957
:103BC000F04782B006000C0015001F005FF0000AED
:103BD00096F8390020285FD1002C02D0ADB2002D1C
:103BE00001D1012059E096F83800012801D10220C6
:103BF00053E0012086F838000020F063212086F889
:103C00003900FEF7E3FF8146B584F584002086F88D
:103C10003800F08C00282FD0F08C401EF084B06863
:103C2000B0F5805F18D100974B460022802130000C
:103C300000F041F9002801D003202EE0A046B8F89A
:103C40000000C005C00D316848603069002801D10E
:103C5000A41CDEE7641CDCE700974B4600228021B1
:103C6000300000F028F9002801D0032015E020786A
:103C700031684860641CCCE700974B460022402125
:103C8000300000F018F9002801D0032005E02020C2
:103C900086F83900002000E00220BDE8F68710B465
:103CA000030093F83900202822D1002902D092B2D3
:103CB000002A01D101201CE093F83800012801D12D
:103CC000022016E0012083F8380019629A84DA8411
:103CD0000020D863212083F83900002083F83800C1
:103CE0001868C06850F080001C68E060002000E0A8
:103CF000022010BC704710B4030093F83A0020284B
:103D00002ED1002902D092B2002A01D1012028E050
:103D100093F83800012801D1022022E0012083F825
:103D2000380099629A85DA850020D863222083F8CA
:103D30003A00002083F838001868C06850F480709A
:103D40001C68E0601868406950F001001C68606100
:103D50001868C06850F020001C68E060002000E097
:103D6000022010BC70472DE9F84306003068076850
:103D70003068D0F80C803068D0F81490002000250E
:103D800017F00F04002C08D1B80606D55FEA88604A
:103D900003D5300000F02BF98BE0002C77D05FEAE0
:103DA000C97002D418F4907F71D017F00100C0B22E
:103DB000002806D05FEAC85003D5F06B50F0010030
:103DC000F063780708D519F00100C0B2002803D0CD
:103DD000F06B50F00200F063B80708D519F001004D
:103DE000C0B2002803D0F06B50F00400F063380735
:103DF0000BD55FEA886004D419F00100C0B2002836
:103E000003D0F06B50F00800F063F06B00283DD059
:103E1000B80605D55FEA886002D5300000F0E7F803
:103E200030684069800910F001000500F06B000760
:103E300001D4002D25D0300000F074F830684069BE
:103E400040061AD53068406930F04000316848615A
:103E5000706B00280DD00FF2F100716B0865706B6C
:103E600003F002FF002811D0706B716B096D884759
:103E70000CE0300003F00CFF08E0300003F008FF16
:103E800004E0300003F004FF0020F06311E0380686
:103E900006D55FEA086003D5300000F061F808E05D
:103EA000780606D55FEA486003D5300000F08FF849
:103EB000FFE7BDE8F1832DE9F04105000E00170092
:103EC0009846069C286800683040B04201D1012025
:103ED00000E00020FFB2B84221D114F1010FF1D06F
:103EE000002C05D0FEF772FEB0EB08008442E9D248
:103EF0002868C06830F4D0702968C86028684069B4
:103F00004008400029684861202085F839002020B9
:103F100085F83A00002085F83800032000E00020F2
:103F2000BDE8F0810168C96831F490710268D16020
:103F3000016849694908490002685161202180F8F7
:103F40003A1070470000000038B50400A56B00204F
:103F5000E8850020E884280003F09AFE31BD0000C7
:103F6000010091F8390021282FD18868B0F5805FD1
:103F700011D1086A02001088C005C00D0B68586096
:103F80000869002803D1086A801C086209E0086AF1
:103F9000401C086205E0086A431C0B6200780B684D
:103FA0005860C88C401EC88480B200280BD10868B5
:103FB000C06830F080000B68D8600868C06850F0B6
:103FC00040000B68D860002000E00220704710B568
:103FD00004002068C06830F040002168C8602020DC
:103FE00084F83900200003F054FE002010BD38B5DD
:103FF000040094F83A0022284ED1A068B0F5805F02
:1040000016D1A06A05002069002808D12068406800
:10401000C005C00D2880A06A801CA0621AE020683C
:10402000406800F0FF002880A06A401CA06211E0F8
:104030002069002806D1A06A411CA1622168496854
:10404000017007E0A06A411CA1622168496811F073
:104050007F010170E08D401EE08580B2002819D1FB
:104060002068C06830F020002168C8602068C068FF
:1040700030F480702168C8602068406940084000C2
:1040800021684861202084F83A002000FEF7EBFD0B
:10409000002002E0002000E0022032BD2DE9F041C6
:1040A00005002868016931F44051E8680143286837
:1040B0000161AE682869064368690643E8690643FA
:1040C0002868C168BE48014031432868C16028683B
:1040D000416931F44071A869014328684161E86988
:1040E000B0F5004F40F0B6802868B649884203D04A
:1040F0002868B549884256D1FEF704FD040019200E
:10410000A0FB04016A680223A3FB0223FFF7A0F8C7
:104110006421B0FBF1F71920A0FB04016A680223B7
:10412000A3FB0223FFF794F880461920A0FB0401AB
:104130006A680223A3FB0223FFF78AF86421B0FB1D
:10414000F1F1642000FB1181C80032306421B0FB22
:10415000F1F0400010F4F87010EB07100700192080
:10416000A0FB04016A680223A3FB0223FFF770F897
:1041700080461920A0FB04016A680223A3FB0223E6
:10418000FFF766F86421B0FBF1F1642000FB1181B8
:10419000C80032306421B0FBF1F010F00700C01904
:1041A0002968886009E1FEF7A2FC04001920A0FB41
:1041B00004016A680223A3FB0223FFF749F8642184
:1041C000B0FBF1F71920A0FB04016A680223A3FBEE
:1041D0000223FFF73DF880461920A0FB04016A681E
:1041E0000223A3FB0223FFF733F86421B0FBF1F1B4
:1041F000642000FB1181C80032306421B0FBF1F073
:10420000400010F4F87010EB071007001920A0FB15
:1042100004016A680223A3FB0223FFF719F8804612
:104220001920A0FB04016A680223A3FB0223FFF705
:104230000FF86421B0FBF1F1642000FB1181C8008C
:1042400032306421B0FBF1F010F00700C01929688A
:104250008860B2E028685B49884203D028685A49E0
:10426000884255D1FEF74EFC04001920A0FB040142
:104270006A680423A3FB0223FEF7EAFF6421B0FB74
:10428000F1F71920A0FB04016A680423A3FB0223B1
:10429000FEF7DEFF80461920A0FB04016A680423B4
:1042A000A3FB0223FEF7D4FF6421B0FBF1F16420ED
:1042B00000FB1181080132306421B0FBF1F010F0F5
:1042C000F00010EB071007001920A0FB04016A683A
:1042D0000423A3FB0223FEF7BBFF80461920A0FBAB
:1042E00004016A680423A3FB0223FEF7B1FF6421E3
:1042F000B0FBF1F1642000FB118108013230642130
:10430000B0FBF1F010F00F00C0192968886054E08C
:10431000FEF7EDFB04001920A0FB04016A680423EA
:10432000A3FB0223FEF794FF6421B0FBF1F71920F1
:10433000A0FB04016A680423A3FB0223FEF788FFA5
:1043400080461920A0FB04016A680423A3FB022312
:10435000FEF77EFF6421B0FBF1F1642000FB1181C8
:10436000080132306421B0FBF1F010F0F00010EBE6
:10437000071007001920A0FB04016A680423A3FBAF
:104380000223FEF765FF80461920A0FB04016A683E
:104390000423A3FB0223FEF75BFF6421B0FBF1F1D2
:1043A000642000FB1181080132306421B0FBF1F080
:1043B00010F00F00C01929688860BDE8F081000086
:1043C000F369FFFF00100140001401402DE9F04F98
:1043D00085B006000F0090469946DDF838A0DDF85C
:1043E0003CB01FFA88F85FEA880003F053FC050030
:1043F000002D0BD0582003F04DFC0400002C01D000
:10440000256304E0280003F0D2FC00E00024002C27
:1044100013D0002003900294CDF804B0CDF800A092
:104420004B461FFA88F842463900300000F00AF87F
:10443000200000F077F8012001E05FF0FF3005B0C8
:10444000BDE8F08F2DE9F14F82B00D0016001F007E
:10445000DDF830800D9CDDF83890B00000905FF002
:10446000A50BD9F830A05A460099504603F04EFDEE
:10447000D9F8300000EB8600B0F1040A5FEADA0AEE
:104480005FEACA0A1AF00700002807D0502080F31C
:104490001188BFF34F8FBFF36F8FFEE75FF0000B04
:1044A000BBF10A0F0CD215F80B0009EB0B0181F8D8
:1044B000340015F80B00002802D01BF1010BEFE7C8
:1044C000002089F83D00B8F1050F01D30420804693
:1044D000C9F82C80C9F848800020C9F84C0019F1AF
:1044E000040003F055FD19F1180003F051FDC9F85F
:1044F0001090D8F10500C9F81800C9F824900020E0
:10450000C9F85000002089F854003A00029950463A
:1045100003F07CFDC9F80000002C01D0C4F8009025
:10452000BDE8F78F10B5040003F0FFFDDFF8B80316
:104530000068401CDFF8B0130860DFF82004006852
:1045400000280AD1DFF814040460DFF89C03006837
:10455000012811D100F003FB0EE0DFF8040400682D
:10456000002809D1E06ADFF8F4130968C96A8842B3
:1045700002D3DFF8E8030460DFF81C040068401C85
:10458000DFF814140860DFF8100400682064DFF816
:104590000C0401680122E06A82401143DFF8FC0349
:1045A0000160211DDFF8F823E36A1420434302EB86
:1045B000030003F0F0FC03F0D5FDDFF8A40300686E
:1045C00000280FD0DFF894030068C06AE16A8842CF
:1045D00008D25FF08050DFF8C8140860BFF34F8F37
:1045E000BFF36F8F10BD38B505000024002D15D026
:1045F000DFF87C040068002807D0502080F3118881
:10460000BFF34F8FBFF36F8FFEE700F04CF8002130
:10461000280000F009FC00F04EF80400002C08D13E
:104620005FF08050DFF878140860BFF34F8FBFF35E
:104630006F8F31BD1CB5DFF8D407019000200090CA
:1046400000238222DFF8C8170FF2ED40FFF7BEFE0D
:104650000400012C02D103F007FE0400012C16D146
:10466000502080F31188BFF34F8FBFF36F8F5FF03F
:10467000FF30DFF8A01708600120DFF8E4120860BF
:104680000020DFF8F013086003F0E9FC0AE014F101
:10469000010F07D1502080F31188BFF34F8FBFF374
:1046A0006F8FFEE713BDDFF8C8030068401CDFF81A
:1046B000C0130860704770B500250026DFF8B0030E
:1046C0000068002807D1502080F31188BFF34F8F76
:1046D000BFF36F8FFEE703F028FDDFF89403006857
:1046E000401EDFF88C130860DFF8840300680028A0
:1046F0005BD17D480068002857D0DFF80C070068C0
:1047000000282AD0DFF80007C068C068050015F14E
:10471000180003F067FC281D03F064FCDFF87C023E
:1047200001680122E86A82401143DFF870020160EB
:10473000291DDFF86C22EB6A1420434302EB0300CF
:1047400003F029FCE86A85490968C96A8842D4D31C
:104750000120DFF8C8160860CFE7002D01D000F077
:1047600066FADFF8B4060468002C0ED000F025F8D5
:10477000002803D00120DFF8A4160860641E002C76
:10478000F4D10020DFF890160860DFF8900600688A
:1047900000280AD0012006005FF08050DFF80013E7
:1047A0000860BFF34F8FBFF36F8F03F0DBFC300067
:1047B00070BDDFF8C002006870472DE9F0410027A6
:1047C000AB48006800287CD1DFF8A8020468641CAC
:1047D000DFF8A0020460002C24D1DFF85403006845
:1047E0000068002807D0502080F31188BFF34F8F56
:1047F000BFF36F8FFEE7DFF83803D0F80080DFF8F3
:1048000034030068DFF828130860DFF82803C0F8D5
:104810000080DFF80C060068401CDFF80416086012
:1048200000F005FADFF8EC05006884423DD3DFF8BC
:10483000000300680068002805D15FF0FF30DFF852
:10484000D415086031E0DFF8E8020068C068C0688D
:10485000050068680600B44203D2DFF8B8050660B8
:1048600023E0281D03F0BEFBA86A002803D015F141
:10487000180003F0B7FB494801680122E86A82404A
:10488000114346480160291D454AEB6A1420434301
:1048900002EB030003F07FFBE86A30490968C96A4C
:1048A0008842C4D301200700C1E73D492B48006876
:1048B000C26A142042438858022809D30120070005
:1048C00006E0DFF854050068401CDFF84C1508606E
:1048D000DFF848050068002801D0012007003800F3
:1048E000BDE8F08100000000AC480120604800688D
:1048F000002804D00120DFF8241508602CE00020F7
:10490000DFF81815086025480068B0FA80F1D1F189
:104910001F012348142202FB01F28058002807D10E
:10492000502080F31188BFF34F8FBFF36F8FFEE7E6
:104930001B48142202FB01F2104442685268426094
:10494000426810F108039A4202D1426852684260FC
:104950004068C068014A1060704700009C48012010
:10496000B848012038B504000D00002C07D15020B4
:1049700080F31188BFF34F8FBFF36F8FFEE7DFF82F
:104980002805006810F11801200003F010FB012138
:10499000280000F049FA31BDC8480120B448012080
:1049A0005441012070B505000E001400002D07D100
:1049B000502080F31188BFF34F8FBFF36F8FFEE756
:1049C000DFF8E404006810F11801280003F0E3FAAE
:1049D000002C02D05FF0FF3006002100300000F014
:1049E00023FA70BD000038B50500E868C468002CE3
:1049F00007D1502080F31188BFF34F8FBFF36F8F23
:104A0000FEE714F1180003F0EDFA194800680028D9
:104A100017D1201D03F0E6FADFF8900401680122A7
:104A2000E06A82401143DFF884040160211DDFF851
:104A30008024E36A1420434302EB030003F0ABFA43
:104A400005E014F11801DFF8C00303F0A4FADFF861
:104A500058040068C06AE16A884205D20120012139
:104A6000DFF8C023116000E0002032BD000000002C
:104A7000D4480120B0480120002807D1502181F3FB
:104A80001188BFF34F8FBFF36F8FFEE7DFF89013EE
:104A900009680160DFF82014096841607047000070
:104AA00004ED00E0F8B504000D00002C07D1502003
:104AB00080F31188BFF34F8FBFF36F8FFEE7002D98
:104AC00007D1502080F31188BFF34F8FBFF36F8F52
:104AD000FEE703F02AFBDFF8E0030668286810F120
:104AE000010F01D100271AE0DFF8340300682168C4
:104AF000884204D06068864201D301270FE06068D5
:104B0000301A2968884209D22968891B60684118CF
:104B100029602000FFF7B0FF002700E0012703F025
:104B200021FB3800F2BD0120DFF8F8120860704761
:104B3000A0480120A448012010B5040000F03CF872
:104B4000DFF86C0300680228F8D35FF08050DFF8CC
:104B50006C130860BFF34F8FBFF36F8FEEE710B594
:104B60000024052C09D2DFF84803142101FB04F1CD
:104B7000084403F0FEF9641CF3E7DFF8440303F094
:104B8000F8F9DFF8400303F0F4F9DFF87C0203F0F2
:104B9000F0F9DFF8340303F0ECF9DFF8300303F049
:104BA000E8F9DFF81C03DFF828130860DFF81403C6
:104BB000DFF82013086010BD38B5DFF81C0300686B
:104BC00000282AD0FFF76FFDDFF8FC0200680028FC
:104BD00001D1012400E00024FFF76DFD002CECD191
:104BE00003F0A3FADFF8E002C068C568281D03F0EF
:104BF000F9F9DFF8E8020068401EDFF8E01208600B
:104C0000DFF8D4020068401EDFF8CC12086003F021
:104C1000A9FA280000F002F8CFE731BD10B5040072
:104C2000206B03F0C4F8200003F0C1F810BDDFF8DA
:104C3000A00200680068002804D15FF0FF30754AC8
:104C4000106008E0DFF888020068C068C0680100F2
:104C50004868704A10607047DFF84C02006870477F
:104C60000000DFF87C020068002801D1012007E085
:104C7000DFF840020068002801D1022000E0002097
:104C8000704738B504002500002C50D0E86ADFF8E2
:104C900018120968C96A884249D2A869002806D44E
:104CA000DFF804020068C06AD0F10500A8616969F4
:104CB000DFF8FC21EB6A1420434302EB030081423E
:104CC00030D1281D03F08EF9002811D1DFF8E01152
:104CD000EA6A142042438858002809D1DFF8CC0141
:104CE00001680122E86A82409143DFF8C001016057
:104CF000DFF8B4010068C06AE862DFF8B00101685B
:104D00000122E86A82401143DFF8A0010160291DF9
:104D1000DFF89C21EB6A1420434302EB030003F00D
:104D20003AF904E0DFF880010068C06AE86231BD4A
:104D300070B5040025000026002C54D0DFF868016F
:104D40000068854207D0502080F31188BFF34F8F51
:104D5000BFF36F8FFEE7E86C002807D1502080F387
:104D60001188BFF34F8FBFF36F8FFEE7E86C401ED3
:104D7000E864E86AA96C884235D0E86C002832D132
:104D8000281D03F02FF9002811D1DFF82411EA6A59
:104D9000142042438858002809D1DFF81001016827
:104DA0000122E86A82409143DFF800010160A86CAB
:104DB000E862E86AD0F10500A861DFF8F000016858
:104DC0000122E86A82401143DFF8E0000160291DFA
:104DD000DFF8DC20EB6A1420434302EB030003F00E
:104DE000DAF801200600300070BDDFF8BC00006872
:104DF000002805D0DFF8B0000068C16C491CC16410
:104E0000DFF8A40000687047F8460120D048012070
:104E100064E70108CC480120BC480120C0480120BB
:104E2000C4480120C0480120F8B505000C00224804
:104E300007681D480068001D03F0D4F8002809D158
:104E400019480068194909680122C06A82409143E3
:104E50001648016015F1010F08D1002C06D0124848
:104E60000068011D194803F096F81BE0E8190600D8
:104E70000D4800684660BE4207D20B480068011D1D
:104E80001448006803F093F80CE007480068011D1F
:104E90000F48006803F08BF812480068864201D280
:104EA00010480660F1BD00009C480120B448012074
:104EB00054410120D4480120B048012004ED00E015
:104EC000D0460120E44601200C4701202047012064
:104ED000A0480120A4480120A8480120AC48012096
:104EE000B8480120CC480120010011F00F00C9B2E0
:104EF000090911F00F010A2211FB02F10818C0B2D2
:104F000070470100C9B20A2091FBF0F2C9B20A2031
:104F100091FBF0F300FB1313D2B2100150FA83F0AF
:104F2000C0B280B2704712B583B004004FF6FF7074
:104F300002900120019003A800900123E4B2220016
:104F400092B2D0217948FCF791FE1FBD1FB5040035
:104F500000208DF80C004FF6FF70029001200190A8
:104F600003A800900123E4B2220092B2D1216F483D
:104F7000FCF734FF9DF80C0004B010BD80B5002193
:104F80000E20FFF7D0FF022003F086FB00210F2048
:104F9000FFF7C9FF022003F07FFB01BD2DE9FE4FA3
:104FA00082B0109C00218DF8001080B2642190FB2B
:104FB000F1F201FB1200ADF80200BDF80200C0B230
:104FC000FFF79FFF05002900C9B20620FFF7ABFFDE
:104FD0009DF80800FFF795FF06003100C9B20520D3
:104FE000FFF7A1FF9DF80C00FFF78BFF07003900CA
:104FF000C9B20420FFF797FF9DF81000FFF781FF6B
:1050000080464146C9B20220FFF78DFF9DF8380067
:10501000FFF777FF81464946C9B20120FFF783FFBA
:105020009DF83C00FFF76DFF82465146C9B2002053
:10503000FFF779FF2000C0B2FFF763FF83465946B0
:10504000C9B20320FFF76FFF05B0BDE8F08F80B550
:105050000620FFF77BFF3649486035484068C0B2FC
:10506000FFF742FF324948603148406810F5FA6066
:105070002F4948600520FFF769FF2D4908722C4829
:10508000007AFFF731FF2A4908720420FFF75EFF1C
:10509000274948722648407AFFF726FF244948727C
:1050A0000220FFF753FF224908702148007810F0D2
:1050B0003F001F4908701E480078FFF715FF1C4984
:1050C00008700120FFF742FF1949487018484078DE
:1050D000FFF70AFF164948700020FFF737FF144911
:1050E000887013488078FFF7FFFE1149887003200D
:1050F000FFF72CFF0E4988720D48807AFFF7F4FE07
:105100000B49887220210E20FFF70DFF1120FFF7B9
:105110001DFF0749C8721220FFF718FFC0B28009AF
:10512000192110FB01F00249087301BDC84201209A
:10513000844701201CB5040024B2200000128DF821
:10514000040020008DF805004FF6FF700090022348
:1051500001AAB0215548FCF746FB16BD00B583B047
:1051600006208DF804004FF6FF700090012301AA7D
:1051700000214E48FCF737FB0EBD38B5FFF7EEFFB8
:105180000500002D02D05FF0FF3010E0642003F036
:1051900083FA42F20300FFF7CDFF0400642003F01E
:1051A0007BFA002C01D1002001E05FF0FF3032BD1E
:1051B00080B542F20800FFF7BDFF02BD30B4030026
:1051C0000024002208000025EDB2022D12DAEDB213
:1051D0005A5D504000221400E4B2082C08DA02069E
:1051E00003D5400090F0310000E04000641CF3E77C
:1051F0006D1CE9E7C0B230BC70473EB501A8002184
:105200000022C0E90012FFF7D3FF0500002D05D0F2
:10521000274800F057F85FF0FF3044E06420FFF7C4
:10522000E2F94FF6FF700090062301AAB1211F4852
:10523000FCF78EFB0400002C05D01E4800F042F85D
:105240005FF0FF302FE0FF2101A8FFF7B7FF9DF8C7
:105250000610C0B2884205D0174800F033F85FF05E
:10526000FF3020E0FF210DF10700FFF7A7FF9DF8B9
:105270000910C0B2884205D0104800F023F85FF052
:10528000FF3010E09DF804009DF8051051EA002160
:105290000B4801809DF807009DF8081051EA002195
:1052A0000748418000203EBD00000000C8420120A8
:1052B00010E50108A0E20108C4E10108E4E10108E9
:1052C000904801200EB4C0B5024603A80021019009
:1052D000009101AB0121044878440C3003F0F0F94F
:1052E00006BC5DF810FB00BF8591010010B50400FD
:1052F000E4B2012C05D1012210216248FDF75CFFC8
:1053000004E0002210215F48FDF756FF10BD10B5E4
:10531000002410215B48FDF745FFC0B210BD80B5E9
:10532000FEF72FF90020FFF7E1FF142004F0BCF98D
:105330000120FFF7DBFF1E2004F08AF901BD38B51C
:105340000024FEF70CF9FFF7E2FF002807D0E4B2D3
:10535000642C04DA641C012004F07AF9F3E7E4B267
:10536000642C01DB012012E00025FFF7D0FF0028AC
:1053700007D1EDB2642D04DA6D1C012004F068F948
:10538000F3E7EDB2642D01DB012000E0002032BD27
:1053900038B50024FFF7BBFF002807D0E4B2642C27
:1053A00004DA641C012004F053F9F3E70025FFF749
:1053B000AEFF002807D1EDB2642D04DA6D1C012088
:1053C00004F046F9F3E7282004F042F9FFF79FFFC5
:1053D000002801D0012000E0002032BD38B50020B7
:1053E0000025EDB2082D06DA40000400FFF7D0FFDB
:1053F00020436D1CF5E7C0B232BD7CB504000D0042
:10540000FFF78DFFFFF79BFF002824D10026F6B29F
:10541000052E06DAFFF7E2FF6946F6B28855761CDC
:10542000F5E79DF800009DF8011051FA80F09DF815
:10543000021050FA81F09DF8031050FA81F09DF8A7
:105440000410884205D19DF8000028709DF80200E4
:105450002070002000E0012076BD38B50125FFF75F
:105460005EFFFFF76CFF0400E4B2002C01D104A141
:1054700000E005490548FFF725FF2000C0B232BD16
:105480006F6B00000000024034E70108D4E401081B
:1054900070B5274D95F82D3086B02C4653B904F0E1
:1054A00010F9A86004F007F995F82D30013385F85C
:1054B0002D303BE004F000F9686004F0FBF86B6805
:1054C0000193AB68029304F001F902A98DF815006D
:1054D00001A804F001F995F82E6038B11EB3154B00
:1054E0001A685B6803920493002515E0114A019D38
:1054F00011680298536856B1691AC31A0029B8BFD7
:105500004942002BB8BF5B420B44022B0BDD1560F8
:10551000039550600490012503A88DF8145004F001
:10552000F5F884F82E50002384F82D3006B070BDB5
:10553000784501200401002001B4BDF80000DFF827
:10554000F018088001B0704701B4BDF80000DFF822
:10555000E418088001B07047DFF8D4281080DFF825
:10556000D42811807047DFF8D0080089DFF8C01810
:105570000880704738B504000D00DFF8BC0840898A
:10558000FFF7DAFF200080B2000AFFF7DDFF04F02A
:10559000FF00FFF7D9FFDFF8A0088089FFF7CCFFF5
:1055A000280080B2000AFFF7CFFF05F0FF00FFF7E9
:1055B000CBFF31BD2DE9F041050000260027EDB2FB
:1055C000002D0BD0022D0FD00BD3042D12D00ED3F3
:1055D000062D15D011D3072D15D016E00620050095
:1055E00013E00720050010E0042005000DE0052071
:1055F00005000AE00120050007E00020050004E0A6
:105600000320050001E002200500EDB2002D0BD0C3
:10561000022D0DD009D3042D10D00CD3062D13D09C
:105620000FD3072D13D014E013E056F0800610E0DE
:1056300056F040060DE056F0C0060AE056F020068F
:1056400007E056F0600604E056F0A00601E056F0D0
:10565000E0065FF0360856F00806310089B2404691
:1056600080B2FFF779FFB00615D5DFF8CC070088C8
:10567000DFF8C4174988884222D2DFF8BC070088C7
:105680000400DFF8B4074088DFF8AC170880DFF8C3
:10569000A807448014E0DFF8A0074088DFF89817D7
:1056A000098888420CD2DFF8900700880400DFF8F0
:1056B00088074088DFF880170880DFF87C0744807F
:1056C000DFF874074089FFF737FF0020FFF73CFF42
:1056D0000020FFF739FFDFF860070088401E001246
:1056E00080B2FFF731FFDFF850070088401E00F05E
:1056F000FF00FFF729FFDFF840078089FFF71CFF55
:105700000020FFF721FF0020FFF71EFFDFF828072A
:105710004088401E001280B2FFF716FFDFF818071E
:105720004088401E00F0FF00FFF70EFFBDE8F0814B
:1057300038B504000D00290089B2200080B2FFF7BF
:1057400019FFFFF710FFDFF8F4060088DFF8E41612
:10575000088031BD70B504000D001600DFF8D806D2
:105760004089FFF7E9FE200080B2000AFFF7ECFE57
:1057700004F0FF00FFF7E8FEDFF8BC068089FFF7C2
:10578000DBFE280080B2000AFFF7DEFE05F0FF0016
:10579000FFF7DAFEDFF8A0060089DFF8941608802C
:1057A000DFF89006068070BD10B50400E4B2002C4E
:1057B00031D10020DFF880168871F020DFF87816EC
:1057C00008804FF4A070DFF8701648802C20DFF8B6
:1057D000681608812A20DFF8601648812B20DFF840
:1057E00058168881DFF85006808846F60401884202
:1057F00006D0DFF84406808845F21031884223D174
:105800004FF4A070DFF8301608804FF4F070DFF826
:105810002816488018E00120DFF81C1688714FF424
:10582000A070DFF814160880F020DFF80C1648800E
:105830002C20DFF8041608812A20DFF8FC154881A7
:105840002B20DFF8F41588810020FFF7B3FE10BD90
:1058500080B50020009000220221DFF8E405FDF76A
:10586000ABFC322002F018FF01220221DFF8D00544
:10587000FDF7A2FC49F24130DFF8BC1588803220E8
:1058800002F00AFFDFF8BC05006800090001DFF83C
:10589000B4150860DFF8AC05006830F47060DFF81C
:1058A000A4150860DFF89C05006850F00300DFF8DD
:1058B00094150860DFF88C05006850F40070DFF87C
:1058C00084150860CF20FFF737FE0020FFF73CFE6D
:1058D000C120FFF739FE3020FFF736FEED20FFF73D
:1058E0002BFE6420FFF730FE0320FFF72DFE122071
:1058F000FFF72AFE8120FFF727FEE820FFF71CFEB6
:105900008520FFF721FE1020FFF71EFE7A20FFF70B
:105910001BFECB20FFF710FE3920FFF715FE2C20D1
:10592000FFF712FE0020FFF70FFE3420FFF70CFEFA
:105930000220FFF709FEF720FFF7FEFD2020FFF70A
:1059400003FEEA20FFF7F8FD0020FFF7FDFD002031
:10595000FFF7FAFDC020FFF7EFFD1B20FFF7F4FD76
:10596000C120FFF7E9FD0120FFF7EEFDC520FFF79D
:10597000E3FD3020FFF7E8FD3020FFF7E5FDC7200D
:10598000FFF7DAFDB720FFF7DFFD3620FFF7D4FD84
:105990004820FFF7D9FD3A20FFF7CEFD5520FFF74D
:1059A000D3FDB120FFF7C8FD0020FFF7CDFD1A2081
:1059B000FFF7CAFDB620FFF7BFFD0A20FFF7C4FDC1
:1059C000A220FFF7C1FDF220FFF7B6FD0020FFF790
:1059D000BBFD2620FFF7B0FD0120FFF7B5FDE0205D
:1059E000FFF7AAFD0F20FFF7AFFD2A20FFF7ACFD60
:1059F0002820FFF7A9FD0820FFF7A6FD0E20FFF7DE
:105A0000A3FD0820FFF7A0FD5420FFF79DFDA9206E
:105A1000FFF79AFD4320FFF797FD0A20FFF794FD5B
:105A20000F20FFF791FD0020FFF78EFD0020FFF70C
:105A30008BFD0020FFF788FD0020FFF785FDE120AA
:105A4000FFF77AFD0020FFF77FFD1520FFF77CFDB3
:105A50001720FFF779FD0720FFF776FD1120FFF7EC
:105A600073FD0620FFF770FD2B20FFF76DFD56201C
:105A7000FFF76AFD3C20FFF767FD0520FFF764FD97
:105A80001020FFF761FD0F20FFF75EFD3F20FFF7BD
:105A90005BFD3F20FFF758FD0F20FFF755FD2B2042
:105AA000FFF74AFD0020FFF74FFD0020FFF74CFDF8
:105AB0000120FFF749FD3F20FFF746FD2A20FFF7B1
:105AC0003BFD0020FFF740FD0020FFF73DFD0020DB
:105AD000FFF73AFDEF20FFF737FD1120FFF72CFD10
