:020000040800F2
:10000000C04E012035BD0208BD750208BF7502084B
:10001000C1750208C3750208C5750208000000001A
:100020000000000000000000000000007D8B0008C0
:10003000C775020800000000258B0008C97502087A
:1000400049C802084DC8020851C8020855C802082C
:1000500059C802085DC8020861C8020865C80208DC
:1000600069C802086DC8020871C8020875C802088C
:1000700079C802087DC8020881C8020885C802083C
:1000800089C802088DC8020891C8020895C80208EC
:1000900099C802089DC80208A1C80208A5C802089C
:1000A000A9C80208ADC80208B1C80208B5C802084C
:1000B000B9C80208BDC80208C1C80208C5C80208FC
:1000C000C9C80208CDC80208D1C80208D5C80208AC
:1000D000D9C80208E1750208EB750208F575020837
:1000E000DDC80208E1C80208E5C80208E9C802083C
:1000F000EDC80208F1C80208F5C80208F9C80208EC
:10010000FDC8020801C9020805C9020809C9020898
:10011000FF7502080DC9020811C9020815C90208B5
:1001200019C902081DC9020821C9020825C9020807
:1001300029C902082DC9020831C9020835C90208B7
:1001400039C902083DC9020841C9020845C9020867
:1001500049C902084DC9020851C9020855C9020817
:1001600059C902085DC9020861C9020865C90208C7
:1001700069C902086DC9020871C9020800000000BF
:1001800075C9020879C90208F12D020819920208FE
:10019000BBC1000855BD02080000000000000000BF
:1001A00020200101AC0100081A0F140020007E007D
:1001B000B80100080000000008080100B01D000898
:1001C00008080100901D00080A0A0200501D0008DE
:1001D0000F0F0200101D00080F0F0200D01C0008B6
:1001E00018180300701C000812120300101C0008ED
:1001F00005050100F01B000809090200B01B0008FA
:1002000009090200701B00080B0B0200301B0008DC
:1002100010100200F01A000808080100D01A0008A7
:1002200009090200901A000808080100701A000865
:1002300008080100501A00080F0F0200101A0008E9
:100240000F0F0200D01900080F0F020090190008CC
:100250000F0F0200501900080F0F020010190008BC
:100260000F0F0200D01800080F0F020090180008AE
:100270000F0F0200501800080F0F0200101800089E
:100280000F0F0200D017000808080100B01700087F
:10029000080801009017000810100200501700080D
:1002A000101002001017000810100200D0160008ED
:1002B0000F0F0200901600081B1B04001016000808
:1002C00012120300B01500081212030050150008A6
:1002D00014140300F0140008141403009014000810
:1002E000121203003014000811110300D01300088B
:1002F00015150300701300081313030010130008F2
:1003000008080100F01200080D0D0200B0120008EC
:1003100012120300501200080F0F02001012000802
:1003200017170300B0110008131303005011000841
:1003300015150300F01000081111030090100008BB
:10034000151503003010000814140300D00F000826
:1003500012120300700F000810100200300F000886
:1003600013130300D00E000811110300700E0008D3
:100370001C1C0400F00D000811110300900D000872
:1003800012120300300D000811110300D00C0008F8
:1003900008080100B00C000808080100900C0008D3
:1003A00008080100700C00080C0C0200300C00085A
:1003B0000F0F0200F00B000809090200B00B000843
:1003C0000F0F0200700B00080F0F0200300B000827
:1003D0000E0E0200F00A00080F0F0200B00A00081B
:1003E0000F0F0200700A000807070100500A0008FA
:1003F0000F0F0200100A00080F0F0200D0090008BA
:1004000006060100B0090008060601009009000870
:100410000E0E02005009000806060100300900080F
:1004200016160300D00800080F0F020090080008FD
:100430000F0F0200500800080F0F020010080008FC
:100440000F0F0200D00700080909020090070008FA
:100450000E0E0200500700080808010030070008CF
:100460000F0F0200F00600080D0D0200B006000894
:1004700013130300500600080C0C020010060008BD
:100480000E0E0200D00500080D0D020090050008B8
:1004900009090200500500080606010030050008A1
:1004A00009090200F004000810100200B00400085E
:1004B000000000000000000000000000000000003C
:1004C0000000000000000000000000001E007FC6C9
:1004D00061FE407800000000000000000000000005
:1004E000000000000000000000000000000000000C
:1004F000000000000000000000000000E000F0002C
:10050000180018001800180018001800180018002B
:1005100018000C00070007000C0018001800180055
:1005200018001800180018001800F000E000000083
:1005300000000000000030303030303030303030DB
:1005400030303030303030303030303030303000DB
:100550000000000000000000000000000380078091
:100560000E000C000C000C000C000C000C000C0029
:100570000C0018007000700018000C000C000C003B
:100580000C000C000C000C000C0007800380000025
:10059000000000000000000000000000000000005B
:1005A0000000000000007FF07FF0007000E001C05C
:1005B0000380070007000E001C0038007000E000F8
:1005C000FFF0FFF00000000000000000000000004D
:1005D000000000000000000000000000000000001B
:1005E00000000000000060186018303030303830F3
:1005F000186018600C600CC00CC006C00780078033
:10060000038003000300060006003C0038000000E1
:1006100000000000000000000000000000000000DA
:10062000000000000000E030606030E038C0198059
:100630000F800F0006000F000F00198039C030C076
:100640006060E0700000000000000000000000009A
:10065000000000000000000000000000000000009A
:10066000000000000000000000000000000000008A
:1006700000C04060C0E060C0E06060A0C061B0C089
:1006800061B1C031B180311180331B801B1B001B55
:100690001B000A0A000E0E000E0E000404000000EB
:1006A000000000000000000000000000000000004A
:1006B000000000000000000000000000000000003A
:1006C000000000000000C018C0186030603070707A
:1006D0003060386018C018C01D800D800D80070084
:1006E0000700020000000000000000000000000001
:1006F00000000000000000000000000000000000FA
:100700000000000000003018301830183018301881
:100710003018301830183018301830183038387811
:100720001FD80F980000000000000000000000002B
:100730000000000000001030303030FEFE3030305D
:1007400030303030303030303E1E000000000000CD
:100750000000000000000000000000000000000099
:100760000000000000000F803FE07070603060000B
:1007700078003F801FF003F00038601870183830A0
:100780001FF00FC00000000000000000000000008B
:100790000000000000000000000000000000000059
:1007A00000000000000037803F8038003800300033
:1007B00030003000300030003000300030003000B9
:1007C00030003000000000000000000000000000C9
:1007D0000000000000000000000000000000000019
:1007E00000000000000007981FD8387830386018E3
:1007F0006018601860186018601870183038387801
:100800001FD80798001800180018001800180000DA
:1008100000000000000000000000000000000000D8
:1008200000000000000033C037F03C383818300CAE
:10083000300C300C300C300C300C300C38183C388C
:1008400037F033C03000300030003000300000009E
:100850000000000000000000000000000000000098
:1008600000000000000007C01FF038383018701C6E
:10087000600C600C600C600C600C701C3018383818
:100880001FF007C000000000000000000000000092
:100890000000000000000000000000000000000058
:1008A00000000000000033E03FF03C3838183018FA
:1008B00030183018301830183018301830183018F8
:1008C0003018301800000000000000000000000098
:1008D0000000000000000000000000000000000018
:1008E0000000000000000000000000000000000008
:1008F0000033C3C037EFE03C7C70383830303030E4
:1009000030303030303030303030303030303030E7
:100910003030303030303030303030303030000037
:1009200000000000000000000000000000000000C7
:1009300000000000000030303030303030303030D7
:1009400030303030303030303030000000000000C7
:100950000000000000000000000000003000300037
:10096000300030003000301C3038307030E031C0A2
:1009700037803F803F8039C030E030E03070303029
:100980003038301C000000000000000000000000B3
:100990000000000000003030000000303030303007
:1009A00030303030303030303030303030E0E00017
:1009B00000000000000030300000003030303030E7
:1009C0003030303030303030303000000000000047
:1009D00000000000000000000000000030003000B7
:1009E00030003000300033E03FF03C383818301829
:1009F00030183018301830183018301830183018B7
:100A00003018301800000000000000000000000056
:100A100000000000000000000000000000000000D6
:100A200000000000000007981FD8387830386018A0
:100A300060186018601860186018601830383878CE
:100A40001FD807986018603870703FE00FC0000032
:100A50000000000000001E3E303030FEFE3030301E
:100A600030303030303030303030000000000000A6
:100A70000000000000000000000000000000000076
:100A800000000000000007C01FF038383018600C6C
:100A9000600C7FFC7FFC600060007000300C3C3814
:100AA0001FF007E000000000000000000000000050
:100AB0000000000000000000000000000018001806
:100AC00000180018001807981FD8387830386018B8
:100AD000601860186018601860187018303838781E
:100AE0001FF8079800000000000000000000000050
:100AF00000000000000000000000000000000000F6
:100B000000000000000007C01FE038703038601897
:100B1000600060006000600060186018303038705D
:100B20001FE007C0000000000000000000000000FF
:100B30000000000000000000000000003000300055
:100B400030003000300033C037F03C383818300CFB
:100B5000300C300C300C300C300C301C38183C3859
:100B60003FF033C000000000000000000000000063
:100B70000000000000000000000000000000000075
:100B80000000000000000FE03FF03038601800184F
:100B900000F80FF83F98301860186018603870F847
:100BA0003FD81F8C00000000000000000000000083
:100BB000000000000000000000000000700038008D
:100BC00018000C0000000000000000000000000001
:100BD0000000000000000000000000000000000015
:100BE0000000000000000000000000000000000005
:100BF00000000000000000000000000000000000F5
:100C000000000000000000000000000000000000E4
:100C100000000000000000000000000000000000D4
:100C200000000000000000000000FFFEFFFE0000CA
:100C300000000000000000000000000006000F009F
:100C40000F0019801980198030C030C030C060603A
:100C50000000000000000000000000000000000094
:100C60000000000000000000000000000000000084
:100C70000000000000007C7C0C0C0C0C0C0C0C0C1C
:100C80000C0C0C0C0C0C0C0C0C0C0C0C0C7C7C00D0
:100C9000000000000000C0C06060603030303818D4
:100CA00018180C0C0C0606060703000000000000D4
:100CB0000000000000003E3E303030303030303038
:100CC000303030303030303030303030303E3E0038
:100CD0000000000000000000000000000000000014
:100CE00000007FFF007FFF00000600000C000018DE
:100CF0000000380000700000600000C00001C0006B
:100D00000380000300000600000C00001C000038F7
:100D10000000300000600000FFFF00FFFF00000047
:100D200000000000000000000000000000000000C3
:100D300000000000000000000000000000000000B3
:100D40000000600380300700180600180E000C0C2D
:100D5000000E1C0007380003300003300001E000E3
:100D600001E00000C00000C00000C00000C00000A2
:100D7000C00000C00000C00000C00000C0000000B3
:100D80000000000000000000000000000000000063
:100D90000000000000000000000000000000000053
:100DA0000000700700380E00180C001C1C000E38E4
:100DB0000007700007700003600001C00001C00060
:100DC00001C0000360000770000E38000E38001CE0
:100DD0001C00380E00380600700700E00380000099
:100DE0000000000000000000000000000000000003
:100DF00000000000000000000000000000000000F3
:100E00000000000000000000C00E0060C00E006086
:100E1000601B00C0601B00C0601B00C0603180C050
:100E200030318180303181803060C1803860C38052
:100E30001860C30018E0630018C063001CC066009F
:100E40000DC076000D8036000D80360007803C0016
:100E500007001C0007001C0000000000000000004C
:100E60000000000000000000000000000000000082
:100E70000000000000000000000000000000000072
:100E80000000C00180E00380600300600300700781
:100E900000300600300600180C00180C001C1C0066
:100EA0000C18000C18000E38000630000670000305
:100EB000600003600003E00001C00001C00000000A
:100EC0000000000000000000000000000000000022
:100ED0000000000000000000000000000000000012
:100EE000000030018030018030018030018030010D
:100EF00080300180300180300180300180300180FD
:100F00003001803001803001803001803001803834
:100F100003801803001E0F000FFE0003F8000000FE
:100F200000000000000000000000000000000000C1
:100F30000000000000000000000000007FFE7FFEB7
:100F40000180018001800180018001800180018099
:100F50000180018001800180018001800180018089
:100F6000018001800000000000000000000000007F
:100F70000000000000000000000000000000000071
:100F8000000003F8000FFE001C0F003803003001C2
:100F9000803001803800001C00001FE0000FFC00C2
:100FA00000FF00000F00000380600180600180707E
:100FB00001803803001C07000FFE0003F80000004A
:100FC0000000000000000000000000000000000021
:100FD0000000000000000000000000000000000011
:100FE00000003FFE003FFF003003803001C03000B2
:100FF000C03000C03000C03001C03003803FFF006F
:101000003FFC00303800301800300C00300E00304B
:1010100007003003003001803001C03000C0000004
:1010200000000000000000000000000000000000C0
:1010300000000000000000000000000000000000B0
:10104000000001FC0007FF000F07801C01C03800F2
:10105000E0300060300060600030600030600030E0
:101060006000306000306000303000703000603868
:101070001CE01C1FC00F07C007FFE001FC70000050
:101080003000000000000000000000000000000030
:101090000000000000000000000000000000000050
:1010A00000003FF8003FFC00300E00300700300326
:1010B00000300300300300300300300700300E0022
:1010C0003FFC003FF00030000030000030000030F6
:1010D0000000300000300000300000300000000050
:1010E0000000000000000000000000000000000000
:1010F00000000000000000000000000000000000F0
:10110000000001FC0007FF000F07801C01C0380031
:10111000E0300060700070600030600030600030CF
:101120006000306000306000307000703000603867
:1011300000E01C01C00F078007FF0001FC00000059
:10114000000000000000000000000000000000009F
:10115000000000000000000000000000000000008F
:1011600000003801803801803C01803C018036015C
:101170008033018033018031818030C18030C18073
:10118000306180306180303180301980301980309A
:101190000D803007803007803003803003800000EE
:1011A000000000000000000000000000000000003F
:1011B000000000000000000000000000000000002F
:1011C00000001C00701E00F01E00F01E00F01B014D
:1011D000B01B01B01B01B019833019833019833063
:1011E00018C63018C63018C63018EE30186C3018D3
:1011F0006C30186C3018383018383018383000001F
:1012000000000000000000000000000000000000DE
:10121000000000000000000000000000300030006E
:10122000300030003000300030003000300030003E
:10123000300030003000300030003000300030002E
:101240003FFC3FFC00000000000000000000000028
:10125000000000000000000000000000000000008E
:101260000000300380300700300E00301C003038A2
:101270000030700030E00031C00033C00037C000E3
:101280003EE0003C7000387000303800301C003008
:101290000E003006003007003003803001C000002F
:1012A000000000000000000000000000000000003E
:1012B000000000000000000000000000006000606E
:1012C000006000600060006000600060006000601E
:1012D000006000600060006060606060606030C05E
:1012E0003FC01F00000000000000000000000000E0
:1012F00000000000000018181818181818181818FE
:1013000018181818181818181818000000000000ED
:1013100000000000000000000000000000000000CD
:1013200000003001803001803001803001803001C8
:10133000803001803001803001803001803FFF80AB
:101340003FFF8030018030018030018030018030EB
:101350000180300180300180300180300180000048
:10136000000000000000000000000000000000007D
:10137000000000000000000000000000000000006D
:10138000000001FC0007FF000F03801C01C03800B3
:10139000C0300060300000600000600000600000AD
:1013A000601FE0601FE06000607000603000603827
:1013B00000601C00E00F03C007FF8001FC0000007C
:1013C000000000000000000000000000000000001D
:1013D000000000000000000000000000000000000D
:1013E00000003FFF003FFF003000003000003000F1
:1013F000003000003000003000003000003FFC00F2
:101400003FFC0030000030000030000030000030B1
:10141000000030000030000030000030000000000C
:1014200000000000000000000000000000000000BC
:1014300000000000000000000000000000000000AC
:1014400000003FFF803FFF80300000300000300090
:10145000003000003000003000003000003FFF008E
:101460003FFF00300000300000300000300000304E
:1014700000003000003000003FFF803FFF80000090
:10148000000000000000000000000000000000005C
:10149000000000000000000000000000000000004C
:1014A00000003FFC003FFE0030078030018030002C
:1014B000C03000C03000603000603000603000603C
:1014C0003000603000603000603000603000C030BC
:1014D00000C03001803007803FFE003FF800000070
:1014E00000000000000000000000000000000000FC
:1014F00000000000000000000000000000000000EC
:10150000000001FC0007FF000F03801C01C0380031
:10151000E0300060700000600000600000600000CB
:101520006000006000006000003000603000E038C3
:1015300000C01C01C00E078007FF0001FC00000076
:10154000000000000000000000000000000000009B
:10155000000000000000000000000000000000008B
:1015600000003FF8003FFC00300E00300700300361
:1015700000300300300300300700300E003FFC0055
:101580003FFE0030070030038030018030018030A2
:1015900001803003803007003FFE003FF80000006C
:1015A000000000000000000000000000000000003B
:1015B000000000000000000000000000000000002B
:1015C000000001C00001C00003600003600007705C
:1015D000000630000630000E38000C18000C180011
:1015E000180C00180C001FFC003FFE0030060070B5
:1015F0000700600300600300C00180C0018000009C
:1016000000000000000000000000000000000000DA
:1016100000000000000000000000000000000000CA
:101620000000000000000000003FC00000FFF000CC
:1016300003C0780007001C000E000E001C3C670071
:1016400018FF630031C3E3803181C1803300C18062
:101650006300C1806600C1806600C1806600C380EF
:10166000660183006601870063038600738F9C0018
:1016700031FDF80038F8F000180000C01C000180AF
:101680000F00070007C01E0001FFF800003FE00048
:1016900000000000000000000000000007C01FF074
:1016A0003838301C600C600C000C001C0018003036
:1016B000006000C001C001800180018000000000C6
:1016C0000180018000000000000000000000000018
:1016D000000000000000000000000000000000000A
:1016E00000000000200038001E00078000E00038E5
:1016F000000C003800E007801E00380020000000C9
:1017000000000000000000000000000000000000D9
:1017100000000000000000000000000000000000C9
:1017200000000000000000007FFC7FFC00000000C3
:10173000000000007FFC7FFC0000000000000000B3
:101740000000000000000000000000000000000099
:101750000000000000000000000000000000000089
:10176000000000000004001C007801E007001C00DD
:1017700030001C00070001E00078001C000400009D
:101780000000000000000000000000000000000059
:101790000000000000000000000000181800000019
:1017A00000000000000000001818080818100000D1
:1017B00000000000000000000000001818000000F9
:1017C00000000000000000001818000000000000E9
:1017D00000000000000000000000000007C01FE043
:1017E000383030186008600C600C600C600C301CE5
:1017F000383C1FEC078C000C00186018701838700B
:101800001FE00F800000000000000000000000004A
:1018100000000000000000000000000007C01FF0F2
:101820001830301830183018301818300FE01FF00A
:1018300038383018600C600C600C600C3018383888
:101840001FF007C0000000000000000000000000C2
:101850000000000000000000000000007FF87FF89A
:10186000001000300060004000C0018001800300D3
:101870000300030006000600060006000C000C0032
:101880000C000C0000000000000000000000000040
:1018900000000000000000000000000003E00FF066
:1018A0001C38381C300C3000600067C06FF078388E
:1018B0007018600C600C600C600C300C301818381C
:1018C0000FF007C000000000000000000000000052
:1018D0000000000000000000000000001FF81FF8DA
:1018E000380030003000300027C07FF078386018B2
:1018F000000C000C000C000C000C600C7018383848
:101900001FF00FC0000000000000000000000000F9
:101910000000000000000000000000000030007027
:1019200000F000F001B00330073006300C301C30FE
:101930001830303070307FFC7FFC003000300030D9
:101940000030003000000000000000000000000037
:101950000000000000000000000000000FC01FE0B9
:1019600038707018601800180018007003E003F059
:101970000038001C000C000C000C600C701838388B
:101980001FF007C000000000000000000000000081
:101990000000000000000000000000000FC01FE079
:1019A00038706038601800180018001800300030D7
:1019B000006000C00180030006000C001800300029
:1019C0007FF87FF800000000000000000000000029
:1019D00000000000000000000000000000C000C087
:1019E00001C003C00FC01EC018C000C000C000C0AE
:1019F00000C000C000C000C000C000C000C000C0E7
:101A000000C000C000000000000000000000000056
:101A100000000000000000000000000007C01FF0F0
:101A2000383830183018600C600C600C600C600C9A
:101A3000600C600C600C600C600C3018301838388A
:101A40001FF007C0000000000000000000000000C0
:101A500000000000000003030606060C0C0C1C1816
:101A60001818303030606060E0C0000000000000F6
:101A70000000000000000000000000000000000066
:101A800000000000000000003030000000000000F6
:101A90000000000000000000000000000000000046
:101AA0000000000000000000000000000000000036
:101AB000000000007F007F00000000000000000028
:101AC0000000000000000000000000000000000016
:101AD0000000000000000000000000000000000006
:101AE0000000000000000000303010103020000026
:101AF00000000000000000000000000000000000E6
:101B000000000000030003000300030003007FF84F
:101B10007FF803000300030003000300000000003F
:101B200000000000000000000000000000000000B5
:101B30000000000000000000000000000600060099
:101B400026407FE00F800F00198018800000000001
:101B50000000000000000000000000000000000085
:101B60000000000000000000000000000000000075
:101B700000000000000000000000000060003000D5
:101B80003000180018000C000C000C0006000600C5
:101B900006000600060006000600060006000C000F
:101BA0000C000C001800180030003000600000002D
:101BB000000000000000000000000000030006001C
:101BC00006000C000C00180018001800300030004F
:101BD000300030003000300030003000300018009D
:101BE000180018000C000C0006000600030000009E
:101BF0000000000000006060606060606000000045
:101C000000000000000000000000000000000000D4
:101C100000000000000000000000000000000000C4
:101C2000000003E0000FF0000C380018180018182E
:101C3000001818000C30000E700007E0000780004C
:101C40001F800038C200706700607600603E006050
:101C50001C00701E00387F001FF3800FC3000000BF
:101C60000000000000000000000000000000000074
:101C70000000000000000000000000000000000064
:101C800000000F00C01F81C039C18030C38030C345
:101C90000030C70030C60039CC001F8C000F180080
:101CA0000018F00031F800339C00630C00630C0056
:101CB000C30C00C30C01839C0181F80300F00000F9
:101CC0000000000000000000000000000000000014
:101CD0000000000000000000000001000FC01FF025
:101CE0003938711C610C6100610031003F000FE068
:101CF00003F00138011C010C610C610C311C3938F6
:101D00001FF007C0010001000000000000000000FB
:101D10000000000000000000000000000618061887
:101D20000E300C300C300C30FFFCFFFC18601860DB
:101D3000186018601860FFFCFFFC30C030C071C034
:101D400061806180000000000000000000000000D1
:101D500000000000000000000000000063006300BD
:101D60006300630063006300630000000000000084
:101D70000000000000000000000000000000000063
:101D80000000000000000000000000000000000053
:101D90000000000000001818181818181818181853
:101DA0001818181818180000181800000000000073
:101DB0000000000000000000000000000000000023
:101DC0000000000000000000000000000000000013
:101DD000480200200B0000000B000000640000001F
:101DE000000000000F000000160016000B000400A9
:101DF000782C0008141F00080000000016001600D0
:101E00000B000400862B0008141F000800000000CF
:101E1000160016000B000400942A0008141F000886
:101E200000000000160016000B000400A2290008A4
:101E3000141F000800000000160016000B0004002C
:101E4000B0280008141F000800000000160016004B
:101E50000B000400BE270008141F0008000000004B
:101E6000160016000B000400CC260008141F000802
:101E700000000000160016000B000400DA25000820
:101E8000141F000800000000160016000B000400DC
:101E9000E8240008141F00080000000016001600C7
:101EA0000B000400F6230008141F000800000000C7
:101EB000160016000B00040004230008141F00087D
:101EC00000000000160016000B000400122200089B
:101ED000141F000800000000160016000B0004008C
:101EE00020210008141F0008000000001600160042
:101EF0000B0004002E200008141F00080000000042
:101F0000160016000B0004003C1F0008141F0008F8
:101F1000000000000700000001000000201F000872
:101F2000FF000000CCCCCC0000000000009999001C
:101F3000FFFFFF009999990000FFFF0000000002D9
:101F4000200000000000000000002320000000002E
:101F50000000000002332000000000000000002309
:101F60003312000000000000000233311120000095
:101F7000000000002363111112000000000002366F
:101F80003111111200000000002363111112120020
:101F90000000000033314421212200000000000035
:101FA00005124212120000000000000051242421FA
:101FB000555520000000000222224111111200009C
:101FC000000000000054111111200000000000006A
:101FD000541111111222000000000054111111239C
:101FE00032000000000054411112333000000000A4
:101FF0000051441123330000000000000514423357
:1020000030000000000000005123630000000000C9
:1020100000000002363000000000000000000363F2
:10202000000000000000000000033000000000007D
:1020300000000000000000000000000000000000A0
:102040000000000000000000000000000000000090
:10205000000000000000000000003300000000004D
:102060000000000032332555500000000555533262
:102070003621111200000051111362362144412013
:102080000005144443623621444112005144444344
:10209000623621444111251441111362332111117B
:1020A000111111111113323321212121221111118A
:1020B0001332332212121200211111133233212153
:1020C00021200002111113323322121200000021CC
:1020D0001113323322222000000002222232220079
:1020E00000000000000000002200000000000000CE
:1020F00000000000000000000000000000000000E0
:1021000000000000000000000000000000000000CF
:1021100000000000000000000000000000000000BF
:10212000000000000000032000000000000000008C
:1021300000033200000000000000000003632000E4
:1021400000000000000000513632000000000000D6
:1021500000051443632000000000000051441133C7
:102160003200000000000054411113332000000031
:1021700000005411111133320000000000541111FD
:102180001112220000000000541111112000000063
:10219000055555411111120000000051444411220F
:1021A000222000000005144111120000000000333D
:1021B00021242111120000000000363242121112B7
:1021C0000000000000036321212122000000000024
:1021D00000363212121200000000000003332121E9
:1021E0002000000000000000333212000000000058
:1021F0000000000333200000000000000000003356
:10220000200000000000000000000220000000008C
:102210000000000003333333333332000000000387
:10222000366663333332000000000022222222226D
:1022300020000000000051111111112000000000C9
:1022400000514411111120000000000051441111EF
:102250001120000000000051441111112000000065
:1022600000000211111112000000000000002111F5
:102270001120000000000000000211120000000008
:10228000000000000021200000000000000000000D
:1022900051200000000000000000051112000000A5
:1022A0000000000000514111200000000000000566
:1022B00014411112000000000000514412111120BD
:1022C0000000000000514421211120000000000006
:1022D000514212121120000000000051242121213E
:1022E00020000000000033333333332000000000AF
:1022F00003366663333332000000000222222222BA
:102300002222000000000333333333333200000055
:1023100000033666633333320000000000222222BD
:102320002222200000000000511111111120000094
:102330000000005144111111200000000000514420
:102340001111112000000000005144111111200052
:102350000000000002111111120000000000000036
:1023600021111120000000000000000211120000E5
:10237000000000000000002120000000000000001C
:1023800000005120000000000000000005111200B4
:102390000000000000000051421120000000000079
:1023A00000051441111200000000000051441211F8
:1023B00011200000000000514421111120000000F4
:1023C000000051421212112000000000005124218F
:1023D000212120000000000033333333332000007C
:1023E000000003366663333332000000000222220D
:1023F0002222222200000000033333333333320021
:102400000000000336666333333200000000002210
:10241000222222222000000000005111111111205F
:1024200000000000005144111111200000000000C4
:1024300051441111112000000000005144111111EC
:102440002000000000000211111112000000000025
:1024500000002111112000000000000000021212F3
:10246000000000000000000000212000000000002B
:1024700000000000512000000000000000000511D5
:102480001200000000000000005142112000000076
:10249000000000051441111200000000000051442A
:1024A00012111120000000000051441111112000F0
:1024B00000000000514212121120000000000051E3
:1024C0002421212120000000000033333333332046
:1024D0000000000003366663333332000000000260
:1024E000222222222222000000000333333333331E
:1024F0003200000000033666633333320000000010
:10250000002222222222200000000000511111117D
:1025100011200000000000514411111120000000A2
:10252000000051441111112000000000005144111D
:102530001111200000000000021111111200000012
:102540000000000021211120000000000000000216
:102550001212000000000000000000212000000016
:1025600000000000000051200000000000000000FA
:10257000051112000000000000000051421120006F
:1025800000000000000514411112000000000000CE
:10259000514412111120000000000051441111118A
:1025A0002000000000005142121111200000000024
:1025B0000051242121212000000000003333333357
:1025C000332000000000033666633333320000001E
:1025D0000002222222222222000000000333333391
:1025E00033333200000000033666633333320000B9
:1025F00000000022222222222000000000005111AF
:10260000111111200000000000514411111120008F
:102610000000000051441111112000000000005181
:1026200044111111200000000000021111111200CC
:102630000000000000002121212000000000000017
:102640000002121200000000000000000021200023
:102650000000000000000000512000000000000009
:10266000000005111200000000000000005142119E
:1026700020000000000000051441111200000000BD
:1026800000005144121111200000000000514411BB
:10269000111120000000000051441211112000000F
:1026A00000000051242121212000000000003333CC
:1026B00033333320000000000336666333333200C7
:1026C0000000000222222222222200000000033306
:1026D0003333333332000000000336666333333262
:1026E0000000000000222222222220000000000020
:1026F000511111111120000000000051441111115D
:1027000020000000000051441111112000000000C1
:10271000005144111111200000000000021211119B
:102720001200000000000000212121200000000014
:102730000000000212120000000000000000002152
:1027400020000000000000000000512000000000F8
:102750000000000005111200000000000000005100
:102760004211200000000000000514411112000079
:10277000000000005144121111200000000000511F
:1027800044111111200000000000514412111120C9
:102790000000000000512421211120000000000051
:1027A00033333333332000000000033666633333A2
:1027B0003200000000022222222222220000000019
:1027C00003333333333332000000000336666333A0
:1027D00033320000000000222222222220000000CA
:1027E000000051111111112000000000005144118E
:1027F00011112000000000005144111111200000AF
:1028000000000051441111112000000000000212CC
:102810001112120000000000000021212120000000
:102820000000000000021212000000000000000082
:1028300000212000000000000000000051200000E6
:102840000000000000000511120000000000000060
:102850000051421120000000000000051441111237
:10286000000000000000514412111120000000007F
:1028700000514411111120000000000051441211B8
:10288000112000000000005144212111200000000F
:102890000000333333333320000000000336666317
:1028A00033333200000000022222222222220000C2
:1028B0000000033333333333320000000003366645
:1028C0006333333200000000002222222222200043
:1028D00000000000511111111120000000000051F2
:1028E0004411111120000000000051441111112069
:1028F00000000000005144111111200000000000F0
:1029000002121212120000000000000021212120FA
:102910000000000000000002121200000000000091
:1029200000000021200000000000000000005120F5
:10293000000000000000000005111200000000006F
:102940000000005142112000000000000005144169
:10295000111200000000000051441211112000006B
:1029600000000051441111112000000000005144EA
:10297000121111200000000000514421111120000B
:1029800000000000333333333320000000000336EF
:102990006663333332000000000222222222222208
:1029A00000000000033333333333320000000003F0
:1029B00036666333333200000000002222222222D6
:1029C0002000000000005111111111200000000032
:1029D0000051441111112000000000005144111158
:1029E00011200000000000512411111120000000EE
:1029F000000002121212120000000000000021214B
:102A0000212000000000000000021212000000005F
:102A10000000000000212000000000000000000075
:102A2000312000000000000000000511120000002D
:102A300000000000005142112000000000000005CD
:102A40001441111200000000000051441211112025
:102A5000000000000051441111112000000000008E
:102A600051441211112000000000005144111111B5
:102A70002000000000003333333333200000000017
:102A80000336666333333200000000022222222222
:102A900022220000000003333333333332000000BE
:102AA0000003366663333332000000000022222226
:102AB00022222000000000005111111111200000FD
:102AC0000000005144111111200000000000514489
:102AD00011111120000000000051241111212000CB
:102AE000000000000212121212000000000000009C
:102AF000212121200000000000000002121200002D
:102B00000000000000000021200000000000000084
:102B1000000051200000000000000000051112001C
:102B200000000000000000514211200000000000E1
:102B30000005144111120000000000005144121160
:102B4000112000000000005144111111200000006C
:102B500000005144111111200000000000514411E7
:102B60001111200000000000333333333320000004
:102B70000000033666633333320000000002222275
:102B80002222222200000000033333333333320089
:102B90000000000336666333333200000000002279
:102BA00022222222200000000000511111111120C8
:102BB000000000000051441111112000000000002D
:102BC0005144111111200000000000512421112155
:102BD000200000000000021212121200000000008B
:102BE000000021212120000000000000000212123C
:102BF0000000000000000000002120000000000094
:102C0000000000005120000000000000000005113D
:102C100012000000000000000051421120000000DE
:102C20000000000514411112000000000000514492
:102C30001111112000000000005144111111200059
:102C4000000000005144111111200000000000514B
:102C500044111111200000000000333333333320BE
:102C600000000000033666633333320000000002C8
:102C70002222222222220000000003333333333386
:102C80003200000000033666633333320000000078
:102C900000222222222220000000000051111111E6
:102CA000112000000000005144111111200000000B
:102CB0000000514411111120000000000051242196
:102CC0002121200000000000021212121200000058
:102CD000000000002121212000000000000000026F
:102CE000121200000000000000000021200000007F
:102CF0000000000000005120000000000000000063
:102D000005111200000000000000005141112000D8
:102D10000000000000051441111200000000000036
:102D200051441111112000000000005144111111F3
:102D3000200000000000514411111120000000008B
:102D400000514411111120000000000033333333CF
:102D50003320000000000336666333333200000086
:102D6000000222222222222200000000782D0008E8
:102D7000080000000800000011001100050002001A
:102D8000AC2D00082432000800000000982D000837
:102D900008000000080000001100110005000200FA
:102DA000AC2D00083C32000800000000000190003B
:102DB0000000019000000001900000000190000060
:102DC000000190000000019000000401900400192F
:102DD000559559006AAAAAAA4019559559000401A7
:102DE000900400000190000000019000000001909C
:102DF0000000000190000000019000000001900020
:102E000000000000102E0008050000000500000072
:102E10000B000B0003000200442E000824320008BF
:102E200000000000302E0008050000000500000032
:102E30000B000B0003000200442E00083C32000887
:102E40000000000000540000640000640000640002
:102E50005565546A9AA455655400640000640000E6
:102E60006400005400000000742E00080A000000F6
:102E70000A0000001500150006000200A82E000838
:102E80002432000800000000942E00080A00000010
:102E90000A0000001500150006000200A82E000818
:102EA0003C32000800000000000015000000000097
:102EB00019000000000019000000000019000000C7
:102EC00000001900000000001900000000001900B7
:102ED0000000000019000000000019000000555516
:102EE000595555406AAAA6AAAA4055555955554064
:102EF0000000190000000000190000000000190087
:102F0000000000001900000000001900000000008F
:102F10001900000000001900000000001900000066
:102F20000000150000000000342F00080F00000012
:102F30000F0000001F001F0008000200682F00089B
:102F40002432000800000000542F00080F00000089
:102F50000F0000001F001F0008000200682F00087B
:102F60003C320008000000000000000540000000A6
:102F700000000006400000000000000640000000C5
:102F800000000006400000000000000640000000B5
:102F900000000006400000000000000640000000A5
:102FA0000000000640000000000000064000000095
:102FB0000000000640000000000000064000000085
:102FC0000000000640000000000000064000000075
:102FD0000000000640000000555555565555555403
:102FE0006AAAAAA9AAAAAAA4555555565555555430
:102FF0000000000640000000000000064000000045
:103000000000000640000000000000064000000034
:103010000000000640000000000000064000000024
:103020000000000640000000000000064000000014
:103030000000000640000000000000064000000004
:1030400000000006400000000000000640000000F4
:1030500000000006400000000000000540000000E5
:103060006C300008000000000000000009000F00A4
:1030700003000200A0300008243200080000000015
:103080008C300008000000000000000009000F0064
:1030900003000200A03000083C32000800000000DD
:1030A0004000005000006400006900006A40006AAF
:1030B00090006AA4006AA9006A954066900051A435
:1030C0000041A40000690000690000140000000035
:1030D000DC30000800000000000000000C001400BC
:1030E0000300020010310008243200080000000034
:1030F000FC30000800000000000000000C0014007C
:1031000003000200103100083C32000800000000FB
:103110004000005000006400006900006A40006A3E
:1031200090006AA4006AA9006AAA406AAA906AAAE2
:10313000A46AA95569A900646A40506A40401A907F
:10314000001A900006A40006A4000150583100089F
:10315000000000000000000012001E000500020038
:103160008C3100082432000800000000783100088B
:10317000000000000000000012001E000500020018
:103180008C3100083C3200080000000040000000C4
:103190000050000000006400000000690000000012
:1031A0006A400000006A900000006AA40000006A03
:1031B000A90000006AAA4000006AAA9000006AAA5A
:1031C000A400006AAAA900006AAAAA40006AAAAAE2
:1031D00090006AAAAAA4006AAAAAA9006AAAAAAA2E
:1031E000406AAA9555506A9A9000006A46A4000069
:1031F0006906A400006401A900005001A900004074
:10320000006A400000006A400000001A90000000C0
:103210001A9000000006A400000006A400000001AF
:1032200050000000030000000100000030320008E0
:10323000FF000000FFFFFF0000000000030000008F
:103240000100000048320008FF00000000000000FC
:10325000FFFFFF0070B50400002C01D10120E5E064
:1032600094F83D00002805D1002084F83C0020009F
:1032700001F075F9242084F83D00206800684008BA
:103280004000216808602068006850F40040216810
:1032900008602068006830F400402168086001F090
:1032A0004AFA01006068DFF8E825904208D2DFF8AA
:1032B000E405814201D2012000E00020C0B207E015
:1032C000DFF8D405814201D2012000E00020C0B225
:1032D000012801D10120A9E0DFF8C005B1FBF0F21F
:1032E0002068406880098001104323685860206886
:1032F000006A6368DFF89855AB4201D2531C08E0BE
:103300004FF4967303FB02F34FF47A75B3FBF5F3B6
:103310005B1C800980011843236818622068C36918
:103320006068DFF86C55A84214D2481E65686D00CD
:10333000B0FBF5F0401C0005000D042801D2042567
:103340003EE0481E65686D00B0FBF5F56D1C2D056F
:103350002D0D35E0A068002809D14D1E66680320B8
:103360004643B5FBF6F0401C0005000D0AE04D1E7B
:10337000666819204643B5FBF6F0401C0005000DB9
:1033800050F48040000501D1012519E0A068002813
:1033900009D14D1E666803204643B5FBF6F56D1C4A
:1033A0002D052D0D0AE04D1E666819204643B5FB1C
:1033B000F6F56D1C2D052D0D55F4804555F4004591
:1033C000DFF8DC0403402B432068C36120680368F6
:1033D00033F0C003E0690343206A034320680360BD
:1033E00020688368DFF8BC04034020690343E06879
:1033F0000343206883602068C3681B0A1B02A56919
:10340000606905432B432068C3602068006850F062
:1034100001002368186000202064202084F83D000B
:1034200000202063002084F83E00002070BD2DE9BC
:10343000F84304000D0016001F00DDF8208001F0A5
:10344000E9F9814694F83D00202840F0A280CDF8AB
:10345000009019230122DFF85014200000F00CFF27
:10346000002801D0022095E094F83C00012801D109
:1034700002208FE0012084F83C0020680068C0072B
:1034800005D42068006850F00100216808602068B9
:10349000006830F4006021680860212084F83D0055
:1034A000102084F83E000020206466626785608DED
:1034B0002085DFF8F803E0624B464246290089B2D6
:1034C000200000F0A1FC002801D0012062E00020D3
:1034D0000090206840690090206880690090009802
:1034E000208D002844D04A464146200000F065FF68
:1034F00000280AD0206C042805D12068006850F408
:10350000007021680860012044E0606A007821684A
:103510000861606A401C6062608D401E6085208D7D
:10352000401E20852068406940070FD5208D002867
:103530000CD0606A007821680861606A401C606293
:10354000608D401E6085208D401E20854A46414684
:10355000200000F05EFF0028C2D0206C042805D1B6
:103560002068006850F4007021680860012011E0B4
:103570002068006850F4007021680860202084F8FA
:103580003D00002084F83E00002084F83C0000202C
:1035900000E00220BDE8F2832DE9F84304000D00AD
:1035A00016001F00DDF8208001F034F9814694F800
:1035B0003D00202840F06981CDF8009019230122B8
:1035C000DFF8E412200000F057FE002801D00220AE
:1035D0005CE194F83C00012801D1022056E1012071
:1035E00084F83C0020680068C00705D420680068A3
:1035F00050F00100216808602068006830F4006025
:1036000021680860222084F83D00102084F83E00E4
:103610000020206466626785608D2085DFF88C025B
:10362000E0624B464246290089B2200000F052FC7D
:10363000002801D0012029E1208D00280FD1002091
:103640000090206840690090206880690090009890
:103650002068006850F400702168086040E0208D08
:10366000012815D12068006830F480602168086066
:1036700000200090206840690090206880690090D8
:1036800000982068006850F400702168086027E006
:10369000208D022815D12068006830F480602168F0
:1036A00008602068006850F400602168086000200D
:1036B0000090206840690090206880690090009820
:1036C0000EE02068006850F48060216808600020E7
:1036D0000090206840690090206880690090009800
:1036E000208D002800F0C680208D042880F099806D
:1036F000208D012816D14A464146200000F0B5FE33
:10370000002801D00120C1E020680069616A0870CA
:10371000606A401C6062208D401E2085608D401EC6
:103720006085DDE7208D02282DD1CDF8009043463D
:103730000022DFF87C11200000F09EFD002801D05F
:103740000120A3E02068006850F400702168086040
:1037500020680069616A0870606A401C6062208DA0
:10376000401E2085608D401E608520680069616A6A
:103770000870606A401C6062208D401E2085608D4C
:10378000401E6085ACE7CDF8009043460022DFF88C
:103790002011200000F070FD002801D0012075E00C
:1037A0002068006830F48060216808602068006943
:1037B000616A0870606A401C6062208D401E20852E
:1037C000608D401E6085CDF8009043460022DFF8F2
:1037D000E010200000F050FD002801D0012055E04D
:1037E0002068006850F40070216808602068006953
:1037F000616A0870606A401C6062208D401E2085EE
:10380000608D401E608520680069616A0870606A8A
:10381000401C6062208D401E2085608D401E6085AA
:103820005EE74A464146200000F01FFE002801D016
:1038300001202BE020680069616A0870606A401C02
:103840006062208D401E2085608D401E608520684E
:10385000406940077FF544AF20680069616A0870DD
:10386000606A401C6062208D401E2085608D401E75
:10387000608535E7202084F83D00002084F83E0074
:10388000002084F83C00002000E00220BDE8F28324
:10389000A186010080841E0000093D0040420F0007
:1038A0000030FFFF007CFFFF020010000000FFFF60
:1038B000040001002DE9F04F83B005000E00170051
:1038C0009846DDF830900D9CDDF838A000F0A2FF9E
:1038D000834695F83D00202840F0A180CDF800B047
:1038E00019230122DFF81815280000F0C5FC002874
:1038F00001D0022094E095F83C00012801D102207B
:103900008EE0012085F83C0028680068C00705D4D7
:103910002868006850F0010029680860286800687D
:1039200030F4006029680860212085F83D004020BF
:1039300085F83E0000202864C5F824906C85688DC9
:103940002885DFF8B804E862CDF804B0CDF800A00F
:1039500043469BB23A0092B2310089B2280000F08F
:103960005BFB002801D001205AE0288D002833D0CD
:103970005A465146280000F020FD00280AD0286C45
:10398000042805D12868006850F400702968086090
:10399000012045E0686A007829680861686A401C6F
:1039A0006862288D401E2885688D401E68852868BD
:1039B00040694007D9D5288D0028D6D0686A00789C
:1039C00029680861686A401C6862288D401E288545
:1039D000688D401E6885C8E75A465146280000F0A9
:1039E00018FD00280AD0286C042805D12868006832
:1039F00050F4007029680860012011E02868006810
:103A000050F4007029680860202085F83D000020EF
:103A100085F83E00002085F83C00002000E00220F0
:103A2000BDE8FE8F2DE9F04F83B083460D001600F0
:103A30001F00DDF830800D9CDDF8389000F0EAFEC4
:103A400082469BF83D00202840F0D481CDF800A0AC
:103A500019230122DFF8A813584600F00DFC0028B6
:103A600001D00220C7E19BF83C00012801D10220CF
:103A7000C1E101208BF83C00DBF800000068C007C2
:103A800007D4DBF80000006850F00100DBF80010FC
:103A90000860DBF80000006830F40060DBF800101C
:103AA000086022208BF83D0040208BF83E0000206B
:103AB000CBF84000CBF82480ABF82A40BBF82A00B2
:103AC000ABF82800DFF83403CBF82C00CDF804A0C5
:103AD000CDF800903B009BB2320092B2290089B22F
:103AE000584600F00EFB002801D0012083E1BBF80E
:103AF0002800002813D100200090DBF80000406966
:103B00000090DBF80000806900900098DBF800006E
:103B1000006850F40070DBF8001008604AE0BBF861
:103B2000280001281BD1DBF80000006830F4806019
:103B3000DBF80010086000200090DBF8000040690E
:103B40000090DBF80000806900900098DBF800002E
:103B5000006850F40070DBF8001008602AE0BBF841
:103B6000280002281BD1DBF80000006830F48060D8
:103B7000DBF800100860DBF80000006850F400601B
:103B8000DBF80010086000200090DBF800004069BE
:103B90000090DBF800008069009000980AE00020A7
:103BA0000090DBF8000040690090DBF800008069BD
:103BB00000900098BBF82800002800F01081BBF8A6
:103BC0002800042880F0D180BBF8280001281ED1ED
:103BD00052464946584600F048FC002801D00120D2
:103BE00009E1DBF800000069DBF824100870DBF85D
:103BF0002400401CCBF82400BBF82800401EABF882
:103C00002800BBF82A00401EABF82A00D2E7BBF818
:103C1000280002283FD1CDF800A04B460022DFF853
:103C2000E411584600F028FB002801D00120E2E012
:103C3000DBF80000006850F40070DBF8001008604A
:103C4000DBF800000069DBF824100870DBF82400C2
:103C5000401CCBF82400BBF82800401EABF828001D
:103C6000BBF82A00401EABF82A00DBF80000006910
:103C7000DBF824100870DBF82400401CCBF824008B
:103C8000BBF82800401EABF82800BBF82A00401EF5
:103C9000ABF82A008EE7CDF800A04B460022DFF8F3
:103CA0006411584600F0E8FA002801D00120A2E093
:103CB000DBF80000006830F48060DBF8001008607A
:103CC000DBF800000069DBF824100870DBF8240042
:103CD000401CCBF82400BBF82800401EABF828009D
:103CE000BBF82A00401EABF82A00CDF800A04B46D6
:103CF0000022DFF81011584600F0BEFA002801D06B
:103D0000012078E0DBF80000006850F40070DBF878
:103D100000100860DBF800000069DBF82410087070
:103D2000DBF82400401CCBF82400BBF82800401E20
:103D3000ABF82800BBF82A00401EABF82A00DBF8DD
:103D400000000069DBF824100870DBF82400401C38
:103D5000CBF82400BBF82800401EABF82800BBF8C5
:103D60002A00401EABF82A0024E75246494658462E
:103D700000F07BFB002801D001203CE0DBF80000D4
:103D80000069DBF824100870DBF82400401CCBF835
:103D90002400BBF82800401EABF82800BBF82A001E
:103DA000401EABF82A00DBF80000406940077FF5B1
:103DB00001AFDBF800000069DBF824100870DBF8C5
:103DC0002400401CCBF82400BBF82800401EABF8B0
:103DD0002800BBF82A00401EABF82A00EAE62020A3
:103DE0008BF83D0000208BF83E0000208BF83C0053
:103DF000002000E00220BDE8FE8F00000000FFFF71
:103E000002001000040001002DE9F04182B004001E
:103E10000D0016001F00D4F82C80B8F1080F05D053
:103E2000B8F1010F02D02A48804506D12068006809
:103E300050F480702168086008E0206B122805D1DA
:103E40002068006850F48070216808600097330093
:103E500000225FF00111200000F00EFA002808D0C7
:103E600020680068C00502D54FF40070206403206C
:103E70002CE02069B0F5804F04D115F0FE002168D8
:103E8000086117E015F4407080B2C00950F0F000EE
:103E9000C0B2216808613B003200DFF8D013200077
:103EA00000F02EFA002801D001200FE02800C0B257
:103EB000216808613B003200DFF8B413200000F0F5
:103EC0001FFA002801D0012000E00020BDE8F681A3
:103ED0000000FFFF2DE9F04182B004000D00160044
:103EE0001F00D4F82C802068006850F4806021689E
:103EF0000860B8F1080F06D0B8F1010F03D0DFF861
:103F00007403804506D12068006850F480702168F1
:103F1000086008E0206B112805D12068006850F483
:103F20008070216808600097330000225FF0011163
:103F3000200000F0A1F9002808D020680068C00522
:103F400002D54FF400702064032063E02069B0F5CF
:103F5000804F05D155F00100C0B2216808614DE0E5
:103F600015F4407080B2C00950F0F000C0B2216872
:103F700008613B003200DFF8F412200000F0C0F9C5
:103F8000002801D0012045E02800C0B22168086166
:103F90003B003200DFF8D812200000F0B1F9002811
:103FA00001D0012036E00020009020684069009098
:103FB00020688069009000982068006850F4807044
:103FC000216808600097330000225FF00111200093
:103FD00000F052F9002808D020680068C00502D51A
:103FE0004FF400702064032014E015F4407080B298
:103FF000C00950F0F100C0B2216808613B003200F6
:10400000DFF86C12200000F07BF9002801D00120BD
:1040100000E00020BDE8F6812DE9F84304000D0022
:1040200016001F00DDF82080DDF82490206800686D
:1040300050F4807021680860CDF80090434600225B
:104040005FF00111200000F017F9002808D0206867
:104050000068C00502D54FF40070206403204EE0D4
:1040600015F0FE00216808614B464246DFF8001259
:10407000200000F045F9002801D001203FE0002099
:104080000090206840690090206880690090009846
:104090004A464146200000F090F900280AD0206CE2
:1040A000042805D12068006850F400702168086079
:1040B000012024E0BFB2012F04D13000C0B221683A
:1040C00008611BE0300080B2000AC0B221680861BC
:1040D0004A464146200000F070F900280AD0206CC2
:1040E000042805D12068006850F400702168086039
:1040F000012004E03000C0B2216808610020BDE862
:10410000F2832DE9F84304000D0016001F00DDF8CE
:104110002080DDF824902068006850F480602168D9
:1041200008602068006850F4807021680860CDF84D
:104130000090434600225FF00111200000F09CF83F
:10414000002808D020680068C00502D54FF4007030
:104150002064032088E015F0FE00216808614B46CA
:1041600042464349200000F0CBF8002801D001204E
:104170007AE0002000902068406900902068806903
:10418000009000984A464146200000F016F90028A9
:104190000AD0206C042805D12068006850F4007013
:1041A0002168086001205FE0BFB2012F04D1300018
:1041B000C0B2216808611BE0300080B2000AC0B2C2
:1041C000216808614A464146200000F0F6F80028C0
:1041D0000AD0206C042805D12068006850F40070D3
:1041E0002168086001203FE03000C0B2216808610A
:1041F0004A464146200000F0E0F800280AD0206C32
:10420000042805D12068006850F400702168086017
:10421000012029E02068006850F48070216808605F
:10422000CDF80090434600225FF00111200000F01D
:1042300023F8002808D020680068C00502D54FF494
:104240000070206403200FE055F00100C0B2216827
:1042500008614B4642460649200000F051F800280C
:1042600001D0012000E00020BDE8F2830800010039
:10427000020001000000FFFF2DE9F04105000E00E3
:1042800017001C00DDF818803000000CC0B20128B7
:104290000AD128684069304080B2B1B2884201D169
:1042A00001200BE0002009E028688069304080B2DE
:1042B000B1B2884201D1012000E00020FFB2B84233
:1042C0001BD114F1010FDFD000F0A4FAB0EB08000D
:1042D000844201D3002CD7D100202863202085F808
:1042E0003D00002085F83E00286C50F02000286436
:1042F000002085F83C00012000E00020BDE8F081AE
:10430000F8B505000E0014001F003000000CC0B20C
:1043100001280AD128684069304080B2B1B2884291
:1043200001D101200BE0002009E0286880693040BD
:1043300080B2B1B2884201D1012000E00020002803
:1043400039D12868406940051AD52868006850F4BA
:104350000070296808607FF4806029684861002047
:104360002863202085F83D00002085F83E00286C59
:1043700050F004002864002085F83C0001201BE078
:1043800014F1010FC1D000F045FAC01B844201D3E3
:10439000002CBAD100202863202085F83D000020A1
:1043A00085F83E00286C50F020002864002085F835
:1043B0003C00012000E00020F2BD70B505000C00BB
:1043C000160028684069000621D4280000F086F80D
:1043D000002801D001201BE014F1010FF1D000F002
:1043E00019FA801B844201D3002CEAD100202863F3
:1043F000202085F83D00002085F83E00286C50F014
:1044000020002864002085F83C00012000E0002006
:1044100070BD70B505000C001600286840694007A3
:1044200021D4280000F05AF8002801D001201BE018
:1044300014F1010FF1D000F0EDF9801B844201D39B
:10444000002CEAD100202863202085F83D000020C0
:1044500085F83E00286C50F020002864002085F884
:104460003C00012000E0002070BD70B505000C008C
:1044700016002868406940062ED428684069C006A6
:1044800012D57FF0100029684861002028632020A1
:1044900085F83D00002085F83E00286C2864002047
:1044A00085F83C00012018E000F0B4F9801B84423C
:1044B00001D3002CDDD100202863202085F83D00A9
:1044C000002085F83E00286C50F020002864002071
:1044D00085F83C00012000E0002070BD0100086864
:1044E0004069400514D57FF480600A68506100205F
:1044F0000863202081F83D00002081F83E00086C10
:1045000050F004000864002081F83C00012000E025
:104510000020704780B52D482D4908602D482C4952
:10452000486000202A49886000202949C8604FF46B
:10453000804027490861002025494861002024491E
:10454000886100202249C861002021490862204872
:10455000FEF780FE002801D000F064FA01BD10B51E
:1045600086B0040001A8142100F09AFA20681749C7
:10457000884229D1002000901748006850F00200BE
:10458000154908601448006810F002000090009877
:10459000002000901148006850F400100F49086096
:1045A0000E48006810F4001000900098C0200190A0
:1045B0001220029001200390032004900420059013
:1045C00001A9074800F0A0FA06B010BD0054004051
:1045D000F4420120A08601003038024040380240F9
:1045E0000004024070B504000D00002C01D1012030
:1045F0009DE05C48006810F00F00A84209D25948BD
:1046000005705848006810F00F00A84201D0012042
:104610008DE02078800719D52078400705D55248CD
:10462000006850F4E050504908602078000705D534
:104630004D48006850F460404B4908604A480168A2
:1046400031F0F001A0680143474801602078C007BD
:1046500036D56068012805D144480068800313D42A
:10466000012064E06068022802D06068032805D158
:104670003E480068800107D4012058E03B480068AC
:10468000800701D4012052E0374801688908890079
:10469000606801433448016000F0BCF8060032480D
:1046A000006810F00C006168B0EB810F08D000F0DA
:1046B000B1F8801B41F289318842F0D3032036E003
:1046C0002848006810F00F00854209D2254805707F
:1046D0002448006810F00F00A84201D0012026E015
:1046E0002078400707D52048016831F4E051E068A0
:1046F00001431D4801602078000708D51A4800686A
:1047000030F46040216950EAC1001749086000F0A8
:1047100037F81749144A1268C2F30312895CC8407B
:10472000144908601448006800F02CFB002070BD9C
:1047300010480068704780B5FFF7FAFF0F490A4A32
:104740001268C2F38222895CC84002BD80B5FFF7BF
:10475000EFFF0A49044A1268C2F34232895CC8403A
:1047600002BD0000003C0240083802400038024010
:1047700084BC0208080000200400002054C602087F
:10478000F0B500240025002600271E48006810F020
:104790000C00002804D0042804D0082804D02FE0FE
:1047A00019482EE019482CE01948006810F03F0025
:1047B00004001748006840020CD515480068C0F393
:1047C00088101249A1FB00012200002300F000FB29
:1047D00005000BE00E480068C0F388100A49A1FBF1
:1047E00000012200002300F0F3FA050008480068E9
:1047F000C0F30140401C40000600B5FBF6F000E0AD
:104800000148F0BD083802400024F40000127A008C
:104810000438024001480068704700BFBC490120CD
:1048200000B583B000F078FB00F084F800F094FB52
:1048300000F0BAFB00F082FC00F01EFDFFF76AFEFC
:1048400000F0C6FD00F098FD00F0EDFD00F00DFE5B
:1048500014226349634801F00EF814226249634848
:1048600001F009F803220021012001F0BBFB60499F
:10487000086003220021012001F0B4FB5D490860BB
:1048800000221421052001F0ADFB5B4908600022E5
:104890002C21052001F0A6FB58490860002001905A
:1048A000032000900023802255490FF2790001F087
:1048B00023FF002001900220009000234FF40062AB
:1048C0005049514801F018FF00200190032000904A
:1048D00000234FF480724D494D4801F00DFF02F066
:1048E0003FF8FEE710B5040020684A49884209D124
:1048F00014223B49200000F092FF14223849200086
:1049000000F0B9FF20684449884209D11422364991
:10491000200000F084FF14223349200000F0ABFF98
:1049200010BD000010B5040002F074FC0A2001F074
:10493000F0FFF9E700B593B006A8302100F0B0F819
:1049400001A8142100F0ACF8002000903348006862
:1049500050F08050314908603048006810F08050B5
:1049600000900098002000902D48006850F480408E
:104970002B4908602A48006810F480400090009895
:10498000012006905FF48030079002200C905FF4C5
:1049900080000D9004200E90A8200F90022010900F
:1049A0000420119006A802F089FC002801D000F034
:1049B00039F80F20019002200290002003904FF45C
:1049C000A05004904FF480500590052101A8FFF7F6
:1049D00009FE002801D000F025F813B000BD00004A
:1049E00070470120B444012084470120F444012091
:1049F000A8490120A4490120AC490120B049012067
:104A0000E8C30208F4C30208BD85020800C4020816
:104A1000CBA801080010014000440040403802408B
:104A2000007000407047F0B4024610689568131893
:104A3000506803EB5004C00721D54D441FE0F0BC83
:104A400002F10C00704713F8017B05F8017B491E49
:104A5000F9D1A0B1B60813F8011B06F00306032E26
:104A600008BF13F8016B01EB06214942801C294461
:104A700005D011F8016B05F8016B401EF9D1A34276
:104A8000DDD013F8016B16F0030104BF13F8011B0E
:104A9000C91C30090F28DAD113F8010B0F30D6E703
:104AA000002202F011BEF0B587B085680C9F009718
:104AB000BC1A581A013400FB0444D5F8A8700D9EA6
:104AC0002846B847D5F834312E209847D5F85031CC
:104AD000296A02A89847D5F85031022102A89847C0
:104AE000BDF80A30C3F3C4025B1103F4FC63134343
:104AF000BDF80820120222F4FF621343013C26F89D
:104B0000023BE8D107B0F0BDF8B400230024002533
:104B10000026102E80F004810122B24013000A68A2
:104B20001A4014009C4240F0F9804A68012A08D0DB
:104B30004A68022A05D04A68112A02D04A68122A15
:104B400024D187685FF0030C3200D2B252001CFA05
:104B500002FC37EA0C07D1F80CC03200D2B2520086
:104B60001CFA02FC5CEA0707876042685FF0010CF0
:104B70001CFA06FC32EA0C02D1F804C0CCF3001C8B
:104B80001CFA06FC5CEA020215004560C7685FF08B
:104B9000030C3200D2B252001CFA02FC37EA0C07B6
:104BA000D1F808C03200D2B252001CFA02FC5CEA12
:104BB0000707C7604A68022A02D04A68122A1ED133
:104BC0003200D20800EB8202156A5FF00F0C16F07B
:104BD0000702D2B292001CFA02FC35EA0C05D1F8A9
:104BE00010C016F00702D2B292001CFA02FC5CEA76
:104BF00005052F003200D20800EB8202176205681B
:104C00005FF0030C3200D2B252001CFA02FC35EA0B
:104C10000C0591F804C01CF0030C3200D2B2520013
:104C20001CFA02FC5CEA050505604A68D20075D5ED
:104C300000220092454A126852F48042434F3A6083
:104C4000424A126812F480420092009A404A3700A9
:104C5000BF0852F827705FF00F0C16F00302D2B2B3
:104C600092001CFA02FC37EA0C073A4A904201D142
:104C7000002523E0384A904201D101251EE0374A41
:104C8000904201D1022519E0354A904201D1032515
:104C900014E0344A904201D104250FE0324A904298
:104CA00001D105250AE0314A904201D1062505E0EF
:104CB0002F4A904201D1072500E00825EDB216F0F9
:104CC0000302D2B2920095402F43214A3500AD082D
:104CD00042F82570274A1268A2434D68ED0300D5BB
:104CE0002243244D2A60244D2D68A5434F68BF03FD
:104CF00000D52543204A1560204A1268A2434F6818
:104D0000FF0200D522431D4D2A601D4D2D68A5438D
:104D10004F68BF0200D52543194A1560761CF8E696
:104D2000F1BC70470200106989B2084201D001202D
:104D300000E00020C0B27047D2B2002A02D089B28F
:104D4000816102E089B20B048361704744380240FC
:104D50000838014000000240000402400008024000
:104D6000000C0240001002400014024000180240F3
:104D7000001C0240003C0140043C0140083C014052
:104D80000C3C014010B504004FF47A700D490978CD
:104D9000B0FBF1F00C490968B1FBF0F002F06CFDDA
:104DA000002801D001200CE0102C09D200222100A3
:104DB0005FF0FF3002F044FD04480460002000E092
:104DC000012010BD86030020080000200400002000
:104DD0001B4213D1094236D12AB18446B0FBF2F00E
:104DE00002FB10C2704702F07FBDFCD300220023FB
:104DF00070470B000200002100207047904271EBC9
:104E0000030CF6D370B5B1FA81F4B3FA83F52C1B19
:104E1000A340C4F1200532FA05F63343A2405FF007
:104E20000046E64002E05B085FEA3202841A71EB5A
:104E3000030524BF204629467641F4D302000B0027
:104E40003000002170BD012ACFD970B5140C20D0DC
:104E5000B1FA81F4B2FA82F5C4F120046419B4F114
:104E60002006D6D3B2405FF00044F440002502E0B3
:104E700052085FEA3303C61A71EB020E24BF3046B4
:104E8000714664416D41F3D302000B0020002900FC
:104E900070BD0C46B1FBF2F102FB11452D0445EA51
:104EA0001045B5FBF2F402FB145580B240EA05450B
:104EB000B5FBF2F002FB105240EA044070BD01392C
:104EC00080680D2923D8DFE801F0090B0D0F22229D
:104ED000221125070713181D01207047006870472D
:104EE0004068704780687047C0687047806B704743
:104EF00088B1406B00F00100704760B1406BC0F3B7
:104F00004000704738B1406BC0F3800070474FF0ED
:104F1000FF3070470020704780B50E48006850F49D
:104F200000700C4908600B48006850F48060094923
:104F300008600848006850F4807006490860032043
:104F400002F078FC0020FFF71DFF02F0EBFC0020D0
:104F500002BD0000003C024080B5104810490860C6
:104F60000F4802F003FD002801D0FFF75BFD01BDF3
:104F700081B00168094A91420DD10021009109498F
:104F8000096851F48051074A11600649096811F413
:104F900080510091009901B070470000003002403C
:104FA0001C4901203038024000B587B001A8142107
:104FB000FFF776FD002000905C48006850F080000C
:104FC0005A4908605948006810F080000090009825
:104FD000002000905548006850F0010053490860D7
:104FE0005248006810F001000090009800200090E6
:104FF0004E48006850F010004C4908604B4800686B
:1050000010F01000009000980020009047480068C1
:1050100050F00200454908604448006810F0020062
:1050200000900098002000904048006850F0080070
:105030003E4908603D48006810F008000090009864
:10504000002000903948006850F00400374908609B
:105050003648006810F004000090009800220321F8
:105060003348FFF769FE03200190012002900020E1
:1050700003900020049001A92D48FFF745FD07B0DB
:1050800000BD00B585B068461421FFF709FD4FF457
:1050900080400090002001900120029002200390A7
:1050A00069462348FFF730FD202000900020019042
:1050B000012002900220039069461E48FFF724FD5C
:1050C0004FF4304000900120019002200390012015
:1050D000029069461648FFF717FD05B000BD00B500
:1050E00085B068461421FFF7DBFC102000900020FB
:1050F00001900020029069460F48FFF705FD05B0BA
:1051000000BD00B585B068461421FFF7C9FC10202A
:105110000090012001900120029000200390694638
:105120000548FFF7F1FC05B000BD00003038024033
:1051300000040240000802400000024000B587B0B1
:1051400068461C21FFF7ACFC5FF020404449086032
:105150004448434948600020414988600020404954
:10516000C86000203E49086110203D494861002088
:105170003B49886100203A49C861002038490862EB
:105180000020374948624FF480503549886200203A
:105190003349C8620020324908630020304948631F
:1051A00000202F49886300202D4948640220009088
:1051B00002200190062002900F20039010200490FE
:1051C000112005900020069000226946244802F034
:1051D000DFFB002801D0FFF725FC07B000BD00B5BC
:1051E00087B001A81421FFF75BFC1F480068002866
:1051F0002ED101201C490860002000901B48006847
:1052000050F00100194908601848006810F00100CA
:10521000009000984FF680700190022002900020CC
:105220000390032004900C20059001A91048FFF77B
:105230006BFC4EF2B37001900220029000200390AC
:10524000032004900C20059001A90A48FFF75CFC9C
:1052500007B000BD10B50400FFF7C1FF10BD00008E
:1052600048430120040100A074490120383802405D
:1052700000100240000C024080B53A483A490860EC
:105280004FF4827038494860002037498860002018
:105290003549C8600020344908610020324948611E
:1052A0004FF400703049886100202F49C861002008
:1052B0002D49086200202C49486200202A49886252
:1052C0000A202949C862284802F090FB002801D032
:1052D000FFF7A8FB01BD10B586B0040001A814219A
:1052E000FFF7DEFB20681F49884229D1002000908B
:1052F0001E48006850F480501C4908601B48006834
:1053000010F4805000900098002000901848006829
:1053100050F00200164908601548006810F00200BD
:105320000090009838200190022002900020039005
:10533000032004900520059001A90E48FFF7E4FB27
:1053400006B010BD01B582B04FF47A700090012311
:1053500001AA02A9044802F090FB9DF804000EBDCA
:105360000000000000300140444201204438024067
:10537000303802400004024080B5DFF81803DFF83F
:10538000181308605FF4E130DFF80C134860002068
:10539000DFF8041388600020DFF8FC12C8600020EA
:1053A000DFF8F41208610C20DFF8EC1248610020ED
:1053B000DFF8E41288610020DFF8DC12C861DFF852
:1053C000D80200F081F9002801D0FFF72BFB01BDC6
:1053D00080B5DFF8C802DFF8C81208605FF4E1307A
:1053E000DFF8BC1248600020DFF8B41288600020AB
:1053F000DFF8AC12C8600020DFF8A41208610C20AE
:10540000DFF89C1248610020DFF8941288610020C8
:10541000DFF88C12C861A24800F056F9002801D0CC
:10542000FFF700FB01BD80B59E489F4908604FF41F
:1054300016509D49486000209B49886000209A4989
:10544000C8600020984908610C20974948610020F5
:105450009549886100209449C861934800F034F967
:10546000002801D0FFF7DEFA01BD80B58F489049D2
:1054700008604FF416508E49486000208C498860BF
:1054800000208B49C8600020894908610C208849A8
:10549000486100208649886100208549C8618448A8
:1054A00000F012F9002801D0FFF7BCFA01BD10B5D9
:1054B00086B0040068461421FFF7F2FA20687549A7
:1054C000884232D1002005907A48006850F40020CC
:1054D000784908607748006810F400200590059826
:1054E000002005907448006850F00100724908607F
:1054F0007148006810F001000590059803200090A5
:1055000002200190012002900320039008200490C3
:1055100069466A48FFF7F8FA00220521342002F0B4
:105520008FF9342002F0A1F9A5E020685B49884298
:1055300033D1002005906248006850F010006049A7
:1055400008605F48006810F0100005900598002082
:1055500005905948006850F00100574908605648C6
:10556000006810F00100059005984FF4C0600090AD
:105570000220019001200290032003900720049054
:1055800069464E48FFF7C0FA00220521252002F0A7
:1055900057F9252002F069F96DE0206841498842F9
:1055A00032D1002005904348006850F40030414952
:1055B00008604048006810F400300590059800200D
:1055C00005903D48006850F001003B4908603A48AA
:1055D000006810F00100059005980C200090022052
:1055E0000190012002900320039007200490694657
:1055F0003248FFF789FA00220521262002F020F91F
:10560000262002F032F936E020682849884232D15B
:10561000002005902748006850F480202549086044
:105620002448006810F4802005900598002005901B
:105630002148006850F002001F4908601E480068B9
:1056400010F00200059005984FF440600090022091
:1056500001900120029003200390072004906946E6
:105660001848FFF751FA00220521272002F0E8F838
:10567000272002F0FAF806B010BD11B581B00C0079
:105680004FF6FF73012201A9034800F058F8019872
:1056900016BD0000004C0040744401200010014081
:1056A000B444012000440040F4440120004800407C
:1056B00034450120403802403038024000000240AA
:1056C000443802400004024010B50400002C01D10F
:1056D000012033E0A0690028FFD194F839000028A8
:1056E00005D1002084F838002000FFF7E0FE2420D8
:1056F00084F839002068C06830F400502168C86020
:10570000200000F08BFA2068006930F49040216896
:1057100008612068406930F02A00216848612068EB
:10572000C06850F400502168C8600020E063202069
:1057300084F83900202084F83A00002010BD2DE9BB
:10574000F04782B006000C0015001F005FF0000A51
:1057500096F8390020285FD1002C02D0ADB2002D80
:1057600001D1012059E096F83800012801D102202A
:1057700053E0012086F838000020F063212086F8ED
:105780003900FFF747F88146B584F584002086F894
:105790003800F08C00282FD0F08C401EF084B068C8
:1057A000B0F5805F18D100974B4600228021300071
:1057B00000F041F9002801D003202EE0A046B8F8FF
:1057C0000000C005C00D316848603069002801D173
:1057D000A41CDEE7641CDCE700974B460022802116
:1057E000300000F028F9002801D0032015E02078CF
:1057F00031684860641CCCE700974B46002240218A
:10580000300000F018F9002801D0032005E0202026
:1058100086F83900002000E00220BDE8F68710B4C9
:10582000030093F83900202822D1002902D092B237
:10583000002A01D101201CE093F83800012801D191
:10584000022016E0012083F8380019629A84DA8475
:105850000020D863212083F83900002083F8380025
:105860001868C06850F080001C68E060002000E00C
:10587000022010BC704710B4030093F83A002028AF
:105880002ED1002902D092B2002A01D1012028E0B5
:1058900093F83800012801D1022022E0012083F88A
:1058A000380099629A85DA850020D863222083F82F
:1058B0003A00002083F838001868C06850F48070FF
:1058C0001C68E0601868406950F001001C68606165
:1058D0001868C06850F020001C68E060002000E0FC
:1058E000022010BC70472DE9F843060030680768B5
:1058F0003068D0F80C803068D0F814900020002573
:1059000017F00F04002C08D1B80606D55FEA8860AE
:1059100003D5300000F02BF98BE0002C77D05FEA44
:10592000C97002D418F4907F71D017F00100C0B292
:10593000002806D05FEAC85003D5F06B50F0010094
:10594000F063780708D519F00100C0B2002803D031
:10595000F06B50F00200F063B80708D519F00100B1
:10596000C0B2002803D0F06B50F00400F063380799
:105970000BD55FEA886004D419F00100C0B200289A
:1059800003D0F06B50F00800F063F06B00283DD0BE
:10599000B80605D55FEA886002D5300000F0E7F868
:1059A00030684069800910F001000500F06B0007C5
:1059B00001D4002D25D0300000F074F83068406923
:1059C00040061AD53068406930F0400031684861BF
:1059D000706B00280DD00FF2F100716B0865706BD1
:1059E00002F02EFA002811D0706B716B096D884798
:1059F0000CE0300002F038FA08E0300002F034FA2F
:105A000004E0300002F030FA0020F06311E03806C4
:105A100006D55FEA086003D5300000F061F808E0C1
:105A2000780606D55FEA486003D5300000F08FF8AD
:105A3000FFE7BDE8F1832DE9F04105000E001700F6
:105A40009846069C286800683040B04201D1012089
:105A500000E00020FFB2B84221D114F1010FF1D0D3
:105A6000002C05D0FEF7D6FEB0EB08008442E9D248
:105A70002868C06830F4D0702968C8602868406918
:105A80004008400029684861202085F8390020201E
:105A900085F83A00002085F83800032000E0002057
:105AA000BDE8F0810168C96831F490710268D16085
:105AB000016849694908490002685161202180F85C
:105AC0003A1070470000000038B50400A56B0020B4
:105AD000E8850020E884280002F0C6F931BD000006
