:020000040800F2
:10000000503501209D6A000805690008076900084D
:10001000096900080B6900080D690008000000006C
:100020000000000000000000000000000563000860
:100030000F69000800000000AD62000811690008A7
:10004000C76A0008CB6A0008CF6A0008D36A0008B4
:10005000D76A0008DB6A0008DF6A0008E36A000864
:10006000E76A0008EB6A0008EF6A0008F36A000814
:10007000F76A0008FB6A0008FF6A0008036B0008C3
:10008000076B00080B6B00080F6B0008136B000870
:10009000176B00081B6B00081F6B0008236B000820
:1000A000276B00082B6B00082F6B0008336B0008D0
:1000B000376B00083B6B00083F6B0008436B000880
:1000C000476B00084B6B00084F6B0008536B000830
:1000D000576B0008DD680008E3680008E96800085D
:1000E0005B6B00085F6B0008636B0008676B0008C0
:1000F0006B6B00086F6B0008736B0008776B000870
:100100007B6B00087F6B0008836B0008876B00081F
:10011000EF6800088B6B00088F6B0008936B00087A
:10012000976B00089B6B00089F6B0008A36B00088F
:10013000A76B0008AB6B0008AF6B0008B36B00083F
:10014000B76B0008BB6B0008BF6B0008C36B0008EF
:10015000C76B0008CB6B0008CF6B0008D36B00089F
:10016000D76B0008DB6B0008DF6B0008E36B00084F
:10017000E76B0008EB6B0008EF6B00080000000065
:10018000F36B0008F76B00082DE9F04F0FF2B01980
:10019000A1B0D9E90045CDE90045049100212A9E8E
:1001A000DFF8FC8B8DF843600D914FF0FF398246EC
:1001B00015461F460FE0AB4634461BF8011B04985A
:1001C000D0470028049000F0A7800D98401C641EC2
:1001D0000D90F2D135442878252807D100210791C8
:1001E000089109910A910B910C910DE06A464946DC
:1001F000284600F0C1FF060001D10D98A8E0DAD52D
:100200000126E7E741F0010115F8010F2028F9D098
:1002100023280DD02B2804D02D2806D030280AD032
:100220007CE041F0020189B2EEE741F00401FAE717
:1002300041F00801F7E741F01001F4E700200F90CA
:1002400009E00F98404505DA00EB800302EB43021A
:10025000303A0F926D1C2A78A2F130000A28F0D3B0
:100260002A782E2A18BFCDF8389023D115F8010F1F
:100270002A2807D1386838606D1C50F8042B386084
:100280000E9217E02D280CBF15F8010B002000225C
:100290000E920AE040B90E9A424505DA02EB82045A
:1002A00003EB4403303B0E936D1C2B78A3F130021B
:1002B0000A2AEFD3ADF840100FF28C00297800F035
:1002C00065FF08B115F8010B8DF842009DF842005A
:1002D000682804BF2978682903D162208DF842007C
:1002E00007E06C2804BF28786C2803D171218DF8B1
:1002F00042106D1C12A806903A4615F8013B02A95F
:10030000504600F065F838B912AA02A9504600F02C
:10031000C7F900287FF55FAF484619E02A288DD13C
:100320003868386050F8042B3860002A0F9204D5E2
:10033000524241F004010F9289B26D1C90E7000017
:100340000000000000000000686A6C747A4C000035
:1003500021B0BDE8F08F622820D0682811D06A282B
:1003600003D06C2827D0712825D10868C01D20F043
:1003700007000860D0E900230830086019461046DD
:100380007047002A0A680A60106803D0121D0A60CC
:1003900000B217E0121D0A6080B217E0002A0A6856
:1003A0000A60106803D0121D0A6040B20AE0121DF4
:1003B0000A60C0B20AE0002A0A680A60106803D026
:1003C000121D0A60C1177047121D0A600021704794
:1003D0007CB50D4611461C462E69B4F1250200F08D
:1003E0004D811C3A00F08680121F022A40F2828062
:1003F0000E3A00F00781521F5AD0093A7AD0921E65
:1004000016D0521E35D0521E022A73D9121F30D078
:10041000521F00F09A80521E4AD0521E00F0E48013
:10042000D21E00F0FD80921E42D0D21E40D02BE1A1
:1004300095F83A206C2A09D06869421C6A610A68FA
:100440000A6052F8043B0A60335427E10A680A60E4
:1004500052F8043B0A600021009301914FF0FF32F3
:100460002A6329466A4600F096F9002840F1168171
:1004700001E195F83A000122FFF76DFFC5E900019F
:100480000023994204DA6869411C69612D210DE05D
:10049000288F810704D56869411C69612B2105E01B
:1004A000C00722D56869411C6961202131541CE0D4
:1004B00095F83A000022FFF74EFFC5E9000195F8D4
:1004C0003800010711D5D5E900230020834208BF79
:1004D00082420AD044F02000782806D16869302191
:1004E0003154401C411C69613454214668693044D0
:1004F000E86083E00868C01D20F007000860D0E9CC
:10050000002308300860C5E90023D5E90001C80FC1
:1005100004D06869411C69612D210DE0288F810795
:1005200004D56869411C69612B2105E0C00704D529
:100530006869411C69612021315468693044E86070
:100540002146284600F034FAA8E005F13A02507836
:1005500020B14FF0FF340FF6203070E010786228A1
:1005600008D0682824D06A2812D06C282ED0712890
:100570000ED02BE00A680A6052F8040B0A6020B91A
:100580004FF0FF340FF6083059E0E96A017085E05A
:100590000A680A6052F8040B0A6020B94FF0FF3471
:1005A0000FF6EC204BE0EA6AD317C0E9002375E0B0
:1005B0000A680A6052F8040B0A6020B94FF0FF3451
:1005C0000FF6CC203BE0E96A018067E00A680A6028
:1005D00052F8040B0A6020B94FF0FF340FF6B02038
:1005E0002DE0E96A016059E00A680A6052F8040BDC
:1005F0000A600021C5E90001EE607821284600F07C
:1006000029F94BE06C2285F83A200B680B6053F80F
:10061000042B0B6052BB4FF0FF340FF6A8200EE006
:1006200095F83A206C2AF0D00868086050F8044B1E
:100630000860EC603CB94FF0FF340FF66C2000F01E
:10064000B1FD201A76BD2E6B002E04D5204600F099
:10065000CBFD044608E032460021204600F0E0FDD4
:10066000002814BF041B3446AC6117E0294600F093
:1006700092F8002812D54FF0FF3076BD6869411C12
:1006800069612521315409E06869411C69612522AD
:100690003254200002D0481C68617454002076BD9A
:1006A0002DE9F0410E460546716B7069B46A091A6E
:1006B000306A091AB069091A706A091AF069091AC8
:1006C00096F838000C1B410790460DD4002C0BDD2A
:1006D0002746B0682021A8470028B06057D0F06AAC
:1006E000401C7F1EF062F4D17369424631462846B1
:1006F00000F0AAFC00284AD1376A002F0ADDB06852
:100700003021A8470028B06041D0F06A401C7F1E0D
:10071000F062F4D1B369F2683146284600F094FCE7
:10072000A8BB776A002F09DDB0683021A847B06008
:1007300068B3F06A401C7F1EF062F5D1F068B169C1
:10074000F36942183146284600F07EFCF8B9B76AD2
:10075000002F09DDB0683021A847B060B8B1F06A59
:10076000401C7F1EF062F5D196F8380041070BD58A
:10077000002C09DDB0682021A847B06038B1F06ACC
:10078000401C641EF062F5D10020BDE8F0814FF0FE
:10079000FF30BDE8F0812DE9F0470E46A4B0356B7F
:1007A000002D8146904648BF6FF0004500F064FD83
:1007B000716B40180FF628118128D1E90023CDE98B
:1007C000012328BF4FF0FF303ED20024002D2FDD43
:1007D000D8F8001001AA684600F0D0FC0746002FA8
:1007E00035D4D8F8000008B97F1E30D4BD421FDBD5
:1007F0007069381881280AD30020706303AA314633
:100800004846FFF74DFF040012D40020706103A892
:10081000D6F814A03A466946504400F033FDBA4475
:10082000C6F814A058F8040B002818BFED1BCDD152
:100830002CB903AA31464846FFF732FF044614B9E3
:10084000002070617063204624B0BDE8F0874FF04F
:10085000FF34F8E72DE9FC4B06468B463469BBF1C3
:100860006F0F08BF082505D04BF02001782914BF71
:100870000A2510253C27D6E90023BBF1640F18BFD9
:10088000BBF1690F9046994606D100218B4203DAED
:10089000D8F1000869EB49090020814508BF80456F
:1008A0001FD1306BE8B9082D4ED196F838000107FA
:1008B0004AD530203B2784F83B0045E000280ED580
:1008C00096F8380000F01400102808D1726B706997
:1008D000121A306A121A511A0029C8BF3162BDE8D3
:1008E000F38B01968DF800B0404649462A46EB1737
:1008F00000F01CFD30327F1ED2B23A2A04DB9DF894
:100900000000A0F151018A18E255404649462A46A6
:10091000EB1700F00BFD894600228046914508BF89
:10092000904504D00198C168E0198142DCD3082DBC
:10093000019E09D196F83800010705D5E15D3029FF
:1009400002D07F1E3020E055E019F060C7F13C0175
:10095000306BB1618142B1DA411A31624FF6EF700A
:10096000318F01403187BDE8F38B2DE9D043064636
:100970000F4614464FF00008DFF8289412E0E00715
:1009800007D542464B463046394600F047FD0646FD
:100990000F464046494642464B4600F03FFD641034
:1009A00080468946002CEAD130463946BDE8D083DE
:1009B0002DE9F04705468A468EB0D5E900894AF010
:1009C0002000612802AF00900AD0286B002802D5D1
:1009D0000620286304E001BF0098672801212963ED
:1009E000D5E9006460004015401C0DD121030BD0F7
:1009F000AAF1610103201A29A86102D20FF2E8616D
:100A000010E00FF2E8610DE060004015401C0ED1CF
:100A100021030CD1AAF1610103201A29A86116D380
:100A20000FF2D061E868032200F02CFCCAE124F048
:100A30000043B3F5801F26F0000211D2002083424C
:100A400008BF8242019005D13046214612E00FF2E4
:100A5000A061E7E701AA3046214600F0B1FD09E0B8
:100A6000D148D24900EB1350019004EA0102D04969
:100A700030461143C5E90001009A612A0DD1E868AA
:100A800030210170811CE960BAF1610F0CBF78213F
:100A9000582141706869801C6861D5E90023CDE95F
:100AA0000C23DDE90C0121F00041002200239942D2
:100AB00004BF9042002000F04D810098612840F072
:100AC0009C80286B00284CBF2120401C0090404691
:100AD000009E761C4946DDE90C8900F0A9FD0198CD
:100AE0008DF8082038BF89F00049001F0190002EC2
:100AF0000DF1090040F33C8107464046494600227B
:100B0000002300F0ADFD80F032814800400D00F17F
:100B10001C0211D0002A0FDD40F2FF70824205DB7B
:100B2000A44909F000400143002012E06FF31E5178
:100B300041EA025140460CE029F0004128F0000053
:100B4000994208BF98420FBF49461C22494600F00F
:100B50009FFD8046894600F039FEF61F002E0446B0
:100B600009DD00F051FE02460B464046494600F0C2
:100B70005DFE80468946F81D072104E004F00F025F
:100B800000F8012D2411002C01DD491EF6D5491E67
:100B90005CBF002200F8012DF9D5E4E000201946E1
:100BA00002AA0A4400E05B1E12F80149491E844271
:100BB000F9D00F2804D10DF10900425C521C4254B7
:100BC000002904D50198001D02AF5B1C0190581E3E
:100BD0000CD43918AAF13A040A783032D2B2392A40
:100BE000C8BFA218401E01F80129F5D5286B0028BE
:100BF00040F1AF80591E2963ABE04046494600F002
:100C000017FD019938BF89F0004947F297504143D9
:100C1000694A91FBF2F20192D2F1070204DD4046EB
:100C20004946FFF7A2FE0AE0524200206349FFF75F
:100C30009CFE02460B464046494600F069FE80464F
:100C400000985F4E6628286B06BF019C0A34062474
:100C50002418142CC8BF142430208DF808008946AD
:100C60000DF1090000E03846002C34DD074640460F
:100C7000494600F071FF01460A4607F108030420C7
:100C80000A27B2FBF7F707EB870EA2EB4E023032D2
:100C900003F8012C0A22B7FBF2F202EB820EA7EB5B
:100CA0004E073037401E03F8027DE9D1083C002C86
:100CB00003F10807D7DD084600F062FF02460B4645
:100CC0004046494600F0B2FD0022334600F0A6FB44
:100CD00080468946CBE70DF10901401A0DF109075D
:100CE00004E00199491E401E01917F1C397830298A
:100CF000F7D0009A662A02D10199491C03E0652ABF
:100D00000CBF012100212B6BCB189842B8BF431EAA
:100D1000002B1ED4834204DAF85C3528A8BF3920A2
:100D200000DA302019467A1E02EB010800E05B1E53
:100D300018F80199491E8145F9D0392802D1785C0B
:100D4000401C7854002904D50198401C17465B1CB0
:100D50000190019800B200901BB23A4651462846D5
:100D600000F033F82EE0C71D002E3FF7C6AE384620
:100D70000DF10901401A009903468842C8BF0B468D
:100D8000002B0DF109073FF531AF8342BFF606AFE7
:100D90000DF10900C05C07287FF700AF0F20FEE6C9
:100DA000CBCCCC0C0000244002FCFFFFFFFF0F80E7
:100DB0000000E03F0000F07FA08601000000F03F4F
:100DC00084D797410EB0BDE8F0872DE9F04F83B08E
:100DD00006468B469246994600F0D2F9B9F1000FCB
:100DE000406AD6F83080077803DC4FF001090FF233
:100DF000083ABDF930504BF02000662808BF6D1C42
:100E000017D0672840F0878015F1040FC0F2898061
:100E1000454580F2868096F838006D1C010702D4A3
:100E2000C145B8BFC8462DB2B8EB050848BF4FF062
:100E300000082DB2F068B169002D27DC4A1C302370
:100E40004354B8F1000F03DC96F83800010702D5CF
:100E5000F0688754521C18EB050FB8BFC8F10005A5
:100E60002DB2A8446842C845B8BFC146B26170629D
:100E70000FFA89F4F461F068B369224651461844C8
:100E800000F000FAA8EB0400B062C6E02A469145E3
:100E9000084418DA4A46514600F0F4F9B06948446B
:100EA000B061A5EB0901B8F1000F716203DC96F89F
:100EB00038100A0704D5F1680F54F069401CF0613E
:100EC000C6F82880A9E0514600F0DCF9B06928187E
:100ED000B8F1000FA9EB050303DC96F838100A07F8
:100EE00002D5F1680F54401CB0610FFA83F9C84570
:100EF000B8BFC146F068B3690FFA89F422460AEB1D
:100F00000501184400F0BEF9B0692044B061A8EBB7
:100F10000400706281E0BBF1610F16D14FF0700BDD
:100F200018E0C14504DA96F838100A0758BFC846D9
:100F3000B8F1010848BF4FF00008BBF1670F14BFBC
:100F40004FF0450B4FF0650B04E0BBF1410F08BFBC
:100F50004FF0500BB169F368481CB061B8F1000F55
:100F60001AF8012B5A5403DC96F838100A0719D5E1
:100F7000F168431CB3610F54B8F1000F12DDA9F101
:100F800001073FB2B845B8BF4746F0683FB23A469E
:100F90005146184400F076F9B0693818B061A8EBF2
:100FA00007007062F068B1690844002D80F800B055
:100FB00003D42B214170811C03E02D2141706D422F
:100FC000811C00206A460AE02B460A2493FBF4F5B4
:100FD00005EB8504A3EB440302F8013B401C2DB252
:100FE000002DF1DC012806DC4BF02002652A04BF4D
:100FF000302201F8012B48B9302001F8010B07E03D
:10100000401E1DF80020303201F8012B0028F7DCCB
:10101000F068B2691044091AF16196F8380000F0DE
:10102000140010280DD17169B0694118706A411817
:10103000F0694118B06A4118706B8142BCBF411A17
:10104000316203B0BDE8F08FF8B505460E4617468D
:101050001C46002074B117F8011BB068A847B060A7
:1010600030B1F06A401CF0620020641EF3D1F2BD82
:101070004FF0FF30F2BD00007072696E74665F73EE
:101080003A20256E20646973616C6C6F776564002B
:101090007072696E74663A2062616420256E206108
:1010A0007267756D656E74007072696E74665F73D9
:1010B0003A2062616420257320617267756D656EE8
:1010C000740000007072696E74665F733A2062612A
:1010D0006420256C7320617267756D656E74000005
:1010E00000000000000000006E616E004E414E00E6
:1010F000696E6600494E46003000B1F5807F02D32C
:101100004FF0FF3070470170012070470078401E9B
:101110008041C043C00F70471A48704730B45368CD
:10112000D418042B09DA41B1057804F8015B10F8F2
:10113000015B15B15B1C491EF3E7536030BC70477F
:1011400038B514461D4661B1FFF7E8FF61686A6B68
:10115000204690476FF00102811A02D0491E03D049
:1011600005E06FF0010032BD4FF0FF3032BD0021CD
:10117000616032BDDA6B1047024BE1E7014BF9E7E2
:10118000014870475C000020240000200278C9B2AA
:101190008A421AB11CBF10F8012FF9E718BF0020CE
:1011A0007047000080B508B90FF21C0005490B68B4
:1011B0001BB122220021984701E000F0EEFC222022
:1011C00002BD000048310120636F6E737472616963
:1011D0006E742068616E646C65723A20626164208E
:1011E0006D6573736167650000F10103810704D0C9
:1011F00010F8011B89B18107FAD10268B2F10131FF
:10120000914311F0803F04BF50F8042FF6E710F827
:10121000011B11B110F8011BFBE7C01A7047000059
:10122000C9B2830706D0521E22D310F8013B99425F
:10123000F7D11FE0083A13D302F1040241EA012179
:1012400041EA014150F8043B121F21BF4B40A3F17A
:10125000013C2CEA030C1CF0803FF3D0C9B2001F04
:10126000083210F8013B521E28BF91EA030FF8D84C
:1012700018BF0120401E704780B5FFF74DFF006C7E
:1012800002BD000062B38B0708D0521E11F8013B6B
:1012900000F8013B00F024808B07F6D1830740F073
:1012A000208000BF103A07D330B4B1E83810103AAC
:1012B000A0E83810F9D230BC530724BFB1E80810B9
:1012C000A0E8081044BF51F8043B40F8043BD207A3
:1012D00024BF31F8022B20F8022B44BF0B78037097
:1012E0007047121F17D35B0009D151F8043B20F857
:1012F000023B1B0C121F20F8023BF6D20BE051F808
:10130000043B00F8013B1B0A20F8023B1B0C121F98
:1013100000F8013BF3D238BF121D521E24BF11F852
:10132000013B00F8013BF8D8704700001B4213D185
:10133000094236D12AB18446B0FBF2F002FB10C25A
:10134000704700F02DBCFCD30022002370470B0037
:101350000200002100207047904271EB030CF6D38D
:1013600070B5B1FA81F4B3FA83F52C1BA340C4F134
:10137000200532FA05F63343A2405FF00046E6400E
:1013800002E05B085FEA3202841A71EB030524BFB6
:10139000204629467641F4D302000B00300000219C
:1013A00070BD012ACFD970B5140C20D0B1FA81F4E8
:1013B000B2FA82F5C4F120046419B4F12006D6D340
:1013C000B2405FF00044F440002502E052085FEABA
:1013D0003303C61A71EB020E24BF304671466441D6
:1013E0006D41F3D302000B002000290070BD0C46B4
:1013F000B1FBF2F102FB11452D0445EA1045B5FBA6
:10140000F2F402FB145580B240EA0545B5FBF2F058
:1014100002FB105240EA044070BD0000B0B581EA02
:10142000030C0CF0004C40F2FF7515EA11541DBF7F
:1014300015EA1357AC42AF4239E0E41923EA4553A9
:1014400043F48013C90241F0004141EA505EC702F3
:101450001100A7FB020200284FF00000EEFB012064
:101460004FF00001E3FB072118BF42F001024018D2
:1014700000214941E3FB0E01A4F580640F0302D271
:1014800052004041494154F101046CDD470872F1BA
:10149000004250F1000051EB0451A1F580115CBFF6
:1014A00041EA0C01B0BD4CEA05510020B0BD05EA8F
:1014B0001357AC4214BFAF4241E050EA410E1CBF8B
:1014C00052EA430E02E061460020B0BD24423C4493
:1014D0001BD15FEA070EF6D0090302BF01460020C8
:1014E000AEF1140EB1FA81F7AEEB070401FA07FE74
:1014F0000C37C7F1200100FA07F7C8404EEA000E8A
:1015000023EA455343F48013A2E733F00043B3FAD0
:1015100083F704BFB2FA82FE77440B3FE41BB7F1B6
:10152000200E2FBF02FA0EF3BB40C7F1200E22FAA5
:101530000EFE38BF43EA0E03BA40641C82E750EA4D
:10154000410E14BF52EA430E6FF000014FF4001732
:1015500017EB430F8ABF194617EB410FB5E74CEA6B
:1015600005510020B0BDD4F10104B4F120070FDA19
:10157000C4F12007520828BF42F0010210FA07F513
:1015800001FA07F7E1BF2A43E0403843E1400FE0AA
:10159000352C98DCC7F1200452EA400220FA07F209
:1015A00018BF42F0010231FA07F0A1400A430021BE
:1015B00072F1004250F1000051EB0C01B0BD00008F
:1015C00010B5144600F002F8226010BDC1F30A53B2
:1015D00043B14A0012F5001F28D2A3F2FE32A1EB5C
:1015E0000251704750EA410C20D001F0004C31EA22
:1015F0000C01B1FA81F204BFB0FA80F3D2180B3AB1
:10160000B2F120032CBF00FA03F1914041EA0C0132
:101610003EBFC2F1200C20FA0CF319439040524215
:1016200040F2FD33D21A01EB03517047002270479C
:101630004FF4001C1CEB410F94BF1CEB430F09E05F
:1016400041EA030C50EA4C0C52EA0C0C03D29942CA
:1016500008BF9042704714BF8B428242704700001F
:101660004FF4001C1CEB410F94BF1CEB430F09E02F
:1016700041EA030C50EA4C0C52EA0C0C03D28B42A8
:1016800008BF8242704714BF9942904270470000E1
:10169000124254D440F2FF7C1CEA11530FD0634530
:1016A00031D09B1863453CBF01EB0251704701F0FC
:1016B000004141EA0C510020AFF30080704750EA2E
:1016C000410320D001F0004C91EA0C011CD0B1FA8A
:1016D00081F30B3B9A420DD9D21A994051EA0C0181
:1016E000C3F1200C20FA0CFC61449840531C40F2DA
:1016F000FF7CD7E7914041EA0C01C2F1200C20FAAF
:101700000CF3194390407047B0FA80F31533202B47
:10171000E0D3202AEED3203A203B9A4209D9D21AAC
:1017200000FA03F141EA0C010020531C40F2FF7C57
:10173000B8E700FA02F141EA0C010020704752427A
:1017400040F2FF7C1CEA11530DD06345DBD0B2EBB5
:10175000030C3CBFA1EB025170470CF1010221EADE
:10176000035141F4801150EA410CCCD001F0004CFF
:10177000352A27DC30B481EA0C01B2F1200309DA02
:10178000C2F12003044601FA03F5D0402843D140BA
:101790009C400CE0C3F12002450020FA03F418BF7E
:1017A00044F0010421FA03F091400C43002174F14C
:1017B000004550F1000051EB0C01244230BC7FF495
:1017C0007BAF70476146002076E70000C1F30A5303
:1017D00040F2FE329B1A14DDD3F120034FEAE1728E
:1017E00008DDC90241EA505141F00040D84080185C
:1017F0005040704703F2E13010B1D24382F0004014
:101800007047002070470000C11768B14840401A77
:10181000B0FA80F29040D21CC907C2F5846241EA56
:10182000025202EBD02140057047000070B44FF027
:10183000004591EA030F40F1B5816B40841A71EBCA
:10184000030603D2001BB141121973414FF4001C6F
:101850001CEB410F34BF7CEB430442E00C0DA4EBC6
:101860001356352E4FDC45EAC323DB0A45EAC12176
:10187000C912B6F120050DDD63FA05F6EB4086EAE4
:101880000305124218BF45F00105C01851F10001CF
:101890000CD213E062FA06F5F2405540F3415A408B
:1018A000B340F3405A408018594107D349085FEAD2
:1018B00030005FEA350528BF45F0010501F58011CC
:1018C000420875F1004250F1000041EB04514E0016
:1018D00016F5001F70BC38BF70470020090D0905C0
:1018E00070471CEB410F10D252EA43060BD0BCEB01
:1018F000410F05D80C0DAB43661E342EB6DD02E059
:10190000AB438018594170BC704770BC70470000F1
:10191000F0B540F2FF7581EA030C0CF0004C15EABB
:1019200011541DBF15EA1357AC42AF42E5E0BC416C
:10193000C1F31301C3F31303801A994143F48013D5
:1019400004D2641E4000494180185941C90241EA4D
:101950005051B1FBF3F603FB1611A2FB0675D7EB52
:10196000C020A94102D2761E80185941C90241EA1D
:101970005051B1FBF3FE03FB1E11A2FB0E75D7EB1A
:10198000C020A94103D2AEF1010E8018594189024D
:1019900041EA9051760546EA8E2EB1FBF3F603FB41
:1019A0001611A2FB0675D7EB8020A94102D2761E44
:1019B00080185941C90241EA50514EEA060EB1FB66
:1019C000F3F603FB1611A2FB0675D7EBC020A94165
:1019D00002D2761E80185941C90241EA5051B1FB2A
:1019E000F3F703FB1711A2FB0735D3EBC020A94186
:1019F00067F100070CBF004247F0010766F3D527E7
:101A00004FEA1E31B80814F5806412DDBD0775F188
:101A1000004250EB0E5051EB045111F5801F5CBF9A
:101A200041EA0C01F0BD4CF07F6141F0E041002043
:101A3000F0BDBD076D0840EA0E5041F48011D4F1AD
:101A40000104B4F120060ADAC4F120060200E040E5
:101A500001FA06F3E1401843B24015430EE0342C7E
:101A600013DCC6F1200445EA40056D0820FA06F2B1
:101A7000154321FA06F0A1400D43002175F1004203
:101A800050F1000051EB0C01F0BD00205FEA0C01A9
:101A9000F0BDCFB992185B41B3FA83F704BFB2FA35
:101AA00082F6BF190B3FB7F120062FBF02FA06F3EB
:101AB000BB40C7F1200622FA06F638BF3343BA40CE
:101AC0001CB1E419641E33E77F4231F00041B1FAE2
:101AD00081F404BFB0FA80F6A4190B3CB4F12006DF
:101AE0002FBF00FA06F1A140C4F1200620FA06F645
:101AF00038BF3143A0403C1B1AE7AC421ABF05EA8D
:101B00001357AF4212E050EA41061CBF52EA4306A7
:101B1000BFE750EA4107304661461CBF41EA055124
:101B2000F0BD52EA430C08BFC143F0BD00204FF4A2
:101B3000001616EB410F98BF16EB430F08BF16EBCC
:101B4000410F24BFC14305E016EB430F0CBF6146B4
:101B50004CEA0551F0BD0000400D491840EA8120D3
:101B60000CD2490DA1F58061491C40F0004005DB15
:101B7000D1F11F0154BFC840C01770470020704703
:101B8000014648B1B0FA80F18840C91CC1F58461B2
:101B9000090501EBD02140057047012000F0B6B8DF
:101BA00070470000841A71EB030604D26E40001BDC
:101BB000B141121973414FF4001C1CEB410F34BFAB
:101BC0007CEB430682E00C0DA4EB1356362E7BDC37
:101BD000012E45EAC32341DC43EA525312BFD2022D
:101BE00092025B08240545EAC12141EA5051D2EB3B
:101BF000C020994125D407D1B0FA80F610FA06F139
:101C000062D00020203608E0B1FA81F6B140C6F17A
:101C1000200220FA02F21143B0404FEAF474B4EB10
:101C2000465434F001064FEA74040AD8D6F500167B
:101C3000760D04F00044F04061FA06F25040F140A5
:101C40004840C00A40EA415021F0004128BF5FEA05
:101C5000500550F1000044EBD12135E0DB0A45EAA4
:101C6000C121C90AB6F120050EDD42EA0242120C7A
:101C7000C5F1200603FA06F6EB4042EA06056D427E
:101C8000984161F100010DE062FA06F5F24055401D
:101C900063FA06FC82EA0C02F3405A406D4290411E
:101CA00061EB030111F4801F05D1641E620502D0AF
:101CB0006D004041494121F48011430875F1004312
:101CC00050F1000041EB045170BC70471CEB410F18
:101CD00015D223F0004352EA43060BD04FEA4C0CD6
:101CE000BCEB410F04D80C0D661E342EB7DDEBE7BC
:101CF000801A994150EA410608BF0021E4E708BF75
:101D00001CEB430F28BF6FF00001DDE780B5AFF398
:101D10000080024A11001820ABBEFBE7260002003B
:101D2000F8B5040020D004F13C05687820B9002102
:101D30002970204600F0EBFD00F08AF82068026868
:101D400042F4004202602068016821F40041016011
:101D500000F0A0FE01466068DFF81824904205D22A
:101D6000DFF81404814205D20120F2BDDFF84005FE
:101D70008142F9D3DFF84805B1FBF0F320684668EB
:101D8000B60943EA861646602668376A606890425C
:101D900006D34FF4967043434FF47A70B3FBF0F3DD
:101DA0005B1CBF0943EA87133362491E2368DE695F
:101DB0006768974206D27F0000F044F8042913D2E6
:101DC000042111E0A06820B907EB470700F03AF8BA
:101DD00005E01920474300F035F841F4804108053B
:101DE0000CBF012141F40041DFF8D80406400E4346
:101DF000DE6121680A68E06922F0C0020243206ABD
:101E000002430A602168DFF8C0048A680240206942
:101E10000243E06802438A602168CA68A369606976
:101E2000120A034343EA0222CA602068016841F0B3
:101E3000010101600020686020206870002020639C
:101E4000A870F2BDB1FBF7F1491CC1F30B0170475B
:101E500024206870206801684908490001607047C3
:101E60002DE9F04782B000F0D0F800F0C8F841D179
:101E700000F0BDF800283DD1387801283AD000F0B4
:101E8000DCF8212000F0C7F800F0AAFA00282FD1D2
:101E900000F039F8308D00282FD0224629463046F0
:101EA00000F092FCF0B9706A326801781161706AD2
:101EB000411C7162708D411E7185308D401E3085D0
:101EC00031684A69530706D580B220B1706A02783A
:101ED0000A6100F0C4F822462946304600F090FC22
:101EE0000028D7D07868042802D1306800F0EAFBD7
:101EF000012000E00220BDE8F687306800F062FAB9
:101F000000F0B8F8F7E70090306841690091806907
:101F10000090009970472DE9F04782B000F075F805
:101F200000F06DF858D100F062F8002854D13878EC
:101F3000012851D000F081F8222000F06CF800F068
:101F40009CFA002841D1308D08B9009004E0316836
:101F5000012804D100F0BAF900F0AEFB17E0022826
:101F6000086802D100F0D9F904E040F4806008600C
:101F700000210091FFF7C8FF09E000F0C9F900282F
:101F800023D130680169706A017000F0A6F9308DC4
:101F9000002824D0042815D20128EED000F08AF9B8
:101FA00008D100F01FF800280FD100F0C9F9716ABC
:101FB0000870EAE700F016F8002806D100F0D5F91D
:101FC00018B9F2E700F0A4F908B1012005E000F02B
:101FD0008EF9DCD50069EAE70220BDE8F68700F05B
:101FE00048F8FAE700224146304600F083BB0094EF
:101FF00019230122DFF8A413304600F07BBB06F161
:102000003C07044678782028704706468846914663
:102010009A4600F08BBD78702A461020B870414671
:1020200000207860C6F82490A6F82AA0708D30852C
:10203000DFF86C03F0623046704701213970306878
:102040000168CA0703D4026842F001020260234615
:1020500030680A9D016821F4006101607047706A70
:10206000411C7162708D411E7185308D411E31851C
:102070007047202078700020B870387070472DE9C4
:10208000FC4704460F4691469A4600F04FFD04F186
:102090003C0605467078202868D100951923012256
:1020A000DFF8F81200F0E7F900285FD13078012856
:1020B0005CD001213170206800F03AF93946276878
:1020C000DDF830800B98DDF828C0D7F800E02EF45A
:1020D000006EC7F800E02127777053464027B7709D
:1020E0004A4600277760C4F824C06085608D20854B
:1020F000DFF8CC02E0620195CDF80080204600F0C8
:102100001EFA002829D106E0616A0A78026100F00F
:1021100035F8411E6185208DA0B12A4641462046F2
:1021200000F052FBA0B9606A22680178116100F0EA
:1021300025F8421E6285206842695307EBD589B2B3
:102140000029E1D12A464146204600F059FB30B132
:102150007068042801D100F03CFA012007E000F08B
:1021600038FA00F028F9B070307000E00220BDE8C5
:10217000F6870000A186010080841E00606A411C71
:102180006162208D411E2185608D70472DE9FC47DD
:10219000FFF73BFFFFF733FF02D1FFF728FF0028CF
:1021A00040F07F80387801287BD001213970306879
:1021B00000F0BEF84146D6F800E00C9D0B98DDF823
:1021C00028C0DEF8008028F40068CEF800804FF0C8
:1021D000220E87F801E053464FF0400E87F802E0E8
:1021E0004A464FF0000EC7F804E0C6F824C07085D8
:1021F000708D3085DFF8C801F0620194009530469B
:1022000000F0EDF9002845D1308D08B9009004E0C8
:102210003168012804D100F059F800F04DFA1BE0B4
:10222000022807D1086800F078F830684169009109
:10223000806904E0002000904A690092886900905B
:10224000009909E000F064F8002823D130680169A2
:10225000706A017000F041F8308D002824D0042805
:1022600015D20128EED000F025F808D1FFF7BAFE0C
:1022700000280FD100F064F8716A0870EAE7FFF7F0
:10228000B1FE002806D100F070F818B9F2E700F0AE
:102290003FF808B1012005E000F029F8DCD500691D
:1022A000EAE70220BDE8F687FFF7E3FEFAE7000061
:1022B00000093D000228DFF8248100942B46704776
:1022C00040420F000030FFFF007CFFFF086820F451
:1022D00080600860002100917047706A411C716243
:1022E000308D411E3185708D411E7185704730687B
:1022F0000169706A0170706A411C7162308D411E03
:102300003185708D411E7185306841694A0770477B
:1023100022462946304600F09EBA20F480600860CC
:102320003068016841F4006101600020009070474E
:102330000168CA0703D4026842F0010202607047D4
:102340003068016841F40071016030680169706AA9
:102350000170706A411C7162308D411E3185708D33
:10236000411E71853168086970473068016821F441
:10237000806101602B4630680169706A017000223B
:10238000706A411C7162308D411E3185708D411E15
:10239000718500944146304600F0ACB9020010004F
:1023A0000000FFFF0090206841690091826900925F
:1023B00000220099704720207070002070470000B4
:1023C0000000FFFF016841F40071016020207047A8
:1023D0002068016841F480710160704704000100C9
:1023E000F8B504460D46E06A08281EBF0128DFF84C
:1023F000F812884216461F4602D1FFF7E9FF07E0B0
:10240000206B122804D12068036843F480730360B2
:102410000097334600F02CF80028206807D00168A8
:10242000CA0544BF4FF4007020640320F2BD216947
:10243000B1F5804F08BF05F0FE050ED0E90901F0A7
:10244000060141F0F00101613B463246DFF89C1283
:1024500000F073F848B92068EDB205613B4632469A
:10246000DFF88C1200F069F800B10120F2BD43469C
:1024700000224FF0011120463CE12DE9F0470446CF
:1024800082B0E06A0E46216890460A68082842F445
:10249000806218BF012899460A6006D0DFF848120A
:1024A00088421CBF206B112801D1FFF791FFCDF8A6
:1024B0000090FFF7DCFF002820684FF4007529D159
:1024C0002169DFF82CA2B1F5804F04D146F0010656
:1024D000F6B2066128E0F70907F0060747F0F001B9
:1024E00001614B464246814900F027F800281ED181
:1024F0002068F6B2066100F01DF8C0B900904346AE
:10250000FFF751FF00F0EAF8CDF80090FFF7B1FFB8
:1025100030B120680168CA0548BF2564032007E080
:10252000206847F0F107076100F004F800B10120CE
:10253000BDE8F6874B4642465146204603E12DE969
:10254000F84304462068DDF82080099F1E46036892
:1025500043F480738946154603600097FFF787FFB1
:1025600040B120680168CA0544BF4FF40070206480
:1025700003202CE0206809F0FE0101613B46424641
:102580005B49FFF7DAFFE0B900903A4620684169FD
:1025900000918069009020460099414600F014F9AE
:1025A00050B9012E0FD02168280A08613A464146E9
:1025B000204600F009F930B1206C042801D100F068
:1025C00008F8012003E02068EDB205610020BDE8B5
:1025D000F2832068016841F40071016070472DE9C1
:1025E000F84F05462868DDF828800B9F0C4600F060
:1025F0006FF899462868036843F4807316460360B1
:1026000000F053F800284FF4007A32D12968DFF83F
:10261000E0B004F0FE00086100F03EF8002838D178
:1026200000903A46286841690091806900902846E8
:102630000099414600F0C8F870B9B9F1010F05D012
:102640002968300A086100F02CF828B92868F6B229
:10265000066100F026F830B1286C042819D12868EA
:1026600000F030F815E0286800F038F800F01DF8A8
:1026700038B128680168CA0548BFC5F840A00320E2
:1026800008E0286844F00104E4B2046100F004F8B2
:1026900000B10120BDE8F28F3B464246594628462C
:1026A00051E03A46414628468EE0009743460022D4
:1026B0004FF0011128461DE03068416900918269A0
:1026C00000920099016841F4007101607047306820
:1026D000016841F48061016070473068016841F42D
:1026E00080710160704700000000FFFF08000100DA
:1026F000020001002DE9F8430E46089C370205460A
:10270000914698463F0E2868012F0CBF40698069AA
:10271000304080B2B1B288420CBF01200020484551
:102720000ED118F1010FEED000F000FA001B804529
:1027300002D3B8F1000FE6D100F07EF8012000E0EE
:102740000020BDE8F2832DE9F0410E463702054630
:10275000144698463F0E2868012F11D14169314037
:1027600089B2B2B2914211D041694A0510D500F048
:1027700024F82968486100F08FF841F0040116E060
:102780008169314089B2B2B29142EDD1002012E0AC
:1027900014F1010FDFD000F0C9F9A0EB080084426A
:1027A00001D3002CD7D100F077F841F0200141602F
:1027B000002202700120BDE8F081026842F400723C
:1027C00002606FF48060704770B505460C4616468F
:1027D00028684169080611D4284600F067F858B9FE
:1027E00014F1010FF4D000F0A1F9801B844201D351
:1027F000002CEDD100F020F8012070BD002070BD4C
:1028000070B505460C46164628684169480711D43C
:10281000284600F04BF858B914F1010FF4D000F03D
:1028200085F9801B844201D3002CEDD100F004F81F
:10283000012070BD002070BD00202863202105F11B
:102840003C000022417000218170416841F020016C
:1028500041600270704770B505460C461646286800
:1028600041694A0616D44169CA0609D400F05EF9E6
:10287000801B844201D3002CF1D1FFF7DDFF07E07C
:102880006FF01001416100F007F841600021017014
:10289000012070BD002070BD00202863202105F1BB
:1028A0003C004170002181704168704701684A69AD
:1028B000530511D56FF480634B61002101633C30F7
:1028C00020214170002200218170416841F0040103
:1028D00041600270012070470020704780B5254894
:1028E000254901602549416000218160C1604FF4A4
:1028F00080410161002141618161C1610162FFF795
:102900000FFA18B1BDE8014000F07EBA01BD10B564
:1029100086B0044601A8142100F0F0FA2168164A96
:10292000914224D1002000901548016841F0020135
:102930000160026802F002020092002200990092F7
:102940001222016941F400110161C021006900F403
:1029500000100090009801910120039003210420B1
:1029600004910590029201A9064800F0CBFA06B046
:1029700010BD0000642E012000540040A08601001C
:1029800030380240000402402DE9F04104000F46B7
:1029900078D0494E306800F00F00B84202D200F003
:1029A00073F86FD12068454D810712D5400703D5D4
:1029B000A86840F4E050A8602178080703D5A8680B
:1029C00040F46040A860A968A06821F0F0010143CC
:1029D000A9602078C1074DD56068012802D1296817
:1029E0008A0305E0022818BF032803D129688A0159
:1029F00003D447E02A68910744D5A968890840EACA
:102A00008100A86000F092F88046A868616800F034
:102A10000C00B0EB810F2DD000F088F8A0EB08007F
:102A200041F289329042F0D3032021E0207841071F
:102A300005D5A968E06821F4E0510143A960207838
:102A4000010706D5A868216920F4604040EAC1006A
:102A5000A86000F03FF8AA681949C2F30312895C24
:102A6000184AC84010601848006800F051FB002068
:102A7000BDE8F081306800F00F008742D6D200F048
:102A800003F8D3D00120F3E73770316801F00F016C
:102A9000B94270470B480D4A006813680C49C3F3EC
:102AA000822206E00748094A006813680849C3F310
:102AB0004232895CC8407047003C02400038024006
:102AC000D0690008180000201400002008380240D7
:102AD000B86A000818B5124C606800F00C000428B1
:102AE00002D0082802D019E00E4812BD0023226847
:102AF000206841022068C0F388104CBF09490A4988
:102B000002F03F02A1FB0001FEF710FC2168C1F3B7
:102B10000141491C4900B0FBF1F012BD024812BD51
:102B20000438024040787D010024F40001484068E8
:102B3000704700BF0C00002038B50446A449206847
:102B4000A44D884203D100F02DF800F026F820684B
:102B5000A14988420BD1142205F11401204600F04E
:102B60008DFB142205F11401204600F0A7FB20681C
:102B70009A49884203D100F015F800F00EF8206859
:102B80009749884208D100F00DF829462046BDE853
:102B90003840142200F092BB31BD14222946204651
:102BA00000F08CBB14222946204600F067BB10B50C
:102BB00084B000F065FD00F0C5F800F07BFDFFF784
:102BC0008DFE00F0FDFD00F007FE00F01CFE00F0A1
:102BD000EFFD00F0F3FE00F05DFF00F0B3FF01F049
:102BE00057F804200A210290019100910A2319222A
:102BF000022140F2E57001F05CF8764C794814222D
:102C0000214600F05BFB142204F11401764800F029
:102C100055FB14222146754800F050FB1422214632
:102C2000734800F04BFB01F0FBF801F03EF9002087
:102C3000032101900091002380220FF2D0110FF2A6
:102C40002D0001F087F9002004210190009100235C
:102C50004FF480720FF2C0110FF23D0001F07AF9CB
:102C600001F061FA002004B010BD000010B5614C05
:102C700000228021204600F02EFA4FF4FA7001F075
:102C800030FA01228021204600F025FA4FF4FA7034
:102C900001F027FAECE700002DE9F04786B00020AC
:102CA000ADF8100001F043FD10F1010F04BF0FF269
:102CB000741001F0F5FD0FF280100FF238240FF2BE
:102CC0001C250FF2D0194C4F0FF298184B4E0FF2F3
:102CD000801A01F0E5FD01F089FE2AE0204601F0AE
:102CE000DFFD22E072883188404601F0D9FD01F015
:102CF00020F8B87A7B7A3A7A79680390B8780290AB
:102D00007878019038780090484601F0C9FD04A910
:102D10000DF1110001F043FE0028DFD19DF81020D5
:102D20009DF81110284601F0BBFD4FF47A7001F0B8
:102D3000D8F901F02EFD10F1010FD3D1504601F06A
:102D4000AFFDD4E700B593B006A8302100F0D6F867
:102D500001A8142100F0D2F8002000902848016852
:102D600041F0805101600021006800F08050009027
:102D70000098244800910221026842F480420260D7
:102D80000122006800F48040009000980691102015
:102D90000A900C9100200D90082148200F900E9170
:102DA0000420022111900992109106A801F040FE22
:102DB0000F2002210190029100204FF480510390D6
:102DC00004910590022101A8FFF7DEFD13B000BDBC
:102DD000001001400C310120004400400048004038
:102DE000004C004010300120503001209030012074
:102DF000D02F012000000240343101204431012055
:102E00004038024000700040704700005461736B0E
:102E1000305F5461736B00005461736B315F5461B8
:102E2000736B0000736770333020696E69742066BD
:102E300061696C0D0A000000736770333020696EA1
:102E4000697420737563636573730D0A0000000075
:102E500073677033302072656164206661696C0D40
:102E60000A0000007367703330207265616420735C
:102E70007563636573732C20636F323A2534642065
:102E800070706D2C2074766F633A253464207070F6
:102E9000640D0A007379656172202564202D20730A
:102EA0006D6F6E20256420202D20736461792025AC
:102EB00064202D20686F7572202564202D206D6997
:102EC0006E202564202D20736563202564202D73DA
:102ED000207765656B202564200A000074656D709D
:102EE000203D2025640A2068756D69203D202564F9
:102EF0000A0000006A6A6A6A200A0000002201F0E3
:102F000029BF00002DE9F84F04460D464FF0000898
:102F100074487549754A0F2301262F6806FA08F68A
:102F200006EA0709B14540F0C8804FEA480C03277C
:102F300007FA0CF76FEA070E6F68012F18BF022F10
:102F400003D0112F18BF122F13D1A768D5F80CA0EA
:102F50000EEA07070AFA0CFA4AEA0707A760676849
:102F600027EA06066F68C7F3001707FA08F73E431B
:102F70006660E668AF680EEA060607FA0CF73E439D
:102F8000E6604FEA88066F68022F18BF122F19D12A
:102F90004FEAD80704EB870706F01C0BD7F820A0F0
:102FA00003FA0BFB2AEA0B0ACDF800A006F01C0A74
:102FB000D5F810B00BFA0AFADDF800B04AEA0B0AAD
:102FC000C7F820A027680EEA070E2F7907F003073D
:102FD00007FA0CF747EA0E0727606F68FF006CD509
:102FE000002700974FEA980C176847F4804717604E
:102FF00006F00C06176807F480470097009F51F809
:103000002CE003FA06F72EEA070E394FBC4208BF40
:10301000002722D0374FBC4208BF01271DD0364FB2
:10302000BC4208BF022718D0344FBC4208BF032758
:1030300013D0334FBC4208BF04270ED0314FBC42DF
:1030400008BF052709D0304FBC4208BF062704D06F
:103050002E4FBC420CBF0727082707FA06F646EAA0
:103060000E0641F82C606FEA090C06680CEA060EA1
:103070006E68F70348BF49EA0E0EC0F800E04668E4
:103080000CEA060E6E68B70348BF49EA0E0EC0F898
:1030900004E086680CEA060E6E68F70248BF49EA4B
:1030A0000E0EC0F808E0C6680CEA060E6E68B6029E
:1030B00048BF49EA0E0EC0F80CE008F10108B8F16B
:1030C0000F0F7FF629AFBDE8F18F0069084018BFE8
:1030D0000120C0B2704781B002B90904FFE78161E5
:1030E00001B07047003C01400838014044380240BC
:1030F000000002400004024000080240000C0240B0
:10310000001002400014024000180240001C02405F
:1031100038B50D4D0D4A297804464FF47A70B0FB4E
:10312000F1F11068B0FBF1F001F072FE50B9102C13
:1031300008D2002221464FF0FF3001F041FEAC6082
:10314000002032BD012032BD0C00002018000020FC
:1031500038B5040001D1012032BD00F022F808B9D1
:1031600000F023F800F013F800F024F8FFE74161C5
:1031700000F001F832BD2068C16841F40051C1601F
:103180000020686020206870A8700020704724200C
:1031900068702068C16821F40051C160204600F0C9
:1031A000FCB904F138056878704700212970204681
:1031B00000F031BB2068016921F490410161206871
:1031C000416921F02A0170472DE9F843044604F1D2
:1031D00038070D4678782028164698463DD1002DB0
:1031E00014BF002E012039D03878012835D00121B4
:1031F00039702120002179607870FFF797FC8146B3
:10320000A684E6840020387003E0216815F8010BDD
:103210004860E08C20B3E18C481EE0844B46A068F7
:10322000CDF80080B0F5805F0DD100F023F870B9C3
:1032300028882168C0F3080048602069002814BF6E
:103240006D1CAD1CE5E700F015F80028DDD003206B
:1032500004E020207870002000E00220BDE8F28326
:10326000CDF800804B460022402100F005F80028F0
:10327000EFD0ECE7002280212046FDE030B500F1E0
:1032800038035C78202C17D109B1140001D101203A
:1032900030BD1C78012C0FD001251D700162828485
:1032A000C2840021596021215970002119700068E1
:1032B000C16841F080012BE0022030BD30B500F143
:1032C00038039C78202C21D109B1140001D10120B0
:1032D00030BD1C78012C19D001251D7081628285BA
:1032E000C28500215960222199700021197001685E
:1032F000CA6842F48072CA6001684A6942F00102F9
:103300004A610068C16841F0200101E0022030BD3F
:10331000C160002030BD416921F040014161606B16
:10332000704738B5044625682968EA686B6911F06A
:103330000F0007D188065FD590065DD52046BDE811
:103340003240DFE0D80702D412F4907F54D0C8078F
:1033500005D5D00503D5E06B40F00100E0634807D8
:1033600005D5D80703D5E06B40F00200E06388077D
:1033700005D5D80703D5E06B40F00400E0630807EB
:1033800007D5900601D4D80703D5E06B40F00800BC
:10339000E063E06B00286ED0890604D5900644BF38
:1033A000204600F0AFF820684069E16B0A0701D4BD
:1033B00040061BD5204600F091F8206841694A0676
:1033C0000FD5FFF7A8FF60B10FF22D110165606BFB
:1033D00001F042FD00284ED0606B016DBDE8344025
:1033E00008472046BDE8324001F048BD204601F0C4
:1033F00045FD0020E06331BD08062CD510062AD516
:1034000094F83900212836D1A168206AB1F5805F8F
:103410000DD10188C1F308016960206918B9216ADA
:10342000881C206207E0206A411C216203E0411CE5
:10343000216200786860E08C401EE08480B2D0B9E0
:103440002068C16821F08001C1602068C16841F036
:103450004001C16031BD48060DD550060BD5E86866
:1034600020F04000E860202184F839102046BDE8B3
:10347000324001F004BD31BD2DE9F041069C054606
:103480000E4690461F46286801683140B1420CBF85
:1034900001200020404517D114F1010FF3D024B1D1
:1034A000FFF744FBC01B8442EDD22868C16821F4B9
:1034B000D07100F00CF805F13800202141708170C6
:1034C00000210170032000E00020BDE8F081C16010
:1034D0002868416949084900416170470168CA6824
:1034E00022F49072CA6001684A69520852004A6127
:1034F000202180F83A107047806B0021C185C1847B
:1035000001F0BCBC80B590F83A10222943D1826802
:10351000B2F5805F14D1826A016941B903685968C4
:10352000C1F308011180826A911C816218E0016870
:103530004B6803F0FF031380816A4A1C82620FE02C
:1035400001690029816A04D14A1C826202685368B9
:1035500005E04A1C82620268536803F07F030B7027
:10356000C18D491EC18589B299B90168CA6822F026
:103570002002CA600168CA6822F48072CA600168C9
:103580004A69520852004A61202180F83A10FFF738
:10359000D3FA002002BD022002BDD0B50646642742
:1035A00031680A69F06822F4405202430A61192422
:1035B000CA682D480240B06802433069024370690E
:1035C0000243F0690243CA604A69B06922F440725A
:1035D00002434A61F3692548254AB3F5004F1FD1DC
:1035E000914218BF814202D1FFF75CFA01E0FFF778
:1035F00051FA0246A4FB02017268D30F5200FDF794
:1036000095FE00F037F8FF0032376420B7FBF0F08A
:10361000420002F4F87202EB011200F007001DE014
:10362000914218BF814202D1FFF73CFA01E0FFF757
:1036300031FA0246A4FB02017268930F9200FDF773
:1036400075FE00F017F83F0132376420B7FBF0F049
:1036500000F0F00202EB011200F00F003168801858
:103660008860D0BD00000000F369FFFF0014014036
:10367000001001406421B0FBF1F107FB1107704716
:1036800080B50B48016841F400710160026842F4A2
:1036900080620260016841F480710160032001F0E2
:1036A00082FB0020FFF734FD01F0EAFB002002BDA1
:1036B000003C024010B586B001A800F05DF800247F
:1036C000374800940168374C41F0100101600268EE
:1036D00002F010020092002200990092036843F069
:1036E00080030360016801F080010091009900925D
:1036F000036843F001030360016801F001010091D8
:1037000000990092D021036843F00203036000682F
:1037100000F00200009000982046FFF7DCFC182023
:10372000002101900291039101A91F48FFF7EAFBD4
:10373000C02001900121002002910390049001A972
:103740002046FFF7DFFB194C002201212046FFF73E
:10375000C2FC01200190029001A900200390049076
:10376000204619E010B586B000F005F80020019061
:10377000029010240DE068461421FFF7BFBB10B57E
:1037800086B0FFF7F8FF012001900290102400207E
:103790000390009469460348FFF7B4FB06B010BDE0
:1037A0003038024000000240001002400004024095
:1037B00080B57748774900F017F800B108E001BDFF
:1037C00080B57548754900F00FF800B100E001BD03
:1037D000BDE80140FFF718BB80B57148714900F0A2
:1037E00003F800B1F4E701BD01604FF416514160E8
:1037F00000218160C16001610C2141610021816172
:10380000C161FFF7A5BC80B567486849FFF7ECFFC9
:1038100000B1DDE701BD10B586B00446684614214D
:10382000FFF76CFB22685B4B614862499A4228D1E2
:10383000002205920B6943F400230B6100230A69FF
:1038400002F400220592059A059303220C6844F0C5
:1038500001040C600223096801F00101059105993A
:10386000009201210291019308210491039269467B
:10387000FFF748FB00220521342001F0A1FA342093
:1038800062E0464B9A4217D1002205924B6943F001
:1038900010034B6100234A6902F010020592059A59
:1038A00005934FF4C06200F053F800220521252053
:1038B00001F086FA252047E03A4B9A4216D10022C1
:1038C00005920B6943F400330B6100230A6902F48B
:1038D00000320592059A05930C2200F039F8002277
:1038E0000521262001F06CFA26202DE02F48824287
:1038F0002CD1002005900A6942F480220A6100223E
:10390000086900F4802005900598059202220B6852
:1039100043F002030B60086800F0020005904FF4CA
:103920004061059800910120029003210720039136
:103930000490019269462048FFF7E4FA002205212D
:10394000272001F03DFA272001F057FA06B010BDFC
:103950000C6844F001040C600223096801F00101C5
:1039600005910599009201210291032207210491FA
:10397000019303926946FFF7C5BA01B54FF6FF738D
:10398000012269460248FFF71FFC009802BD0000B3
:10399000D02F0120004C00401030012000100140C9
:1039A0005030012000440040903001200048004089
:1039B00000000240303802400004024030B585B0BB
:1039C00068461021FFF79AFA4FF480302C4C2D4DA9
:1039D000606025600020A0602061207684F82000CF
:1039E000E0622948A0620020E0600120E061002040
:1039F00084F8300001206061204601F05DFA08B1D2
:103A0000FFF702FA052000900121002001910290A9
:103A10006946204601F078FA08B1FFF7F5F905B0DC
:103A200030BD10B586B0044601A81421FFF766FA30
:103A30002168144A914220D10020009000221348AE
:103A4000416941F480714161416901F480710091E3
:103A5000009900922021036843F0010303600322D0
:103A6000006800F001000090009801910020039090
:103A7000029201A90648FFF745FA06B010BD000002
:103A8000082F0120002001400100000F30380240C3
:103A90000000024080B52748274901604FF4827139
:103AA000416000218160C160016141614FF400719A
:103AB00081610021C1610162416281620A21C162AA
:103AC00001F042FB18B1BDE80140FFF79DB901BD0F
:103AD00010B586B0044601A81421FFF70FFA21683B
:103AE000154A914224D100200090002213484169D8
:103AF00041F480514161416901F480510091009984
:103B000000923821036843F0020303600222006838
:103B100000F0020000900098019100200390032122
:103B2000052004910590029201A90548FFF7EAF9E2
:103B300006B010BD0C2E012000300140303802408C
:103B40000004024030B587B068461C21FFF7D6F963
:103B50005320334C334D606025600020A06040F25C
:103B6000E730E06000202061A061204601F01AFEED
:103B700008B1FFF749F9204601F02BFE08B1FFF725
:103B800043F9602000904FF4FA71002001910290F7
:103B9000049000226946204601F030FE08B1FFF78C
:103BA00033F9204600F015F807B030BD81B0006849
:103BB0001C4988420BD100211B480091026842F445
:103BC00080720260006800F480700090009801B07C
:103BD000704710B586B0044601A81421FFF78EF98E
:103BE0002168104A914218D10020009002220F480B
:103BF000016841F0010101608021006800F00100CE
:103C000000900098019100200390049002920920F6
:103C1000059001A90648FFF775F906B010BD000030
:103C2000902F0120002000404038024030380240F0
:103C3000000002400A2290FBF2F2062101FB020082
:103C4000C0B2704702B584B002464FF6FF70012142
:103C500004AB029001910093D02101235948FEF753
:103C60000EFA05B000BD00B585B0024600208DF803
:103C70000C004FF6FF7103A80291012300900193FD
:103C8000D1215048FEF782FA9DF80C0005B000BD26
:103C900080B500210E20FFF7D5FF022001F032FF92
:103CA00000210F20FFF7CEFFBDE80240022001F007
:103CB00029BF2DE9F84390468946642290FBF2F231
:103CC0006421089E099D0A9C01FB12001F46C0B298
:103CD000FFF7B0FFC1B20620FFF7B4FF4846FFF779
:103CE000A9FFC1B20520FFF7ADFF4046FFF7A2FFD5
:103CF000C1B20420FFF7A6FF3846FFF79BFFC1B211
:103D00000220FFF79FFF3046FFF794FFC1B201206A
:103D1000FFF798FF2846FFF78DFFC1B20020FFF79D
:103D200091FF2046FFF786FFBDE8F443C1B20320B0
:103D300088E738B50620FFF796FF00F00F010A2448
:103D4000000914FB0010204DC0B200F5FA60686055
:103D50000520FFF788FF00F039F828720420FFF7EC
:103D600082FF00F033F868720220FFF77CFF00F05A
:103D70003F0000F02BF828700120FFF774FF00F0DF
:103D800025F868700020FFF76EFF00F01FF8A8709C
:103D90000320FFF768FF00F00F01000914FB001477
:103DA000AC7220210E20FFF74DFF1120FFF75BFFC3
:103DB000E8721220FFF757FF8009192110FB01F06C
:103DC000287331BD642E01203431012000F00F0131
:103DD000000914FB001070476946284601F0A1BA9B
:103DE000F8B501208DF800004FF07044484D494E61
:103DF000464F641E13D0002201213846FFF76BF9AD
:103E000000F08CF864230122FFF7E6FF0122012174
:103E10003846FFF760F99DF80000C107E9D4F1BD0D
:103E20007CB50FF2041100F06CF8D1E90023CDE964
:103E30000023FFF7D5FF00F033F800F06FF8012200
:103E400000F02FF800F02CF864230122711C00F020
:103E500068F864230322311D00F063F8012200F0AA
:103E600020F8FFF7BDFF00F01BF800F057F8012223
:103E700000F017F800F014F864230122B11C00F0E0
:103E800050F864230322311D00F04BF8642305220F
:103E90006946284601F094F9012200F002F873BD4A
:103EA000002201212046FFF716B97FB502A80021A4
:103EB000C0E9001100F025F8FFF792FFFFF7F0FFCF
:103EC00064230122F11C00F02CF864230322311D2D
:103ED00000F027F86423052202A9FFF77EFF0122E4
:103EE000FFF7DFFF02A8017942789DF80A300191BF
:103EF000C1780FF23C0000919DF8081000F0D0FC52
:103F00007FBD024C024D044E704700000004024089
:103F10000C2E0120EC0000201C0000206423012254
:103F20003146284601F04CB9998877665500000063
:103F30005265616420666C617368206461746120FD
:103F400069733A2578202578202578202578202542
:103F5000780A00002DE9F0430646174685B08846EA
:103F60009946B80001F0E2FD05001AD0582001F092
:103F7000DDFD040012D00D990C98256300220392F8
:103F80000191009002944B463A464146304600F07B
:103F90000DF8204600F050F8012004E0284601F01A
:103FA0004EFE4FF0FF3005B0BDE8F0832DE9F0473D
:103FB0000A9D81460C461746286B9846A522B900F3
:103FC00000F0C4FE286B00EB87010F1FFF08FF0005
:103FD0000021605C6A1882F83400605C10B1491CF2
:103FE0000A29F6D3089E002085F83D00042E099C7E
:103FF00088BF042605F1480AEE62CAF80400CAF830
:104000000060281D01F079FE05F1180001F075FE31
:104010002D61C6F10506AE616D620020CAF8080088
:104020008AF80C0042464946384601F0A1FE286055
:1040300004B12560BDE8F0872DE9F84300F068F889
:10404000DFF88055DFF80466286F401C28674FF0C2
:104050001408686E28BB6C66286F012829D10027D8
:1040600008FB07F0284401F03BFE7F1C052FF7D327
:1040700005F18007384601F033FE05F19409484602
:1040800001F02EFE304601F02BFE06F1140001F087
:1040900027FE06F12C0001F023FEAF66C5F86C90F8
:1040A00007E0706C28B9E16A686EC26A914228BF65
:1040B0006C66306D401C306520640122E06A696FD7
:1040C00082401143696708FB00F2211DA81801F026
:1040D00017FE01F0DCFE706C08B100F0C3FABDE819
:1040E000F18380B588B1DFF8DC24D16F21B100F015
:1040F00012F800F043F9FEE7D16F491CD1670021A7
:1041000000F0C3FA00F044F808B900F032F901BD3C
:10411000044601F0A3BE502080F311887047211D92
:1041200014204243704730B583B0DFF8D0450FF21A
:10413000D45104F1580001900025009500238222FB
:104140000FF25D30FFF706FF012808BF01F008FFFE
:10415000502101280ED181F3118800F00FF94FF0A2
:10416000FF306065012060642564BDE8374001F0E0
:1041700027BE37BD10F1010FFBD181F3118800F08C
:10418000FDF8FEE7DFF87805C16F491CC16770478D
:10419000F8B5DFF83064F06F0024002528B950210D
:1041A00081F3118800F0EAF8FEE701F057FEF06FA6
:1041B000401EF067F16F002938D1306FDFF88C7442
:1041C000002819D132E0F968CC6800F033F800F02B
:1041D00094F9E06A716F01228240114371671422E1
:1041E0005043211D304401F08BFDE06A716ECA6AB4
:1041F000904224BF0120B06738680028E3D10CB199
:1042000000F088F9BC6C3CB100F01CF808B101204A
:10421000B067641EF8D1BD64B06F38B1DFF8D80460
:104220004FF080510125016000F0A8F801F02FFE49
:104230002846F2BD04F1180001F087BDDFF8BC0488
:10424000006C70472DE9F843DFF87843DFF8FC7322
:10425000E06F002500284ED1386C10F10108C7F836
:10426000408011D1A16E086828B1502282F31188D4
:1042700000F084F8FEE7A06EE16EA166E066F86CDF
:10428000401CF86400F046F9786D80454FF0140941
:1042900025D31AE0301D01F058FDB06A18B106F1BF
:1042A000180001F052FDF06A616F01228240114353
:1042B000616709FB00F0311D201801F021FDF06A53
:1042C000616ECA6A904228BF0125A16E086878B164
:1042D000A16EC868C66870688045DBD27865606E7C
:1042E000C16A09FB01F02158022907D3012505E025
:1042F0004FF0FF30F2E7B86C401CB864A06F00B11B
:1043000001252846BDE8F283DFF8F41381B0C86FB9
:1043100010B101228A671EE08867486FB0FA80F208
:10432000C2F11F0214204243885838B9502181F34A
:104330001188BFF34F8FBFF36F8FFEE7881800F12E
:1043400008034268526842609A4204BF5268426061
:104350004068C2684A6601B0704710B50C4600F06C
:1043600021F801F0D9FC2046BDE81040FFE701210B
:104370008BE1DFF884134FF080500860BFF34F8F5C
:10438000BFF36F8F704738B50D46144600F00AF83A
:1043900001F0B6FC0CB14FF0FF3521462846BDE8D0
:1043A000344072E138B9502080F31188BFF34F8F49
:1043B000BFF36F8FFEE7DFF84823536E03F1180158
:1043C000704738B5C068C46824B9FFF7A4FEFFF78A
:1043D000D5FFFEE7FFF72EFFDFF82453E86F58B94B
:1043E00000F08BF8E26A686F01219140084368672A
:1043F000FFF795FEA81801E000F043F901F080FCFA
:10440000686EC16AE06A814200D201E0002032BDDC
:104410000120A86732BD38B9502080F31188BFF35E
:104420004F8FBFF36F8FFEE7DFF8D012CA6C0260C8
:10443000096C4160704770B504460D46502024B9A0
:1044400080F31188FFF79AFFFEE725B980F3118802
:10445000FFF794FFFEE701F001FDDFF8A002016C19
:104460002A6812F1010F0FD06368C06C2668B04251
:1044700001D099420AD2C81A904207D2511A59184B
:1044800029602046FFF7C7FF002400E0012401F067
:10449000FEFC204670BDDFF8681201208867704777
:1044A00070B5484D694E1AE0E86F401CE8677069C6
:1044B000441EA441FFF76CFEE40F84B901F0CEFC6A
:1044C000306AC46800F019F8286F401E2867B06A87
:1044D000401EB06201F0DBFC204600F011F8B06A2B
:1044E0000028E1D129680129F9D9DFF80C224FF021
:1044F00080501060FFF742FFF1E7201D01F025BC5E
:1045000010B50446206B01F09AFB2046BDE8104030
:1045100001F095BB2B4A4D49936E186810B94FF0C6
:10452000FF3203E0906EC268D06842684A65704707
:104530004649486C08B901207047DFF8C411C86FBC
:1045400008B90220704700207047F8B5040036D043
:10455000DFF8AC51E06A696ECA6A90422FD2A06956
:10456000002804D4686EC16AC1F10501A161142656
:10457000E16A60697143294488421DD1FFF7BDFF9C
:104580000127002801BFE06A70432858002805D1A0
:10459000696FE06A07FA00F081436967686EC06A74
:1045A000E0628740696F0F436F674643211DA8197A
:1045B000BDE8F44001F0A4BB686EC16AE162F1BDE0
:1045C00000000000082D0120F8B504460021002C51
:1045D00039D0DFF82C51686E5022844204D082F327
:1045E0001188FFF7CBFEFEE7E06C20B982F311885B
:1045F000FFF7C4FEFEE7E26AA36C401E9A42E06445
:1046000021D000BBFFF779FF01261427002801BF46
:10461000E06A78432858002805D1696FE06A06FAF5
:1046200000F081436967A06CE062C0F10500A06101
:10463000E06A696F86400E4347436E67211DE819A3
:1046400001F05EFB01210846F2BD0000B02D012003
:10465000DFF8AC10486E18B1486EC26C521CC264D0
:10466000486E7047696EC86AE16A884207D222497B
:104670004FF080500860BFF34F8FBFF36F8F7047CC
:10468000000004F118011D4870472DE9F0411B4F4F
:104690001B4DD7F840800C46696E0646081D01F098
:1046A00054FB30B9686E696FC06A01228240914341
:1046B000696716F1010F08D13CB1686E011D07F161
:1046C0002C00BDE8F04101F01BBB686E464446601B
:1046D0004645686E05D2011DE86EBDE8F04101F067
:1046E0001BBB011DA86E01F017FB786D864238BF19
:1046F0007E65BDE8F081000004ED00E0B02D0120F2
:10470000082D012049444C450000000000B583B04D
:1047100001128DF805008DF804104FF6FF7000901F
:10472000022301AAB0214048FDF79AFB0EBD1CB53B
:1047300006208DF804004FF6FF740094012301AAAF
:1047400000213948FDF78CFB68B9642001F0DAF9E3
:1047500042F20300FFF7DAFF0446642001F0D2F9C9
:104760000CB9002016BD4FF0FF3016BD18B5002360
:10477000C25C514008224C00090646BF84F031015A
:10478000C9B2E1B2521EF6D15B1C022BF0DB084627
:1047900012BD10B584B001A90020C1E9000042F2A9
:1047A0000800FFF7B3FF10B10FF2840025E064208A
:1047B000FFF797FC4FF6FF700090062301AAB12186
:1047C0001948FDF7A8FB10B10FF2780015E0FF21A2
:1047D00001A8FFF7CBFF01ACA178884218BF0FF208
:1047E00080000AD1FF210DF10700FFF7BFFF9DF800
:1047F0000910884206D00FF2880000F051F84FF0FF
:10480000FF300EE09DF804109DF80520074842EAAD
:1048100001220280E1789DF8082042EA01224280CC
:10482000002004B010BD0000642E0120443101209E
:104830007367703330207374617274206661696CC1
:104840000D0A0000493243204D6173746572205295
:10485000656365697665206661696C0D0A00000014
:10486000636F3220726563762064617461206372C5
:104870006320636865636B206661696C0D0A0000E4
:1048800074766F632072656376206461746120635F
:10489000726320636865636B206661696C0D0A0052
:1048A0000EB4C0B5024603A800210190009101ABEF
:1048B0000121044878440C30FBF766FC06BC5DF827
:1048C00010FB00BFB72100000128514B0CBF012293
:1048D000002210211846FEF7FEBB10214C48FEF7BF
:1048E000F4BB80B5FEF74BFF0020FFF7EDFF14206F
:1048F00001F0D8FC0120FFF7E7FFBDE802401E20D1
:1049000001F0AABC10B582B0FEF72CFF0024FFF71F
:10491000E4FFE4B290B1642C10DA00F032F8641CC9
:10492000F5E70024FFF7D9FFE4B258B9642C09DA9F
:1049300000F027F8641CF5E7002016BD642CF0DBBE
:10494000012016BD642CF7DBFAE710B56424FFF7ED
:10495000C4FF48B144B100F014F8641EF7E744B155
:1049600000F00FF8641E00E06424FFF7B6FF002893
:10497000F5D0282001F070FCFFF7AFFF00B1012057
:1049800010BD012001F068BC38B500250824FFF7F0
:10499000DCFF641E40EA4505F9D1E8B232BDBCB582
:1049A00004460D46FFF79DFFFFF7ACFFE0B9002777
:1049B000FFF7EAFF0DF807007F1C042FF8DD9DF8D4
:1049C00000109DF801209DF8020051189DF8032069
:1049D000091889189DF80420914203D19DF8001010
:1049E000297020700020B6BD0120B6BD10B5FFF7BC
:1049F00078FFFFF787FF04000CBF04A10FF2280126
:104A00000FF21000FFF74CFF204610BD6F6B000047
:104A100000000240646874313120696E6974202599
:104A2000732E200D0A0000006661696C6564000049
:104A30002DE9F843040016D02078DFF80063C107A1
:104A400013D5B06800F00C00042807D0B06800F05F
:104A50000C0008283ED1706841023BD531688803BC
:104A600003D56068002800F0FB802178B44F8807E8
:104A700019D5B06810F00C0F07D0B06800F00C002A
:104A8000082858D17068410255D43168880703D589
:104A9000E068012840F0E4803168206921F0F801E5
:104AA00041EAC00131602178080768D56069A549ED
:104AB00000285ED001220A60FEF738F80546706FC4
:104AC000810700F1CF80FEF731F8401B0228F6D9AC
:104AD000032031E16068B0F5803F06D0B0F5A02F2B
:104AE000316807D141F480213160306840F4803072
:104AF000306006E021F480313160326822F4802297
:104B00003260606858B1FEF711F8054631688803D5
:104B1000ABD4FEF70BF8401B6528F7D3D8E7FEF7B8
:104B200005F80546306881039FD5FDF7FFFF401B60
:104B30006528F7D3CCE7E06870B101213960FDF753
:104B4000F5FF05463068810700F1B880FDF7EEFFFC
:104B5000401B0228F6D9BBE73860FDF7E7FF0546A2
:104B6000306881079FD5FDF7E1FF401B0228F7D988
:104B7000AEE70860FDF7DAFF0546706F810771D573
:104B8000FDF7D4FF401B0228F7D9A1E70528306FB5
:104B900006D140F004003067306F40F0010005E0BE
:104BA000400840003067306F20F00400306741F269
:104BB0008938A06868B1FDF7B9FF8146306F810779
:104BC00000F18980FDF7B2FFA0EB09004045F5D365
:104BD0007EE7FDF7ABFF8146306F81077BD5FDF7A0
:104BE000A5FFA0EB09004045F6D371E7FDF79EFF56
:104BF000401B022840F282806AE7FDF797FF001B06
:104C0000022840F2948063E700203866FDF78EFFAB
:104C100004463068810140F18E80FDF787FF001B5C
:104C20000228F6D954E701281AD0B068E26900F4E6
:104C30008001914202BF00F03F01226A91420FD1F0
:104C400047F6C071626A0140914202BF00F44031F0
:104C5000A26A914202BF00F07060E16A88426AD0A5
:104C6000012069E0207841073AD5306C0025C10069
:104C70000AD400950125306C40F080503064306CCF
:104C800000F0805000900098DFF8BC80D8F8001049
:104C9000C8051BD4D8F8000040F48070C8F80000A4
:104CA000FDF744FF8146D8F80010C8050ED4FDF783
:104CB0003DFFA0EB09000228F5D909E7306821691A
:104CC00020F0F80040EAC1003060ECE6A06801285E
:104CD0007FF45CAF60E71DB1306C20F08050306431
:104CE000A06940B3B16801F00C0108299BD00228EB
:104CF0008AD100203866FDF719FF0546306881012A
:104D00003FF574AFE169206AA26A0143606A921EAE
:104D1000D20341EA8011120CE06A41EA024141EA01
:104D20000061716001213966FDF700FF04463068BB
:104D300081017FF562AF0020BDE8F28300380240B8
:104D400000004742800E47420070004062F30F228D
:104D500062F31F4200B500BF130096469446103917
:104D600028BFA0E80C50FAD85FEA417C28BF0CC0ED
:104D700048BF40F8042BC90728BF20F8022B48BFC2
:104D800000F8012B00BD00000901020081B002D42F
:104D90002948815405E0294802F00F02104400F828
:104DA000041C01B07047264A13684FF6FF01000249
:104DB0000B4000F4E060184322490843106070473C
:104DC00038B51F4B1C68C4F30223C3F10704052C3C
:104DD00028BF04241D1D072D34BF0023DB1E012521
:104DE00005FA04F4641E2140994005FA03F35B1EA2
:104DF0001A401143BDE83440C6E7002807D4012219
:104E000000F01F01104B8A40400943F820207047F2
:104E100010B5401EB0F1807F01D3012010BD0B4CB6
:104E200060600F214FF0FF30FFF7AEFF0022A2605D
:104E300007202060002010BD00E400E018ED00E035
:104E40000CED00E00000FA0500E100E010E000E0F9
:104E500000F000B87047000090F83510022903D028
:104E60008022426501207047052180F835100068D6
:104E70000168490849000160002070477047704789
:104E800081B00020009000220A48416841F480412E
:104E90004160416801F480410091009900920368EB
:104EA00043F080530360006800F080500090009849
:104EB00001B070474038024070B5044600250CB977
:104EC000012070BD04F13C06706820B92046FEF751
:104ED000A8FDB56035707068C10610D4706820F404
:104EE000885040F002007060204600F0A5F8B560E0
:104EF000706820F0020040F00100706000E00125C1
:104F000000203070284670BD78B502460020009021
:104F100092F83C30012B01D1022072BD012082F8B1
:104F20003C0007240B6810680A2B12D30A3BC568A3
:104F300003EB43039C4025EA0404C460C3680D6886
:104F40008C68A5F10A0606EB4606B4402343C3600D
:104F50000FE0056903EB430304FA03F325EA0303B7
:104F6000036103690D688C6805EB4505AC4023437C
:104F700003611F244B68072B0CD25B1E456B00F0AE
:104F800055F84463436B4D680C886E1E00F049F879
:104F900043631BE00D2B0CD2DB1F056B00F046F8C2
:104FA0000463036B4D680C88EE1F00F03AF803634E
:104FB0000CE00D3BC56A00F039F8C462C36A4D6865
:104FC0000C88A5F10D0600F02CF8C3625A4B9842EC
:104FD00022D10B685748122B03D1046844F4800493
:104FE00004600B68102B18BF112B15D1036843F414
:104FF00000030360086810280ED151494F4C0B681C
:10500000B3FBF4F40A204443009402E00099491EE3
:10501000009100980028F9D1002182F83C1000206E
:1050200072BD06EB8606B4402343704703EB83034F
:105030009C4025EA040470473E4A116821F440313F
:105040001160136841680B4313600268516821F4D2
:10505000807151605168036941EA032151605168D0
:1050600021F040715160536881680B43536091682F
:1050700021F4006191609368C1680B439360816A79
:10508000304B994210D0936823F07063936093681B
:10509000816A0B439360916821F04051916093685D
:1050A000C16A0B43936007E0916821F070619160E1
:1050B000916821F040519160916821F00201916066
:1050C0009168037E41EA4301916090F8201069B134
:1050D000536843F400635360516821F460415160A8
:1050E0005168436A5B1E41EA433102E0516821F492
:1050F00000615160D16A21F47001D162D16AC36943
:105100005B1E41EA0351D162916821F40071916004
:10511000916890F8303041EA43219160916821F420
:10512000806191609168406941EA80219160704797
:1051300000000000042301400020014040420F0015
:10514000180000200100000F38B5040001D1012033
:1051500032BD0020A06204F15005687820B900211A
:1051600029702046FEF7B4FC0220687000F06DFA4A
:105170006268A068A1690243E068024320690243B3
:105180006069024301F40071E0690A430243206A46
:105190000243A06A024320680260A169606A090CA8
:1051A00001F004010143206841602068C16921F4D5
:1051B0000061C1610020686001206870002032BD7C
:1051C0002DE9F843054605F15007002638780128F7
:1051D0000C469146984608BF022000F0A0800121AD
:1051E0003970FDF7A3FC7978012918BF022653D145
:1051F000002C18BFB9F1000F00F08E8003217970E8
:105200007E602C63A5F83490A5F83690AE63AE8727
:10521000EE876E642E64A968B1F5004F04D1296849
:105220000B6843F480430B6029680C68630603D461
:105230000B6843F040030B604446E968B1F5006F2A
:1052400069682DD1002918BFB9F1010F09D1296B67
:105250002B680A88DA60296B8A1C2A63E98E4A1E49
:10526000EA86804608E0296B0A88C260286B811CA8
:105270002963E88E411EE986E88E00283CD0286824
:1052800081688A07EFD4FDF751FC00F0E2F804D3FF
:1052900014F1010FF0D003263FE0002CECD1FAE727
:1052A000002918BFB9F1010F09D1296B2B680A78C1
:1052B0001A73296B4A1C2A63E98E4A1EEA868046C5
:1052C00008E0296B0A780273286B411C2963E88E79
:1052D000411EE986E88E78B1286881688A07F0D493
:1052E000FDF724FC00F0B5F803D314F1010FF1D061
:1052F000D1E7002CEED1CEE742462146284600F009
:105300001DFA08B120207860A86818B900962868AE
:1053100000F087F9786800B1012600F09EF8BDE83A
:10532000F2832DE9F04782B0894600260546924671
:105330006968B1F5827F04BFA86800281C4605F1A2
:10534000500709D104217970009453464A464946D2
:10535000284600F088F87AE03878012808BF022053
:1053600075D001213970FDF7E1FB8046787801287E
:1053700018BF022669D1B9F1000F18BFBAF1000FAA
:1053800062D0042078707E60C5F83890A5F83CA003
:10539000A5F83EA02E63AE86EE862E646E64A868E5
:1053A000B0F5004F04D12868016821F48041016004
:1053B00028680268510603D4016841F04001016089
:1053C000E86828BB08E0017BA86B0170A86B411C52
:1053D000A963E88F411EE987E88F58B32868816880
:1053E000CA07F0D4FDF7A2FB00F033F804D314F1A0
:1053F000010FF1D0032628E0002CEDD1FAE7C068B8
:10540000A96B0880A86B811CA963E88F411EE987FE
:10541000E88F78B128688168CA07F0D4FDF786FB69
:1054200000F017F803D314F1010FF1D0E2E7002CDC
:10543000EED1DFE728464246214600F057F908B191
:1054400020207860786800B1012600F006F8BDE8F9
:10545000F687A0EB0800A042704701217970002078
:105460003870304670472DE9F84F044604F1500675
:10547000002730780128884692464FF0010B08BF7C
:10548000022000F0C1801D4686F800B0FDF74EFBFB
:105490007278012A814609D06368B3F5827F02BF22
:1054A000A0680028042A01D00227A8E0B8F1000F64
:1054B00018BFBAF1000F00D00DB901279FE0727834
:1054C000042A1CBF052373707760C4F838A0E587F1
:1054D000A587C4F83080E586A586276467642068C0
:1054E0000268530603D4036843F040030360E26894
:1054F000DDF828806068B2F5006F3BD1002818BF46
:10550000012D05D1206B22680188D16000F096F84A
:10551000E18E002904BFE08F002877D021688868D9
:1055200082070BD5E08E002818BFBBF1000F05D015
:10553000206B0288CA60BB4600F080F8216888684A
:10554000C2070CD5E08F50B1C968A06B01804FF045
:10555000010BA06B811CA163E08F411EE187FDF769
:10556000E5FAA0EB09004045D2D318F1010FCFD0E6
:10557000032744E0002818BF012D05D1206B2268C5
:105580000178117300F053F8E18E002904BFE08F19
:1055900000283BD02168886882070BD5E08E002860
:1055A00018BFBBF1000F05D0206B02780A73BB4611
:1055B00000F03DF821688868C2070CD5E08F50B133
:1055C000C968A06B01704FF0010BA06B411CA16377
:1055D000E08F411EE187FDF7A9FAA0EB09004045E5
:1055E00003D318F1010FCFD0C2E7B8F1000FCBD130
:1055F000BEE7A06818B90097206800F012F80120F3
:105600007070002030703846BDE8F28F4A4641463F
:10561000204600F093F80028EBD02020012770608E
:10562000EDE7C16800918068009000997047206B99
:10563000411C2163E08E411EE1867047206B811C76
:105640002163E08E411EE18670472068016821F0E9
:105650004001016070472DE9F041069F05460E4666
:1056600090461C46286881683140B1420CBF012039
:105670000020404531D014F1010FF3D0FDF756FA68
:10568000C01BA04201D2002CECD12868416821F057
:10569000E00141606868B0F5827F08D1A868B0F584
:1056A000004F18BFB0F5806F01D100F019F8A86A5B
:1056B000B0F5005F09D12868016821F4005101604C
:1056C0002868026842F40052026005F1500001218E
:1056D000417000210170032000E00020BDE8F0814E
:1056E0002868016821F040010160704738B5044620
:1056F0000B466068B0F5827F08D1A068B0F5004F16
:1057000018BFB0F5806F05D1FFF79FFF6068B0F557
:10571000827F07D1A5680092B5F5806F03D0002283
:10572000802102E00092002201212046FFF793FF32
:1057300010B100F02CF832BD002032BD70B5044627
:105740001648174E0B4601681825B1FBF5F582B0D7
:10575000B5FBF6F64FF47A70464300966568B5F5EA
:10576000827F09D10092802100222046FFF773FF3B
:1057700058B100F00CF876BD009830B10099491E80
:105780000091206881680806F6D4002076BD606D1F
:1057900040F02000606503207047000018000020E2
:1057A00040420F0038B5040001D1012032BD00F0A5
:1057B00021F818B900F01AF8FEF7F8F9FFE702200F
:1057C0006870211D206800F08DF8012068700020AD
:1057D00032BD38B5040001D1012032BD00F00AF815
:1057E00018B900F003F800F05FFDE8E70021297028
:1057F0002046704704F13C056878704770B500F0AA
:1058000065F801D1022070BD00F067F832B1042ABA
:1058100017D0082A28D00C2A39D04AE03068294607
:1058200000F0ABF83068816941F0080100F04AF8F7
:1058300021F00401816131688A69286902438A6123
:1058400037E03068294600F0C1F83068816941F4DA
:10585000006100F037F821F4806100F033F82A6924
:1058600041EA0221816124E03068294600F0DEF837
:105870003068C16941F0080100F020F821F004010E
:10588000C1613168CA6928690243CA6111E03068A0
:10589000294600F0FDF83068C16941F4006100F06C
:1058A0000DF821F4806100F009F82A6941EA02212B
:1058B000C161012060700020207070BDC16130683E
:1058C000C16970478161306881697047064606F199
:1058D0003C040D46207801287047012121700220E8
:1058E00060707047F0B57C4C05687C4B7C4E7D4FFA
:1058F000DFF8F4C1A04218BFB0F1804F07D0604577
:1059000018BFB84203D0B04218BF98420DD14A68C0
:1059100025F070051543A04218BFB0F1804F17D095
:1059200060451CBFB842B04212D098421CBF6F4ABB
:1059300090420DD06E4A90421CBF6E4A904207D0F2
:105940006D4A90421FBF6D4A90426D4A904203D10A
:10595000CA6825F4407515434A6925F0800515434A
:105960000560A0428A68C2620A68826212BF9842D9
:105970000969016301214161F0BDF0B5026A564F2A
:10598000564E520852000262036A4468856900F06C
:1059900079F823F002031343B84218BFB04207D18D
:1059A000CA6823F008031343B84223F0040301D06C
:1059B000B04205D14A6924F4407414438A691443FF
:1059C00044608561496841630362F0BDF0B5026AD5
:1059D000414E22F010020262B042036A44688569B7
:1059E0000A6825F4E64545EA02258A6823F0200383
:1059F00043EA0213394A18BF904208D1CF6823F016
:105A0000800343EA0713B04223F0400301D09042E1
:105A100006D14E698A6924F44064164344EA860438
:105A200044608561496881630362F0BDF0B5026A34
:105A3000294E22F480720262036A4468C56900F04C
:105A400021F823F4007343EA0223244AB04218BF2A
:105A5000904208D1CF6823F4006343EA0723B042A1
:105A600023F4806301D0904206D14E698A6924F400
:105A70004054164344EA06144460C5614968C16352
:105A80000362F0BD0A6825F0730515438A68704704
:105A900070B5026A104E22F480520262B042026A6D
:105AA0004368C4690D6824F4E64444EA05248D681B
:105AB00022F400521CBF094EB04242EA053204D122
:105AC0004D6923F4804343EA85134360C461496808
:105AD0000164026270BD000000000140000401404A
