:020000040800F2
:10000000F8330120F1480008594700085B47000811
:100010005D4700085F4700086147000800000000D6
:10002000000000000000000000000000952C000807
:1000300063470008000000003D2C000865470008E9
:100040001B4900081F4900082349000827490008E8
:100050002B4900082F490008334900083749000898
:100060003B4900083F490008434900084749000848
:100070004B4900084F4900085349000857490008F8
:100080005B4900085F4900086349000867490008A8
:100090006B4900086F490008734900087749000858
:1000A0007B4900087F490008834900088749000808
:1000B0008B4900088F4900089349000897490008B8
:1000C0009B4900089F490008A3490008A749000868
:1000D000AB49000831470008374700083D47000892
:1000E000AF490008B3490008B7490008BB490008F8
:1000F000BF490008C3490008C7490008CB490008A8
:10010000CF490008D3490008D7490008DB49000857
:1001100043470008DF490008E3490008E7490008B1
:10012000EB490008EF490008F3490008F7490008C7
:10013000FB490008FF490008034A0008074A000875
:100140000B4A00080F4A0008134A0008174A000823
:100150001B4A00081F4A0008234A0008274A0008D3
:100160002B4A00082F4A0008334A0008374A000883
:100170003B4A00083F4A0008434A000800000000CC
:10018000474A00084B4A00082DE9F04F0FF2B0191A
:10019000A1B0D9E90045CDE90045049100212A9E8E
:1001A000DFF8FC8B8DF843600D914FF0FF398246EC
:1001B00015461F460FE0AB4634461BF8011B04985A
:1001C000D0470028049000F0A7800D98401C641EC2
:1001D0000D90F2D135442878252807D100210791C8
:1001E000089109910A910B910C910DE06A464946DC
:1001F000284600F0C1FF060001D10D98A8E0DAD52D
:100200000126E7E741F0010115F8010F2028F9D098
:1002100023280DD02B2804D02D2806D030280AD032
:100220007CE041F0020189B2EEE741F00401FAE717
:1002300041F00801F7E741F01001F4E700200F90CA
:1002400009E00F98404505DA00EB800302EB43021A
:10025000303A0F926D1C2A78A2F130000A28F0D3B0
:100260002A782E2A18BFCDF8389023D115F8010F1F
:100270002A2807D1386838606D1C50F8042B386084
:100280000E9217E02D280CBF15F8010B002000225C
:100290000E920AE040B90E9A424505DA02EB82045A
:1002A00003EB4403303B0E936D1C2B78A3F130021B
:1002B0000A2AEFD3ADF840100FF28C00297800F035
:1002C00065FF08B115F8010B8DF842009DF842005A
:1002D000682804BF2978682903D162208DF842007C
:1002E00007E06C2804BF28786C2803D171218DF8B1
:1002F00042106D1C12A806903A4615F8013B02A95F
:10030000504600F065F838B912AA02A9504600F02C
:10031000C7F900287FF55FAF484619E02A288DD13C
:100320003868386050F8042B3860002A0F9204D5E2
:10033000524241F004010F9289B26D1C90E7000017
:100340000000000000000000686A6C747A4C000035
:1003500021B0BDE8F08F622820D0682811D06A282B
:1003600003D06C2827D0712825D10868C01D20F043
:1003700007000860D0E900230830086019461046DD
:100380007047002A0A680A60106803D0121D0A60CC
:1003900000B217E0121D0A6080B217E0002A0A6856
:1003A0000A60106803D0121D0A6040B20AE0121DF4
:1003B0000A60C0B20AE0002A0A680A60106803D026
:1003C000121D0A60C1177047121D0A600021704794
:1003D0007CB50D4611461C462E69B4F1250200F08D
:1003E0004D811C3A00F08680121F022A40F2828062
:1003F0000E3A00F00781521F5AD0093A7AD0921E65
:1004000016D0521E35D0521E022A73D9121F30D078
:10041000521F00F09A80521E4AD0521E00F0E48013
:10042000D21E00F0FD80921E42D0D21E40D02BE1A1
:1004300095F83A206C2A09D06869421C6A610A68FA
:100440000A6052F8043B0A60335427E10A680A60E4
:1004500052F8043B0A600021009301914FF0FF32F3
:100460002A6329466A4600F096F9002840F1168171
:1004700001E195F83A000122FFF76DFFC5E900019F
:100480000023994204DA6869411C69612D210DE05D
:10049000288F810704D56869411C69612B2105E01B
:1004A000C00722D56869411C6961202131541CE0D4
:1004B00095F83A000022FFF74EFFC5E9000195F8D4
:1004C0003800010711D5D5E900230020834208BF79
:1004D00082420AD044F02000782806D16869302191
:1004E0003154401C411C69613454214668693044D0
:1004F000E86083E00868C01D20F007000860D0E9CC
:10050000002308300860C5E90023D5E90001C80FC1
:1005100004D06869411C69612D210DE0288F810795
:1005200004D56869411C69612B2105E0C00704D529
:100530006869411C69612021315468693044E86070
:100540002146284600F034FAA8E005F13A02507836
:1005500020B14FF0FF340FF6203070E010786228A1
:1005600008D0682824D06A2812D06C282ED0712890
:100570000ED02BE00A680A6052F8040B0A6020B91A
:100580004FF0FF340FF6083059E0E96A017085E05A
:100590000A680A6052F8040B0A6020B94FF0FF3471
:1005A0000FF6EC204BE0EA6AD317C0E9002375E0B0
:1005B0000A680A6052F8040B0A6020B94FF0FF3451
:1005C0000FF6CC203BE0E96A018067E00A680A6028
:1005D00052F8040B0A6020B94FF0FF340FF6B02038
:1005E0002DE0E96A016059E00A680A6052F8040BDC
:1005F0000A600021C5E90001EE607821284600F07C
:1006000029F94BE06C2285F83A200B680B6053F80F
:10061000042B0B6052BB4FF0FF340FF6A8200EE006
:1006200095F83A206C2AF0D00868086050F8044B1E
:100630000860EC603CB94FF0FF340FF66C2000F01E
:10064000B1FD201A76BD2E6B002E04D5204600F099
:10065000CBFD044608E032460021204600F0E0FDD4
:10066000002814BF041B3446AC6117E0294600F093
:1006700092F8002812D54FF0FF3076BD6869411C12
:1006800069612521315409E06869411C69612522AD
:100690003254200002D0481C68617454002076BD9A
:1006A0002DE9F0410E460546716B7069B46A091A6E
:1006B000306A091AB069091A706A091AF069091AC8
:1006C00096F838000C1B410790460DD4002C0BDD2A
:1006D0002746B0682021A8470028B06057D0F06AAC
:1006E000401C7F1EF062F4D17369424631462846B1
:1006F00000F0AAFC00284AD1376A002F0ADDB06852
:100700003021A8470028B06041D0F06A401C7F1E0D
:10071000F062F4D1B369F2683146284600F094FCE7
:10072000A8BB776A002F09DDB0683021A847B06008
:1007300068B3F06A401C7F1EF062F5D1F068B169C1
:10074000F36942183146284600F07EFCF8B9B76AD2
:10075000002F09DDB0683021A847B060B8B1F06A59
:10076000401C7F1EF062F5D196F8380041070BD58A
:10077000002C09DDB0682021A847B06038B1F06ACC
:10078000401C641EF062F5D10020BDE8F0814FF0FE
:10079000FF30BDE8F0812DE9F0470E46A4B0356B7F
:1007A000002D8146904648BF6FF0004500F064FD83
:1007B000716B40180FF628118128D1E90023CDE98B
:1007C000012328BF4FF0FF303ED20024002D2FDD43
:1007D000D8F8001001AA684600F0D0FC0746002FA8
:1007E00035D4D8F8000008B97F1E30D4BD421FDBD5
:1007F0007069381881280AD30020706303AA314633
:100800004846FFF74DFF040012D40020706103A892
:10081000D6F814A03A466946504400F033FDBA4475
:10082000C6F814A058F8040B002818BFED1BCDD152
:100830002CB903AA31464846FFF732FF044614B9E3
:10084000002070617063204624B0BDE8F0874FF04F
:10085000FF34F8E72DE9FC4B06468B463469BBF1C3
:100860006F0F08BF082505D04BF02001782914BF71
:100870000A2510253C27D6E90023BBF1640F18BFD9
:10088000BBF1690F9046994606D100218B4203DAED
:10089000D8F1000869EB49090020814508BF80456F
:1008A0001FD1306BE8B9082D4ED196F838000107FA
:1008B0004AD530203B2784F83B0045E000280ED580
:1008C00096F8380000F01400102808D1726B706997
:1008D000121A306A121A511A0029C8BF3162BDE8D3
:1008E000F38B01968DF800B0404649462A46EB1737
:1008F00000F01CFD30327F1ED2B23A2A04DB9DF894
:100900000000A0F151018A18E255404649462A46A6
:10091000EB1700F00BFD894600228046914508BF89
:10092000904504D00198C168E0198142DCD3082DBC
:10093000019E09D196F83800010705D5E15D3029FF
:1009400002D07F1E3020E055E019F060C7F13C0175
:10095000306BB1618142B1DA411A31624FF6EF700A
:10096000318F01403187BDE8F38B2DE9D043064636
:100970000F4614464FF00008DFF8289412E0E00715
:1009800007D542464B463046394600F047FD0646FD
:100990000F464046494642464B4600F03FFD641034
:1009A00080468946002CEAD130463946BDE8D083DE
:1009B0002DE9F04705468A468EB0D5E900894AF010
:1009C0002000612802AF00900AD0286B002802D5D1
:1009D0000620286304E001BF0098672801212963ED
:1009E000D5E9006460004015401C0DD121030BD0F7
:1009F000AAF1610103201A29A86102D20FF2E8616D
:100A000010E00FF2E8610DE060004015401C0ED1CF
:100A100021030CD1AAF1610103201A29A86116D380
:100A20000FF2D061E868032200F02CFCCAE124F048
:100A30000043B3F5801F26F0000211D2002083424C
:100A400008BF8242019005D13046214612E00FF2E4
:100A5000A061E7E701AA3046214600F0B1FD09E0B8
:100A6000D148D24900EB1350019004EA0102D04969
:100A700030461143C5E90001009A612A0DD1E868AA
:100A800030210170811CE960BAF1610F0CBF78213F
:100A9000582141706869801C6861D5E90023CDE95F
:100AA0000C23DDE90C0121F00041002200239942D2
:100AB00004BF9042002000F04D810098612840F072
:100AC0009C80286B00284CBF2120401C0090404691
:100AD000009E761C4946DDE90C8900F0A9FD0198CD
:100AE0008DF8082038BF89F00049001F0190002EC2
:100AF0000DF1090040F33C8107464046494600227B
:100B0000002300F0ADFD80F032814800400D00F17F
:100B10001C0211D0002A0FDD40F2FF70824205DB7B
:100B2000A44909F000400143002012E06FF31E5178
:100B300041EA025140460CE029F0004128F0000053
:100B4000994208BF98420FBF49461C22494600F00F
:100B50009FFD8046894600F039FEF61F002E0446B0
:100B600009DD00F051FE02460B464046494600F0C2
:100B70005DFE80468946F81D072104E004F00F025F
:100B800000F8012D2411002C01DD491EF6D5491E67
:100B90005CBF002200F8012DF9D5E4E000201946E1
:100BA00002AA0A4400E05B1E12F80149491E844271
:100BB000F9D00F2804D10DF10900425C521C4254B7
:100BC000002904D50198001D02AF5B1C0190581E3E
:100BD0000CD43918AAF13A040A783032D2B2392A40
:100BE000C8BFA218401E01F80129F5D5286B0028BE
:100BF00040F1AF80591E2963ABE04046494600F002
:100C000017FD019938BF89F0004947F297504143D9
:100C1000694A91FBF2F20192D2F1070204DD4046EB
:100C20004946FFF7A2FE0AE0524200206349FFF75F
:100C30009CFE02460B464046494600F069FE80464F
:100C400000985F4E6628286B06BF019C0A34062474
:100C50002418142CC8BF142430208DF808008946AD
:100C60000DF1090000E03846002C34DD074640460F
:100C7000494600F071FF01460A4607F108030420C7
:100C80000A27B2FBF7F707EB870EA2EB4E023032D2
:100C900003F8012C0A22B7FBF2F202EB820EA7EB5B
:100CA0004E073037401E03F8027DE9D1083C002C86
:100CB00003F10807D7DD084600F062FF02460B4645
:100CC0004046494600F0B2FD0022334600F0A6FB44
:100CD00080468946CBE70DF10901401A0DF109075D
:100CE00004E00199491E401E01917F1C397830298A
:100CF000F7D0009A662A02D10199491C03E0652ABF
:100D00000CBF012100212B6BCB189842B8BF431EAA
:100D1000002B1ED4834204DAF85C3528A8BF3920A2
:100D200000DA302019467A1E02EB010800E05B1E53
:100D300018F80199491E8145F9D0392802D1785C0B
:100D4000401C7854002904D50198401C17465B1CB0
:100D50000190019800B200901BB23A4651462846D5
:100D600000F033F82EE0C71D002E3FF7C6AE384620
:100D70000DF10901401A009903468842C8BF0B468D
:100D8000002B0DF109073FF531AF8342BFF606AFE7
:100D90000DF10900C05C07287FF700AF0F20FEE6C9
:100DA000CBCCCC0C0000244002FCFFFFFFFF0F80E7
:100DB0000000E03F0000F07FA08601000000F03F4F
:100DC00084D797410EB0BDE8F0872DE9F04F83B08E
:100DD00006468B469246994600F0D2F9B9F1000FCB
:100DE000406AD6F83080077803DC4FF001090FF233
:100DF000083ABDF930504BF02000662808BF6D1C42
:100E000017D0672840F0878015F1040FC0F2898061
:100E1000454580F2868096F838006D1C010702D4A3
:100E2000C145B8BFC8462DB2B8EB050848BF4FF062
:100E300000082DB2F068B169002D27DC4A1C302370
:100E40004354B8F1000F03DC96F83800010702D5CF
:100E5000F0688754521C18EB050FB8BFC8F10005A5
:100E60002DB2A8446842C845B8BFC146B26170629D
:100E70000FFA89F4F461F068B369224651461844C8
:100E800000F000FAA8EB0400B062C6E02A469145E3
:100E9000084418DA4A46514600F0F4F9B06948446B
:100EA000B061A5EB0901B8F1000F716203DC96F89F
:100EB00038100A0704D5F1680F54F069401CF0613E
:100EC000C6F82880A9E0514600F0DCF9B06928187E
:100ED000B8F1000FA9EB050303DC96F838100A07F8
:100EE00002D5F1680F54401CB0610FFA83F9C84570
:100EF000B8BFC146F068B3690FFA89F422460AEB1D
:100F00000501184400F0BEF9B0692044B061A8EBB7
:100F10000400706281E0BBF1610F16D14FF0700BDD
:100F200018E0C14504DA96F838100A0758BFC846D9
:100F3000B8F1010848BF4FF00008BBF1670F14BFBC
:100F40004FF0450B4FF0650B04E0BBF1410F08BFBC
:100F50004FF0500BB169F368481CB061B8F1000F55
:100F60001AF8012B5A5403DC96F838100A0719D5E1
:100F7000F168431CB3610F54B8F1000F12DDA9F101
:100F800001073FB2B845B8BF4746F0683FB23A469E
:100F90005146184400F076F9B0693818B061A8EBF2
:100FA00007007062F068B1690844002D80F800B055
:100FB00003D42B214170811C03E02D2141706D422F
:100FC000811C00206A460AE02B460A2493FBF4F5B4
:100FD00005EB8504A3EB440302F8013B401C2DB252
:100FE000002DF1DC012806DC4BF02002652A04BF4D
:100FF000302201F8012B48B9302001F8010B07E03D
:10100000401E1DF80020303201F8012B0028F7DCCB
:10101000F068B2691044091AF16196F8380000F0DE
:10102000140010280DD17169B0694118706A411817
:10103000F0694118B06A4118706B8142BCBF411A17
:10104000316203B0BDE8F08FF8B505460E4617468D
:101050001C46002074B117F8011BB068A847B060A7
:1010600030B1F06A401CF0620020641EF3D1F2BD82
:101070004FF0FF30F2BD00007072696E74665F73EE
:101080003A20256E20646973616C6C6F776564002B
:101090007072696E74663A2062616420256E206108
:1010A0007267756D656E74007072696E74665F73D9
:1010B0003A2062616420257320617267756D656EE8
:1010C000740000007072696E74665F733A2062612A
:1010D0006420256C7320617267756D656E74000005
:1010E00000000000000000006E616E004E414E00E6
:1010F000696E6600494E46003000B1F5807F02D32C
:101100004FF0FF3070470170012070470078401E9B
:101110008041C043C00F70471A48704730B45368CD
:10112000D418042B09DA41B1057804F8015B10F8F2
:10113000015B15B15B1C491EF3E7536030BC70477F
:1011400038B514461D4661B1FFF7E8FF61686A6B68
:10115000204690476FF00102811A02D0491E03D049
:1011600005E06FF0010032BD4FF0FF3032BD0021CD
:10117000616032BDDA6B1047024BE1E7014BF9E7E2
:1011800001487047540000201C0000200278C9B2BA
:101190008A421AB11CBF10F8012FF9E718BF0020CE
:1011A0007047000080B508B90FF21C0005490B68B4
:1011B0001BB122220021984701E000F0EEFC222022
:1011C00002BD0000F42F0120636F6E7374726169B9
:1011D0006E742068616E646C65723A20626164208E
:1011E0006D6573736167650000F10103810704D0C9
:1011F00010F8011B89B18107FAD10268B2F10131FF
:10120000914311F0803F04BF50F8042FF6E710F827
:10121000011B11B110F8011BFBE7C01A7047000059
:10122000C9B2830706D0521E22D310F8013B99425F
:10123000F7D11FE0083A13D302F1040241EA012179
:1012400041EA014150F8043B121F21BF4B40A3F17A
:10125000013C2CEA030C1CF0803FF3D0C9B2001F04
:10126000083210F8013B521E28BF91EA030FF8D84C
:1012700018BF0120401E704780B5FFF74DFF006C7E
:1012800002BD000062B38B0708D0521E11F8013B6B
:1012900000F8013B00F024808B07F6D1830740F073
:1012A000208000BF103A07D330B4B1E83810103AAC
:1012B000A0E83810F9D230BC530724BFB1E80810B9
:1012C000A0E8081044BF51F8043B40F8043BD207A3
:1012D00024BF31F8022B20F8022B44BF0B78037097
:1012E0007047121F17D35B0009D151F8043B20F857
:1012F000023B1B0C121F20F8023BF6D20BE051F808
:10130000043B00F8013B1B0A20F8023B1B0C121F98
:1013100000F8013BF3D238BF121D521E24BF11F852
:10132000013B00F8013BF8D8704700001B4213D185
:10133000094236D12AB18446B0FBF2F002FB10C25A
:10134000704700F02DBCFCD30022002370470B0037
:101350000200002100207047904271EB030CF6D38D
:1013600070B5B1FA81F4B3FA83F52C1BA340C4F134
:10137000200532FA05F63343A2405FF00046E6400E
:1013800002E05B085FEA3202841A71EB030524BFB6
:10139000204629467641F4D302000B00300000219C
:1013A00070BD012ACFD970B5140C20D0B1FA81F4E8
:1013B000B2FA82F5C4F120046419B4F12006D6D340
:1013C000B2405FF00044F440002502E052085FEABA
:1013D0003303C61A71EB020E24BF304671466441D6
:1013E0006D41F3D302000B002000290070BD0C46B4
:1013F000B1FBF2F102FB11452D0445EA1045B5FBA6
:10140000F2F402FB145580B240EA0545B5FBF2F058
:1014100002FB105240EA044070BD0000B0B581EA02
:10142000030C0CF0004C40F2FF7515EA11541DBF7F
:1014300015EA1357AC42AF4239E0E41923EA4553A9
:1014400043F48013C90241F0004141EA505EC702F3
:101450001100A7FB020200284FF00000EEFB012064
:101460004FF00001E3FB072118BF42F001024018D2
:1014700000214941E3FB0E01A4F580640F0302D271
:1014800052004041494154F101046CDD470872F1BA
:10149000004250F1000051EB0451A1F580115CBFF6
:1014A00041EA0C01B0BD4CEA05510020B0BD05EA8F
:1014B0001357AC4214BFAF4241E050EA410E1CBF8B
:1014C00052EA430E02E061460020B0BD24423C4493
:1014D0001BD15FEA070EF6D0090302BF01460020C8
:1014E000AEF1140EB1FA81F7AEEB070401FA07FE74
:1014F0000C37C7F1200100FA07F7C8404EEA000E8A
:1015000023EA455343F48013A2E733F00043B3FAD0
:1015100083F704BFB2FA82FE77440B3FE41BB7F1B6
:10152000200E2FBF02FA0EF3BB40C7F1200E22FAA5
:101530000EFE38BF43EA0E03BA40641C82E750EA4D
:10154000410E14BF52EA430E6FF000014FF4001732
:1015500017EB430F8ABF194617EB410FB5E74CEA6B
:1015600005510020B0BDD4F10104B4F120070FDA19
:10157000C4F12007520828BF42F0010210FA07F513
:1015800001FA07F7E1BF2A43E0403843E1400FE0AA
:10159000352C98DCC7F1200452EA400220FA07F209
:1015A00018BF42F0010231FA07F0A1400A430021BE
:1015B00072F1004250F1000051EB0C01B0BD00008F
:1015C00010B5144600F002F8226010BDC1F30A53B2
:1015D00043B14A0012F5001F28D2A3F2FE32A1EB5C
:1015E0000251704750EA410C20D001F0004C31EA22
:1015F0000C01B1FA81F204BFB0FA80F3D2180B3AB1
:10160000B2F120032CBF00FA03F1914041EA0C0132
:101610003EBFC2F1200C20FA0CF319439040524215
:1016200040F2FD33D21A01EB03517047002270479C
:101630004FF4001C1CEB410F94BF1CEB430F09E05F
:1016400041EA030C50EA4C0C52EA0C0C03D29942CA
:1016500008BF9042704714BF8B428242704700001F
:101660004FF4001C1CEB410F94BF1CEB430F09E02F
:1016700041EA030C50EA4C0C52EA0C0C03D28B42A8
:1016800008BF8242704714BF9942904270470000E1
:10169000124254D440F2FF7C1CEA11530FD0634530
:1016A00031D09B1863453CBF01EB0251704701F0FC
:1016B000004141EA0C510020AFF30080704750EA2E
:1016C000410320D001F0004C91EA0C011CD0B1FA8A
:1016D00081F30B3B9A420DD9D21A994051EA0C0181
:1016E000C3F1200C20FA0CFC61449840531C40F2DA
:1016F000FF7CD7E7914041EA0C01C2F1200C20FAAF
:101700000CF3194390407047B0FA80F31533202B47
:10171000E0D3202AEED3203A203B9A4209D9D21AAC
:1017200000FA03F141EA0C010020531C40F2FF7C57
:10173000B8E700FA02F141EA0C010020704752427A
:1017400040F2FF7C1CEA11530DD06345DBD0B2EBB5
:10175000030C3CBFA1EB025170470CF1010221EADE
:10176000035141F4801150EA410CCCD001F0004CFF
:10177000352A27DC30B481EA0C01B2F1200309DA02
:10178000C2F12003044601FA03F5D0402843D140BA
:101790009C400CE0C3F12002450020FA03F418BF7E
:1017A00044F0010421FA03F091400C43002174F14C
:1017B000004550F1000051EB0C01244230BC7FF495
:1017C0007BAF70476146002076E70000C1F30A5303
:1017D00040F2FE329B1A14DDD3F120034FEAE1728E
:1017E00008DDC90241EA505141F00040D84080185C
:1017F0005040704703F2E13010B1D24382F0004014
:101800007047002070470000C11768B14840401A77
:10181000B0FA80F29040D21CC907C2F5846241EA56
:10182000025202EBD02140057047000070B44FF027
:10183000004591EA030F40F1B5816B40841A71EBCA
:10184000030603D2001BB141121973414FF4001C6F
:101850001CEB410F34BF7CEB430442E00C0DA4EBC6
:101860001356352E4FDC45EAC323DB0A45EAC12176
:10187000C912B6F120050DDD63FA05F6EB4086EAE4
:101880000305124218BF45F00105C01851F10001CF
:101890000CD213E062FA06F5F2405540F3415A408B
:1018A000B340F3405A408018594107D349085FEAD2
:1018B00030005FEA350528BF45F0010501F58011CC
:1018C000420875F1004250F1000041EB04514E0016
:1018D00016F5001F70BC38BF70470020090D0905C0
:1018E00070471CEB410F10D252EA43060BD0BCEB01
:1018F000410F05D80C0DAB43661E342EB6DD02E059
:10190000AB438018594170BC704770BC70470000F1
:10191000F0B540F2FF7581EA030C0CF0004C15EABB
:1019200011541DBF15EA1357AC42AF42E5E0BC416C
:10193000C1F31301C3F31303801A994143F48013D5
:1019400004D2641E4000494180185941C90241EA4D
:101950005051B1FBF3F603FB1611A2FB0675D7EB52
:10196000C020A94102D2761E80185941C90241EA1D
:101970005051B1FBF3FE03FB1E11A2FB0E75D7EB1A
:10198000C020A94103D2AEF1010E8018594189024D
:1019900041EA9051760546EA8E2EB1FBF3F603FB41
:1019A0001611A2FB0675D7EB8020A94102D2761E44
:1019B00080185941C90241EA50514EEA060EB1FB66
:1019C000F3F603FB1611A2FB0675D7EBC020A94165
:1019D00002D2761E80185941C90241EA5051B1FB2A
:1019E000F3F703FB1711A2FB0735D3EBC020A94186
:1019F00067F100070CBF004247F0010766F3D527E7
:101A00004FEA1E31B80814F5806412DDBD0775F188
:101A1000004250EB0E5051EB045111F5801F5CBF9A
:101A200041EA0C01F0BD4CF07F6141F0E041002043
:101A3000F0BDBD076D0840EA0E5041F48011D4F1AD
:101A40000104B4F120060ADAC4F120060200E040E5
:101A500001FA06F3E1401843B24015430EE0342C7E
:101A600013DCC6F1200445EA40056D0820FA06F2B1
:101A7000154321FA06F0A1400D43002175F1004203
:101A800050F1000051EB0C01F0BD00205FEA0C01A9
:101A9000F0BDCFB992185B41B3FA83F704BFB2FA35
:101AA00082F6BF190B3FB7F120062FBF02FA06F3EB
:101AB000BB40C7F1200622FA06F638BF3343BA40CE
:101AC0001CB1E419641E33E77F4231F00041B1FAE2
:101AD00081F404BFB0FA80F6A4190B3CB4F12006DF
:101AE0002FBF00FA06F1A140C4F1200620FA06F645
:101AF00038BF3143A0403C1B1AE7AC421ABF05EA8D
:101B00001357AF4212E050EA41061CBF52EA4306A7
:101B1000BFE750EA4107304661461CBF41EA055124
:101B2000F0BD52EA430C08BFC143F0BD00204FF4A2
:101B3000001616EB410F98BF16EB430F08BF16EBCC
:101B4000410F24BFC14305E016EB430F0CBF6146B4
:101B50004CEA0551F0BD0000400D491840EA8120D3
:101B60000CD2490DA1F58061491C40F0004005DB15
:101B7000D1F11F0154BFC840C01770470020704703
:101B8000014648B1B0FA80F18840C91CC1F58461B2
:101B9000090501EBD02140057047012000F0B6B8DF
:101BA00070470000841A71EB030604D26E40001BDC
:101BB000B141121973414FF4001C1CEB410F34BFAB
:101BC0007CEB430682E00C0DA4EB1356362E7BDC37
:101BD000012E45EAC32341DC43EA525312BFD2022D
:101BE00092025B08240545EAC12141EA5051D2EB3B
:101BF000C020994125D407D1B0FA80F610FA06F139
:101C000062D00020203608E0B1FA81F6B140C6F17A
:101C1000200220FA02F21143B0404FEAF474B4EB10
:101C2000465434F001064FEA74040AD8D6F500167B
:101C3000760D04F00044F04061FA06F25040F140A5
:101C40004840C00A40EA415021F0004128BF5FEA05
:101C5000500550F1000044EBD12135E0DB0A45EAA4
:101C6000C121C90AB6F120050EDD42EA0242120C7A
:101C7000C5F1200603FA06F6EB4042EA06056D427E
:101C8000984161F100010DE062FA06F5F24055401D
:101C900063FA06FC82EA0C02F3405A406D4290411E
:101CA00061EB030111F4801F05D1641E620502D0AF
:101CB0006D004041494121F48011430875F1004312
:101CC00050F1000041EB045170BC70471CEB410F18
:101CD00015D223F0004352EA43060BD04FEA4C0CD6
:101CE000BCEB410F04D80C0D661E342EB7DDEBE7BC
:101CF000801A994150EA410608BF0021E4E708BF75
:101D00001CEB430F28BF6FF00001DDE780B5AFF398
:101D10000080024A11001820ABBEFBE7260002003B
:101D20002DE9F0430646174685B088469946B80027
:101D300000F0D2FB05001AD0582000F0CDFB0400C3
:101D400012D00D990C982563002203920191009006
:101D500002944B463A464146304600F00DF8204684
:101D600000F050F8012004E0284600F03EFC4FF05F
:101D7000FF3005B0BDE8F0832DE9F0470A9D8146AC
:101D80000C461746286B9846A522B90000F07EFC49
:101D9000286B00EB87010F1FFF08FF000021605C2C
:101DA0006A1882F83400605C10B1491C0A29F6D325
:101DB000089E002085F83D00042E099C88BF04265B
:101DC00005F1480AEE62CAF80400CAF80060281D4E
:101DD00000F086FC05F1180000F082FC2D61C6F1D0
:101DE0000506AE616D620020CAF808008AF80C0092
:101DF00042464946384600F0ADFC286004B12560F3
:101E0000BDE8F0872DE9F84300F068F8DFF8805569
:101E1000DFF80466286F401C28674FF01408686ECE
:101E200028BB6C66286F012829D1002708FB07F022
:101E3000284400F048FC7F1C052FF7D305F18007EC
:101E4000384600F040FC05F19409484600F03BFCA0
:101E5000304600F038FC06F1140000F034FC06F1C6
:101E60002C0000F030FCAF66C5F86C9007E0706C99
:101E700028B9E16A686EC26A914228BF6C66306D0B
:101E8000401C306520640122E06A696F8240114382
:101E9000696708FB00F2211DA81800F024FC00F07F
:101EA000E8FC706C08B100F0C3FABDE8F18380B5BE
:101EB00088B1DFF8DC24D16F21B100F012F800F016
:101EC00043F9FEE7D16F491CD167002100F0C3FA46
:101ED00000F044F808B900F032F901BD044600F002
:101EE000AFBC502080F311887047211D142042435D
:101EF000704730B583B0DFF8D0450FF2D45104F10C
:101F00005800019000250095002382220FF25D30D9
:101F1000FFF706FF012808BF00F014FD502101283B
:101F20000ED181F3118800F00FF94FF0FF3060659A
:101F3000012060642564BDE8374000F033BC37BD44
:101F400010F1010FFBD181F3118800F0FDF8FEE7DD
:101F5000DFF87805C16F491CC1677047F8B5DFF835
:101F60003064F06F0024002528B9502181F31188D6
:101F700000F0EAF8FEE700F063FCF06F401EF06747
:101F8000F16F002938D1306FDFF88C74002819D137
:101F900032E0F968CC6800F033F800F094F9E06AB8
:101FA000716F012282401143716714225043211D39
:101FB000304400F098FBE06A716ECA6A904224BF18
:101FC0000120B06738680028E3D10CB100F088F92F
:101FD000BC6C3CB100F01CF808B10120B067641E75
:101FE000F8D1BD64B06F38B1DFF8D8044FF080513C
:101FF0000125016000F0A8F800F03BFC2846F2BD86
:1020000004F1180000F094BBDFF8BC04006C7047CA
:102010002DE9F843DFF87843DFF8FC73E06F002523
:1020200000284ED1386C10F10108C7F8408011D15A
:10203000A16E086828B1502282F3118800F084F85C
:10204000FEE7A06EE16EA166E066F86C401CF864E5
:1020500000F046F9786D80454FF0140925D31AE059
:10206000301D00F065FBB06A18B106F1180000F0F1
:102070005FFBF06A616F012282401143616709FBD7
:1020800000F0311D201800F02EFBF06A616ECA6A64
:10209000904228BF0125A16E086878B1A16EC8687A
:1020A000C66870688045DBD27865606EC16A09FBDE
:1020B00001F02158022907D3012505E04FF0FF3038
:1020C000F2E7B86C401CB864A06F00B10125284647
:1020D000BDE8F283DFF8F41381B0C86F10B10122BC
:1020E0008A671EE08867486FB0FA80F2C2F11F026B
:1020F00014204243885838B9502181F31188BFF326
:102100004F8FBFF36F8FFEE7881800F10803426816
:10211000526842609A4204BF526842604068C26896
:102120004A6601B0704710B50C4600F021F800F087
:10213000E6FA2046BDE81040FFE701218BE1DFF819
:1021400084134FF080500860BFF34F8FBFF36F8F41
:10215000704738B50D46144600F00AF800F0C3FA8F
:102160000CB14FF0FF3521462846BDE8344072E1FE
:1021700038B9502080F31188BFF34F8FBFF36F8FB2
:10218000FEE7DFF84823536E03F11801704738B5B6
:10219000C068C46824B9FFF7A4FEFFF7D5FFFEE7C7
:1021A000FFF72EFFDFF82453E86F58B900F08BF8E3
:1021B000E26A686F0121914008436867FFF795FE66
:1021C000A81801E000F043F900F08DFA686EC16ACA
:1021D000E06A814200D201E0002032BD0120A86700
:1021E00032BD38B9502080F31188BFF34F8FBFF351
:1021F0006F8FFEE7DFF8D012CA6C0260096C416095
:10220000704770B504460D46502024B980F31188FC
:10221000FFF79AFFFEE725B980F31188FFF794FFD7
:10222000FEE700F00DFBDFF8A002016C2A6812F156
:10223000010F0FD06368C06C2668B04201D099428C
:102240000AD2C81A904207D2511A5918296020465A
:10225000FFF7C7FF002400E0012400F00AFB20463E
:1022600070BDDFF8681201208867704770B5484D6F
:10227000694E1AE0E86F401CE8677069441EA4418B
:10228000FFF76CFEE40F84B900F0DAFA306AC46834
:1022900000F019F8286F401E2867B06A401EB0622F
:1022A00000F0E7FA204600F011F8B06A0028E1D10A
:1022B00029680129F9D9DFF80C224FF0805010600D
:1022C000FFF742FFF1E7201D00F032BA10B50446D7
:1022D000206B00F08AF92046BDE8104000F085B977
:1022E0002B4A4D49936E186810B94FF0FF3203E046
:1022F000906EC268D06842684A6570474649486C2B
:1023000008B901207047DFF8C411C86F08B902206E
:10231000704700207047F8B5040036D0DFF8AC51A4
:10232000E06A696ECA6A90422FD2A069002804D47C
:10233000686EC16AC1F10501A1611426E16A606994
:102340007143294488421DD1FFF7BDFF01270028B2
:1023500001BFE06A70432858002805D1696FE06A20
:1023600007FA00F081436967686EC06AE0628740DF
:10237000696F0F436F674643211DA819BDE8F440FC
:1023800000F0B1B9686EC16AE162F1BD0000000001
:10239000FC2C0120F8B504460021002C39D0DFF8D0
:1023A0002C51686E5022844204D082F31188FFF7CA
:1023B000CBFEFEE7E06C20B982F31188FFF7C4FE84
:1023C000FEE7E26AA36C401E9A42E06421D000BBA3
:1023D000FFF779FF01261427002801BFE06A784340
:1023E0002858002805D1696FE06A06FA00F0814399
:1023F0006967A06CE062C0F10500A061E06A696FE6
:1024000086400E4347436E67211DE81900F06BF9C3
:1024100001210846F2BD0000A42D0120DFF8AC1018
:10242000486E18B1486EC26C521CC264486E704748
:10243000696EC86AE16A884207D222494FF080502B
:102440000860BFF34F8FBFF36F8F7047000004F138
:1024500018011D4870472DE9F0411B4F1B4DD7F85F
:1024600040800C46696E0646081D00F061F930B9DF
:10247000686E696FC06A012282409143696716F1F4
:10248000010F08D13CB1686E011D07F12C00BDE8B9
:10249000F04100F028B9686E464446604645686ED3
:1024A00005D2011DE86EBDE8F04100F028B9011D1C
:1024B000A86E00F024F9786D864238BF7E65BDE8CD
:1024C000F081000004ED00E0A42D0120FC2C01208F
:1024D00049444C45000000002DE9F8430446FFF74D
:1024E00037FD694FB8684FF00008002508BB07F1B9
:1024F000180307F1180113F0070F4FF496300A463E
:1025000005D0CA1DD208D200C2F59630081880182E
:1025100008383A60C0087D60C000B860456005605A
:10252000811A5160106050683861F8604FF00040C7
:1025300078614FF050097869044233D194B308347C
:1025400014F0070F1FBF04F1080004F00704041B78
:1025500014F0070F02D000F041F8FEE714B3F8685A
:10256000A0421FD33E6839467068A04223D230682B
:1025700000281CBF31460646F6D11CE0301D025132
:102580007460084600F05BF87168F868401AF860FB
:102590003A69904238BF38617869014371603560AB
:1025A00008F00705FFF7DAFC15B100F017F8FEE7B1
:1025B0004046BDE8F283B8688642F3D032680868C6
:1025C0000A6000F108087268121B112ADCD3311965
:1025D00011F00700D2D000F001F8FEE789F311886E
:1025E000BFF34F8FBFF36F8F7047002800D1704744
:1025F00038B5A0F10804244D61686A69502311427E
:1026000002D100F015F8FEE7206810B100F010F8D4
:10261000FEE791436160FFF79BFCE9686068411841
:10262000E960204600F00BF8BDE83140FFF796BCAA
:1026300083F31188BFF34F8FBFF36F8F704730B5AF
:1026400011490A4600E01A4613688342FBD35368D7
:10265000D418844203D14068C318536010464368BD
:102660001468C518A54208D189688C4204D06168F5
:10267000CB184360246800E00C460460824218BF17
:10268000106030BD00000000E400002062F30F2263
:1026900062F31F4200B500BF1300964694461039FE
:1026A00028BFA0E80C50FAD85FEA417C28BF0CC0D4
:1026B00048BF40F8042BC90728BF20F8022B48BFA9
:1026C00000F8012B00BD00F1080141604FF0FF311F
:1026D000816000F10801C160016100210160704763
:1026E00000210161704742684A6093688B6093687B
:1026F0005960916008610168491C0160704730B5FC
:102700000A6812F1010F08BF036907D000F108033E
:1027100000E023465C682568AA42FAD25A684A60FB
:1027200091608B60596008610168491C016030BD8F
:102730004368016982689A60836842685A604A689F
:10274000824204BF82684A60002202610868401E1B
:10275000086070474908490010B5A0F120034FF008
:1027600080749961DC611A600FF2110159616FF098
:10277000020140F8241D203810BD000060494A685D
:10278000502012F1010F06D080F31188BFF34F8F54
:10279000BFF36F8FFEE780F31188BFF34F8FBFF356
:1027A0006F8FFEE730B55748574B83B00268502112
:1027B0009A4200F03CF80368544CA34200F037F80A
:1027C00053494F4C0A780192FF230B700B788DF818
:1027D00000309DF8002002F050022270072205E030
:1027E0009DF800305B00521E8DF800309DF80030DF
:1027F0001D06F5D4120202F4E062A260019A0A708A
:10280000016A41F470010162016A41F070410162A4
:1028100000F088F80020606000F056FA3D4801683A
:1028200041F04041016000F043FA00203EBD06D176
:1028300081F31188BFF34F8FBFF36F8FFEE77047AF
:10284000502080F31188BFF34F8FBFF36F8F2C4957
:102850004A68521C012A4A600AD12F490A681306A5
:1028600006D080F31188BFF34F8FBFF36F8FFEE761
:1028700070472349486838B9502080F31188BFF366
:102880004F8FBFF36F8FFEE7401E486008BF80F395
:102890001188704780B5502080F31188BFF34F8FA7
:1028A000BFF36F8FFFF7B4FB18B11B494FF0805097
:1028B0000860002181F3118801BD0000EFF305805D
:1028C000502110280E4A0BD3144B185C13789842F1
:1028D00006D281F31188BFF34F8FBFF36F8FFEE7EE
:1028E00090680F4A136803F4E063984206D281F3BC
:1028F0001188BFF34F8FBFF36F8FFEE77047000063
:102900000000002000ED00E071C20F4170C20F41D5
:1029100000E400E034EF00E004ED00E0F0E300E06C
:102920000CED00E0054906480A684FF47A73B2FBE3
:10293000F3F35B1E4360072101607047180000201D
:1029400010E000E000B583B000F049F9DFF8D412E0
:10295000886868B10C3102220191009200234FF483
:1029600082720FF2C8210FF25900FFF7D9F910B99E
:1029700000F0BFF8FEE70EBDFEB504461E4600207F
:1029800014B900F0B6F8FEE7A64FBD68BDB1062940
:102990000091019202940CDAFFF7B0FC0228B868AB
:1029A00007BF089A002300230022694600F007FAB7
:1029B000FEBD002332466946284600F091FAFEBD6E
:1029C00080B598490A68106800281DBF0021D068AA
:1029D0000068012100F003F800F0AEF8F1E7F0B56F
:1029E00083B006460C46FFF7B3FA01A800F044F89E
:1029F0000546019800283CD18A4F24BBB54227D315
:102A0000FFF7ACFA3868C168CC68201DFFF790FE6C
:102A1000E069012813D1A16933462A468919204665
:102A200000F06FF858B100200090002332460021DA
:102A30002046FFF7A1FF10B900F05BF8FEE7616ADE
:102A400020468847F7BD786801684C1EA441E40F12
:102A5000B8682246711B00F0E5FBFFF77FFA50B91A
:102A600071494FF080500860BFF34F8FBFF36F8FF5
:102A7000F7BDFFF773FAF7BD2DE9F04182B00446C8
:102A8000FFF7C2FA674E0546306985420BD3002036
:102A9000206035612846BDE8F68178603F61391DC8
:102AA0003068FFF72CFE31680868E8B1C868D0F8D4
:102AB0000080C768381DFFF73BFE796A38468847B3
:102AC000F8690128EFD1B86940448045E5D300207A
:102AD00000900023424600213846FFF74DFF0028B2
:102AE000E1D100F006F8FEE7706830607160012007
:102AF000CEE7502080F31188BFF34F8FBFF36F8F65
:102B0000704738B500248A4241600061454D06D3C4
:102B10008169D21A8A4206D2011D686807E09A428A
:102B200003D2994201D3012403E0011D2868FFF775
:102B3000E6FD204632BD000010B586B004E0134625
:102B400089182046FFF7DDFF364880680023002201
:102B500002A900F023FA00283FD002980028F3D4FD
:102B6000049C606910B1201DFFF7E2FD01A8FFF78A
:102B700083FF024602980928E6D8DFE800F006063F
:102B80000605232A06060523DEE70399A0690B46FE
:102B900041182046FFF7B5FF0028D5D0616A2046CE
:102BA0008847E0690128CFD100210091039AA069EC
:102BB000821800232046FFF7DFFE0028C4D1FFF76C
:102BC00098FFFEE70399A1610029B8D1FFF791FFB3
:102BD000FEE72046FFF709FDB6E706B010BD10B5C9
:102BE000FFF72EFE0F4CA068C0B904F11400FFF7E8
:102BF0006AFD04F12800FFF766FD04F1140020606F
:102C0000002204F1280060600C210A2000F0A4F8E2
:102C1000A06018B10FF21C0100F0EFFABDE81040FF
:102C2000FFF727BE902F012004ED00E0546D7220C5
:102C300053766300546D725100000000EFF3098079
:102C4000BFF36F8F244B1A681EF0100F08BF20EDE2
:102C5000108A20E9F04F106008B44FF0500080F364
:102C60001188BFF34F8FBFF36F8FFFF733FA4FF029
:102C7000000080F3118808BC19680868B0E8F04FBC
:102C80001EF0100F08BFB0EC108A80F30988BFF364
:102C90006F8F7047104B19680868B0E8F04F80F3E9
:102CA0000988BFF36F8F4FF0000080F311887047E1
:102CB0000A480068006880F3088862B661B6BFF30E
:102CC0004F8FBFF36F8F00DFDFF81400016841F40E
:102CD0007001016070470000602D012008ED00E0E8
:102CE00088ED00E038B504000D4602D100F05FF831
:102CF000FEE7FFF7A5FDE26B206C216842438818D0
:102D000060600020A0632068E26BA060521E206C0F
:102D1000216842438818E0604FF0FF3104F144001D
:102D20000170417065B9206990B100F0DEF978B1A9
:102D3000DFF8E8144FF08050086000F020F907E059
:102D400004F11000FFF7BFFC04F12400FFF7BBFC07
:102D5000FFF78FFD012032BDF8B506000D4617467E
:102D600002D100F024F8FEE7002D0EBF502005FB35
:102D700006F05030FFF7B0FB040007D000943B464C
:102D800004F150022946304600F002F82046F2BD18
:102D900038B5049D1C4601B92A462A60E8632964B7
:102DA00028460121FFF79EFF85F84C4031BD502099
:102DB00080F31188BFF34F8FBFF36F8F70472DE9FA
:102DC000F44783B006468A461F460024502516B9AC
:102DD00000F0D3F8FEE7BAF1000F01D1306C60B912
:102DE000022F02D1F06B01280AD1FFF787FAC0B990
:102DF0000398B0B100F0C1F8FEE700F0BEF8FEE7BE
:102E000000F0BBF8FEE7039906F11000FFF78BF91D
:102E100000F069F9FFF7A2F818B9C8F8009000F0BF
:102E2000AEF8FFF70DFDB06BF16BDFF8F083884271
:102E30004FF080593FD3022F3DD00398002837D060
:102E40001CB96846FFF7CDF90124FFF712FDFFF723
:102E50007FF8FFF7F5FC00F03FF904BF0022027095
:102E600090F9011011F1010F04BF00224270FFF729
:102E700000FD03A96846FFF7C4F958BBFFF7E0FC63
:102E8000B06BF16B884214BF00250125FFF7F1FC00
:102E9000002DB8D100F027F9FFF760F8C1E718B1AD
:102EA000C8F8009000F06BF8FFF7E3FC012016E093
:102EB000FFF7DFFC12E03A465146304600F019F9C0
:102EC000716A0029EBD006F12400FFF760F90028B1
:102ED000E6D1E9E700F007F9FFF740F80020F8E055
:102EE0002DE9F8430446884615461E46502724B966
:102EF00087F3118800F043F8FEE7B8F1000F01D125
:102F0000206C10BB022E02D1E06B012822D1FFF70A
:102F1000D5FCEFF3118900F037F801D3022E23D14D
:102F200094F9457032464146204600F0E2F817F128
:102F3000010F14D1606AA8B100F01BF8002818BF77
:102F4000002D0FD0012028600CE087F3118800F0DD
:102F500016F8FEE787F3118800F011F8FEE77F1CF2
:102F600084F84570012000E0002089F31188BDE855
:102F7000F28304F12400FFF70AB985F31188BFF347
:102F80004F8FBFF36F8F704787F31188BFF34F8F59
:102F9000BFF36F8FA06BE16B884270472DE9F44758
:102FA00083B0064699460024502516B9FFF7E5FF81
:102FB000FEE75FEA010801D1306C38B9FFF79EF9EE
:102FC00058B9039848B1FFF7D8FFFEE7FFF7D5FFE0
:102FD000FEE700F088F8FEF7C1FFFFF731FCB06BA9
:102FE000DFF838524FF0805720B9039858BBFFF7ED
:102FF00040FC6DE00446D6F80CA04146304600F097
:10300000ACF8B9F1000F0ED1641EB463306810B98A
:10301000FFF704FA7060306988B106F11000FFF71D
:10302000B6F848B90BE0706AC6F80CA038B106F1E2
:103030002400FFF7ACF810B12F60FFF7A0FFFFF7F7
:1030400018FC012045E01CB96846FFF7CAF80124C6
:10305000FFF70FFCFEF77CFFFFF7F2FB00F03CF8F8
:1030600004BF0022027090F9011011F1010F04BF9A
:1030700000224270FFF7FDFB03A96846FFF7C1F885
:10308000002830461BD100F0ADF80028A1D03068F0
:1030900030B9FFF7D5FB7068FFF73DF9FFF7E9FBA3
:1030A000039906F12400FFF73EF800F01CF8FEF744
:1030B00055FF002891D12F60FFF761FF8DE700F0E9
:1030C00060F8FEF74BFF304600F08CF8002884D003
:1030D000002004B0BDE8F08706F1440090F900102C
:1030E00011F1010F704730464BE004F11000FFF77B
:1030F0004EB8F8B506461546B46B326C002742B997
:10310000316831BB7068FFF745F9002107467160EF
:103110001FE065B9B068FEF7B5F8B068316C0844D7
:103120007168B060884214D33068B06011E0F06814
:10313000FEF7A8F8306CF16840420144F160326853
:10314000914202D271680844F060022D01D104B1AD
:10315000641E641CB4633846F2BD026C002A0B4640
:1031600000D1704710B5C16844681144C160A142E4
:1031700024BF0168C160C168BDE810401846FEF771
:1031800081B870B582B00446FFF75AFB04F14405DC
:1031900095F9016076B2012E11DB606A78B1FFF714
:1031A000E8FE08B1FFF75DF8761EF3E7206990B1FD
:1031B000FFF79BFF08B1FFF754F8761E08E04FF0C9
:1031C000FF306870FFF755FBFFF73AFB95F9006099
:1031D00076B2012EEADA4FF0FF302870BDE8734076
:1031E000FFF747BB10B50446FFF72AFBA06B441E50
:1031F000A441FFF73EFBE00F10BD10B50023084CC3
:1032000054F833201AB15B1C082BF9D310BD44F8D5
:10321000331004EBC301486010BD000004ED00E072
:10322000502E0120F8B504460D461646FFF708FB60
:1032300004F1380797F90C0010F1010F04BF0021C9
:10324000397397F90D0010F1010F04BF0021797354
:10325000FFF70FFB386828B93246294604F12400ED
:10326000FEF777FF2046BDE8F2408AE738B5040054
:1032700001D1012032BD00F022F808B900F023F896
:1032800000F013F800F024F8FFE7416100F001F8C6
:1032900032BD2068C16841F40051C16000206860FF
:1032A00020206870A8700020704724206870206873
:1032B000C16821F40051C160204600F0FCB904F15E
:1032C00038056878704700212970204600F099BAC7
:1032D0002068016921F4904101612068416921F071
:1032E0002A0170472DE9F843044604F138070D46DA
:1032F00078782028164698463DD1002D14BF002E20
:10330000012039D03878012835D0012139702120A9
:1033100000217960787000F047FB8146A684E6843E
:103320000020387003E0216815F8010B4860E08C3C
:1033300020B3E18C481EE0844B46A068CDF80080A5
:10334000B0F5805F0DD100F023F870B928882168AE
:10335000C0F3080048602069002814BF6D1CAD1C34
:10336000E5E700F015F80028DDD0032004E0202078
:103370007870002000E00220BDE8F283CDF80080E4
:103380004B460022402100F005F80028EFD0ECE782
:10339000002280212046FDE030B500F138035C7842
:1033A000202C17D109B1140001D1012030BD1C78A7
:1033B000012C0FD001251D7001628284C28400217E
:1033C000596021215970002119700068C16841F0CD
:1033D00080012BE0022030BD30B500F138039C782D
:1033E000202C21D109B1140001D1012030BD1C785D
:1033F000012C19D001251D7081628285C2850021B2
:10340000596022219970002119700168CA6842F43C
:103410008072CA6001684A6942F001024A6100682C
:10342000C16841F0200101E0022030BDC1600020F0
:1034300030BD416921F040014161606B704738B592
:10344000044625682968EA686B6911F00F0007D106
:1034500088065FD590065DD52046BDE83240DFE0A6
:10346000D80702D412F4907F54D0C80705D5D005F0
:1034700003D5E06B40F00100E063480705D5D807AD
:1034800003D5E06B40F00200E063880705D5D8075C
:1034900003D5E06B40F00400E063080707D5900611
:1034A00001D4D80703D5E06B40F00800E063E06B7F
:1034B00000286ED0890604D5900644BF204600F04F
:1034C000AFF820684069E16B0A0701D440061BD5BC
:1034D000204600F091F8206841694A060FD5FFF7B1
:1034E000A8FF60B10FF22D110165606B00F062FA68
:1034F00000284ED0606B016DBDE83440084720467F
:10350000BDE8324000F068BA204600F065FA0020BD
:10351000E06331BD08062CD510062AD594F8390091
:10352000212836D1A168206AB1F5805F0DD10188CC
:10353000C1F308016960206918B9216A881C2062FA
:1035400007E0206A411C216203E0411C21620078EF
:103550006860E08C401EE08480B2D0B92068C16809
:1035600021F08001C1602068C16841F04001C16064
:1035700031BD48060DD550060BD5E86820F0400057
:10358000E860202184F839102046BDE8324000F080
:1035900024BA31BD2DE9F041069C05460E46904601
:1035A0001F46286801683140B1420CBF012000204D
:1035B000404517D114F1010FF3D024B100F0F4F914
:1035C000C01B8442EDD22868C16821F4D07100F09C
:1035D0000CF805F138002021417081700021017044
:1035E000032000E00020BDE8F081C1602868416947
:1035F00049084900416170470168CA6822F4907225
:10360000CA6001684A69520852004A61202180F864
:103610003A107047806B0021C185C18400F0DCB98D
:1036200080B590F83A10222943D18268B2F5805FC4
:1036300014D1826A016941B903685968C1F308016C
:103640001180826A911C816218E001684B6803F066
:10365000FF031380816A4A1C82620FE0016900291E
:10366000816A04D14A1C82620268536805E04A1CE0
:1036700082620268536803F07F030B70C18D491E9C
:10368000C18589B299B90168CA6822F02002CA606E
:103690000168CA6822F48072CA6001684A695208E7
:1036A00052004A61202180F83A1000F097F900207A
:1036B00002BD022002BDD0B50646642731680A6902
:1036C000F06822F4405202430A611924CA682D4866
:1036D0000240B06802433069024370690243F069F6
:1036E0000243CA604A69B06922F4407202434A61E7
:1036F000F3692548254AB3F5004F1FD1914218BF01
:10370000814202D100F034FB01E000F029FB0246C7
:10371000A4FB02017268D30F5200FDF707FE00F010
:1037200037F8FF0032376420B7FBF0F0420002F4B4
:10373000F87202EB011200F007001DE0914218BF81
:10374000814202D100F014FB01E000F009FB0246C7
:10375000A4FB02017268930F9200FDF7E7FD00F0F1
:1037600017F83F0132376420B7FBF0F000F0F002A9
:1037700002EB011200F00F00316880188860D0BDA4
:1037800000000000F369FFFF001401400010014039
:103790006421B0FBF1F107FB1107704780B5774852
:1037A000774900F017F800B108E001BD80B5754811
:1037B000754900F00FF800B100E001BDBDE801401F
:1037C00000F020BA80B57148714900F003F800B1EB
:1037D000F4E701BD01604FF41651416000218160A2
:1037E000C16001610C21416100218161C161FFF76C
:1037F0003DBD80B567486849FFF7ECFF00B1DDE7E4
:1038000001BD10B586B004466846142100F0F4FAF4
:1038100022685B4B614862499A4228D10022059296
:103820000B6943F400230B6100230A6902F40022B0
:103830000592059A059303220C6844F001040C607C
:103840000223096801F00101059105990092012107
:1038500002910193082104910392694600F0D0FA85
:1038600000220521342000F0EDFB342062E0464BBD
:103870009A4217D1002205924B6943F010034B6125
:1038800000234A6902F010020592059A05934FF44D
:10389000C06200F053F800220521252000F0D2FB81
:1038A000252047E03A4B9A4216D1002205920B6937
:1038B00043F400330B6100230A6902F400320592DD
:1038C000059A05930C2200F039F8002205212620E4
:1038D00000F0B8FB26202DE02F4882422CD100209A
:1038E00005900A6942F480220A610022086900F406
:1038F000802005900598059202220B6843F0020390
:103900000B60086800F0020005904FF440610598D4
:10391000009101200290032107200391049001925D
:103920006946204800F06CFA00220521272000F0AB
:1039300089FB272000F0A3FB06B010BD0C6844F003
:1039400001040C600223096801F001010591059949
:103950000092012102910322072104910193039215
:10396000694600F04DBA01B54FF6FF730122694672
:103970000248FFF7B7FC009802BD0000902E01201E
:10398000004C0040D02E012000100140102F0120DB
:1039900000440040502F0120004800400000024039
:1039A000303802400004024001484068704700BFC0
:1039B0000C00002090F83510022903D080224265C7
:1039C00001207047052180F835100068016849081A
:1039D00049000160002070477047704738B50446C1
:1039E0007C4920687C4D884203D100F02DF800F01E
:1039F00026F82068794988420BD1142205F1140178
:103A00002046FFF7C9FC142205F114012046FFF7F8
:103A1000E3FC20687249884203D100F015F800F0F9
:103A20000EF820686F49884208D100F00DF8294649
:103A30002046BDE838401422FFF7CEBC31BD142229
:103A400029462046FFF7C8BC142229462046FFF726
:103A5000A3BC1CB500F042FB00F076F800F058FB68
:103A6000FFF7A4FEFFF7AEFEFFF7C3FEFFF796FEDB
:103A7000594C5D4814222146FFF7AEFC142204F194
:103A800014015A48FFF7A8FC142221465848FFF7B2
:103A9000A3FC142221465748FFF79EFC0020032177
:103AA00001900091002380220FF25C110FF225009B
:103AB000FEF736F9002002210190009100238022B8
:103AC0000FF250110FF24500FEF72AF9FEF711FA36
:103AD000002016BD38B50FF24814474D0022402192
:103AE000284600F076FA4FF4FA70FEF7E0F901226A
:103AF0004021284600F06DFA4FF4FA70FEF7D7F92E
:103B00000121204600F066FBE8E7000038B5002000
:103B1000ADF800000FF234140FF2181569460DF1DC
:103B2000010000F0D6FB18B1204600F053FB06E080
:103B30009DF800209DF80110284600F04BFB4FF443
:103B40007A70FEF7B4F9E9E700B593B006A8302122
:103B500000F052F901A8142100F04EF90020009065
:103B60002648016841F0805101600021006800F0A2
:103B7000805000900098224800910221026842F48F
:103B8000804202600122006800F4804000900098AA
:103B9000069110200A900C9100200D9008214820D9
:103BA0000F900E910420022111900992109106A805
:103BB00000F0B8FB0F2002210190029100204FF489
:103BC0008051039004910590022101A800F042F871
:103BD00013B000BD00100140CC2F01200044004074
:103BE00000480040004C0040D02E0120102F012042
:103BF000502F0120902E012000000240403802404A
:103C000000700040704700005461736B305F546176
:103C1000736B00005461736B315F5461736B000010
:103C2000736D6F6B655F76616C7565203D202564F3
:103C30000A00000074656D70203D2025640A20682C
:103C4000756D69203D2025640A0000006A6A6A6A71
:103C5000200A00002DE9F04104000F4678D0494EBB
:103C6000306800F00F00B84202D200F073F86FD154
:103C70002068454D810712D5400703D5A86840F458
:103C8000E050A8602178080703D5A86840F4604098
:103C9000A860A968A06821F0F0010143A96020781C
:103CA000C1074DD56068012802D129688A0305E063
:103CB000022818BF032803D129688A0103D447E0EA
:103CC0002A68910744D5A968890840EA8100A8605C
:103CD000FFF76AFE8046A868616800F00C00B0EB50
:103CE000810F2DD0FFF760FEA0EB080041F2893272
:103CF0009042F0D3032021E02078410705D5A96840
:103D0000E06821F4E0510143A9602078010706D55D
:103D1000A868216920F4604040EAC100A86000F072
:103D20003FF8AA681949C2F30312895C184AC840CF
:103D300010601848006800F083FC0020BDE8F081A6
:103D4000306800F00F008742D6D200F003F8D3D0DD
:103D50000120F3E73770316801F00F01B942704775
:103D60000B480D4A006813680C49C3F3822206E031
:103D70000748094A006813680849C3F34232895C5E
:103D8000C8407047003C0240003802402448000808
:103D90001800002014000020083802400C490008D8
:103DA00018B5124C606800F00C00042802D00828F6
:103DB00002D019E00E4812BD00232268206841029B
:103DC0002068C0F388104CBF09490A4902F03F023D
:103DD000A1FB0001FDF7AAFA2168C1F30141491CCA
:103DE0004900B0FBF1F012BD024812BD0438024098
:103DF00040787D010024F4000022FEF74BBC000057
:103E00002DE9F84F04460D464FF0000874487549F7
:103E1000754A0F2301262F6806FA08F606EA0709F5
:103E2000B14540F0C8804FEA480C032707FA0CF769
:103E30006FEA070E6F68012F18BF022F03D0112FF2
:103E400018BF122F13D1A768D5F80CA00EEA0707E8
:103E50000AFA0CFA4AEA0707A760676827EA060623
:103E60006F68C7F3001707FA08F73E436660E66815
:103E7000AF680EEA060607FA0CF73E43E6604FEA23
:103E800088066F68022F18BF122F19D14FEAD80782
:103E900004EB870706F01C0BD7F820A003FA0BFBF6
:103EA0002AEA0B0ACDF800A006F01C0AD5F810B0DB
:103EB0000BFA0AFADDF800B04AEA0B0AC7F820A0AC
:103EC00027680EEA070E2F7907F0030707FA0CF7A9
:103ED00047EA0E0727606F68FF006CD50027009740
:103EE0004FEA980C176847F48047176006F00C06F5
:103EF000176807F480470097009F51F82CE003FAF9
:103F000006F72EEA070E394FBC4208BF002722D021
:103F1000374FBC4208BF01271DD0364FBC4208BFF7
:103F2000022718D0344FBC4208BF032713D0334FA9
:103F3000BC4208BF04270ED0314FBC4208BF052742
:103F400009D0304FBC4208BF062704D02E4FBC42D8
:103F50000CBF0727082707FA06F646EA0E0641F8BF
:103F60002C606FEA090C06680CEA060E6E68F7030F
:103F700048BF49EA0E0EC0F800E046680CEA060E9B
:103F80006E68B70348BF49EA0E0EC0F804E08668C1
:103F90000CEA060E6E68F70248BF49EA0E0EC0F83A
:103FA00008E0C6680CEA060E6E68B60248BF49EA29
:103FB0000E0EC0F80CE008F10108B8F10F0F7FF603
:103FC00029AFBDE8F18F0069084018BF0120C0B2D9
:103FD000704781B002B90904FFE7816101B0704701
:103FE000003C0140083801404438024000000240D3
:103FF0000004024000080240000C02400010024091
:104000000014024000180240001C02400901020096
:1040100081B002D42948815405E0294802F00F02FA
:10402000104400F8041C01B07047264A13684FF68C
:10403000FF0100020B4000F4E060184322490843EE
:104040001060704738B51F4B1C68C4F30223C3F1DE
:104050000704052C28BF04241D1D072D34BF002391
:10406000DB1E012505FA04F4641E2140994005FA7F
:1040700003F35B1E1A401143BDE83440C6E7002835
:1040800007D4012200F01F01104B8A40400943F879
:104090002020704710B5401EB0F1807F01D3012071
:1040A00010BD0B4C60600F214FF0FF30FFF7AEFFEB
:1040B0000022A26007202060002010BD00E400E084
:1040C00018ED00E00CED00E00000FA0500E100E072
:1040D00010E000E000F000B87047000080B50B4829
:1040E000016841F400710160026842F4806202607C
:1040F000016841F4807101600320FFF796FF002002
:1041000000F09EFA00F0BCFA002002BD003C024024
:1041100010B586B001A800F043F800242A480094A6
:1041200001682A4C41F010010160026802F010029F
:104130000092002200990092036843F0800303601C
:10414000016801F08001009100990092D02103687C
:1041500043F001030360006800F001000090009844
:104160002046FFF736FF18200021019002910391AD
:1041700001A91748FFF744FEC0200190012100204B
:1041800002910390049001A9204619E010B586B071
:1041900000F005F800200190029010240DE0684620
:1041A0001421FFF729BE10B586B0FFF7F8FF0120F4
:1041B0000190029010240020039000946946034867
:1041C000FFF71EFE06B010BD30380240000002406E
:1041D000001002400EB4C0B5024603A800210190B1
:1041E000009101AB0121044878440C30FBF7CCFF6F
:1041F00006BC5DF810FB00BFD70600000128484B45
:104200000CBF0122002210211846FFF7E2BE102148
:104210004348FFF7D8BE80B5FFF7C5FF0020FFF782
:10422000EDFF142000F06EFA0120FFF7E7FFBDE874
:1042300002401E2000F040BA10B582B0FFF7A6FF82
:104240000024FFF7E4FFE4B290B1642C10DA00F030
:1042500032F8641CF5E70024FFF7D9FFE4B258B93F
:10426000642C09DA00F027F8641CF5E7002016BD7D
:10427000642CF0DB012016BD642CF7DBFAE710B5E7
:104280006424FFF7C4FF48B144B100F014F8641E81
:10429000F7E744B100F00FF8641E00E06424FFF774
:1042A000B6FF0028F5D0282000F006FAFFF7AFFF90
:1042B00000B1012010BD012000F0FEB938B5002585
:1042C0000824FFF7DCFF641E40EA4505F9D1E8B297
:1042D00032BDBCB504460D46FFF79DFFFFF7ACFFAE
:1042E000E0B90027FFF7EAFF0DF807007F1C042F55
:1042F000F8DD9DF800109DF801209DF8020051188E
:104300009DF80320091889189DF80420914203D1D3
:104310009DF80010297020700020B6BD0120B6BDA8
:10432000000002402DE9F843040016D02078DFF8A1
:104330000063C10713D5B06800F00C00042807D053
:10434000B06800F00C0008283ED1706841023BD5EF
:104350003168880303D56068002800F0FB8021786D
:10436000B44F880719D5B06810F00C0F07D0B068AB
:1043700000F00C00082858D17068410255D431680B
:10438000880703D5E068012840F0E480316820699F
:1043900021F0F80141EAC00131602178080768D5B1
:1043A0006069A54900285ED001220A60FFF7FCFA87
:1043B0000546706F810700F1CF80FFF7F5FA401BCB
:1043C0000228F6D9032031E16068B0F5803F06D0BD
:1043D000B0F5A02F316807D141F4802131603068F9
:1043E00040F48030306006E021F480313160326882
:1043F00022F480223260606858B1FFF7D5FA054692
:1044000031688803ABD4FFF7CFFA401B6528F7D398
:10441000D8E7FFF7C9FA0546306881039FD5FFF753
:10442000C3FA401B6528F7D3CCE7E06870B10121DF
:104430003960FFF7B9FA05463068810700F1B880A6
:10444000FFF7B2FA401B0228F6D9BBE73860FFF746
:10445000ABFA0546306881079FD5FFF7A5FA401BE8
:104460000228F7D9AEE70860FFF79EFA0546706F9D
:10447000810771D5FFF798FA401B0228F7D9A1E709
:104480000528306F06D140F004003067306F40F0EF
:10449000010005E0400840003067306F20F0040064
:1044A000306741F28938A06868B1FFF77DFA81462C
:1044B000306F810700F18980FFF776FAA0EB0900E1
:1044C0004045F5D37EE7FFF76FFA8146306F8107ED
:1044D0007BD5FFF769FAA0EB09004045F6D371E7F9
:1044E000FFF762FA401B022840F282806AE7FFF77A
:1044F0005BFA001B022840F2948063E700203866D4
:10450000FFF752FA04463068810140F18E80FFF7D0
:104510004BFA001B0228F6D954E701281AD0B068DC
:10452000E26900F48001914202BF00F03F01226A7B
:1045300091420FD147F6C071626A0140914202BFB9
:1045400000F44031A26A914202BF00F07060E16A5B
:1045500088426AD0012069E0207841073AD5306C62
:104560000025C1000AD400950125306C40F0805030
:104570003064306C00F0805000900098DFF8BC8010
:10458000D8F80010C8051BD4D8F8000040F480709B
:10459000C8F80000FFF708FA8146D8F80010C805EF
:1045A0000ED4FFF701FAA0EB09000228F5D909E7BC
:1045B0003068216920F0F80040EAC1003060ECE684
:1045C000A06801287FF45CAF60E71DB1306C20F07B
:1045D00080503064A06940B3B16801F00C01082933
:1045E0009BD002288AD100203866FFF7DDF9054606
:1045F000306881013FF574AFE169206AA26A014326
:10460000606A921ED20341EA8011120CE06A41EA0C
:10461000024141EA0061716001213966FFF7C4F986
:104620000446306881017FF562AF0020BDE8F28367
:104630000038024000004742800E474200700040B0
:1046400038B50D4D0D4A297804464FF47A70B0FB09
:10465000F1F11068B0FBF1F0FFF71CFD50B9102C20
:1046600008D2002221464FF0FF30FFF7EBFCAC6090
:10467000002032BD012032BD0C00002018000020B7
:1046800081B00020009000220A48416841F4804136
:104690004160416801F480410091009900920368F3
:1046A00043F080530360006800F080500090009851
:1046B00001B070474038024030B5104A002807E08A
:1046C0000F49CB1811688C42FCDA8B42FADB401B95
:1046D00012D040F2853188422CBF4FF461750546F7
:1046E0001468482303FB1543002BE9D41168A14249
:1046F000EDDA9942FADAEAE730BD000018E000E0AE
:104700004019010000F000B838B50446FFF74CF935
:1047100014F1010F054602D0044801786418FFF730
:1047200043F9401BA042FAD331BD00BF0C0000206A
:104730000548FEF784BE0548FEF781BE0448FEF733
:104740007EBE0448FEF77BBED02E0120102F012034
:10475000502F0120902E01207047FEE7FEE7FEE774
:10476000FEE7704780B5FDF7C9FD012818BFFEF7C9
:1047700091F800F005F8BDE80140FFF7ABBC000080
:104780000248416802788918416070470C00002097
:1047900019E050F8042BD30744BFA9F101039A187C
:1047A000091F0023042942F8043BF9D25FEA817C07
:1047B000134604D54FF0000CA2F800C09B1CC9079B
:1047C00044BF0021197050F8041B0029E1D1704743
:1047D00030B5016884684218416802EB5103C9078B
:1047E0000BD54C4409E012F9011B12F8015B0029BA
:1047F00004F8015B05D5491CF9D19A42F3D10C307C
:1048000030BD491EF1D5F8E70448054A016841F476
:10481000700101604FF000601060704788ED00E0AB
:1048200008ED00E0000000000000000001020304A9
:104830000607080910B5074979441831064C7C442D
:10484000163404E00A68081D114488470146A14255
:10485000F8D110BD2C000000480000004EF6885131
:10486000CEF20001086840F470000860BFF34F8F7B
:10487000BFF36F8F4FF00070E1EE100A7047000039
:1048800011FFFFFF142F0100E400002000000000D2
:1048900041FFFFFFBA0100000E01000000000020F0
:1048A00000F00BF8002801D0FFF7C4FF0020AFF3A1
:1048B0000080FFF7CEF800F002F80120704700F00A
:1048C00001B8000007463846FDF720FAFBE738B587
:1048D00004460D46284600F005F8A84218BF0024FB
:1048E000204632BD0149FFF73EB800BF9C000020C2
:1048F000014880470148004709480008014900086D
:10490000AFF30080FFF7AAFFFFF7CAFF0000000027
:104910000102030400002E004300FFF7FEBFFFF773
:10492000FEBFFFF7FEBFFFF7FEBFFFF7FEBFFFF7BB
:10493000FEBFFFF7FEBFFFF7FEBFFFF7FEBFFFF7AB
:10494000FEBFFFF7FEBFFFF7FEBFFFF7FEBFFFF79B
:10495000FEBFFFF7FEBFFFF7FEBFFFF7FEBFFFF78B
:10496000FEBFFFF7FEBFFFF7FEBFFFF7FEBFFFF77B
:10497000FEBFFFF7FEBFFFF7FEBFFFF7FEBFFFF76B
:10498000FEBFFFF7FEBFFFF7FEBFFFF7FEBFFFF75B
:10499000FEBFFFF7FEBFFFF7FEBFFFF7FEBFFFF74B
:1049A000FEBFFFF7FEBFFFF7FEBFFFF7FEBFFFF73B
:1049B000FEBFFFF7FEBFFFF7FEBFFFF7FEBFFFF72B
:1049C000FEBFFFF7FEBFFFF7FEBFFFF7FEBFFFF71B
:1049D000FEBFFFF7FEBFFFF7FEBFFFF7FEBFFFF70B
:1049E000FEBFFFF7FEBFFFF7FEBFFFF7FEBFFFF7FB
:1049F000FEBFFFF7FEBFFFF7FEBFFFF7FEBFFFF7EB
:104A0000FEBFFFF7FEBFFFF7FEBFFFF7FEBFFFF7DA
:104A1000FEBFFFF7FEBFFFF7FEBFFFF7FEBFFFF7CA
:104A2000FEBFFFF7FEBFFFF7FEBFFFF7FEBFFFF7BA
:104A3000FEBFFFF7FEBFFFF7FEBFFFF7FEBFFFF7AA
:104A4000FEBFFFF7FEBFFFF7FEBFFFF7FEBFFC0094
:104A5000FCAAFC000001F9000010FC001E24F40078
:104A600014490008144900081449000814490008B2
:104A7000144900081449000814490008F8FF0B16EF
:104A80004900081449000814490008FAFF0600000C
:104A90001849000801FD00031C000020D800030D88
:104AA000110008FC0004FB10000801F900130204C7
:104AB0000101002E0120502E0120002E0120002E89
:104AC0000120FB00022E0120FC0007E0000020CCAA
:054AD000000020E000E1
:0400000508004901A5
:00000001FF
