:020000040800F2
:10000000B8310120112400083123000833230008EF
:1000100035230008372300083923000800000000BA
:10002000000000000000000000000000FD100008BB
:100030003B23000800000000A51000083D23000835
:100040002D24000831240008352400083924000834
:100050003D240008412400084524000849240008E4
:100060004D24000851240008552400085924000894
:100070005D24000861240008652400086924000844
:100080006D240008712400087524000879240008F4
:100090007D240008812400088524000889240008A4
:1000A0008D24000891240008952400089924000854
:1000B0009D240008A1240008A5240008A924000804
:1000C000AD240008B1240008B5240008B9240008B4
:1000D000BD240008C1240008C5240008C924000864
:1000E000CD240008D1240008D5240008D924000814
:1000F000DD240008E1240008E5240008E9240008C4
:10010000ED240008F1240008F5240008F924000873
:10011000FD24000801250008052500080925000820
:100120000D250008112500081525000819250008CF
:100130001D2500082125000825250008292500087F
:100140002D2500083125000835250008392500082F
:100150003D250008412500084525000849250008DF
:100160004D2500085125000855250008592500088F
:100170005D250008612500086525000800000000D5
:10018000692500086D2500082DE9F043064617464D
:1001900085B088469946B80000F0D2FB05001AD019
:1001A000582000F0CDFB040012D00D990C98256367
:1001B000002203920191009002944B463A46414638
:1001C000304600F00DF8204600F050F8012004E021
:1001D000284600F03EFC4FF0FF3005B0BDE8F0834C
:1001E0002DE9F0470A9D81460C461746286B984634
:1001F000A522B90000F07EFC286B00EB87010F1FE1
:10020000FF08FF000021605C6A1882F83400605C1F
:1002100010B1491C0A29F6D3089E002085F83D003C
:10022000042E099C88BF042605F1480AEE62CAF82C
:100230000400CAF80060281D00F086FC05F11800D3
:1002400000F082FC2D61C6F10506AE616D620020F2
:10025000CAF808008AF80C0042464946384600F0C1
:10026000ADFC286004B12560BDE8F0872DE9F843B6
:1002700000F068F8DFF88055DFF80466286F401C4E
:1002800028674FF01408686E28BB6C66286F012839
:1002900029D1002708FB07F0284400F048FC7F1C08
:1002A000052FF7D305F18007384600F040FC05F133
:1002B0009409484600F03BFC304600F038FC06F15B
:1002C000140000F034FC06F12C0000F030FCAF66A6
:1002D000C5F86C9007E0706C28B9E16A686EC26A74
:1002E000914228BF6C66306D401C3065206401224D
:1002F000E06A696F82401143696708FB00F2211DC3
:10030000A81800F024FC00F0E8FC706C08B100F0C4
:10031000C3FABDE8F18380B588B1DFF8DC24D16F82
:1003200021B100F012F800F043F9FEE7D16F491C4B
:10033000D167002100F0C3FA00F044F808B900F0DA
:1003400032F901BD044600F0AFBC502080F31188A3
:100350007047211D14204243704730B583B0DFF849
:10036000D0450FF2D45104F15800019000250095BA
:10037000002382220FF25D30FFF706FF012808BF3D
:1003800000F014FD502101280ED181F3118800F0F6
:100390000FF94FF0FF306065012060642564BDE80F
:1003A000374000F033BC37BD10F1010FFBD181F3B2
:1003B000118800F0FDF8FEE7DFF87805C16F491CF1
:1003C000C1677047F8B5DFF83064F06F002400258E
:1003D00028B9502181F3118800F0EAF8FEE700F017
:1003E00063FCF06F401EF067F16F002938D1306F69
:1003F000DFF88C74002819D132E0F968CC6800F07D
:1004000033F800F094F9E06A716F012282401143E1
:10041000716714225043211D304400F098FBE06ABC
:10042000716ECA6A904224BF0120B0673868002804
:10043000E3D10CB100F088F9BC6C3CB100F01CF8C1
:1004400008B10120B067641EF8D1BD64B06F38B147
:10045000DFF8D8044FF080510125016000F0A8F8C2
:1004600000F03BFC2846F2BD04F1180000F094BBFC
:10047000DFF8BC04006C70472DE9F843DFF87843DF
:10048000DFF8FC73E06F002500284ED1386C10F1C6
:100490000108C7F8408011D1A16E086828B1502228
:1004A00082F3118800F084F8FEE7A06EE16EA16689
:1004B000E066F86C401CF86400F046F9786D804501
:1004C0004FF0140925D31AE0301D00F065FBB06A27
:1004D00018B106F1180000F05FFBF06A616F0122AD
:1004E00082401143616709FB00F0311D201800F0C4
:1004F0002EFBF06A616ECA6A904228BF0125A16E88
:10050000086878B1A16EC868C66870688045DBD29B
:100510007865606EC16A09FB01F02158022907D392
:10052000012505E04FF0FF30F2E7B86C401CB864DD
:10053000A06F00B101252846BDE8F283DFF8F4136F
:1005400081B0C86F10B101228A671EE08867486FCA
:10055000B0FA80F2C2F11F0214204243885838B921
:10056000502181F31188BFF34F8FBFF36F8FFEE7E8
:10057000881800F108034268526842609A4204BF3A
:10058000526842604068C2684A6601B0704710B560
:100590000C4600F021F800F0E6FA2046BDE81040D5
:1005A000FFE701218BE1DFF884134FF080500860F2
:1005B000BFF34F8FBFF36F8F704738B50D461446AA
:1005C00000F00AF800F0C3FA0CB14FF0FF352146F5
:1005D0002846BDE8344072E138B9502080F31188D4
:1005E000BFF34F8FBFF36F8FFEE7DFF84823536EE3
:1005F00003F11801704738B5C068C46824B9FFF723
:10060000A4FEFFF7D5FFFEE7FFF72EFFDFF8245328
:10061000E86F58B900F08BF8E26A686F01219140E9
:1006200008436867FFF795FEA81801E000F043F95A
:1006300000F08DFA686EC16AE06A814200D201E082
:10064000002032BD0120A86732BD38B9502080F3A8
:100650001188BFF34F8FBFF36F8FFEE7DFF8D01223
:10066000CA6C0260096C4160704770B504460D4663
:10067000502024B980F31188FFF79AFFFEE725B9CF
:1006800080F31188FFF794FFFEE700F00DFBDFF821
:10069000A002016C2A6812F1010F0FD06368C06CD0
:1006A0002668B04201D099420AD2C81A904207D2B5
:1006B000511A591829602046FFF7C7FF002400E0AF
:1006C000012400F00AFB204670BDDFF8681201200B
:1006D0008867704770B5484D694E1AE0E86F401C56
:1006E000E8677069441EA441FFF76CFEE40F84B90B
:1006F00000F0DAFA306AC46800F019F8286F401E7A
:100700002867B06A401EB06200F0E7FA204600F0A9
:1007100011F8B06A0028E1D129680129F9D9DFF878
:100720000C224FF080501060FFF742FFF1E7201DD0
:1007300000F032BA10B50446206B00F08AF920466A
:10074000BDE8104000F085B92B4A4D49936E1868FA
:1007500010B94FF0FF3203E0906EC268D068426873
:100760004A6570474649486C08B901207047DFF870
:10077000C411C86F08B90220704700207047F8B54F
:10078000040036D0DFF8AC51E06A696ECA6A904264
:100790002FD2A069002804D4686EC16AC1F1050196
:1007A000A1611426E16A60697143294488421DD120
:1007B000FFF7BDFF0127002801BFE06A70432858FA
:1007C000002805D1696FE06A07FA00F08143696784
:1007D000686EC06AE0628740696F0F436F67464387
:1007E000211DA819BDE8F44000F0B1B9686EC16AD6
:1007F000E162F1BD00000000342C0120F8B5044690
:100800000021002C39D0DFF82C51686E5022844230
:1008100004D082F31188FFF7CBFEFEE7E06C20B92D
:1008200082F31188FFF7C4FEFEE7E26AA36C401E64
:100830009A42E06421D000BBFFF779FF012614271C
:10084000002801BFE06A78432858002805D1696F65
:10085000E06A06FA00F081436967A06CE062C0F1CB
:100860000500A061E06A696F86400E4347436E67EA
:10087000211DE81900F06BF901210846F2BD0000C6
:10088000DC2C0120DFF8AC10486E18B1486EC26C49
:10089000521CC264486E7047696EC86AE16A884239
:1008A00007D222494FF080500860BFF34F8FBFF34B
:1008B0006F8F7047000004F118011D4870472DE943
:1008C000F0411B4F1B4DD7F840800C46696E064621
:1008D000081D00F061F930B9686E696FC06A0122C5
:1008E00082409143696716F1010F08D13CB1686EEF
:1008F000011D07F12C00BDE8F04100F028B9686E39
:10090000464446604645686E05D2011DE86EBDE866
:10091000F04100F028B9011DA86E00F024F9786DAF
:10092000864238BF7E65BDE8F081000004ED00E03E
:10093000DC2C0120342C012049444C4500000000EF
:100940002DE9F8430446FFF737FD694FB8684FF0CB
:100950000008002508BB07F1180307F1180113F080
:10096000070F4FF496300A4605D0CA1DD208D200B0
:10097000C2F596300818801808383A60C0087D60C3
:10098000C000B86045600560811A51601060506811
:100990003861F8604FF0004078614FF05009786995
:1009A000044233D194B3083414F0070F1FBF04F18D
:1009B000080004F00704041B14F0070F02D000F035
:1009C00041F8FEE714B3F868A0421FD33E683946E9
:1009D0007068A04223D2306800281CBF314606460A
:1009E000F6D11CE0301D02517460084600F05BF83F
:1009F0007168F868401AF8603A69904238BF386107
:100A0000786901437160356008F00705FFF7DAFC8B
:100A100015B100F017F8FEE74046BDE8F283B8686C
:100A20008642F3D0326808680A6000F108087268EC
:100A3000121B112ADCD3311911F00700D2D000F0BB
:100A400001F8FEE789F31188BFF34F8FBFF36F8F73
:100A50007047002800D1704738B5A0F10804244D34
:100A600061686A695023114202D100F015F8FEE76F
:100A7000206810B100F010F8FEE791436160FFF7C5
:100A80009BFCE96860684118E960204600F00BF8BB
:100A9000BDE83140FFF796BC83F31188BFF34F8F59
:100AA000BFF36F8F704730B511490A4600E01A4610
:100AB00013688342FBD35368D418844203D140683F
:100AC000C3185360104643681468C518A54208D17E
:100AD00089688C4204D06168CB184360246800E0C8
:100AE0000C460460824218BF106030BD0000000058
:100AF0001C00002062F30F2262F31F4200B500BF0A
:100B0000130096469446103928BFA0E80C50FAD836
:100B10005FEA417C28BF0CC048BF40F8042BC907DE
:100B200028BF20F8022B48BF00F8012B00BD00F1C0
:100B3000080141604FF0FF31816000F10801C160A0
:100B40000161002101607047002101617047426826
:100B50004A6093688B60936859609160086101688E
:100B6000491C0160704730B50A6812F1010F08BFD7
:100B7000036907D000F1080300E023465C6825689C
:100B8000AA42FAD25A684A6091608B605960086143
:100B90000168491C016030BD4368016982689A6040
:100BA000836842685A604A68824204BF82684A6029
:100BB000002202610868401E086070474908490029
:100BC00010B5A0F120034FF080749961DC611A60C8
:100BD0000FF2110159616FF0020140F8241D203815
:100BE00010BD000060494A68502012F1010F06D084
:100BF00080F31188BFF34F8FBFF36F8FFEE780F351
:100C00001188BFF34F8FBFF36F8FFEE730B55748A2
:100C1000574B83B0026850219A4200F03CF80368B9
:100C2000544CA34200F037F853494F4C0A780192D4
:100C3000FF230B700B788DF800309DF8002002F038
:100C400050022270072205E09DF800305B00521E22
:100C50008DF800309DF800301D06F5D4120202F424
:100C6000E062A260019A0A70016A41F470010162B7
:100C7000016A41F07041016200F088F80020606074
:100C800000F056FA3D48016841F04041016000F033
:100C900043FA00203EBD06D181F31188BFF34F8F88
:100CA000BFF36F8FFEE77047502080F31188BFF3CA
:100CB0004F8FBFF36F8F2C494A68521C012A4A603C
:100CC0000AD12F490A68130606D080F31188BFF3B2
:100CD0004F8FBFF36F8FFEE770472349486838B9DD
:100CE000502080F31188BFF34F8FBFF36F8FFEE763
:100CF000401E486008BF80F31188704780B55020BF
:100D000080F31188BFF34F8FBFF36F8FFFF7B4FBF2
:100D100018B11B494FF080500860002181F3118801
:100D200001BD0000EFF30580502110280E4A0BD3BF
:100D3000144B185C1378984206D281F31188BFF3E4
:100D40004F8FBFF36F8FFEE790680F4A136803F46D
:100D5000E063984206D281F31188BFF34F8FBFF34F
:100D60006F8FFEE7704700000000002000ED00E0FC
:100D700071C20F4170C20F4100E400E034EF00E0A7
:100D800004ED00E0F0E300E00CED00E0054906486A
:100D90000A684FF47A73B2FBF3F35B1E43600721DA
:100DA000016070471800002010E000E000B583B03B
:100DB00000F049F9DFF8D412886868B10C310222DA
:100DC0000191009200234FF482720FF2C8210FF2BA
:100DD0005900FFF7D9F910B900F0BFF8FEE70EBDD2
:100DE000FEB504461E46002014B900F0B6F8FEE732
:100DF000A64FBD68BDB106290091019202940CDA9C
:100E0000FFF7B0FC0228B86807BF089A0023002348
:100E10000022694600F007FAFEBD0023324669460B
:100E2000284600F091FAFEBD80B598490A6810681E
:100E300000281DBF0021D0680068012100F003F8E0
:100E400000F0AEF8F1E7F0B583B006460C46FFF7C8
:100E5000B3FA01A800F044F80546019800283CD1F7
:100E60008A4F24BBB54227D3FFF7ACFA3868C16874
:100E7000CC68201DFFF790FEE069012813D1A1691D
:100E800033462A468919204600F06FF858B10020F1
:100E900000900023324600212046FFF7A1FF10B941
:100EA00000F05BF8FEE7616A20468847F7BD786886
:100EB00001684C1EA441E40FB8682246711B00F083
:100EC000E5FBFFF77FFA50B971494FF08050086099
:100ED000BFF34F8FBFF36F8FF7BDFFF773FAF7BD07
:100EE0002DE9F04182B00446FFF7C2FA674E05468D
:100EF000306985420BD30020206035612846BDE86B
:100F0000F68178603F61391D3068FFF72CFE31684B
:100F10000868E8B1C868D0F80080C768381DFFF7D6
:100F20003BFE796A38468847F8690128EFD1B869ED
:100F300040448045E5D30020009000234246002134
:100F40003846FFF74DFF0028E1D100F006F8FEE734
:100F50007068306071600120CEE7502080F3118806
:100F6000BFF34F8FBFF36F8F704738B500248A42AD
:100F700041600061454D06D38169D21A8A4206D28A
:100F8000011D686807E09A4203D2994201D3012407
:100F900003E0011D2868FFF7E6FD204632BD000092
:100FA00010B586B004E0134689182046FFF7DDFF30
:100FB000364880680023002202A900F023FA0028A6
:100FC0003FD002980028F3D4049C606910B1201D22
:100FD000FFF7E2FD01A8FFF783FF02460298092808
:100FE000E6D8DFE800F006060605232A06060523F4
:100FF000DEE70399A0690B4641182046FFF7B5FFCD
:101000000028D5D0616A20468847E0690128CFD101
:1010100000210091039AA069821800232046FFF75F
:10102000DFFE0028C4D1FFF798FFFEE70399A16116
:101030000029B8D1FFF791FFFEE72046FFF709FD31
:10104000B6E706B010BD10B5FFF72EFE0F4CA06836
:10105000C0B904F11400FFF76AFD04F12800FFF79E
:1010600066FD04F114002060002204F12800606095
:101070000C210A2000F0A4F8A06018B10FF21C01A6
:1010800000F0EFFABDE81040FFF727BE782D0120F1
:1010900004ED00E0546D722053766300546D72517C
:1010A00000000000EFF30980BFF36F8F244B1A6834
:1010B0001EF0100F08BF20ED108A20E9F04F1060DD
:1010C00008B44FF0500080F31188BFF34F8FBFF387
:1010D0006F8FFFF733FA4FF0000080F3118808BCE0
:1010E00019680868B0E8F04F1EF0100F08BFB0ECA8
:1010F000108A80F30988BFF36F8F7047104B19680F
:101100000868B0E8F04F80F30988BFF36F8F4FF0A5
:10111000000080F3118870470A480068006880F377
:10112000088862B661B6BFF34F8FBFF36F8F00DFE1
:10113000DFF81400016841F470010160704700009D
:10114000982C012008ED00E088ED00E038B504009F
:101150000D4602D100F05FF8FEE7FFF7A5FDE26B58
:10116000206C21684243881860600020A0632068DA
:10117000E26BA060521E206C216842438818E06038
:101180004FF0FF3104F144000170417065B92069EE
:1011900090B100F0DEF978B1DFF8E8144FF080503C
:1011A000086000F020F907E004F11000FFF7BFFC31
:1011B00004F12400FFF7BBFCFFF78FFD012032BDD7
:1011C000F8B506000D46174602D100F024F8FEE7F8
:1011D000002D0EBF502005FB06F05030FFF7B0FB8E
:1011E000040007D000943B4604F1500229463046E3
:1011F00000F002F82046F2BD38B5049D1C4601B946
:101200002A462A60E863296428460121FFF79EFFE9
:1012100085F84C4031BD502080F31188BFF34F8FCB
:10122000BFF36F8F70472DE9F44783B006468A46B7
:101230001F460024502516B900F0D3F8FEE7BAF196
:10124000000F01D1306C60B9022F02D1F06B012880
:101250000AD1FFF787FAC0B90398B0B100F0C1F81E
:10126000FEE700F0BEF8FEE700F0BBF8FEE70399EA
:1012700006F11000FFF78BF900F069F9FFF7A2F80B
:1012800018B9C8F8009000F0AEF8FFF70DFDB06B8C
:10129000F16BDFF8F08388424FF080593FD3022F83
:1012A0003DD00398002837D01CB96846FFF7CDF928
:1012B0000124FFF712FDFFF77FF8FFF7F5FC00F0C0
:1012C0003FF904BF0022027090F9011011F1010FE3
:1012D00004BF00224270FFF700FD03A96846FFF734
:1012E000C4F958BBFFF7E0FCB06BF16B884214BF48
:1012F00000250125FFF7F1FC002DB8D100F027F9FA
:10130000FFF760F8C1E718B1C8F8009000F06BF87B
:10131000FFF7E3FC012016E0FFF7DFFC12E03A469E
:101320005146304600F019F9716A0029EBD006F1F8
:101330002400FFF760F90028E6D1E9E700F007F99B
:10134000FFF740F80020F8E02DE9F843044688460E
:1013500015461E46502724B987F3118800F043F83C
:10136000FEE7B8F1000F01D1206C10BB022E02D1B4
:10137000E06B012822D1FFF7D5FCEFF3118900F0D3
:1013800037F801D3022E23D194F9457032464146F5
:10139000204600F0E2F817F1010F14D1606AA8B1FD
:1013A00000F01BF8002818BF002D0FD00120286086
:1013B0000CE087F3118800F016F8FEE787F3118838
:1013C00000F011F8FEE77F1C84F84570012000E072
:1013D000002089F31188BDE8F28304F12400FFF7AF
:1013E0000AB985F31188BFF34F8FBFF36F8F704732
:1013F00087F31188BFF34F8FBFF36F8FA06BE16B43
:10140000884270472DE9F44783B006469946002488
:10141000502516B9FFF7E5FFFEE75FEA010801D1A5
:10142000306C38B9FFF79EF958B9039848B1FFF707
:10143000D8FFFEE7FFF7D5FFFEE700F088F8FEF7DC
:10144000C1FFFFF731FCB06BDFF838524FF0805727
:1014500020B9039858BBFFF740FC6DE00446D6F86E
:101460000CA04146304600F0ACF8B9F1000F0ED1A7
:10147000641EB463306810B9FFF704FA7060306915
:1014800088B106F11000FFF7B6F848B90BE0706AB2
:10149000C6F80CA038B106F12400FFF7ACF810B183
:1014A0002F60FFF7A0FFFFF718FC012045E01CB9F3
:1014B0006846FFF7CAF80124FFF70FFCFEF77CFF30
:1014C000FFF7F2FB00F03CF804BF0022027090F935
:1014D000011011F1010F04BF00224270FFF7FDFB64
:1014E00003A96846FFF7C1F8002830461BD100F079
:1014F000ADF80028A1D0306830B9FFF7D5FB70688F
:10150000FFF73DF9FFF7E9FB039906F12400FFF728
:101510003EF800F01CF8FEF755FF002891D12F602F
:10152000FFF761FF8DE700F060F8FEF74BFF3046F4
:1015300000F08CF8002884D0002004B0BDE8F087CB
:1015400006F1440090F9001011F1010F7047304688
:101550004BE004F11000FFF74EB8F8B5064615460B
:10156000B46B326C002742B9316831BB7068FFF749
:1015700045F90021074671601FE065B9B06800F0C9
:10158000A9F8B068316C08447168B060884214D31F
:101590003068B06011E0F06800F09CF8306CF168E1
:1015A00040420144F1603268914202D271680844BD
:1015B000F060022D01D104B1641E641CB46338468E
:1015C000F2BD026C002A0B4600D1704710B5C1680D
:1015D00044681144C160A14224BF0168C160C16870
:1015E000BDE81040184600F075B870B582B00446EA
:1015F000FFF75AFB04F1440595F9016076B2012E1C
:1016000011DB606A78B1FFF7E8FE08B1FFF75DF81B
:10161000761EF3E7206990B1FFF79BFF08B1FFF753
:1016200054F8761E08E04FF0FF306870FFF755FB66
:10163000FFF73AFB95F9006076B2012EEADA4FF037
:10164000FF302870BDE87340FFF747BB10B5044674
:10165000FFF72AFBA06B441EA441FFF73EFBE00FFF
:1016600010BD10B50023084C54F833201AB15B1C90
:10167000082BF9D310BD44F8331004EBC3014860C4
:1016800010BD000004ED00E0382D0120F8B504463F
:101690000D461646FFF708FB04F1380797F90C00D2
:1016A00010F1010F04BF0021397397F90D0010F1FB
:1016B000010F04BF00217973FFF70FFB386828B9C9
:1016C0003246294604F12400FEF777FF2046BDE8A4
:1016D000F2408AE762B38B0708D0521E11F8013B33
:1016E00000F8013B00F024808B07F6D1830740F01F
:1016F000208000BF103A07D330B4B1E83810103A58
:10170000A0E83810F9D230BC530724BFB1E8081064
:10171000A0E8081044BF51F8043B40F8043BD2074E
:1017200024BF31F8022B20F8022B44BF0B78037042
:101730007047121F17D35B0009D151F8043B20F802
:10174000023B1B0C121F20F8023BF6D20BE051F8B3
:10175000043B00F8013B1B0A20F8023B1B0C121F44
:1017600000F8013BF3D238BF121D521E24BF11F8FE
:10177000013B00F8013BF8D8704700002DE9F84321
:10178000040016D02078DFF80063C10713D5B068D5
:1017900000F00C00042807D0B06800F00C00082806
:1017A0003ED1706841023BD53168880303D560683B
:1017B000002800F0FB802178B44F880719D5B06865
:1017C00010F00C0F07D0B06800F00C00082858D1BA
:1017D0007068410255D43168880703D5E068012854
:1017E00040F0E4803168206921F0F80141EAC0014D
:1017F00031602178080768D56069A54900285ED066
:1018000001220A6000F048F90546706F810700F177
:10181000CF8000F041F9401B0228F6D9032031E1C6
:101820006068B0F5803F06D0B0F5A02F316807D1D1
:1018300041F480213160306840F48030306006E04F
:1018400021F480313160326822F480223260606895
:1018500058B100F021F9054631688803ABD400F097
:101860001BF9401B6528F7D3D8E700F015F90546AA
:10187000306881039FD500F00FF9401B6528F7D32E
:10188000CCE7E06870B10121396000F005F9054648
:101890003068810700F1B88000F0FEF8401B022894
:1018A000F6D9BBE7386000F0F7F8054630688107E5
:1018B0009FD500F0F1F8401B0228F7D9AEE7086089
:1018C00000F0EAF80546706F810771D500F0E4F882
:1018D000401B0228F7D9A1E70528306F06D140F058
:1018E00004003067306F40F0010005E04008400020
:1018F0003067306F20F00400306741F28938A0680B
:1019000068B100F0C9F88146306F810700F1898025
:1019100000F0C2F8A0EB09004045F5D37EE700F0E7
:10192000BBF88146306F81077BD500F0B5F8A0EB9E
:1019300009004045F6D371E700F0AEF8401B0228DD
:1019400040F282806AE700F0A7F8001B022840F20C
:10195000948063E70020386600F09EF80446306803
:10196000810140F18E8000F097F8001B0228F6D923
:1019700054E701281AD0B068E26900F4800191426E
:1019800002BF00F03F01226A91420FD147F6C071B9
:10199000626A0140914202BF00F44031A26A914262
:1019A00002BF00F07060E16A88426AD0012069E0FD
:1019B000207841073AD5306C0025C1000AD4009543
:1019C0000125306C40F080503064306C00F0805065
:1019D00000900098DFF8BC80D8F80010C8051BD430
:1019E000D8F8000040F48070C8F8000000F054F807
:1019F0008146D8F80010C8050ED400F04DF8A0EBD1
:101A000009000228F5D909E73068216920F0F800BB
:101A100040EAC1003060ECE6A06801287FF45CAFCA
:101A200060E71DB1306C20F080503064A06940B395
:101A3000B16801F00C0108299BD002288AD100204E
:101A4000386600F029F80546306881013FF574AF2B
:101A5000E169206AA26A0143606A921ED20341EAE8
:101A60008011120CE06A41EA024141EA00617160B2
:101A70000121396600F010F80446306881017FF5D5
:101A800062AF0020BDE8F283003802400000474208
:101A9000800E47420070004001484068704700BF18
:101AA0000C0000202DE9F84F04460D464FF00008C9
:101AB00074487549754A0F2301262F6806FA08F6FF
:101AC00006EA0709B14540F0C8804FEA480C0327F1
:101AD00007FA0CF76FEA070E6F68012F18BF022F85
:101AE00003D0112F18BF122F13D1A768D5F80CA05F
:101AF0000EEA07070AFA0CFA4AEA0707A7606768BE
:101B000027EA06066F68C7F3001707FA08F73E438F
:101B10006660E668AF680EEA060607FA0CF73E4311
:101B2000E6604FEA88066F68022F18BF122F19D19E
:101B30004FEAD80704EB870706F01C0BD7F820A064
:101B400003FA0BFB2AEA0B0ACDF800A006F01C0AE8
:101B5000D5F810B00BFA0AFADDF800B04AEA0B0A21
:101B6000C7F820A027680EEA070E2F7907F00307B1
:101B700007FA0CF747EA0E0727606F68FF006CD57D
:101B8000002700974FEA980C176847F480471760C2
:101B900006F00C06176807F480470097009F51F87D
:101BA0002CE003FA06F72EEA070E394FBC4208BFB5
:101BB000002722D0374FBC4208BF01271DD0364F27
:101BC000BC4208BF022718D0344FBC4208BF0327CD
:101BD00013D0334FBC4208BF04270ED0314FBC4254
:101BE00008BF052709D0304FBC4208BF062704D0E4
:101BF0002E4FBC420CBF0727082707FA06F646EA15
:101C00000E0641F82C606FEA090C06680CEA060E15
:101C10006E68F70348BF49EA0E0EC0F800E0466858
:101C20000CEA060E6E68B70348BF49EA0E0EC0F80C
:101C300004E086680CEA060E6E68F70248BF49EABF
:101C40000E0EC0F808E0C6680CEA060E6E68B60212
:101C500048BF49EA0E0EC0F80CE008F10108B8F1DF
:101C60000F0F7FF629AFBDE8F18F0069084018BF5C
:101C70000120C0B2704781B002B90904FFE7816159
:101C800001B07047003C0140083801404438024030
:101C9000000002400004024000080240000C024024
:101CA000001002400014024000180240001C0240D4
:101CB0002DE9F04104000F4678D0404E306800F026
:101CC0000F00B84202D200F073F86FD120683C4D8B
:101CD000810712D5400703D5A86840F4E050A860FA
:101CE0002178080703D5A86840F46040A860A96877
:101CF000A06821F0F0010143A9602078C1074DD50B
:101D00006068012802D129688A0305E0022818BF0B
:101D1000032803D129688A0103D447E02A68910780
:101D200044D5A968890840EA8100A860FFF7B4FE9D
:101D30008046A868616800F00C00B0EB810F2DD0E0
:101D4000FFF7AAFEA0EB080041F289329042F0D3DF
:101D5000032021E02078410705D5A968E06821F437
:101D6000E0510143A9602078010706D5A8682169E0
:101D700020F4604040EAC100A86000F029F8AA6899
:101D80001049C2F30312895C0F4AC84010600F4823
:101D9000006800F049F80020BDE8F081306800F0EC
:101DA0000F008742D6D200F003F8D3D00120F3E72A
:101DB0003770316801F00F01B9427047003C0240B2
:101DC00000380240CC220008180000201400002037
:101DD00018B5124C606800F00C00042802D00828E6
:101DE00002D019E00E4812BD00232268206841028B
:101DF0002068C0F388104CBF09490A4902F03F022D
:101E0000A1FB000100F030F82168C1F30141491C39
:101E10004900B0FBF1F012BD024812BD0438024087
:101E200040787D010024F40038B50D4D0D4A297825
:101E300004464FF47A70B0FBF1F11068B0FBF1F09A
:101E400000F0C3F850B9102C08D2002221464FF000
:101E5000FF3000F09DF8AC60002032BD012032BDA3
:101E60000C000020180000201B4213D1094236D17B
:101E70002AB18446B0FBF2F002FB10C2704700F0BA
:101E8000C7B8FCD30022002370470B0002000021DA
:101E900000207047904271EB030CF6D370B5B1FA95
:101EA00081F4B3FA83F52C1BA340C4F1200532FA68
:101EB00005F63343A2405FF00046E64002E05B08CF
:101EC0005FEA3202841A71EB030524BF20462946DB
:101ED0007641F4D302000B003000002170BD012ACE
:101EE000CFD970B5140C20D0B1FA81F4B2FA82F5D2
:101EF000C4F120046419B4F12006D6D3B2405FF0D7
:101F00000044F440002502E052085FEA3303C61A99
:101F100071EB020E24BF3046714664416D41F3D32C
:101F200002000B002000290070BD0C46B1FBF2F14D
:101F300002FB11452D0445EA1045B5FBF2F402FB06
:101F4000145580B240EA0545B5FBF2F002FB105291
:101F500040EA044070BD00000901020081B002D4D3
:101F60002448815405E0244802F00F02104400F890
:101F7000041C01B07047214A13684FF6FF010002AC
:101F80000B4000F4E06018431D490843106070479F
:101F900038B51A4B1C68C4F30223C3F10704052C9F
:101FA00028BF04241D1D072D34BF0023DB1E01257F
:101FB00005FA04F4641E2140994005FA03F35B1E00
:101FC0001A401143BDE83440C6E710B5401EB0F1D9
:101FD000807F01D3012010BD0A4C60600F214FF0BB
:101FE000FF30FFF7B9FF0022A26007202060002029
:101FF00010BD000000E400E018ED00E00CED00E092
:102000000000FA0510E000E000F000B870470000A2
:102010007047000000B583B000F0A8F800F04BF85E
:1020200000F0BEF8002003210190009100238022DF
:102030000FF220110FF22500FEF7A6F80020022172
:1020400001900091002380220FF214110FF235004D
:10205000FEF79AF8FEF781F900200EBD10B5394C55
:10206000002200F00AF83220FEF755F9012200F0B4
:1020700004F83220FEF74FF9F2E740212046FFF73F
:10208000FABD000038B52F4C2F4D08212846FFF728
:10209000ECFD18B900228021FFF7F0FF102128463F
:1020A000FFF7E3FD18B901228021FFF7E7FFC82001
:1020B000FEF731F9E9E700B593B006A8302100F04A
:1020C000B7F801A8142100F0B3F8002000901F48D1
:1020D000016841F0805101600021006800F08050EB
:1020E000009000981A4800910221026842F4804250
:1020F00002600122006800F4804000900098069180
:1021000010200A900C9100200D90082148200F907B
:102110000E910420022111900992109106A8FFF758
:102120002DFB0F2002210190029100204FF48051DD
:10213000039004910590022101A8FFF7B9FD13B0A7
:1021400000BD000000000240001002404038024084
:10215000007000405461736B305F5461736B00001A
:102160005461736B315F5461736B000080B50B4831
:10217000016841F400710160026842F4806202600B
:10218000016841F4807101600320FFF7F4FE002034
:10219000FFF74AFE00F050F8002002BD003C02406C
:1021A00010B586B001A8142100F042F800241D48A3
:1021B000009401681C4C41F010010160026802F0BB
:1021C00010020092002200990092036843F08003FD
:1021D0000360016801F08001009100990092C02124
:1021E000036843F001030360006800F00100009001
:1021F00000982046FFF73FFD182000210190029132
:10220000039101A90948FFF74DFCC020019001216D
:10221000002002910390049001A92046FFF742FCA0
:1022200006B010BD303802400000024000100240ED
:102230000022FEF763BC000081B000200090002265
:102240000A48416841F480414160416801F480419D
:10225000009100990092036843F080530360006886
:1022600000F080500090009801B070474038024064
:1022700019E050F8042BD30744BFA9F101039A18C1
:10228000091F0023042942F8043BF9D25FEA817C4C
:10229000134604D54FF0000CA2F800C09B1CC907E0
:1022A00044BF0021197050F8041B0029E1D1704788
:1022B0000448054A016841F4700101604FF0006074
:1022C0001060704788ED00E008ED00E000000000BD
:1022D00000000000010203040607080910B450F8CA
:1022E000041B79B10268436802440830DC0744BF2C
:1022F000A9F10104E31852F8044B43F8044B091FF9
:10230000F9D1ECE710BC704710B507497944183192
:10231000064C7C44163404E00A68081D11448847C2
:102320000146A142F8D110BD640000008400000005
:102330007047FEE7FEE7FEE7FEE7704780B5FEF771
:1023400011FA012818BFFEF7D9FC00F005F8BDE826
:102350000140FFF759BE0000024841680278891821
:10236000416070470C0000204EF68851CEF200010B
:10237000086840F470000860BFF34F8FBFF36F8FA1
:102380004FF00070E1EE100A70470000E5FEFFFF1D
:10239000982D01001C0000200000000041FFFFFFFD
:1023A0001C0000000C0000000000002000000000E5
:1023B00000000000AAAAAAAA000000000100000074
:1023C00000000000100000000024F40000F00BF8F2
:1023D000002801D0FFF798FF0020AFF30080FFF73F
:1023E00019FE00F002F80120704700F001B800006B
:1023F0000746384600F002F8FBE7000080B5AFF36F
:102400000080024A11001820ABBEFBE72600020044
:102410000148804701480047B122000821240008F4
:10242000AFF30080FFF7A0FFFFF7D0FFFFF7FEBF7D
:10243000FFF7FEBFFFF7FEBFFFF7FEBFFFF7FEBFD0
:10244000FFF7FEBFFFF7FEBFFFF7FEBFFFF7FEBFC0
:10245000FFF7FEBFFFF7FEBFFFF7FEBFFFF7FEBFB0
:10246000FFF7FEBFFFF7FEBFFFF7FEBFFFF7FEBFA0
:10247000FFF7FEBFFFF7FEBFFFF7FEBFFFF7FEBF90
:10248000FFF7FEBFFFF7FEBFFFF7FEBFFFF7FEBF80
:10249000FFF7FEBFFFF7FEBFFFF7FEBFFFF7FEBF70
:1024A000FFF7FEBFFFF7FEBFFFF7FEBFFFF7FEBF60
:1024B000FFF7FEBFFFF7FEBFFFF7FEBFFFF7FEBF50
:1024C000FFF7FEBFFFF7FEBFFFF7FEBFFFF7FEBF40
:1024D000FFF7FEBFFFF7FEBFFFF7FEBFFFF7FEBF30
:1024E000FFF7FEBFFFF7FEBFFFF7FEBFFFF7FEBF20
:1024F000FFF7FEBFFFF7FEBFFFF7FEBFFFF7FEBF10
:10250000FFF7FEBFFFF7FEBFFFF7FEBFFFF7FEBFFF
:10251000FFF7FEBFFFF7FEBFFFF7FEBFFFF7FEBFEF
:10252000FFF7FEBFFFF7FEBFFFF7FEBFFFF7FEBFDF
:10253000FFF7FEBFFFF7FEBFFFF7FEBFFFF7FEBFCF
:10254000FFF7FEBFFFF7FEBFFFF7FEBFFFF7FEBFBF
:10255000FFF7FEBFFFF7FEBFFFF7FEBFFFF7FEBFAF
:10256000FFF7FEBFFFF7FEBFFFF7FEBFFFF7FEBF9F
:0400000508002421AA
:00000001FF
